:100000000C94D4040C94142E0C94F5040C94F50464
:100010000C94F5040C94F5040C94F5040C94F5047C
:100020000C94F5040C94F5040C94F5040C94F5046C
:100030000C94F5040C94F5040C94F5040C94F5045C
:100040000C94F5040C9423170C94F5040C94F5040B
:100050000C94F5040C94FA190C94F5040C94DA1928
:100060000C94F5040C945D150C941B150C94F5047C
:100070000C94F5040C94F5040C94F5040C94F5041C
:100080000C94F5040C94F5040C94F5040C94F5040C
:100090000C94F5040C94F5040C94F5040C94F504FC
:1000A0000C94F5040C94F5040C94F5040C94F504EC
:1000B0000C94F5040C94F5040C94F5040C94F504DC
:1000C0000C94F5040C94F5040C94F5040C94F504CC
:1000D0000C94F5040C94F5040C94F5040C94F504BC
:1000E0000C94F504E824E824E824E824F324FC2410
:1000F00005250E2517252E2545255C2573258025EC
:100100008D259A25A725BA25C325CC25D525E025FB
:10011000E925F82509261826272638264B265A26AB
:1001200063266C267526802689269026084AD73BAA
:100130003BCE016E84BCBFFDC12F3D6C74319ABDB6
:1001400056833DDA3D00C77F11BED9E4BB4C3E91DA
:100150006BAAAABE000000803F05A84CCDB2D44EC9
:10016000B93836A9020C50B9918688083CA6AAAACB
:100170002ABE000000803F290A0D0028003E0D0A1B
:10018000002C4C6E3A002C004374733A002C002C67
:10019000506F733A003C436865636B003C416C618F
:1001A000726D003C486F6D65003C486F6C64003CAC
:1001B00052756E003C5175657565003C49646C650F
:1001C000007D0A0D0020283A00292C2063283A00DF
:1001D00020283A007B7A3A20007D0A0D002C2076F8
:1001E0003A007B653A005D0D0A005B302E39652CC4
:1001F000204A756C20323820323031342031323A86
:1002000034363A333520284B65794D652032353602
:100210003029203A000D0A003D00244E005D0D0AF1
:1002200000204600205400204D3800204D39002089
:100230004D3500204D3400204D3300204D3200203C
:100240004D3100204D3000204739340020473933EC
:100250000020473931002047393000204732300034
:100260002047323100204736360020473230002008
:1002700047323100204731390020473138002047CC
:100280003137002047005B473830005B4733005B65
:100290004732005B4731005B4730005D0D0A005B71
:1002A000544C4F3A005D0D0A002C005B4739323A3E
:1002B000005D0D0A002C003A003330003238005B3C
:1002C00047005D0D0A002C005B5052423A000D0AB7
:1002D0000020286465636179206D6F64652C202897
:1002E000302E2E33292900290D0A2433353D0020D4
:1002F000286D6963726F7374657073203A20000D06
:100300000A2433343D002028686F6D696E672070C1
:10031000756C6C2D6F66662C206D6D290020286829
:100320006F6D696E67206465626F756E63652C2002
:100330006D736563290D0A2433333D002028686FEF
:100340006D696E67207365656B2C206D6D2F6D690F
:100350006E290D0A2433323D002028686F6D696EC6
:100360006720666565642C206D6D2F6D696E290DA3
:100370000A2433313D00290D0A2433303D00202862
:10038000686F6D696E672064697220696E76657248
:1003900074206D61736B3A002028686F6D696E6719
:1003A000206379636C652C20626F6F6C290D0A24C1
:1003B00032393D00202868617264206C696D69746F
:1003C000732C20626F6F6C290D0A2432383D002097
:1003D00028736F6674206C696D6974732C20626F6A
:1003E0006F6C290D0A2432373D002028696E76652E
:1003F0007274206C696D69742070696E732C206250
:100400006F6F6C290D0A2432363D002028696E7604
:10041000657274207374657020656E61626C652C02
:1004200020626F6F6C290D0A2432353D002028614F
:1004300075746F2073746172742C20626F6F6C29F5
:100440000D0A2432343D0020287265706F727420CA
:10045000696E636865732C20626F6F6C290D0A24C6
:1004600032333D00202861726320746F6C657261C5
:100470006E63652C206D6D290D0A2432323D0020FB
:10048000286A756E6374696F6E206465766961743D
:10049000696F6E2C206D6D290D0A2432313D0020CC
:1004A00028737465702069646C652064656C61797B
:1004B0002C206D736563290D0A2432303D00290D0F
:1004C0000A2431393D00202864697220706F7274EB
:1004D00020696E76657274206D61736B3A00290D28
:1004E0000A2431383D0020287374657020706F72C3
:1004F0007420696E76657274206D61736B3A0020AA
:1005000028737465702070756C73652C2075736525
:1005100063290D0A2431373D00202863206D61785E
:100520002074726176656C2C206D6D290D0A243162
:10053000363D0020287A206D6178207472617665DE
:100540006C2C206D6D290D0A2431353D0020287951
:10055000206D61782074726176656C2C206D6D2938
:100560000D0A2431343D00202878206D61782074F4
:10057000726176656C2C206D6D290D0A2431333D36
:100580000020286320616363656C2C206D6D2F73E0
:1005900065635E32290D0A2431323D0020287A201D
:1005A000616363656C2C206D6D2F7365635E32290A
:1005B0000D0A2431313D0020287920616363656C88
:1005C0002C206D6D2F7365635E32290D0A24313046
:1005D0003D0020287820616363656C2C206D6D2FB1
:1005E0007365635E32290D0A24393D00202863209B
:1005F0006D617820726174652C206D6D2F6D696E50
:10060000290D0A24383D0020287A206D6178207257
:100610006174652C206D6D2F6D696E290D0A24376C
:100620003D00202879206D617820726174652C204E
:100630006D6D2F6D696E290D0A24363D00202878D6
:10064000206D617820726174652C206D6D2F6D694D
:100650006E290D0A24353D002028632C2073746513
:10066000702F6D6D290D0A24343D0020287A2C202E
:10067000737465702F6D6D290D0A24333D00202899
:10068000792C20737465702F6D6D290D0A24323D0D
:10069000002028782C20737465702F6D6D290D0A49
:1006A00024313D0024303D002424202876696577DC
:1006B000204772626C2073657474696E6773290DCC
:1006C0000A242320287669657720232070617261CF
:1006D0006D6574657273290D0A2447202876696553
:1006E0007720706172736572207374617465290D6F
:1006F0000A244E20287669657720737461727475B8
:100700007020626C6F636B73290D0A24783D7661EB
:100710006C7565202873617665204772626C207362
:10072000657474696E67290D0A244E783D6C696E94
:10073000652028736176652073746172747570200A
:10074000626C6F636B290D0A24432028636865631C
:100750006B2067636F6465206D6F6465290D0A24E3
:100760005820286B696C6C20616C61726D206C6F15
:10077000636B290D0A2448202872756E20686F6DFE
:10078000696E67206379636C65290D0A7E20286392
:1007900079636C65207374617274290D0A212028B5
:1007A0006665656420686F6C64290D0A3F202863C4
:1007B000757272656E7420737461747573290D0A95
:1007C0005E20286C696D69742070696E73290D0A4A
:1007D0006374726C2D78202872657365742047727B
:1007E000626C290D0A000D0A4772626C20302E39A6
:1007F00065205B27242720666F722068656C705D1A
:100800000D0A005D0D0A0044697361626C65640045
:10081000456E61626C65640043617574696F6E3A20
:1008200020556E6C6F636B656400272448277C2716
:1008300024582720746F20756E6C6F636B005265AF
:1008400073657420746F20636F6E74696E756500D4
:100850005B000D0A0050726F6265206661696C0072
:1008600041626F727420647572696E672063796388
:100870006C6500486172642F736F6674206C696DDB
:10088000697400414C41524D3A20000D0A00496EF6
:1008900076616C69642067636F64652049443A003F
:1008A000556E646566696E65642066656564207270
:1008B00061746500556E737570706F727465642035
:1008C000636F6D6D616E64004D6F64616C20677263
:1008D0006F75702076696F6C6174696F6E004C691A
:1008E0006E65206F766572666C6F7700486F6D6914
:1008F0006E67206E6F7420656E61626C6564004186
:100900006C61726D206C6F636B004E6F7420696454
:100910006C6500454550524F4D20726561642066FC
:1009200061696C2E205573696E6720646566617518
:100930006C74730056616C7565203C2033207573B0
:1009400065630053657474696E67206469736162DE
:100950006C65640056616C7565203C203000496E02
:1009600076616C69642073746174656D656E740082
:10097000426164206E756D62657220666F726D6192
:100980007400457870656374656420636F6D6D6194
:100990006E64206C6574746572006572726F723A71
:1009A00020006F6B0D0A000011241FBECFEFD1E2B3
:1009B000DEBFCDBF00E00CBF12E0A0E0B2E0E2EC91
:1009C000FCE700E00BBF02C007900D92A632B10712
:1009D000D9F71CE0A6E2B2E001C01D92AF34B10726
:1009E000E1F70E94F7040C945F3E0C9400001F9303
:1009F0000E94EA140E94A8260E94441A0E94D0393C
:100A000084E2E4E8FAE0DF011D928A95E9F71092AA
:100A1000A80A1092A90A1092AA0A1092AB0A1EBA4A
:100A200081E08093840A789411E00E94AF150E94BF
:100A3000300A0E94E4140E94E7140E94FB2D0E94D9
:100A400059320E948C280E940A1A0E94982C0E94F7
:100A50009C0A1092840A1EBA80913D0C81FF03C04B
:100A60001093860A02C01092860A0E944E16DDCFAD
:100A7000BF92CF92DF92EF92FF920F931F93CF938B
:100A8000DF93EC016A017B01B22E80913D0C85FF62
:100A900003C0CE010E9446308091850A8230D9F091
:100AA0000E94B4158091840A8823A9F40E94EA2840
:100AB000882319F00E944916F3CFCE01B701A60191
:100AC0002B2D0E94F2288091850A882321F488E04A
:100AD000E4E8FAE08183DF91CF911F910F91FF90BD
:100AE000EF90DF90CF90BF9008952F923F924F925A
:100AF0005F926F927F928F929F92AF92BF92CF92AE
:100B0000DF92EF92FF920F931F93DF93CF93CDB7B6
:100B1000DEB7E6970FB6F894DEBF0FBECDBF9E8757
:100B20008D87788B6F872A0109871A872B873C87E7
:100B3000C98ADA8AEB8AFC8AAB8E9924880C991CC4
:100B4000880C991C880D991D9D8F8C8F9201280D02
:100B5000391D3F8F2E8FD901CD90DD90ED90FC9007
:100B6000C701B601EC8DFD8D208131814281538119
:100B70000E94263A6CA37DA38EA39FA32D960FAD52
:100B80002D9710E0000F111F000F111F2D853E85BE
:100B9000200F311F39A328A3C201800F911F9BA3EF
:100BA0008AA3DC014D905D906D907C90C301B201F1
:100BB000F90120813181428153810E94263A68A740
:100BC00079A78AA79BA7D701C601B0588D839E83BA
:100BD000AF83B887D301C201B05889839A83AB83AE
:100BE000BC83EF85F889E80DF91D608171818281F0
:100BF0009381BCA1ADA1FEA1EFA12B2F3A2F4F2FC6
:100C00005E2F0E94253AE62EC72EA82E892EEF854C
:100C1000F889E00FF11F6081718182819381B8A50D
:100C2000A9A5FAA5EBA52B2F3A2F4F2F5E2F0E94D7
:100C3000253AF62E072F182F992E6D817E818F81F0
:100C400098852F2D302F412F592D0E943D3D2B018E
:100C50003C0169817A818B819C812E2D3C2D4A2D0E
:100C6000582D0E943D3D9B01AC01C301B2010E9481
:100C7000253A2B013C016D817E818F8198852E2D37
:100C80003C2D4A2D582D0E943D3D5B016C01698130
:100C90007A818B819C812F2D302F412F592D0E94DD
:100CA0003D3D9B01AC01C601B5010E94263A9B0166
:100CB000AC01C301B2010E94993AF62E172F882E7B
:100CC000092F8091AC0A8230B1F46F2D712F882DDD
:100CD000902F20E030E0A9010E94023D87FD24C052
:100CE0006F2D712F882D902F2BED3FE049EC50E4B4
:100CF0000E94253A15C06F2D712F882D902F20E06E
:100D000030E0A9010E94FF3A181674F06F2D712F80
:100D1000882D902F2BED3FE049EC50E40E94263ABD
:100D2000F62E172F882E092FA090390CB0903A0C70
:100D3000C0903B0CD0903C0C69857A858B859C8556
:100D40009B01AC010E94263AA60195010E94253A1A
:100D50009B01AC01C601B5010E943D3D0E94CA3D08
:100D60005B016C016F2D712F882D902F20E030E0FA
:100D700040E05FE30E943D3D29853A854B855C85D7
:100D80000E943D3D9F77A60195010E94063B0E946F
:100D9000DC3B0E94733B7A876987DB01109709F47B
:100DA000DDC1BB8DBB23A1F080E090E00E949F3BA2
:100DB0009B01AC01B989AA89FB89EC896B2F7A2F39
:100DC0008F2F9E2F0E943D3D698B7A8B8B8B9C8B46
:100DD00029853A85B90180E090E00E949F3B5B0144
:100DE0006C016F2D712F882D902FA60195010E9407
:100DF000063B6D8B7E8B8F8B988F2E968FAD2E97AB
:100E000090E0880F991F880F991FAD85BE85A80FA8
:100E1000B91FBA8FA98FEF85F8898E0F9F1FDC014C
:100E20006D917D918D919C91E98DFA8D208131811B
:100E3000428153810E94253AA60195010E94063BFA
:100E40006BAB7CAB8DAB9EAB5D894E893F89288DAA
:100E5000652F742F832F922FDA01F9012B2F3A2F50
:100E60004F2F5E2F0E943D3D9B01AC0160E070E082
:100E700080E090E40E94253AF62E072F182FC92E05
:100E80005D894E893F89288D652F742F832F922F7E
:100E90002BEA3AEA4AE25EE30E943D3D4B015C01E7
:100EA0006F2D702F812F9C2D20E030E040E850E422
:100EB0000E94263A9B01AC01C501B4010E943D3D50
:100EC0006CA77DA78EA79FA76F2D702F812F9C2DBC
:100ED00020E030E040E05FE30E943D3DC62E78AB6D
:100EE00089AB9AAB882481E0282E312C9C2C30C110
:100EF000F82DF43108F063C06D817E818F81988573
:100F0000BCA5ADA5FEA5EFA52B2F3A2F4F2F5E2F29
:100F10000E943D3D7B018C0169817A818B819C819E
:100F2000A8A9F9A9EAA9292D3A2F4F2F5E2F0E94CF
:100F30003D3D9B01AC01C801B7010E94263AD62E67
:100F4000C72EA82E492E6D817E818F819885A8A9F4
:100F5000F9A9EAA9292D3A2F4F2F5E2F0E943D3D76
:100F6000162F072FF82EE92E69817A818B819C81BB
:100F7000BCA5ADA5FEA5EFA52B2F3A2F4F2F5E2FB9
:100F80000E943D3D9B01AC01D801F7016B2F7A2FE8
:100F90008F2F9E2F0E94253A262F372F482F592F0B
:100FA0002D833E834F8358878394A601852F942FEA
:100FB000AA2DB42D89839A83AB83BC8372C0B101FF
:100FC00080E090E00E949F3BBD89AE89FF89E88D5B
:100FD0002B2F3A2F4F2F5E2F0E943D3D7B018C011E
:100FE0007F2D912F0E94033B69837A838B839C839F
:100FF0006E2D7F2D802F912F0E94C03D5B016C01D3
:10100000AE8DBF8DED90FD900D911C9117FB10954D
:1010100017F91095EAA1FBA140805180628073808E
:10102000C801B70129813A814B815C810E943D3D15
:101030006D837E838F839887C301B201A6019501DA
:101040000E943D3D9B01AC016D817E818F81988521
:101050000E94263A262F372F482F592F2D833E8363
:101060004F835887C801B701A60195010E943D3DF5
:101070007B018C01C301B20129813A814B815C81E2
:101080000E943D3D9B01AC01C801B7010E94253A79
:10109000262F372F482F592F29833A834B835C8380
:1010A00088245CA14DA13EA12FA1652F742F832F11
:1010B000922F2D813E814F8158850E94263AAC8D1A
:1010C000BD8D6D937D938D939C93139758A549A5E2
:1010D0003AA52BA5652F742F832F922F29813A8152
:1010E0004B815C810E94263AE8A1F9A1608371835B
:1010F00082839383A98DBA8D6D917D918D919C9101
:10110000BBA9ACA9FDA9EEA92B2F3A2F4F2F5E2F1B
:101110000E94263AE98DFA8D6083718382839383DE
:101120008D859E85F989EA893B892C894F2F5E2F11
:10113000632F722F2B8D60960EAD1FAD60970E94AE
:1011400038058091840A8823D1F40894211C311C2D
:1011500029853A852216330608F4CACE8F859889E8
:10116000F989EA893B892C894F2F5E2F632F722FD3
:101170002B8D60960EAD1FAD60970E943805E696E8
:101180000FB6F894DEBF0FBECDBFCF91DF911F9198
:101190000F91FF90EF90DF90CF90BF90AF909F9016
:1011A0008F907F906F905F904F903F902F90089519
:1011B000EF92FF920F931F93CF93DF937B018C01EC
:1011C0008091850A823009F447C0C801B70120E048
:1011D00030E040EA51E40E943D3D0E94DC3B0E9429
:1011E000733BEB010E943216C801B70120E030E0EA
:1011F0004AE754E40E943D3D7B018C0182E390E08C
:10120000C89FB001C99F700DD89F700D112480E058
:1012100090E00E949F3B9B01AC01C801B7010E9476
:10122000253A0E94DC3B0E94733BDC01CB010E940B
:10123000982D10C00E94B41521978091840A8823AC
:1012400059F48FEF90E7A2E081509040A040E1F781
:1012500000C00000209771F7DF91CF911F910F918F
:10126000FF90EF9008951F93182F84E08093850AD4
:101270000E94F62D812F84700E941E2E812F827075
:101280000E941E2E812F89700E941E2E0E94B4156E
:101290008091840A882341F40E949C0A1092850A56
:1012A0000E94F4160E94FB2D1F9108952F923F92E9
:1012B0005F926F927F928F929F92AF92BF92CF92E6
:1012C000DF92EF92FF920F931F93DF93CF9300D0A3
:1012D0000F92CDB7DEB7F82EE92E5A016B01522ED0
:1012E00018018091850A803111F00E9449160E94F0
:1012F00032168091840A882309F06BC08F2D9E2DB1
:10130000B601A501252D81010E94380581E0809359
:10131000A90AF19A0E94B4158091840A882309F0E1
:1013200058C08091850A882311F0883099F7809100
:10133000A90A883009F4F69A0E94B4158091840AAB
:10134000882309F046C008E91AE051EF852E5BE0DA
:10135000952EC701692E7E2CF801619171918191C2
:1013600091918F01F40121913191419151914F015E
:1013700029833A834B835C830E94A13B29813A8174
:101380004B815C810E94063BF301619371938193D1
:1013900091933F01FAE0083A1F07F1F60E94B41555
:1013A0000E940A1A0E948C280E94982C8F2D9E2D34
:1013B000B601A501252D81010E943805F19A0E94F0
:1013C00032168091840A882321F40E949C0A0E948C
:1013D00039350F900F900F900F90CF91DF911F91A3
:1013E0000F91FF90EF90DF90CF90BF90AF909F90C4
:1013F0008F907F906F905F903F902F900895F49919
:101400000CC0F49A0E94E5140E94E8148091850AA9
:10141000847319F0F59A0E94F41608950F931F93A0
:10142000CF93DF93CFEBDAE001E21BE06991799192
:1014300089919991F80121913191419151918F01B7
:101440000E94FF3A882331F4FAE0CF3CDF0771F7BE
:1014500081E001C080E0DF91CF911F910F9108954D
:10146000AF92BF92CF92DF92EF92FF920F931F93B2
:10147000CF93DF936CEA7AE087E4FB0111928A95BF
:10148000E9F780E06D5D7F4F0E949224882319F474
:1014900087E00E947F3260E070E080E291E420917A
:1014A000F10B3091F20B4091F30B5091F40B0E9431
:1014B000063B162F072FF82EE92EC5EFDBE029910A
:1014C00039914991599160E070E080E291E40E9485
:1014D000063BD62EC72EB82EA92EA8019701652F40
:1014E000702F832F9E2DD601F5012B2F3A2F4F2FD2
:1014F0005E2F0E94FF3A87FD02C086017501FCE065
:10150000C130DF07E1F6A8019701852F902FA32FA7
:10151000BE2D8093F30A9093F40AA093F50AB0933A
:10152000F60ADF91CF911F910F91FF90EF90DF901E
:10153000CF90BF90AF900895AF92BF92CF92DF92BD
:10154000EF92FF920F931F93CF93DF93C8E8DAE0F7
:1015500001EF1BE08FEBE82E8AE0F82E699179917C
:1015600089919991F801A190B190C190D1908F018A
:101570000E94A13BA60195010E94063BF7016193E1
:101580007193819391937F01FAE0C839DF0731F7B6
:10159000DF91CF911F910F91FF90EF90DF90CF904F
:1015A000BF90AF9008952F923F924F925F926F92AB
:1015B0007F928F929F92AF92BF92CF92DF92EF92E3
:1015C000FF920F931F93DF93CF93CDB7DEB7E397CF
:1015D0000FB6F894DEBF0FBECDBF9FA38EA3A7EFBB
:1015E000BAE08AE3FD0111928A95E9F71196ECEAD7
:1015F000FAE08AE001900D928150E1F719824424CB
:101600005524222433241AA6EE24DD2471E0672E0B
:10161000712CFF24F39462E0C62EADC2912F915439
:101620009A3110F00C949C148F5F89838EA19FA136
:10163000BE016F5F7F4FAE014E5F5F4F0E94E22C95
:10164000882311F40C949E148A809B80AC80BD800A
:10165000C501B4010E940B3E0E94733B062F70E04F
:10166000882777FD8095982F0E94A13B9B01AC01B4
:10167000C501B4010E94253A20E030E048EC52E474
:101680000E943D3D0E94A03D0E94733B173421F013
:101690001D3409F060C123C10B3209F4F0C00C32D3
:1016A00000F5043170F4013108F0BDC0043009F4D4
:1016B00045C0043008F48CC00A3011F00C94B0140A
:1016C00035C00C3199F10D3128F4063110F00C942D
:1016D000B014C9C00E3151F1063211F00C94B0149F
:1016E00077C0003509F47AC0013590F40C3358F412
:1016F000063308F0D7C0013309F4C1C0053311F037
:101700000C94B0141BC0023411F00C94B014B4C08B
:101710000C3561F00D3528F40A3510F40C94B01432
:1017200090C00F3510F00C94B01494C0662331F4BF
:10173000DD2011F00C94A014DD24D3940C31B1F011
:101740000D3130F4043061F00A3009F0B0C00BC044
:10175000053359F10C3569F10E3109F0A8C016C0F6
:10176000F092F70AA4C0C092F70AA1C0662329F03C
:101770006A3011F00C94B01404C0F3E0F093F70A4F
:1017800003C024E02093F70A80E098C0662329F084
:101790006A3011F00C94B01404C035E03093F70AAD
:1017A000F3CF86E08093F70AEFCF97E09093F70AA4
:1017B0007EC0662329F06A3011F00C94B01404C086
:1017C000A8E0A093F70AE0CFB9E0B093F70ADCCF26
:1017D000DD2011F00C94A01452E0D52E023099F0C7
:1017E000033030F4002361F0013009F062C00BC017
:1017F000063261F0003599F0033009F05AC003C099
:101800001092F80A56C00093F80A53C0643111F0E0
:101810000C94B014E4E0E093F80A81E04FC0F5E0E6
:10182000F093F80A46C0023129F0033131F01092EA
:10183000FC0A05C0F092FC0A02C0C092FC0A82E0D9
:1018400039C00A3519F41092FB0A02C0F092FB0A63
:1018500083E030C00D3519F4F092F90A02C01092FD
:10186000F90A84E027C0043119F4F092FA0A02C0A0
:101870001092FA0A85E01EC0C092FA0AFBCFDD2062
:1018800011F00C94A014013319F41092FD0A06C053
:101890006A3011F00C94B014F092FD0A86E043E037
:1018A000D42E0CC006530093FE0A87E003C080E0EC
:1018B00001C081E0662311F00C94A214930102C0D0
:1018C000220F331F8A95E2F7C90122213321211506
:1018D000310511F00C94BC14282A392A4CC1662316
:1018E00011F00C94A214063018F40330D0F40AC09E
:1018F000083010F40C94B0140A3010F10E3111F0CD
:101900000C94B014023041F00E3131F0002311F08C
:101910000C94B01481E001C082E08093FF0A0C9423
:10192000B014043021F0053039F081E001C082E0CC
:101930008093010B0C94B0141092010B0C94B01412
:10194000093029F082E08093000B0C94B0141092BF
:10195000000B0C94B0141E3409F482C01F34B4F48C
:10196000193409F44AC01A343CF4133441F11634E2
:1019700011F00C94B01433C01B3409F45CC01B3458
:101980000CF448C01C3409F0EBC766C0143509F4E8
:10199000CDC0153554F4123509F47CC013350CF064
:1019A00087C0103509F0DCC767C0193509F49EC03F
:1019B0001A3509F4ABC0183509F0D2C787C08A813F
:1019C0009B81AC81BD8180932D0B90932E0BA093B6
:1019D0002F0BB093300B38E0E32A8DE0A8C08A814A
:1019E0009B81AC81BD818093020B9093030BA093EC
:1019F000040BB093050B80E09AC08092060B909286
:101A0000070BA092080BB092090B8AA581608AA7E8
:101A100081E08DC08A819B81AC81BD8180930A0B5E
:101A200090930B0BA0930C0BB0930D0B9AA59260A7
:101A30009AA782E07CC08A819B81AC81BD81809322
:101A40000E0B90930F0BA093100BB093110BAAA544
:101A5000A460AAA783E06BC00093120B84E067C068
:101A6000C501B4010E940B3E0E94733B7093140B9E
:101A70006093130B85E05BC08A819B81AC81BD8143
:101A80008093150B9093160BA093170BB093180B24
:101A900086E04DC08A819B81AC81BD818093190B0A
:101AA00090931A0BA0931B0BB0931C0B87E03FC0C5
:101AB0008A819B81AC81BD8180931D0B90931E0B0D
:101AC000A0931F0BB093200B88E031C08A819B81CB
:101AD000AC81BD818093210B9093220BA093230BAB
:101AE000B093240BB1E0EB2A8AE021C08A819B816C
:101AF000AC81BD818093250B9093260BA093270B7F
:101B0000B093280BE2E0EE2A8BE011C08A819B8122
:101B1000AC81BD818093290B90932A0BA0932B0B52
:101B2000B0932C0BF4E0EF2A8CE001C089E0830134
:101B3000082E02C0000F111F0A94E2F79801242119
:101B400035212115310509F0FFC621E633E002C039
:101B5000359527958A95E2F720FF0BC06A817B8136
:101B60008C819D8120E030E0A9010E94FF3A87FD31
:101B7000EDC6402A512A8981EEA1FFA1E80FF11D8F
:101B80001081112309F04ACDEE2021F0DD2011F45F
:101B900032E0D32E45FE06C08091130B9091140BBA
:101BA00097FDD6C68091F90A813051F43D2D32302F
:101BB00011F440FEDDC68091FA0A8230E9F5D0C604
:101BC0008091AD0A8823C1F540FE26C08091FA0AB3
:101BD0008130B9F46091020B7091030B8091040B7A
:101BE0009091050B23E333E34BEC51E40E943D3D20
:101BF0006093020B7093030B8093040B9093050B7F
:101C00001BC08230C9F48091F30A9091F40AA0912C
:101C1000F50AB091F60A08C08091BA0A9091BB0A01
:101C2000A091BC0AB091BD0A8093020B9093030B64
:101C3000A093040BB093050B50FC10C08091B60A22
:101C40009091B70AA091B80AB091B90A80931D0B80
:101C500090931E0BA0931F0BB093200B8091F70A5B
:101C6000813031F446FE78C68FEB9FEF482259222F
:101C70008091FC0A823088F490E0FC01E050FE4F35
:101C8000A081ADA7FC01EE5FFD4FB081BEA78C5FC8
:101C90009D4FFC01F081FBAB05C01BAA22E02EA7E3
:101CA00031E03DA7F090FA0AFF2009F441C001E2BB
:101CB0001BE021EFA22E2BE0B22E882499246E2C5B
:101CC0007724C301082C02C0959587950A94E2F702
:101CD00080FF21C08F2D823069F4D8016D917D91F4
:101CE0008D919C91F50120813181428153810E9427
:101CF000063B0BC0F801608171818281938123E3EF
:101D000033E34BEC51E40E943D3DD8016D937D934C
:101D10008D939C9313970894811C911C0C5F1F4F0B
:101D2000E4E0F0E0AE0EBF1EF4E08F16910449F639
:101D30002D2D233041F48091FD0A813021F43E2D78
:101D4000343009F007C6DE011696EFECFAE080E1C8
:101D500001900D928150E1F727FE11C08091FE0A9B
:101D6000873008F0FBC59091B20A981741F0BE0188
:101D70006A5F7F4F0E949224882309F4F3C5F09094
:101D8000F70A8F2D823021F0883009F013C1A4C0EA
:101D9000EE2009F4F7C5C20180759070009709F430
:101DA000DBC56091150B7091160B8091170B90910C
:101DB000180B0E940B3E0E94733B673008F0CEC5A3
:101DC0008091120B843129F0823009F0C9C547FC9B
:101DD000C7C5662319F0862F815002C08091FE0A84
:101DE0008E010A5E1F4FB8010E949224882309F4D5
:101DF000B9C5F090120B8091EF0A9091F00AA09172
:101E0000F10AB091F20A8EA39FA3A8A7B9A791E205
:101E1000892E9BE0992E8FEBA82E8AE0B82E66249F
:101E200077242E2C3324C101062C02C0959587956A
:101E30000A94E2F780FF3BC09F2D943171F5D501E4
:101E40006D917D918D919C91139790962D913D91DF
:101E50004D915C9193970E94253AF4012081318144
:101E6000428153810E94253A262F372F482F592F20
:101E7000D8012D933D934D935C931397B62DB230BB
:101E8000B1F42EA13FA148A559A50E94253AF80119
:101E900060837183828393830AC0F401808191817E
:101EA000A281B381F80180839183A283B3830894D4
:101EB000611C711C0C5F1F4F24E030E0820E931EEA
:101EC000A20EB31E34E06316710409F0ACCF8FEAA2
:101ED0009FEF4822592211C1EE2009F453C5809189
:101EE000EF0A9091F00AA091F10AB091F20A8EA344
:101EF0009FA3A8A7B9A701E21BE0BFEB8B2EBAE016
:101F00009B2EA6E06A2E712C6C0E7D1EAA24BB248B
:101F10002E2C3324C1010A2C02C0959587950A9472
:101F2000E2F780FF2CC0D4016D917D918D919C9141
:101F3000F30120813181428153810E94253AD801E9
:101F40002D913D914D915C910E94253A262F372F7E
:101F5000482F592FF8012083318342835383FA2D70
:101F6000F230B9F42EA13FA148A559A50E94253A07
:101F7000D8016D937D938D939C9313970AC0F401C0
:101F800080A191A1A2A1B3A1F80180839183A28332
:101F9000B3830894A11CB11C0C5F1F4F24E030E0F8
:101FA000820E931E620E731E34E0A316B10409F074
:101FB000B1CFA3C08D2D833009F487C0EE2009F482
:101FC00084C0C090FB0A8091EF0A9091F00AA09122
:101FD000F10AB091F20A8EA39FA3A8A7B9A7FFEBBD
:101FE0008F2EFAE09F2E01E21BE0E6E06E2E712CB0
:101FF0006C0E7D1EAA24BB242E2C3324C1010A2C76
:1020000002C0959587950A94E2F780FD0BC0F40114
:1020100080819181A281B381F80180839183A28321
:10202000B38343C0FF2DF73009F43FC0CC2061F5E6
:10203000D3016D917D918D919C91F40120A131A1ED
:1020400042A153A10E94263AD8012D913D914D9174
:102050005C910E94263A262F372F482F592FF801DE
:102060002083318342835383FA2DF230F1F42EA181
:102070003FA148A559A50E94263AD8016D937D93AA
:102080008D939C93139711C0F801608171818281B7
:102090009381D4012D913D914D915C910E94263AFE
:1020A000F80160837183828393830894A11CB11C1F
:1020B00024E030E0820E931E0C5F1F4F620E731EF1
:1020C00034E0A316B10409F099CF8091F70A853066
:1020D00031F0873069F0833081F486E001C087E019
:1020E000BE016A5E7F4F0E949224882331F43AC475
:1020F0008091F80A823008F037C41091F80A153040
:1021000041F4EE2009F453C28D2D813009F02EC424
:102110004EC29D2D923009F04AC21123E1F0609128
:10212000020B7091030B8091040B9091050B20E042
:1021300030E0A9010E94FF3A882309F419C4143041
:1021400030F4123060F4113009F031C204C01430A0
:1021500009F02DC21EC2EE2009F428C228C2EE20CA
:1021600009F410C4BDA5AB2FB0E0B8ABAFA7FEA576
:10217000EF2FF0E0FAABE9AB81E090E08C010EA428
:1021800002C0000F111F0A94E2F70DA402C0880FCD
:10219000991F0A94E2F7082B192BFF24E022F12261
:1021A000E114F10409F4E6C3F090FA0A2F2D22306D
:1021B00009F4E2C3FD01EE0FFF1FEE0FFF1FDF0169
:1021C000A950B54FE455F54F9A966D917D918D913B
:1021D0009C919D9723893489458956890E94253A87
:1021E000C62E672E282E792EE9A9FAA9EE0FFF1F19
:1021F000EE0FFF1FDF01A950B54FE455F54F9A963A
:102200006D917D918D919C919D972389348945890C
:1022100056890E94253A362E7EA38BA79CA747FE9F
:1022200001C10E940E0A882309F0AEC33F2D313050
:10223000B1F46091190B70911A0B80911B0B909166
:102240001C0B23E333E34BEC51E40E943D3D6093D0
:10225000190B70931A0B80931B0B90931C0BE0903F
:10226000190BF0901A0B00911B0B10911C0BC8015D
:10227000B70120E030E040E850E40E943D3DA80175
:1022800097010E943D3D7B018C016C2D762D822DA6
:10229000972D2C2D362D422D572D0E943D3D9B0113
:1022A000AC01C801B7010E94253A7B018C014EA107
:1022B0003BA52CA5632D742F832F922FF901232D7D
:1022C000342F4F2F5E2F0E943D3D9B01AC01C80172
:1022D000B7010E94253AF62E072F182FE92E20E08D
:1022E00030E0A9010E94FF3A87FD48C36F2D702F8F
:1022F000812F9E2D0E94CA3D7B018C016C2D762D75
:10230000822D972DAEA1FBA5ECA5232D3A2F4F2FA3
:102310005E2F0E94C42D9B01AC01C801B7019058EB
:102320000E94063B862E972EA82EB92E8091F80A81
:10233000833021F4B7FAB094B7F8B094E090190B59
:10234000F0901A0B00911B0B10911C0BC801B701E8
:1023500020E030E0A9010E94FF3A87FF10C0B7FAE1
:10236000B094B7F8B09417FB109517F91095E09258
:10237000190BF0921A0B00931B0B10931C0B8FE799
:102380009FEF482259220FA518A9000F111F000F17
:10239000111F0550154F4EA13BA52CA5632D742F81
:1023A000832F922FA50194010E943D3D9B01AC011A
:1023B0006C2D762D822D972D0E94253A20E030E05D
:1023C00040E05FE30E943D3DD8011B966D937D93F5
:1023D0008D939C931E9709A91AA9000F111F000F36
:1023E000111F0550154F6C2D762D822D972DA501AF
:1023F00094010E943D3D9B01AC01AEA1FBA5ECA563
:10240000632D7A2F8F2F9E2F0E94263A20E030E0F6
:1024100040E05FE30E943D3DF80163877487858754
:102420009687C5C0FAA5AF2EBB240A211B21011532
:10243000110509F4A5C221EF3FEF422253223F2D9F
:10244000313031F506E01BE0EE24FF24C5010E2CEF
:1024500002C0959587950A94E2F780FF10C0D801D5
:102460006D917D918D919C9123E333E34BEC51E48D
:102470000E943D3DF80160837183828393830894B9
:10248000E11CF11C0C5F1F4FF4E0EF16F104F1F6B4
:102490000FA518A9000F111F000F111F0550154F90
:1024A0006C2D762D822D972DD8011B962D913D9167
:1024B0004D915C911E970E94253A4B015C01E9A861
:1024C000FAA8EE0CFF1CEE0CFF1CEBEFFAE0EE0E90
:1024D000FF1E4EA13BA52CA5632D742F832F922F99
:1024E000D7011B962D913D914D915C911E970E94B5
:1024F000253A9B01AC01C501B4010E94C42D4B01DA
:102500005C01F8016385748585859685D7011B96E6
:102510002D913D914D915C911E970E94C42D7B01A0
:102520008C016093190B70931A0B80931B0B909383
:102530001C0BC501B401A80197010E94253A4B016B
:102540005C01E894B7F8C501B4012AE037ED43EA2D
:102550005BE30E94023D181654F5C501B40120E06A
:1025600030E040E05FE30E94023D18160CF40CC21C
:10257000C801B7012FE632E143E85AE30E943D3D2E
:102580009B01AC01C501B4010E94023D18167CF408
:10259000FBC1EE2009F4F6C10E940E0A882309F05F
:1025A000F3C10E946432882311F0F0C1DD24C2011E
:1025B0008E7D9C7FDD2019F0C2018E7D907C00977E
:1025C00009F0E6C18091F90A8093AD0A8091020B6F
:1025D0009091030BA091040BB091050B8093BA0A64
:1025E0009093BB0AA093BC0AB093BD0AE0901D0B68
:1025F000F0901E0B00911F0B1091200B6091B60AFA
:102600007091B70A8091B80A9091B90AA801970110
:102610000E94FF3A882381F0E092B60AF092B70A4E
:102620000093B80A1093B90A8091B50A882321F063
:10263000B801A7010E94E6148091010B9091B50AA0
:10264000981761F08093B50A4091B60A5091B70A85
:102650006091B80A7091B90A0E94E6148091000B4B
:102660009091B40A981721F08093B40A0E94E9145B
:102670008091F70A813051F46091150B7091160B1F
:102680008091170B9091180B0E94D8088091FC0A3A
:102690008093B00A8091FA0A8093AE0ABD2DB330C0
:1026A000D1F48091FD0A8093B10A813049F4809180
:1026B000290B90912A0BA0912B0BB0912C0B03C0EE
:1026C00080E090E0DC018093EF0A9093F00AA09301
:1026D000F10AB093F20A8091FE0A9091B20A98171B
:1026E00059F08093B20AAFECBAE0FE01369680E171
:1026F00001900D928150E1F78091FB0A8093AF0A1F
:102700008091F70A8530E9F1863048F48330C9F1C9
:10271000843008F05FC0823009F075C00AC088308C
:1027200009F460C0893009F467C0863009F06BC0D5
:1027300053C06091150B7091160B8091170B9091FF
:10274000180B0E940B3E0E94733B662319F0F62E75
:10275000FA9402C0F090B20A8E010A5E1F4F8F2DCC
:10276000B8010E945A238091B20A8F1509F04BC01C
:10277000AFECBAE0F80180E101900D928150E1F7F1
:1027800042C0DD2069F00091130B1091140B81E21F
:102790009BE040E050E060E87FEB20E00E943805DD
:1027A00096E1E92EF12CEC0EFD1E0091130B109119
:1027B000140BC70140E050E060E87FEB20E00E948E
:1027C0003805AFEBBAE0F70180E101900D9281503E
:1027D000E1F719C086E001C087E06FEB7AE00E9464
:1027E0005A2311C0AFEDBAE0E1E2FBE080E10190D5
:1027F0000D928150E1F707C080E1EFEDFAE0DF01D3
:102800001D928A95E9F78091F80A8093AC0A853089
:1028100009F47EC0BD2DB23009F07AC0843040F496
:10282000823048F5882341F0813009F068C010C03B
:10283000843009F064C051C00091130B1091140B47
:1028400081E29BE040E050E060E87FEB20E010C0D8
:102850004091BA0A5091BB0A6091BC0A7091BD0ABE
:102860000091130B1091140B81E29BE02091AD0AB3
:102870000E94380544C000D00F92EDB7FEB73196E4
:102880000091190B10911A0B20911B0B30911C0B0E
:10289000C090BA0AD090BB0AE090BC0AF090BD0A82
:1028A0008EA5ADB7BEB711968C939BA991838091ED
:1028B000130B9091140B938382838FEB9AE061E268
:1028C0007BE046E05BE0A090AD0A8DA40E94750518
:1028D0000F900F900F900F9012C04091BA0A509134
:1028E000BB0A6091BC0A7091BD0A0091130B109154
:1028F000140B81E29BE02091AD0A0E945609AFEBD8
:10290000BAE0E1E2FBE080E101900D928150E1F755
:102910008091FF0A8093B30A8823E1F10E94321666
:102920001092860A8091B30A823019F40E94FF093E
:1029300031C01092B30A2EC081E02DC082E02BC0BE
:1029400088E129C087E127C089E125C084E023C050
:102950008BE121C086E21FC08CE11DC08DE11BC050
:1029600084E119C087E017C08EE115C08FE113C064
:1029700086E111C080E20FC085E10DC082E20BC08C
:1029800083E209C08AE107C081E205C084E203C096
:1029900085E201C080E0E3960FB6F894DEBF0FBE7B
:1029A000CDBFCF91DF911F910F91FF90EF90DF90FE
:1029B000CF90BF90AF909F908F907F906F905F90DF
:1029C0004F903F902F900895089508950895089589
:1029D00008950895E0ECF0E080818D7F808310926F
:1029E000C50089E18093C400E1ECF0E08081806162
:1029F000808380818860808380818068808308955F
:102A0000E09128029E2F9F5F903429F403C0F49B2D
:102A100002C0089590E0209129029217C1F3F0E0DE
:102A2000EF54F44F8083909328028091C10080621C
:102A30008093C10008951F920F920FB60F920BB6AC
:102A40000F9211248F939F93EF93FF93809129020C
:102A5000E82FF0E0EF54F44F90819093C6008F5F21
:102A6000803409F480E0809329029091280289172C
:102A700029F48091C1008F7D8093C100FF91EF9177
:102A80009F918F910F900BBE0F900FBE0F901F90D4
:102A900018959091270280912602891761F0E92FFD
:102AA000F0E0EF5CF44F80819F5F903809F490E094
:102AB0009093270208958FEF08951F920F920FB6FB
:102AC0000F920BB60F9211242F933F934F935F9366
:102AD0006F937F938F939F93AF93BF93EF93FF93E6
:102AE0008091C6008F33A9F0803428F4883171F0CA
:102AF000813289F409C08E3519F08E3761F402C035
:102B0000F79A1AC0F19A18C0F39A16C00E94FF09EA
:102B100013C0F09A11C0E09126029E2F9F5F90385B
:102B200009F490E020912702921731F0F0E0EF5C79
:102B3000F44F808390932602FF91EF91BF91AF9164
:102B40009F918F917F916F915F914F913F912F91C5
:102B50000F900BBE0F900FBE0F901F901895809195
:102B600026028093270208951F93CF93DF931EB30D
:102B7000112309F46DC0C12FD0E0CE018076907092
:102B80000097D1F081E08093850ACE0186FF0EC0C8
:102B900085FF02C08FEF01C08DEF0E94E63281E019
:102BA0000E940733F498F49BFECF03C08EEF0E947F
:102BB000E6328EB38F798EBBC4FF04C081E0809370
:102BC000840A4CC0C0FF05C00E944B37882309F41B
:102BD000F09817FF06C00E941438F7980E94143826
:102BE000F798C3FF0EC08091850A803149F480E2D6
:102BF0008093850A0E94831A0E94A51A1092860A61
:102C0000F398C1FF18C08091850A82FD14C08830F6
:102C100089F480E18093850A0E94A51A0E94BE165D
:102C200080913D0C81FF04C081E08093860A02C040
:102C30001092860AF198C2FF0BC00E94B12800973B
:102C400021F088E08093850A02C01092850AF298EC
:102C50008091850A847311F00E94A51ADF91CF91AB
:102C60001F9108958091850A803151F481E080930D
:102C7000860A06C00E94B4158091840A882341F414
:102C80000E94B1280097B1F78091850A803191F3B5
:102C900008958091860A8111F19A08950F931F93E8
:102CA0000E9431338091850A813021F482E00E94B4
:102CB00007331CC01092850A8AE292E00E942A38EB
:102CC00015C08A3011F08D3031F5E12FF0E0E65D6E
:102CD000FD4F10820E94B4158091840A882331F43C
:102CE00080912A02882329F40E947F3210E000E0BC
:102CF00035C0843229F48AE292E00E944938F4CF48
:102D00008091850A813011F489E0EECF8AE292E069
:102D10000E94D30AE9CF002319F08932F9F4E7CFF2
:102D20008132E0F08F32D1F08832B9F0153428F0DA
:102D30008BE00E947F3210E011C0982F9156212F16
:102D400030E01F5F9A3120F4265D3D4F805202C073
:102D5000265D3D4FF901808301C001E00E944915C5
:102D60008F3F09F0AECF0E9449160E94B4158091A2
:102D7000840A882399F31F910F91089580913D0C47
:102D800082FF04C0809105018E6303C0809105011C
:102D9000817C809305018091850A847121F1809165
:102DA000330C80934D038091320C80934C0320911F
:102DB000310C30E040E050E0DA01C9010896A11D75
:102DC000B11D880F991FAA1FBB1F819580934B03CC
:102DD000220F331F441F551F219527BD80916F007F
:102DE000826080936F00089580916F008D7F809343
:102DF0006F0080918100887F8160809381001092B4
:102E000066038091340C8F3F11F4F59B09C09091BB
:102E1000850A943029F090E00E94982D81E001C04D
:102E200080E090913D0C92FF02C091E089278823B9
:102E300021F0809105018E6303C080910501817CA2
:102E40008093050108951F920F920FB60F920BB653
:102E50000F9211242F933F934F935F936F937F9320
:102E60008F939F93AF93BF93EF93FF93179A8091A4
:102E70006603882309F08AC29091020180914D0374
:102E8000807F9F70892B8093020180910201807F57
:102E900090914C03892B8093610380914B0386BDF5
:102EA00082E085BD81E0809366037894809164031D
:102EB00090916503009709F0C3C080913903909108
:102EC0000D03981709F4B8C02091390330E0F901D7
:102ED000A3E0EE0FFF1FAA95E1F7E21BF30BE25F01
:102EE000FC4FF0936503E093640382819381909398
:102EF0008900809388008081918190935F03809303
:102F00005E03448180916003841781F140936003E4
:102F100050E086E190E0489FF001499FF00D589FF6
:102F2000F00D1124E356FD4FF0936303E093620329
:102F300081899289A389B489B695A7959795879534
:102F4000EAE3F3E080933A0390933B03A0933C03BE
:102F5000B0933D0384839583A683B783808791874D
:102F6000A287B38784879587A687B787E091620396
:102F7000F09163038091330C9081892780934D03F6
:102F8000D90173E0AA0FBB1F7A95E1F7A21BB30B1F
:102F9000A25FBC4F15962C9181819281A381B4814F
:102FA000022E04C0B695A795979587950A94D2F7F7
:102FB00080934E0390934F03A0935003B09351031B
:102FC00085819681A781B085022E04C0B695A7950C
:102FD000979587950A94D2F7809352039093530361
:102FE000A0935403B093550381859285A385B4853E
:102FF000022E04C0B695A795979587950A94D2F7A7
:103000008093560390935703A0935803B0935903AA
:1030100085859685A785B08904C0B695A7959795AF
:1030200087952A95D2F780935A0390935B03A093D8
:103030005C03B0935D0304C00E94F416F29AA6C12B
:103040000E946A3210924C0380914E0390914F037C
:10305000A0915003B091510320913A0330913B036A
:1030600040913C0350913D03820F931FA41FB51F55
:1030700080933A0390933B03A0933C03B0933D03AA
:10308000E0916203F0916303218932894389548975
:10309000281739074A075B0768F521E020934C039E
:1030A0002189328943895489821B930BA40BB50B68
:1030B00080933A0390933B03A0933C03B0933D036A
:1030C00020818091880A9091890AA0918A0AB09102
:1030D0008B0A24FF04C00197A109B10903C001961E
:1030E000A11DB11D8093880A9093890AA0938A0A32
:1030F000B0938B0A8091520390915303A091540393
:10310000B091550320913E0330913F03409140031D
:1031100050914103820F931FA41FB51F80933E035C
:1031200090933F03A0934003B093410321893289D8
:1031300043895489281739074A075B0778F5209196
:103140004C03226020934C0321893289438954899E
:10315000821B930BA40BB50B80933E0390933F030C
:10316000A0934003B0934103208180918C0A9091F9
:103170008D0AA0918E0AB0918F0A25FF04C0019795
:10318000A109B10903C00196A11DB11D80938C0A4C
:1031900090938D0AA0938E0AB0938F0A8091560364
:1031A00090915703A0915803B09159032091420385
:1031B000309143034091440350914503820F931F84
:1031C000A41FB51F8093420390934303A09344032D
:1031D000B0934503218932894389548928173907D7
:1031E0004A075B0778F520914C03246020934C0339
:1031F0002189328943895489821B930BA40BB50B17
:103200008093420390934303A0934403B0934503F8
:1032100020818091900A9091910AA091920AB09198
:10322000930A26FF04C00197A109B10903C00196C2
:10323000A11DB11D8093900A9093910AA093920AC8
:10324000B093930A80915A0390915B03A0915C0321
:10325000B0915D03209146033091470340914803AC
:1032600050914903820F931FA41FB51F80934603FB
:1032700090934703A0934803B0934903218932896F
:1032800043895489281739074A075B0778F5209145
:103290004C03286020934C03218932894389548947
:1032A000821B930BA40BB50B8093460390934703AB
:1032B000A0934803B093490320818091940A909190
:1032C000950AA091960AB091970A27FF04C001972A
:1032D000A109B10903C00196A11DB11D8093940AF3
:1032E0009093950AA093960AB093970A89B190910A
:1032F0002C0A892790912D0A8923C1F080959091FD
:103300004C03892380934C03882329F480912E0A4F
:10331000816080932E0A8091850A857039F4F59931
:1033200005C00E94FF098EB3806E8EBB80915E0344
:1033300090915F03019790935F0380935E030097E2
:10334000E1F4E0916403F091650396818091870A2E
:10335000892B8093870A8EB3892B8EBB10926503CD
:1033600010926403809139038F5F809339038091B9
:103370003903863011F4109239038091320C909108
:103380004C03892780934C03109266031798FF9192
:10339000EF91BF91AF919F918F917F916F915F91CD
:1033A0004F913F912F910F900BBE0F900FBE0F903A
:1033B0001F9018951F920F920FB60F920BB60F9297
:1033C00011248F939F93EF93FF93E2E0F1E09081BC
:1033D0008091320C8F70907F892B808315BCFF9178
:1033E000EF919F918F910F900BBE0F900FBE0F909A
:1033F0001F9018951F920F920FB60F9211248F9362
:1034000080916103809302018F910F900FBE0F9006
:103410001F9018950E94F4168BE2E2E7F2E0DF01BC
:103420001D928A95E9F78CE2EAE3F3E0DF011D9251
:103430008A95E9F710927102109270021092390386
:1034400010920D0381E08093380310926603089573
:10345000989A9998A09AA1988FEF87B990914D0C5E
:1034600098B980930A0190914E0C892F880F880F8C
:10347000892B80930B018AB1807F8AB98BB18F60D1
:103480008BB9809A88980895CF93DF93A1E0B1E03B
:103490008C918F608C93E2E0F1E08081807F90914D
:1034A000320C892B8083C4E0D1E088818E638883CD
:1034B0008C91806F8C9380818F709091330C892BCD
:1034C0008083E1E8F0E080818F7E80838081886066
:1034D0008083E0E8F0E080818C7F808380818F7042
:1034E0008083EEE6F0E08081887F808314BC15BC89
:1034F0008081816080838081826080830E94281A1D
:10350000DF91CF910895CF93DF93C0917002D09156
:1035100071022097B9F081E08093730220918902B3
:1035200030918A0240918B0250918C02CA01B901FC
:103530000E943D3D6D8B7E8B8F8B988F1092710218
:1035400010927002DF91CF9108952F923F924F9287
:103550005F926F927F928F929F92AF92BF92CF9223
:10356000DF92EF92FF920F931F93DF93CF93CDB72C
:10357000DEB7AE970FB6F894DEBF0FBECDBFAEC7B5
:103580008091700290917102009709F0C8C20E9468
:10359000B1289093710280937002009709F4A5C737
:1035A00020917302222319F010927302F0C020912F
:1035B00072022F5F20937202253011F41092720272
:1035C0002091720230E046E150E0249F8001259F67
:1035D000100D349F100D112403561D4F10930C0332
:1035E00000930B03DC012C91F80120830E947E28BC
:1035F0000E948728D80155968C9300910B03109157
:103600000C03C0907002D0907102F601818192810A
:10361000A381B48153E0880F991FAA1FBB1F5A953D
:10362000D1F7F80181839283A383B483F601858166
:103630009681A781B08543E0880F991FAA1FBB1F01
:103640004A95D1F7F80185839683A783B087F60161
:1036500081859285A385B48533E0880F991FAA1FC1
:10366000BB1F3A95D1F7F80181879287A387B4876A
:10367000F60185859685A785B08923E0880F991F77
:10368000AA1FBB1F2A95D1F7F80185879687A787C0
:10369000B08BD60151966D917D918D919C915497EF
:1036A0009B01AC01A3E0220F331F441F551FAA95B5
:1036B000D1F7218B328B438B548B0E949F3B6093BD
:1036C0007402709375028093760290937702D6010C
:1036D00099962D913D914D915C919C970E94063B4E
:1036E0007B018C01762F272F3F2D402F512F2093C8
:1036F00078023093790240937A0250937B0260E023
:1037000070E080EA9FE30E94063B60937C02709326
:103710007D0280937E0290937F0220E030E0A90139
:10372000209380023093810240938202509383025F
:103730008091850A8032E1F42091910230919202C9
:1037400040919302509194022093890230938A020F
:1037500040938B0250938C02CA01B9010E943D3DF7
:10376000D60155966D937D938D939C9358970FC07A
:10377000F601658976898789908D0E94CA3D60939C
:10378000890270938A0280938B0290938C0220E0CE
:1037900030E0A9012093850230938602409387028E
:1037A00050938802C0907002D0907102D601959615
:1037B000ED90FD900D911C91989760E070E080E095
:1037C0009FE3A80197010E94063B69837B838C835A
:1037D0009D838091850A803209F05EC0B2E0B0938B
:1037E0008402F60161A472A483A494A42588368877
:1037F0004788508C3C81832FA20191010E943D3D5E
:103800009B01AC01C401B3010E94253AD62EC72EFC
:10381000B82EA92EA6019501652F742F832F922F04
:1038200020E030E0A9010E94FF3A87FF1BC0C801D9
:10383000B701A80197010E94263AA40193010E94B2
:103840003D3D9B01AC01C201B1010E94253A0E949D
:10385000CA3D609391027093920280939302909379
:1038600094025DC1A6019501852F942FA32FB22F3D
:103870008093850290938602A0938702B09388027A
:1038800020E030E0A901209391023093920240930E
:1038900093025093940243C110928402F60181A5D1
:1038A00092A5A3A5B4A58093950290939602A093A8
:1038B0009702B09398020E94C8285B016C01609344
:1038C0009102709392028093930290939402A601C6
:1038D00095010E943D3D6E837F838B879C8720915D
:1038E00070023091710238A72FA3D90199966D907B
:1038F0007D908D909C909C9755962D903D904D90ED
:103900005C905897C201B101BE81AF811B850C85C7
:103910002B2F3A2F412F502F0E94253A9B01AC01AB
:10392000B981AB811C810D816B2F7A2F812F902F54
:103930000E943D3D9B01AC01C401B3010E94263AA7
:1039400020E030E040E05FE30E943D3DF62E072F8F
:10395000182FE92E20E030E0A9010E94023D181640
:103960000CF0CAC06F2D702F812F9E2DA4019301E2
:103970000E94FF3A87FFACC0EFA1F8A5A1A0B2A0BA
:10398000C3A0D4A0C601B501BE81AF819B848C8445
:103990002B2F3A2F492D582D0E94253A9B01AC011F
:1039A000B981AB819C808D806B2F7A2F892D982DCA
:1039B0000E943D3D262F372F482F592F20939902E3
:1039C00030939A0240939B0250939C022F2D302FEC
:1039D000412F5E2D0E94FF3A87FF3FC0C601B5010F
:1039E0000E94CA3D60938D0270938E0280938F0275
:1039F00090939002C201B101A60195010E94FF3A85
:103A0000882321F4F1E0F093840289C0C601B50156
:103A1000A20191010E94253A9B01AC01B981AB81C1
:103A20001C810D816B2F7A2F812F902F0E943D3D9D
:103A30009B01AC0160919502709196028091970272
:103A4000909198020E94253A609395027093960295
:103A5000809397029093980262C08F2D902FA12F90
:103A6000BE2D8093950290939602A0939702B093F7
:103A700098028093990290939A02A0939B02B0932C
:103A80009C02AFA1B8A595962D913D914D915C9169
:103A90009897CA01B9010E94263A2F2D302F412F45
:103AA0005E2D0E943D3DBE81AF811B850C852B2F75
:103AB0003A2F412F502F0E94263A0E94CA3D609310
:103AC0008D0270938E0280938F029093900227C094
:103AD000B2E0B09384028091890290918A02A09111
:103AE0008B02B0918C0280938D0290938E02A093F2
:103AF0008F02B093900213C020E030E0A901209320
:103B00009502309396024093970250939802A092A8
:103B10008D02B0928E02C0928F02D092900280915C
:103B20000D03482F50E05A834983FA0163E0EE0FFA
:103B3000FF1F6A95E1F7E41BF50BE25FFC4F8091F4
:103B4000720284836090700270907102D301999622
:103B50000C9199979A961C919A979B96FC909B979B
:103B60009C96DC90602F712F8F2D9D2D20917C02D3
:103B700030917D0240917E0250917F020E94253A51
:103B80006F8F78A389A39AA320E030E0A9010E9457
:103B9000FF3A87FF04C01F8E18A219A21AA2B09183
:103BA0009502BF87E0919602E88BF0919702F98B1E
:103BB000209198022A8B30918D023B8B40918E028E
:103BC0004C8B50918F025D8B609190026E8B809137
:103BD00099028F8B90919A02988FA0919B02A98F46
:103BE000B0919C02BA8FE0918502EB8FF091860232
:103BF000FC8F209187022D8F309188023E8F80911B
:103C0000910290919202A0919302B09194028FA39D
:103C100098A7A9A7BAA79090890240908A023090ED
:103C20008B0220908C02909184029B834AE0E42EC8
:103C300030EEC32E2EE1B22E99E3A92E1B861C86F0
:103C40001D861E86AAE0AC83B0EEBD83EEE1EE8356
:103C5000F9E3FF837EA66DA6592C2B81222321F048
:103C6000213009F005C1B2C095016E2D7C2D832F46
:103C70009A2DADA5BEA595962D913D914D915C9146
:103C800098970E943D3D962E872E782E692EA4018E
:103C90009301652F742F832F922F20E030E040E0B6
:103CA0005FE30E943D3D9B01AC01D201F1016B2F0E
:103CB000742D8F2F922D0E94263A9B01AC01F501A5
:103CC0006E2D7C2D8F2F9A2D0E943D3D9B01AC01C6
:103CD000602F712F8F2D9D2D0E94253A8B01F82E7C
:103CE000D92E712FBF85A889E989EBA3FA89FCA396
:103CF0002B2F3A2FAF010E94FF3A87FF54C0ADA58A
:103D0000BEA599966D917D918D919C919C97BF8553
:103D1000A88919890A892B2F3A2F412F502F0E94E9
:103D2000253A9B01AC010E94263A7B018C01A2013D
:103D30009101652F742D832F922DBB89AC89DD886D
:103D4000CE882B2F3A2F4D2D5C2D0E94263A9B01B9
:103D5000AC01C801B7010E94063BE62EC72EB82E63
:103D6000A92E5F85488939892A89652F742F832F69
:103D7000922FBF89A88D198D0A8D2B2F3A2F412F95
:103D8000502F0E94FF3A882319F0B1E0BB8302C094
:103D9000E2E0EB835B884C883D882E880F8518898C
:103DA000F988DA8812C1A2019101652F742D832F41
:103DB000922DD401F3012B2F3A2F4F2F5E2F0E940B
:103DC000263A562E472E382E292EFFC05B894C8965
:103DD0003D892E89652F742F832F922FF5012E2D6B
:103DE0003C2D4F2F5A2D0E943D3D9B01AC01602F71
:103DF000712F8F2D9D2D0E94253A962E872E782E7D
:103E0000692EA4019301652F742F832F922FAF8900
:103E1000F88DFBA3298D2CA3BA8D2A2F3F2F4CA1FF
:103E20005B2F0E94FF3A87FFCCC0602F712F8F2D30
:103E30009D2DBF89A88D198D0A8D2B2F3A2F412FCB
:103E4000502F0E94253ABB89AC891D890E892B2FE2
:103E50003A2F412F502F0E94063BE62EC72EB82E38
:103E6000A92E0F89188DF98CDA8C32E03B83ADC016
:103E700095016E2D7C2D832F9A2DADA5BEA595960F
:103E80002D913D914D915C9198970E943D3D6BA382
:103E90007CA38DA39EA3A2019101652F742D832F76
:103EA000922DBBA1ACA19DA08EA02B2F3A2F492D06
:103EB000582D0E94023D18160CF054C05BA14CA175
:103EC0009401652F742F832F922F20E030E040E083
:103ED0005FE30E943D3D9B01AC01D201F1016B2FDC
:103EE000742D8F2F922D0E94253A9B01AC01F50174
:103EF0006E2D7C2D8F2F9A2D0E943D3D9B01AC0194
:103F0000602F712F8F2D9D2D0E94253A962E872E82
:103F1000782E692EA4019301652F742F832F922F81
:103F2000BB8DAC8DED8DEBA7FE8DFCA72B2F3A2F13
:103F3000AF010E94023D1816ACF4A2019101652F59
:103F4000742D832F922DBBA1ACA11DA10EA12B2FEF
:103F50003A2F412F502F0E94253A562E472E382EA9
:103F6000292E2FC0602F712F8F2D9D2DBB8DAC8DD5
:103F70001D8D0E8D2B2F3A2F412F502F0E94253A49
:103F80009B01AC010E94263A7B018C01A2019101A8
:103F9000652F742D832F922D2FA138A549A55AA5E1
:103FA0000E94263A9B01AC01C801B7010E94063B62
:103FB000E62EC72EB82EA92E0B8D1C8DFD8CDE8C07
:103FC00004C0092D182DF72CD62C5B854C853D851A
:103FD0002E85652F742F832F922FF5012E2D3C2DCA
:103FE0004F2F5A2D0E94263A762E672E4C016B8752
:103FF0007C878D879E86A301652F742F992DBC81A8
:10400000AD81EE80CF802B2F3A2F4E2D5C2D0E945C
:10401000FF3A87FF0AC05C814D81652F742F8E2D7A
:104020009C2DD301E82CC92C39C0602F712F8F2D06
:104030009D2DBF8DA8A1E9A0CAA02B2F3A2F4E2DF0
:104040005C2D0E94023D18169CF0E82CC92C9101B1
:10405000852D942DA32FB22D8093890290938A02EF
:10406000A0938B02B0938C022B812093840245C0D5
:104070005C814D813E812F81652F742F832F922F7C
:104080002AE030EE4EE159E30E94263A6C837D83AC
:104090008E839F83BB85AC85ED84CE842B2F3A2FF6
:1040A0004E2D5C2D0E94253AE62EC72EB82EA92E45
:1040B000602F712F8F2D9D2DBB8DAC8D3D8D3BA322
:1040C0004E8D4CA32B2F3A2F4BA15CA10E94023D99
:1040D00018160CF4C2CDE82CC92C9101852D942D15
:1040E000A32FB22D8093890290938A02A0938B0212
:1040F000B0938C025B8150938402209078023090C0
:10410000790240907A0250907B02C201B101202FC7
:10411000312F4F2D5D2D0E943D3D6B837C838D8320
:104120009E830E94EC3A4B015C0160917402709195
:10413000750280917602909177020E94EC3A6F832B
:10414000788789879A87A50194010E94253A0E9461
:10415000733BE981FA8183E0EE0FFF1F8A95E1F757
:10416000A981BA81EA1BFB0BE25FFC4F718360837C
:104170006115710589F58091850A803269F56501BF
:10418000540180E090E0DC018093890290938A02E0
:10419000A0938B02B0938C02809380029093810253
:1041A000A0938202B0938302A0927402B09275022F
:1041B000C0927602D0927702009170021091710243
:1041C000C601B501A20191010E94063BF80161A759
:1041D00072A783A794A776C1A301652F762D8E2D94
:1041E0009C2D209180023091810240918202509159
:1041F00083020E94263A2B013C016F8178858985D4
:104200009A85BB81AC81ED80CE802B2F3A2F4E2D2D
:104210005C2D0E94253A9B01AC01C301B2010E94B2
:10422000063BE62EC72E782E692EC501B401BB8150
:10423000AC815D804E802B2F3A2F452D542D0E944E
:10424000253AF3012E2D3C2D4F2F5E2F0E943D3D30
:104250006093800270938102809382029093830224
:1042600093016E2D7C2D832F922F20EC31EE44E6AE
:104270005EE40E943D3D0E94EC3A0E94733B9B012C
:10428000AC01DA01C901803DF7E09F07F0E0AF071C
:10429000F0E0BF0780F449815A81B3E0440F551F15
:1042A000BA95E1F729813A81421B530B425F5C4F7B
:1042B000FA01158262C0203AFFE03F07F0E04F07A5
:1042C000F0E05F0780F4E981FA81A3E0EE0FFF1FC1
:1042D000AA95E1F789819A81E81BF90BE25FFC4F0F
:1042E00091E0958321C069817A81E3E0660F771FB1
:1042F000EA95E1F72034AFE13A07A0E04A07A0E0F1
:104300005A0740F4E981FA816E1B7F0B625F7C4F94
:10431000E2E007C089819A81681B790B625F7C4F5C
:10432000E3E0DB011596EC93E981FA8163E0EE0F9F
:10433000FF1F6A95E1F789819A81E81BF90BE25F1B
:10434000FC4F6581DA01C901062E04C0B695A79518
:10435000979587950A94D2F72081318102C0220F68
:10436000331F6A95E2F731832083803020E0920783
:1043700021E0A20720E0B20788F449815A8123E0B6
:10438000440F551F2A95E1F7E981FA814E1B5F0B17
:10439000425F5C4FFA019383828304C02FEF3FEFAB
:1043A000338322838091380380930D038F5F809342
:1043B0003803863011F410923803602F712F8F2D3F
:1043C0009D2D209185023091860240918702509167
:1043D00088020E94023D69817A81B3E0660F771FEF
:1043E000BA95E1F718163CF5E0917002F091710270
:1043F000802F912FAF2DBD2D81A792A7A3A7B4A782
:104400005B814C813D812E81852F942FA32FB22F6C
:104410008093740290937502A0937602B093770212
:1044200049815A81641B750B625F7C4FDB011696D4
:104430001C92169753C0E981FA816E1B7F0B625F55
:104440007C4FE1E0DB011696EC93602F712F8F2DEE
:104450009D2D20E030E0A9010E94023D1816C4F510
:104460006501540180E090E0DC01E5E8F2E084833E
:104470009583A683B7838093800290938102A09353
:104480008202B0938302A0927402B0927502C0922D
:104490007602D09277020091700210917102C601EB
:1044A000B501209178023091790240917A025091C1
:1044B0007B020E94063BD80199966D937D938D9364
:1044C0009C939C970E94D92C88E08093850A0DC00C
:1044D00010927102109270020E949D2890913903EF
:1044E00080913803981709F04BC8AE960FB6F89430
:1044F000DEBF0FBECDBFCF91DF911F910F91FF9017
:10450000EF90DF90CF90BF90AF909F908F907F9073
:104510006F905F904F903F902F900895F999FECF44
:1045200092BD81BD81E08FBB80B50895F894F99963
:10453000FECF92BD81BD81E08FBB40B54627842F61
:10454000992787FD9095262F30E0822393230097AB
:1045500039F06F3F19F060BD84E006C084E104C00B
:10456000442321F060BD84E28FBBF99A78940895CA
:104570008F929F92AF92BF92CF92DF92EF92FF9273
:104580000F931F93DF93CF930F92CDB7DEB75C01EC
:104590006B017A014A0120E01BC0222341F433273A
:1045A00027FD30952227330F221F332702C021E039
:1045B00030E0F60161916F01260F8C010F5F1F4FF4
:1045C00029830E949622089481089108C8012981B4
:1045D0008114910411F7C7018A0D9B1D622F0E945F
:1045E00096220F90CF91DF911F910F91FF90EF9046
:1045F000DF90CF90BF90AF909F908F9008959F9243
:10460000AF92BF92CF92DF92EF92FF920F931F93E0
:10461000CF93DF936C01EB017A018A01CB019924DE
:104620001BC05C010894A11CB11C0E948E22992021
:1046300049F4292D332727FD30952227330F221FD8
:10464000332702C021E030E0982E920EF6018193CC
:104650006F0101501040C5010115110511F7C70187
:104660008C0F9D1F0E948E2221E030E0981611F0E1
:1046700020E030E0C901DF91CF911F910F91FF90B1
:10468000EF90DF90CF90BF90AF909F90089597E408
:10469000899FC001112480509D4F46E450E00E9444
:1046A000B8220895BC0180EE93E046E450E00E94F9
:1046B000B822089591E1899FC001112480509E4F36
:1046C00040E150E00E94B822089580E090E067E465
:1046D0000E94962281E090E061EF7BE04EE550E0A1
:1046E0000E94B822089580E090E0A8ECB3E48093A3
:1046F000F10B9093F20BA093F30BB093F40B809318
:10470000F50B9093F60BA093F70BB093F80B8093F7
:10471000F90B9093FA0BA093FB0BB093FC0B8093D7
:10472000FD0B9093FE0BA093FF0BB093000C2FE0BA
:104730002093310C20E030E04AE754E42093010C50
:104740003093020C4093030C5093040C2093050CFF
:104750003093060C4093070C5093080C2093090CDF
:1047600030930A0C40930B0C50930C0C80930D0C5F
:1047700090930E0CA0930F0CB093100C80E090EA75
:10478000ACE0B7E48093110C9093120CA093130C3F
:10479000B093140C8093150C9093160CA093170CE7
:1047A000B093180C8093190C90931A0CA0931B0CC7
:1047B000B0931C0C80E090ECA8EAB6E480931D0C4A
:1047C00090931E0CA0931F0CB093200C8FE692E1E7
:1047D000A3E0BBE38093390C90933A0CA0933B0C7D
:1047E000B0933C0C1092320C1092330C8AE097ED8F
:1047F000A3EABCE38093350C9093360CA093370C5E
:10480000B093380C82E580933D0C10923E0C80E012
:1048100090E0A0E2B1E480933F0C9093400CA09311
:10482000410CB093420C80E090E0A0EAB1E48093A8
:10483000430C9093440CA093450CB093460C8AEF24
:1048400090E09093480C8093470C80E090E0A0E8C3
:10485000BFE38093490C90934A0CA0934B0CB09308
:104860004C0C89E18093340C80E090E0A8E4B2EC39
:104870008093210C9093220CA093230CB093240CD2
:104880008093250C9093260CA093270CB093280CB2
:104890008093290C90932A0CA0932B0CB0932C0C92
:1048A00080932D0C90932E0CA0932F0CB093300C72
:1048B00010924D0C10924E0C0E94652308951F9388
:1048C000CF93DF93182FEB0167E4869FB00111248B
:1048D00060507D4FCE0146E450E00E94FF220097D9
:1048E00039F41882812FBE010E94472380E001C065
:1048F00081E0DF91CF911F910895CF93DF93EC0179
:1049000060EE73E046E450E00E94FF22009731F42D
:104910001882CE010E94522380E001C081E0DF9125
:10492000CF910895FF920F931F93F82E8B0121E1F1
:10493000829F9001112420503E4FCB01B90140E1EC
:1049400050E00E94FF22009759F480E1D8011D92A7
:104950008A95E9F78F2DB8010E945A2380E001C0A3
:1049600081E01F910F91FF90089580E090E00E94F8
:104970008E22873459F481EF9BE061E070E04EE5D0
:1049800050E00E94FF2221E0009709F420E0822FEE
:104990000895EF92FF920F931F93CF93DF93EC0153
:1049A0007A018B01CB01BA0120E030E0A9010E941D
:1049B000FF3A87FDBFC1C432D10508F0BDC1FE0179
:1049C000EE58FF4FEE0FFF1F0590F491E02D199464
:1049D000CC0FDD1FCC0FDD1FCF50D44FE882F98202
:1049E0000A831B83A3C1E092010CF092020C009396
:1049F000030C1093040C9AC1E092050CF092060C83
:104A00000093070C1093080C91C1E092090CF092EE
:104A10000A0C00930B0C10930C0C88C1E0920D0C47
:104A2000F0920E0C00930F0C1093100C7FC1C80174
:104A3000B70120E030E040E752E40E943D3D20E035
:104A400030E040E752E40E943D3D6093110C7093CA
:104A5000120C8093130C9093140C68C1C801B70119
:104A600020E030E040E752E40E943D3D20E030E0AD
:104A700040E752E40E943D3D6093150C7093160C84
:104A80008093170C9093180C51C1C801B70120E016
:104A900030E040E752E40E943D3D20E030E040E756
:104AA00052E40E943D3D6093190C70931A0C809360
:104AB0001B0C90931C0C3AC1C801B70120E030E0F8
:104AC00040E752E40E943D3D20E030E040E752E400
:104AD0000E943D3D60931D0C70931E0C80931F0C33
:104AE0009093200C23C117FB109517F91095E092B5
:104AF000210CF092220C0093230C1093240C16C16D
:104B000017FB109517F91095E092250CF092260CE2
:104B10000093270C1093280C09C117FB109517F967
:104B20001095E092290CF0922A0C00932B0C109314
:104B30002C0CFCC017FB109517F91095E0922D0C6A
:104B4000F0922E0C00932F0C1093300CEFC0C80184
:104B5000B70120E030E040E450E40E94FF3A87FDD6
:104B6000EDC0C801B7010E94A03D0E94733B609355
:104B7000310CDCC0C801B7010E940B3E0E94733BA0
:104B80006093320CD3C0C801B7010E940B3E0E9453
:104B9000733B6093330CCAC0C801B7010E94A03DAB
:104BA0000E94733B6093340CC1C0E89417F9E09203
:104BB000350CF092360C0093370C1093380CB6C0BD
:104BC000E092390CF0923A0C00933B0C10933C0CA1
:104BD000ADC0C801B70120E030E0A9010E94FF3A52
:104BE00090913D0C882311F091600EC09E7F0CC007
:104BF000C801B70120E030E0A9010E94FF3A90917E
:104C00003D0C882321F0926090933D0C8FC09D7FD6
:104C1000FBCFC801B70120E030E0A9010E94FF3AB4
:104C200090913D0C882311F09460EECF9B7FECCFE8
:104C3000C801B70120E030E0A9010E94FF3A90913D
:104C40003D0C882311F09064DFCF9F7BDDCFC8013E
:104C5000B70120E030E0A9010E94FF3A90913D0C9D
:104C6000882321F094FF6CC09062CECF9F7DCCCF83
:104C7000C801B70120E030E0A9010E94FF3A9091FD
:104C80003D0C882311F0986001C0977F90933D0CF4
:104C90000E94FB2D4BC0C801B70120E030E0A90104
:104CA0000E94FF3A90913D0C882311F09061ACCFA7
:104CB0009F7CAACFC801B7010E940B3E0E94733BA4
:104CC00060933E0C33C0E0923F0CF092400C009396
:104CD000410C1093420C2AC0E092430CF092440C19
:104CE0000093450C1093460C21C0C801B7010E94E7
:104CF000A03D0E94733B7093480C6093470C16C014
:104D0000E092490CF0924A0C00934B0C10934C0C1F
:104D10000DC0C801B7010E94733B60934D0C06C0E3
:104D2000C801B7010E94733B60934E0C0E9465233B
:104D300080E007C084E005C083E003C086E001C0D6
:104D40008AE0DF91CF911F910F91FF90EF9008952E
:104D5000FF920F931F93DF93CF93CDB7DEB760978A
:104D60000FB6F894DEBF0FBECDBF0E94B5248823D6
:104D700039F487E00E947F320E9473230E943B3304
:104D8000FF248E010F5F1F4F8F2DB8010E949224C8
:104D9000882319F487E00E947F32F3948F2D8830A6
:104DA00099F760960FB6F894DEBF0FBECDBFCF91D6
:104DB000DF911F910F91FF9008952F923F924F9294
:104DC0005F926F927F928F929F92AF92BF92CF929B
:104DD000DF92EF92FF920F931F93DF93CF9300D058
:104DE000CDB7DEB710916903112309F414E2115015
:104DF000C09068031C1509F46BC1A12EBB248FE27F
:104E000090E0A89E7001A99EF00CB89EF00C1124B1
:104E10004AE653E0E40EF51EF7017996D70159965C
:104E20009C90599761808280738095962D913D91D9
:104E30004D915C919897CA01B9010E94263AF701F9
:104E400021A532A543A554A50E943D3DE62E072F7E
:104E5000F82ED92E692D762D882D972D2E2D302FB9
:104E60004F2D5D2D0E94FF3A87FF04C0E92C062DCF
:104E7000F82CD72C8FE290E0A89EF001A99EF00DAF
:104E8000B89EF00D1124E659FC4F8E2D902FAF2DBA
:104E9000BD2D858B968BA78BB08F112309F414E25F
:104EA00011501C1589F08FE290E0A89E7001A99E18
:104EB000F00CB89EF00C11244AE653E0E40EF51E07
:104EC0009FE2492E512C70C080916703C81609F0EB
:104ED00070C00E94831A6DC0C12EDD24C49C3001B5
:104EE000C59C700CD49C700C11248AE693E0680E6B
:104EF000791E112309F414E21150809167031817E9
:104F000011F40E94831AC49C1001C59C300CD49CDF
:104F1000300C1124AAE6B3E02A0E3B1EF101A18C4D
:104F2000B28CC38CD48C658976898789908DA601D3
:104F300095010E94FF3A8823B1F1D10195962D91F8
:104F40003D914D915C919897CA01B9010E94263A12
:104F5000F10121A532A543A554A50E943D3DD701ED
:104F600055962D913D914D915C9158970E94263A0E
:104F7000062FF72EE82E992EA60195010E94FF3AE2
:104F800087FF0AC0802F9F2DAE2DB92DF101858B93
:104F9000968BA78BB08F07C0D1015596AD92BD926D
:104FA000CD92DC925897730180916803181709F02D
:104FB00093CF00916803202F30E08FE290E0289F8C
:104FC000F001299FF00D389FF00D1124E659FC4F98
:104FD000FB83EA83102F1F5F143209F410E0F09175
:104FE0006903F9838FE2282E312C6CC0412E5524A1
:104FF000429C7001439CF00C529CF00C11244AE638
:1050000053E0E40EF51EAA81BB815596AD90BD908C
:10501000CD90DC905897F701658876888788908CCA
:10502000C601B501A40193010E94FF3A87FF2EC07B
:10503000AA81BB8195962D913D914D915C91989758
:10504000CA01B9010E94263AEA81FB8121A532A555
:1050500043A554A50E943D3D9B01AC01C601B5018D
:105060000E94263AD62EA72EC82EB92EA40193014F
:105070000E94FF3A87FF0AC08D2D9A2DAC2DBB2DC3
:10508000F701858B968BA78BB08F012F429CF00187
:10509000439CF00D529CF00D1124E659FC4F65899C
:1050A00076898789908D218D328D438D548D0E9414
:1050B000FF3A882309F4012F1F5F143209F410E02E
:1050C000FB82EA82F9811F1709F090CF00936803F1
:1050D0000F900F900F90CF91DF911F910F91FF9044
:1050E000EF90DF90CF90BF90AF909F908F907F9088
:1050F0006F905F904F903F902F9008959C012A569B
:1051000033408FEC96E4289F802D112408958F5F03
:10511000843209F480E0089584E2E6E0FAE0DF01F9
:105120001D928A95E9F7109267031092690381E056
:1051300080932A0A109268030895909167038091E2
:105140006903891769F0892F8F5F843209F480E041
:1051500020916803921711F480936803809367038A
:1051600008954091670380916903841769F050E0C6
:105170008FE290E0489F9001499F300D589F300D7D
:10518000112426593C4F02C020E030E0C9010895A7
:10519000209167032F5F243209F420E08091690396
:1051A000281799F030E08FE290E0289FF001299FC6
:1051B000F00D389FF00D1124E659FC4F6589768972
:1051C0008789908D0E94CA3D04C060E070E080E055
:1051D00090E0089581E02091670390912A0A2913B5
:1051E00080E008952F923F924F925F926F927F924C
:1051F0008F929F92AF92BF92CF92DF92EF92FF92E7
:105200000F931F93DF93CF93CDB7DEB7EE970FB613
:10521000F894DEBF0FBECDBF942E852E562E472E9E
:105220002DAB20916903422F50E05AA349A32FE2EE
:1052300030E0429FB001439F700D529F700D1124CA
:10524000FB01E659FC4F118A128A138A148A20E066
:1052500030E0A90121A732A743A754A7108229E96A
:1052600036E746E95EE725A336A347A350A716A76E
:1052700005A7282F392F3CA72BA781EF9BE09EA3E2
:105280008DA39E012F5F3F4F3EA72DA746E05AE01A
:1052900058AB4FA78B0105591C4FCE0141969CA3DB
:1052A0008BA39AAB89AB33247F017196FCABEBAB3C
:1052B00079E2672E712C6E0C7F1C5701EBA5FCA5C3
:1052C0006191719181919191FCA7EBA7EDA1FEA154
:1052D0002191319141915191FEA3EDA32FA338A7C4
:1052E00049A75AA70E943D3D0E940D3D9B01AC017C
:1052F000EDA5FEA52193319341935193FEA7EDA710
:10530000EFA5F8A981919191A191B191F8ABEFA787
:10531000281B390B4A0B5B0BDA01C90157FF07C089
:1053200088279927DC01821B930BA40BB50BF8018E
:1053300080839183A283B3830C5F1F4FEBA9FCA9E9
:10534000C080D180E280F3808C159D05AE05BF053D
:1053500010F4D701C601EBA9FCA980839183A28335
:10536000B383CA01B9010E94A13B2FA138A549A569
:105370005AA50E94063BF62EE72ED82EC92E862F60
:105380009E2DAD2DBC2DE9A9FAA981939193A193EE
:10539000B193FAABE9ABA7019601652F742F832F68
:1053A000922F20E030E0A9010E94FF3A87FF08C059
:1053B000F5012080832D0E94A32D8229F501808391
:1053C000A7019601652F7E2D832F9C2DD701F60115
:1053D0002B2F3E2D4F2F5C2D0E943D3DF301208150
:1053E0003181428153810E94263A262F372F482F40
:1053F000592FF30120833183428353833394F32D58
:10540000F43009F05BCF0E94CA3DF30160837183E1
:1054100082839383F501218932894389548985A543
:1054200096A5211531054105510551F490680E945A
:10543000D439813009F063C28093870AF09A5FC241
:105440000E94D439A4019201652F782D832F942DC9
:1054500020E030E0A9010E94FF3A87FD15C0FDA9B8
:10546000FF23D1F0F3016081718182819381D401A6
:10547000F2012B2F382D4F2F542D0E94063B962ED4
:10548000872E582E492E08C069E9962E56E7852E9C
:1054900046E9542E3EE7432E8FE290E029A13AA13F
:1054A000289F8001299F100D389F100D1124065947
:1054B0001C4F60E070E080E89FE3F80121A532A571
:1054C00043A554A50E94063B69AF7AAF8BAF9CAF52
:1054D00026E13AE03EA32DA321E0622E2CE0722EBD
:1054E000AE014F5D5F4F5EAF4DAF1FA21BA61DA665
:1054F0001FA60B5D1F4FEBA1FCA1C080D180E280F5
:10550000F380C701B60120E030E0A9010E94FF3A14
:10551000882309F4A0C0C701B601B9ADAAADFBAD9F
:10552000ECAD2B2F3A2F4F2F5E2F0E943D3D362E94
:105530007EAB8FAB98AF472F382F292F862F942F14
:10554000A32FB22FEBA1FCA180839183A283B3830D
:1055500060E070E080E89FE3F901232D342F4F2FA6
:105560005E2F0E94063B6B017C01E894F7F8C701AF
:10557000B601F30120813181428153810E943D3D7A
:10558000262E79AB8BAB9DABA4019201652F782DB4
:10559000832F942DA9A9FBA9EDA9222D3A2F4F2FD6
:1055A0005E2F0E94FF3A87FF04C0292C89AA5BAABC
:1055B0004DAAF801B080A18092808380C701B60116
:1055C000F30120893189428953890E943D3DF62E9D
:1055D000E72ED82EC92EA5019401652F742F832F95
:1055E000922FD701F6012B2F3A2F4F2F5E2F0E94BB
:1055F000FF3A87FF02C075016401A7019601852F5C
:105600009E2DA32FBC2DF80180839183A283B383A9
:105610004EA93FA928AD632D742F832F922FEDA1A2
:10562000FEA120813181428153810E943D3D9B0139
:10563000AC01BFA1ABA5FDA5EFA56B2F7A2F8F2FD6
:105640009E2F0E94253A6FA37BA78DA79FA7922C20
:1056500089A85BA84DA82BA13CA12C5F3F4F3CA380
:105660002BA34DA15EA14C5F5F4F5EA34DA384E0D1
:1056700090E0680E791EEDADFEAD2E173F0709F0E4
:105680003ACF90916903809167039817A9F48FE24C
:1056900090E029A13AA1289FF001299FF00D389FA1
:1056A000F00D1124E659FC4F80E090E0DC01858B81
:1056B000968BA78BB08F67C060E070E080E89FE3B7
:1056C000BFA1ABA5FDA5EFA52B2F3A2F4F2F5E2F26
:1056D0000E94253A20E030E040E05FE30E943D3D3B
:1056E0000E94CA3D7B018C018FE290E049A15AA142
:1056F000489FF001499FF00D589FF00D1124E65985
:10570000FC4F65A176A187A190A52091350C309121
:10571000360C4091370C5091380C0E943D3DA80149
:1057200097010E943D3D5B016C0160E070E080E804
:105730009FE3A80197010E94253A9B01AC01C60195
:10574000B5010E94063B7B018C017F2D912F20E04B
:1057500030E0A9010E94FF3A87FF04C0EE24FF2435
:1057600000E010E08FE290E029A13AA1289FF0012B
:10577000299FF00D389FF00D1124E659FC4F8E2D16
:105780009F2DA02FB12F858F968FA78FB0A3A40137
:105790009201652F782D832F942DD401F2012B2FA8
:1057A000382D4F2F542D0E943D3DD62EE72E082F29
:1057B000C92E8FE290E049A15AA1489FF001499F6C
:1057C000F00D589FF00D1124E659FC4F8D2D9E2DA4
:1057D000A02FBC2D81A392A3A3A3B4A3DF015D9648
:1057E000B58C1196AC90119712961C911297139646
:1057F000FC909090260A8090270A7090280A60906A
:10580000290A552453946D2D7E2D802F9C2DD40173
:10581000F3012B2F3A2F4F2F5E2F0E94FF3A87FD67
:1058200004C05524A401930104C05D2D4E2D302FDA
:105830002C2DD5016B2F7A2D812F9F2DE52FF42F45
:10584000A32FB22F9F01AD010E94FF3A87FD0AC02E
:10585000552029F0BD2CAE2C102FFC2C03C0540178
:10586000172DF62C8FE290E029A13AA1289FF00194
:10587000299FF00D389FF00D1124E659FC4FA5012A
:10588000852F9A2DA12FBF2D818F928FA38FB48F3B
:10589000A6E1BAE0FE01719680E101900D9281507F
:1058A000E1F78FE290E049A15AA1489FF001499F9A
:1058B000F00D589FF00D1124E659FC4F81A192A1E3
:1058C000A3A1B4A18093260A9093270AA093280A43
:1058D000B093290AA6E0BAE0FE01319680E101907A
:1058E0000D928150E1F780912A0A809369038F5FBE
:1058F000843209F480E080932A0A0E94DD26EE9625
:105900000FB6F894DEBF0FBECDBFCF91DF911F91D0
:105910000F91FF90EF90DF90CF90BF90AF909F904E
:105920008F907F906F905F904F903F902F90089551
:105930008091880A9091890AA0918A0AB0918B0A75
:105940008093060A9093070AA093080AB093090A65
:1059500080918C0A90918D0AA0918E0AB0918F0A45
:1059600080930A0A90930B0AA0930C0AB0930D0A35
:105970008091900A9091910AA091920AB091930A15
:1059800080930E0A90930F0AA093100AB093110A05
:105990008091940A9091950AA091960AB091970AE5
:1059A0008093120A9093130AA093140AB093150AD5
:1059B00008950E94831A80916703809368030E9470
:1059C000DD2608956F927F928F929F92AF92BF9241
:1059D000CF92DF92EF92FF920F931F93CF93DF93BB
:1059E0003C014B015A01FB018081F301E80FF11DDD
:1059F000EF0129912D3221F42181219601E005C08A
:105A00002B3211F42181219600E0F0E0E0E010E07B
:105A100060E070E0CB01A22FA053AA30F8F4EF5F52
:105A2000E930C0F4F11111509B01AC01B2E0220F3A
:105A3000331F441F551FBA95D1F7620F731F841F80
:105A4000951F660F771F881F991F6A0F711D811D93
:105A5000911D09C0FF2339F41F5F05C0AE3F29F433
:105A6000FF2319F4F1E02991D6CFEE2309F450C0B9
:105A70000E949F3BC62ED72EE82EF92E20E030E064
:105A8000A9010E94FF3A882371F431C0C701B60111
:105A90002AE037ED43E25CE30E943D3DC62ED72E5F
:105AA000E82EF92E1E5F1F3F8CF31F3F79F46C2DFB
:105AB0007D2D8E2D9F2D2DEC3CEC4CEC5DE30E945A
:105AC0003D3DC62ED72EE82EF92E11C0112379F0B8
:105AD000C701B60120E030E040E251E40E943D3DC4
