:100000000C94F3040C94802E0C9414050C94140599
:100010000C9414050C9414050C9414050C941405FC
:100020000C9414050C9414050C9414050C94A73A24
:100030000C94982E0C9414050C9414050C9414052F
:100040000C9414050C9487170C9414050C94140547
:100050000C9414050C94691A0C9414050C94491A08
:100060000C9414050C94C6150C9484150C9414056A
:100070000C9414050C9414050C9414050C9414059C
:100080000C9414050C9414050C9414050C9414058C
:100090000C9414050C9414050C9414050C9414057C
:1000A0000C9414050C9414050C9414050C9414056C
:1000B0000C9414050C9414050C9414050C9414055C
:1000C0000C9414050C9414050C9414050C9414054C
:1000D0000C9414050C9414050C9414050C9414053C
:1000E0000C9414053D253D253D253D2548255125EC
:1000F0005A2563256C2583259A25B125C825D52544
:10010000E225EF25FC250F26182621262A2635264E
:100110003E264D265E266D267C268D26A026AF2601
:10012000B826C126CA26D526DE26E526084AD73BAC
:100130003BCE016E84BCBFFDC12F3D6C74319ABDB6
:1001400056833DDA3D00C77F11BED9E4BB4C3E91DA
:100150006BAAAABE000000803F05A84CCDB2D44EC9
:10016000B93836A9020C50B9918688083CA6AAAACB
:100170002ABE000000803F290A0D0028003E0D0A1B
:10018000002C4C6E3A002C004374733A002C002C67
:10019000506F733A003C436865636B003C416C618F
:1001A000726D003C486F6D65003C486F6C64003CAC
:1001B00052756E003C5175657565003C49646C650F
:1001C00000297D0A0D0020283A00292C20633A20BE
:1001D0000020283A007B7A3A20007D0A0D002C206E
:1001E000763A007B653A005D0D0A005B302E39657A
:1001F0002C204175672031332032303134203135A5
:100200003A35383A313420284B65794D65203235FE
:10021000363029203A000D0A003D00244E005D0DC5
:100220000A00204600205400204D3800204D39009F
:10023000204D3500204D3400204D3300204D32003C
:10024000204D3100204D30002047393400204739FF
:100250003300204739310020473930002047323001
:100260000020473231002047363600204732300028
:1002700020473231002047313900204731380020F3
:10028000473137002047005B473830005B47330079
:100290005B4732005B4731005B4730005D0D0A0071
:1002A0005B544C4F3A005D0D0A002C005B4739321D
:1002B0003A005D0D0A002C003A003330003238005D
:1002C0005B47005D0D0A002C005B5052423A000D66
:1002D0000A0020286465636179206D6F64652C20B5
:1002E00028302E2E33292900290D0A2433353D00CC
:1002F00020286D6963726F7374657073203A2000F3
:100300000D0A2433343D002028686F6D696E672024
:1003100070756C6C2D6F66662C206D6D2900202821
:10032000686F6D696E67206465626F756E63652CBA
:10033000206D736563290D0A2433333D002028683E
:100340006F6D696E67207365656B2C206D6D2F6D09
:10035000696E290D0A2433323D002028686F6D69CB
:100360006E6720666565642C206D6D2F6D696E2942
:100370000D0A2433313D00290D0A2433303D00207D
:1003800028686F6D696E672064697220696E766592
:100390007274206D61736B3A002028686F6D696E0E
:1003A00067206379636C652C20626F6F6C290D0A7E
:1003B0002432393D00202868617264206C696D69BF
:1003C00074732C20626F6F6C290D0A2432383D0043
:1003D0002028736F6674206C696D6974732C2062B9
:1003E0006F6F6C290D0A2432373D002028696E7624
:1003F000657274206C696D69742070696E732C204D
:10040000626F6F6C290D0A2432363D002028696E18
:1004100076657274207374657020656E61626C65B8
:100420002C20626F6F6C290D0A2432353D00202884
:100430006175746F2073746172742C20626F6F6CBD
:10044000290D0A2432343D0020287265706F7274C1
:1004500020696E636865732C20626F6F6C290D0ACA
:100460002432333D00202861726320746F6C657202
:10047000616E63652C206D6D290D0A2432323D00BA
:1004800020286A756E6374696F6E20646576696191
:1004900074696F6E2C206D6D290D0A2432313D0078
:1004A0002028737465702069646C652064656C61D4
:1004B000792C206D736563290D0A2432303D0029A3
:1004C0000D0A2431393D00202864697220706F7252
:1004D0007420696E76657274206D61736B3A0029C1
:1004E0000D0A2431383D0020287374657020706F28
:1004F000727420696E76657274206D61736B3A0058
:100500002028737465702070756C73652C2075736A
:100510006563290D0A2431373D00202863206D6171
:10052000782074726176656C2C206D6D290D0A241B
:1005300031363D0020287A206D6178207472617612
:10054000656C2C206D6D290D0A2431353D00202865
:1005500079206D61782074726176656C2C206D6DE8
:10056000290D0A2431343D00202878206D6178203F
:1005700074726176656C2C206D6D290D0A243133FF
:100580003D0020286320616363656C2C206D6D2F16
:100590007365635E32290D0A2431323D0020287ACA
:1005A00020616363656C2C206D6D2F7365635E3213
:1005B000290D0A2431313D002028792061636365CB
:1005C0006C2C206D6D2F7365635E32290D0A24310A
:1005D000303D0020287820616363656C2C206D6DB0
:1005E0002F7365635E32290D0A24393D002028638C
:1005F000206D617820726174652C206D6D2F6D699E
:100600006E290D0A24383D0020287A206D6178205B
:10061000726174652C206D6D2F6D696E290D0A2431
:10062000373D00202879206D617820726174652C37
:10063000206D6D2F6D696E290D0A24363D0020282E
:1006400078206D617820726174652C206D6D2F6D3E
:10065000696E290D0A24353D002028632C2073740F
:1006600065702F6D6D290D0A24343D0020287A2CE9
:1006700020737465702F6D6D290D0A24333D0020A1
:1006800028792C20737465702F6D6D290D0A243222
:100690003D002028782C20737465702F6D6D290D16
:1006A0000A24313D0024303D002424202876696549
:1006B00077204772626C2073657474696E67732962
:1006C0000D0A242320287669657720232070617223
:1006D000616D6574657273290D0A24472028766957
:1006E0006577207061727365722073746174652917
:1006F0000D0A244E20287669657720737461727420
:10070000757020626C6F636B73290D0A24783D76D7
:10071000616C7565202873617665204772626C2074
:1007200073657474696E67290D0A244E783D6C698F
:100730006E652028736176652073746172747570BC
:1007400020626C6F636B290D0A244320286368655F
:10075000636B2067636F6465206D6F6465290D0AA4
:10076000245820286B696C6C20616C61726D206C60
:100770006F636B290D0A2448202872756E20686FFC
:100780006D696E67206379636C653C617869733E5F
:10079000290D0A244520287265706F727420656ED9
:1007A000636F646572733C636C6561722061786924
:1007B000733E0D0A2453202872756E20686F6D6990
:1007C0006E67206379636C65290D0A7E2028637942
:1007D000636C65207374617274290D0A2120286688
:1007E00065656420686F6C64290D0A3F2028637575
:1007F0007272656E7420737461747573290D0A5E6C
:1008000020286C696D69742070696E73290D0A6304
:1008100074726C2D7820287265736574204772623B
:100820006C290D0A000D0A4772626C20302E396562
:10083000205B27242720666F722068656C705D0D31
:100840000A005D0D0A0044697361626C65640045CD
:100850006E61626C65640043617574696F6E3A2005
:10086000556E6C6F636B656400272448277C2724D2
:10087000582720746F20756E6C6F636B0052657320
:10088000657420746F20636F6E74696E7565005BAC
:10089000000D0A0050726F6265206661696C00414C
:1008A000626F727420647572696E67206379636C1D
:1008B0006500486172642F736F6674206C696D699E
:1008C0007400414C41524D3A20000D0A00496E76A9
:1008D000616C69642067636F64652049443A005520
:1008E0006E646566696E6564206665656420726124
:1008F000746500556E737570706F727465642063F3
:100900006F6D6D616E64004D6F64616C2067726F16
:1009100075702076696F6C6174696F6E004C696EDA
:1009200065206F766572666C6F7700486F6D696ED3
:1009300067206E6F7420656E61626C656400416C47
:1009400061726D206C6F636B004E6F742069646C14
:100950006500454550524F4D2072656164206661C7
:10096000696C2E205573696E672064656661756CCD
:1009700074730056616C7565203C20332075736577
:10098000630053657474696E672064697361626C97
:1009900065640056616C7565203C203000496E76B8
:1009A000616C69642073746174656D656E74004276
:1009B0006164206E756D62657220666F726D617420
:1009C00000457870656374656420636F6D6D616E5A
:1009D00064206C6574746572006572726F723A207F
:1009E000006F6B0D0A0011241FBECFEFD1E2DEBFF6
:1009F000CDBF00E00CBF12E0A0E0B2E0E6EBFEE706
:100A000000E00BBF02C007900D92A632B107D9F7E4
:100A10001CE0A6E2B2E001C01D92A636B107E1F7E4
:100A20000E9416050C94593F0C9400001F930E94DD
:100A300053150E94FD260E94B31A0E94D93887E2FE
:100A4000E6E9FAE0DF011D928A95E9F71092BD0A06
:100A50001092BE0A1092BF0A1092C00A1EBA81E01C
:100A60008093960A789411E00E9418160E94600AFA
:100A70000E944D150E9450150E94312E0E9409338C
:100A80000E94D3280E94791A0E94CE2C0E94CC0A80
:100A90001092960A1EBA8091540C81FF03C01093E5
:100AA000980A02C01092980A0E94B216DDCF9F9257
:100AB000AF92BF92CF92DF92EF92FF920F931F936C
:100AC000CF93DF93EC015A016B01922E8091540C6D
:100AD00085FF03C0CE010E94F6308091970A8230D4
:100AE000D9F00E941D168091960A8823A9F40E94CD
:100AF0003129882319F00E94AD16F3CFCE01B6013B
:100B0000A501292D0E9439298091970A882321F473
:100B100088E0E6E9FAE08183DF91CF911F910F91A0
:100B2000FF90EF90DF90CF90BF90AF909F9008958F
:100B30002F923F924F925F926F927F928F929F92ED
:100B4000AF92BF92CF92DF92EF92FF920F931F93DB
:100B5000DF93CF93CDB7DEB7E6970FB6F894DEBF3D
:100B60000FBECDBF9E878D87788B6F872A0109873F
:100B70001A872B873C87C98ADA8AEB8AFC8AAB8E74
:100B80009924880C991C880C991C880D991D9D8F9F
:100B90008C8F9201280D391D3F8F2E8FD901CD905A
:100BA000DD90ED90FC90C701B601EC8DFD8D2081AC
:100BB0003181428153810E94273B6CA37DA38EA388
:100BC0009FA32D960FAD2D9710E0000F111F000F62
:100BD000111F2D853E85200F311F39A328A3C20187
:100BE000800F911F9BA38AA3DC014D905D906D90B7
:100BF0007C90C301B201F90120813181428153818E
:100C00000E94273B68A779A78AA79BA7D701C6019F
:100C1000B0588D839E83AF83B887D301C201B0588B
:100C200089839A83AB83BC83EF85F889E80DF91D2E
:100C30006081718182819381BCA1ADA1FEA1EFA1F0
:100C40002B2F3A2F4F2F5E2F0E94263BE62EC72ECA
:100C5000A82E892EEF85F889E00FF11F6081718140
:100C600082819381B8A5A9A5FAA5EBA52B2F3A2FD0
:100C70004F2F5E2F0E94263BF62E072F182F992EFE
:100C80006D817E818F8198852F2D302F412F592D99
:100C90000E943E3E2B013C0169817A818B819C81BF
:100CA0002E2D3C2D4A2D582D0E943E3E9B01AC011D
:100CB000C301B2010E94263B2B013C016D817E8164
:100CC0008F8198852E2D3C2D4A2D582D0E943E3E19
:100CD0005B016C0169817A818B819C812F2D302F82
:100CE000412F592D0E943E3E9B01AC01C601B5012A
:100CF0000E94273B9B01AC01C301B2010E949A3BB9
:100D0000F62E172F882E092F8091C10A8230B1F458
:100D10006F2D712F882D902F20E030E0A9010E94C7
:100D2000033E87FD24C06F2D712F882D902F2BED52
:100D30003FE049EC50E40E94263B15C06F2D712F17
:100D4000882D902F20E030E0A9010E94003C181669
:100D500074F06F2D712F882D902F2BED3FE049EC13
:100D600050E40E94273BF62E172F882E092FA090C3
:100D7000500CB090510CC090520CD090530C69851F
:100D80007A858B859C859B01AC010E94273BA6013F
:100D900095010E94263B9B01AC01C601B5010E9452
:100DA0003E3E0E94CB3E5B016C016F2D712F882D62
:100DB000902F20E030E040E05FE30E943E3E298536
:100DC0003A854B855C850E943E3E9F77A601950142
:100DD0000E94073C0E94DD3C0E94743C7A87698730
:100DE000DB01109709F4DFC1BB8DBB23A1F080E0CC
:100DF00090E00E94A03C9B01AC01B989AA89FB89C3
:100E0000EC896B2F7A2F8F2F9E2F0E943E3E698B8D
:100E10007A8B8B8B9C8B29853A85B90180E090E099
:100E20000E94A03C5B016C016F2D712F882D902FCB
:100E3000A60195010E94073C6D8B7E8B8F8B988F4E
:100E40002E968FAD2E9790E0880F991F880F991FCF
:100E5000AD85BE85A80FB91FBA8FA98FEF85F88918
:100E60008E0F9F1FDC016D917D918D919C91E98D7D
:100E7000FA8D20813181428153810E94263BA60157
:100E800095010E94073C6BAB7CAB8DAB9EAB5D8943
:100E90004E893F89288D652F742F832F922FDA0179
:100EA000F9012B2F3A2F4F2F5E2F0E943E3E9B01C0
:100EB000AC0160E070E080E090E40E94263BF62EFA
:100EC000072F182FC92E5D894E893F89288D652FE0
:100ED000742F832F922F2BEA3AEA4AE25EE30E94B4
:100EE0003E3E4B015C016F2D702F812F9C2D20E029
:100EF00030E040E850E40E94273B9B01AC01C50173
:100F0000B4010E943E3E6CA77DA78EA79FA76F2DC0
:100F1000702F812F9C2D20E030E040E05FE30E94A5
:100F20003E3EC62E78AB89AB9AAB882481E0282E52
:100F3000312C9C2C32C1F82DF43108F063C06D8146
:100F40007E818F819885BCA5ADA5FEA5EFA52B2F31
:100F50003A2F4F2F5E2F0E943E3E7B018C0169810C
:100F60007A818B819C81A8A9F9A9EAA9292D3A2F18
:100F70004F2F5E2F0E943E3E9B01AC01C801B7017E
:100F80000E94273BD62EC72EA82E492E6D817E812A
:100F90008F819885A8A9F9A9EAA9292D3A2F4F2F61
:100FA0005E2F0E943E3E162F072FF82EE92E6981F4
:100FB0007A818B819C81BCA5ADA5FEA5EFA52B2FC9
:100FC0003A2F4F2F5E2F0E943E3E9B01AC01D8016D
:100FD000F7016B2F7A2F8F2F9E2F0E94263B262FF3
:100FE000372F482F592F2D833E834F835887839463
:100FF000A601852F942FAA2DB42D89839A83AB83C4
:10100000BC8372C0B10180E090E00E94A03CBD8929
:10101000AE89FF89E88D2B2F3A2F4F2F5E2F0E942C
:101020003E3E7B018C017F2D912F0E94043C698301
:101030007A838B839C836E2D7F2D802F912F0E942E
:10104000C13E5B016C01AE8DBF8DED90FD900D91A9
:101050001C9117FB109517F91095EAA1FBA1408090
:10106000518062807380C801B70129813A814B8128
:101070005C810E943E3E6D837E838F839887C3018F
:10108000B201A60195010E943E3E9B01AC016D811B
:101090007E818F8198850E94273B262F372F482FEE
:1010A000592F2D833E834F835887C801B701A6016E
:1010B00095010E943E3E7B018C01C301B201298152
:1010C0003A814B815C810E943E3E9B01AC01C8018C
:1010D000B7010E94263B262F372F482F592F2983EF
:1010E0003A834B835C8388245CA14DA13EA12FA150
:1010F000652F742F832F922F2D813E814F8158852C
:101100000E94273BAC8DBD8D6D937D938D939C93F9
:10111000139758A549A53AA52BA5652F742F832FA2
:10112000922F29813A814B815C810E94273BE8A163
:10113000F9A16083718382839383A98DBA8D6D91A8
:101140007D918D919C91BBA9ACA9FDA9EEA92B2FF6
:101150003A2F4F2F5E2F0E94273BE98DFA8D608337
:101160007183828393838D859E85F989EA893B8982
:101170002C894F2F5E2F632F722F2B8D6296ECAC34
:10118000FDAC0EAD1FAD62970E9457058091960A87
:101190008823E1F40894211C311C29853A85221604
:1011A000330608F4C8CE8F859889F989EA893B8986
:1011B0002C894F2F5E2F632F722F2B8D6296ECACF4
:1011C000FDAC0EAD1FAD62970E945705E6960FB6B7
:1011D000F894DEBF0FBECDBFCF91DF911F910F916D
:1011E000FF90EF90DF90CF90BF90AF909F908F9047
:1011F0007F906F905F904F903F902F900895EF9267
:10120000FF920F931F93CF93DF937B018C0180910B
:10121000970A823009F447C0C801B70120E030E0E6
:1012200040EA51E40E943E3E0E94DD3C0E94743C34
:10123000EB010E949616C801B70120E030E04AE7B2
:1012400054E40E943E3E7B018C0182E390E0C89F03
:10125000B001C99F700DD89F700D112480E090E0FF
:101260000E94A03C9B01AC01C801B7010E94263B33
:101270000E94DD3C0E94743CDC01CB010E94CE2D1B
:1012800010C00E941D1621978091960A882359F458
:101290008FEF90E7A2E081509040A040E1F700C0BE
:1012A0000000209771F7DF91CF911F910F91FF9070
:1012B000EF9008951F93182F84E08093970A0E945F
:1012C0002C2E812F84700E94C82E812F82700E9444
:1012D000C82E812F89700E94C82E0E941D168091F1
:1012E000960A882341F40E94CC0A1092970A0E9421
:1012F00058170E94312E1F9108953F924F925F928E
:101300006F927F928F929F92AF92BF92CF92DF9215
:10131000EF92FF920F931F93DF93CF9300D000D0F3
:10132000CDB7DEB7982E892E2A013B01322E570108
:1013300068018091970A803111F00E94AD160E94D9
:1013400096168091960A882309F071C0892D982DF0
:10135000B301A201232D860175010E94570581E08A
:101360008093BE0AF19A0E941D168091960A8823E6
:1013700009F05DC08091970A882311F0883099F7B1
:101380008091BE0A883009F4F69A0E941D16809159
:10139000960A882309F04BC089EA9AE09E838D83E0
:1013A00008E01CE0C401E92EF82CED81FE8161917A
:1013B000719181919191FE83ED83F8012191319199
:1013C000419151918F0129833A834B835C830E9421
:1013D000A23C29813A814B815C810E94073CF70144
:1013E00061937193819391937F018D819E81EAE056
:1013F000893B9E07D1F60E941D160E94791A0E9411
:10140000D3280E94CE2C892D982DB301A201232D23
:10141000860175010E945705F19A0E9496168091E7
:10142000960A882321F40E94CC0A0E94E935269668
:101430000FB6F894DEBF0FBECDBFCF91DF911F91E5
:101440000F91FF90EF90DF90CF90BF90AF909F9063
:101450008F907F906F905F904F903F900895F49998
:101460000CC0F49A0E944E150E9451158091970A63
:10147000847319F0F59A0E94581708950F931F93DB
:10148000CF93DF93C4EDDAE008E31BE06991799133
:1014900089919991F80121913191419151918F0157
:1014A0000E94003C882331F4FAE0C43EDF0771F764
:1014B00081E001C080E0DF91CF911F910F910895ED
:1014C000AF92BF92CF92DF92EF92FF920F931F9352
:1014D000CF93DF9361EC7AE087E4FB0111928A9568
:1014E000E9F780E06D5D7F4F0E94E724882319F4BF
:1014F00087E00E942F3360E070E080E291E4209169
:10150000080C3091090C40910A0C50910B0C0E9470
:10151000073C162F072FF82EE92ECCE0DCE02991AE
:1015200039914991599160E070E080E291E40E9424
:10153000073CD62EC72EB82EA92EA8019701652FDD
:10154000702F832F9E2DD601F5012B2F3A2F4F2F71
:101550005E2F0E94003C87FD02C086017501FCE001
:10156000C831DF07E1F6A8019701852F902FA32F3F
:10157000BE2D8093080B9093090BA0930A0BB09398
:101580000B0BDF91CF911F910F91FF90EF90DF90A8
:10159000CF90BF90AF900895AF92BF92CF92DF925D
:1015A000EF92FF920F931F93CF93DF93C9E9DAE095
:1015B00008E01CE084EDE82E8AE0F82E699179912C
:1015C00089919991F801A190B190C190D1908F012A
:1015D0000E94A23CA60195010E94073CF70161937D
:1015E0007193819391937F01FAE0C93ADF0731F754
:1015F000DF91CF911F910F91FF90EF90DF90CF90EF
:10160000BF90AF9008952F923F924F925F926F924A
:101610007F928F929F92AF92BF92CF92DF92EF9282
:10162000FF920F931F93DF93CF93CDB7DEB7E4976D
:101630000FB6F894DEBF0FBECDBF9BA78AA7ACE064
:10164000BBE08CE3FD0111928A95E9F71196E1EC7C
:10165000FAE08AE001900D928150E1F7198244246A
:1016600055241FA21EA21CA6EE24332491E0C92EED
:10167000D12CAA24A39484E0282E05E0B02E12E0F9
:10168000F12EB3C2912F91549A3110F00C9405159C
:101690008F5F89838AA59BA5BE016F5F7F4FAE01D7
:1016A0004E5F5F4F0E94182D882311F40C9407158C
:1016B0006A807B808C809D80C401B3010E940C3FB6
:1016C0000E94743C062F70E0882777FD8095982F44
:1016D0000E94A23C9B01AC01C401B3010E94263BC5
:1016E00020E030E048EC52E40E943E3E0E94A13EE1
:1016F0000E94743C173421F01D3409F061C124C1EB
:101700000B3209F4ECC00C3200F5043170F40131F5
:1017100008F0B9C0043009F445C0043008F48AC0A8
:101720000A3011F00C94191535C00C3199F10D31B6
:1017300028F4063110F00C941915C5C00E3151F182
:10174000063211F00C94191575C0003509F478C0F3
:10175000013590F40C3358F4063308F0D3C001334C
:1017600009F4BDC0053311F00C9419151BC00234E7
:1017700011F00C941915B0C00C3561F00D3528F43A
:101780000A3510F40C9419158CC00F3510F00C9418
:10179000191590C0662331F4332011F00C9409150B
:1017A000332433940C31B1F00D3130F4043061F056
:1017B0000A3009F0ACC00BC0053349F10C3559F1C2
:1017C0000E3109F0A4C015C0A0920C0BA0C0F0927D
:1017D0000C0B9DC0662329F06A3011F00C9419158A
:1017E00004C0F3E0F0930C0B02C020920C0B80E0DD
:1017F00095C0662329F06A3011F00C94191503C0C6
:10180000B0920C0BF4CF26E020930C0BF0CF37E016
:1018100030930C0B7CC0662329F06A3011F00C94D5
:10182000191504C088E080930C0BE1CF99E09093E8
:101830000C0BDDCF332011F00C940915B2E03B2ED8
:10184000023099F0033030F4002361F0013009F0E8
:1018500060C00BC0063261F0003591F0033009F032
:1018600058C003C010920D0B54C000930D0B51C013
:10187000643111F00C94191520920D0B81E04EC0CB
:10188000B0920D0B46C0023129F0033131F01092B5
:10189000110B05C0A092110B02C0F092110B82E057
:1018A00039C00A3519F41092100B02C0A092100B27
:1018B00083E030C00D3519F4A0920E0B02C01092D7
:1018C0000E0B84E027C0043119F4A0920F0B02C064
:1018D00010920F0B85E01EC0F0920F0BFBCF332050
:1018E00011F00C940915013319F41092120B06C073
:1018F0006A3011F00C941915A092120B86E0A3E047
:101900003A2E0CC006530093130B87E003C080E00F
:1019100001C081E0662311F00C940B15D60102C0C2
:10192000AA0FBB1F8A95E2F72EA13FA12A233B23D2
:101930002115310511F00C942515EEA1FFA1EA2B1C
:10194000FB2BFFA3EEA351C1662311F00C940B15E2
:10195000063018F40330D0F40AC0083010F40C94A8
:1019600019150A3010F10E3111F00C9419150230CE
:1019700041F00E3131F0002311F00C94191581E083
:1019800001C082E08093140B0C941915043021F0EF
:10199000053039F081E001C082E08093160B0C9491
:1019A00019151092160B0C941915093029F082E0C4
:1019B0008093150B0C9419151092150B0C94191596
:1019C0001E3409F485C01F34BCF4193409F44DC029
:1019D0001A343CF4133459F1163411F00C941915DF
:1019E00036C01B3409F45FC01B340CF44BC01C34EC
:1019F00011F00C94191568C0143509F4D1C01535CF
:101A00005CF4123509F480C013350CF08BC010352E
:101A100011F00C9419156AC0193509F4A1C01A35D2
:101A200009F4AEC0183511F00C94191589C08A81DB
:101A30009B81AC81BD818093440B9093450BA09317
:101A4000460BB093470BF8E0EF2A8DE0AAC08A81DD
:101A50009B81AC81BD818093170B9093180BA09351
:101A6000190BB0931A0B80E09CC060921B0B709214
:101A70001C0B80921D0B90921E0B2CA521602CA795
:101A800081E08FC08A819B81AC81BD8180931F0BD7
:101A90009093200BA093210BB093220B3CA53260B6
:101AA0003CA782E07EC08A819B81AC81BD8180930E
:101AB000230B9093240BA093250BB093260B8CA59E
:101AC00084608CA783E06DC00093270B84E069C01D
:101AD000C401B3010E946F3C6093280B7093290BE3
:101AE00080932A0B90932B0B85E05BC08A819B81AE
:101AF000AC81BD8180932C0B90932D0BA0932E0B6A
:101B0000B0932F0B86E04DC08A819B81AC81BD8153
:101B10008093300B9093310BA093320BB093330B27
:101B200087E03FC08A819B81AC81BD818093340B6B
:101B30009093350BA093360BB093370B88E031C0F0
:101B40008A819B81AC81BD818093380B9093390B46
:101B5000A0933A0BB0933B0B91E0E92A8AE021C0B5
:101B60008A819B81AC81BD8180933C0B90933D0B1E
:101B7000A0933E0BB0933F0BA2E0EA2A8BE011C08A
:101B80008A819B81AC81BD818093400B9093410BF6
:101B9000A093420BB093430BB4E0EB2A8CE001C05E
:101BA00089E08601082E02C0000F111F0A94E2F797
:101BB0009801242135212115310509F02EC7E1E6D0
:101BC000F3E002C0F595E7958A95E2F7E0FF0BC0D8
:101BD0006A817B818C819D8120E030E0A9010E9497
:101BE000003C87FD1CC7402A512A8981EAA5FBA534
:101BF000E80FF11D1081112309F044CDEE2021F0F2
:101C0000332011F4F2E03F2E45FE11C08091280BE5
:101C10009091290BA0912A0BB0912B0B8038F6E9FB
:101C20009F07F8E9AF07F0E0BF070CF0FAC6809114
:101C30000E0B813051F4232D223011F440FE01C7E8
:101C400080910F0B8230E9F5F4C68091C20A882397
:101C5000C1F540FE26C080910F0B8130B9F4609130
:101C6000170B7091180B8091190B90911A0B23E3AD
:101C700033E34BEC51E40E943E3E6093170B7093AC
:101C8000180B8093190B90931A0B1BC08230C9F468
:101C90008091080B9091090BA0910A0BB0910B0B4E
:101CA00008C08091CF0A9091D00AA091D10AB0913A
:101CB000D20A8093170B9093180BA093190BB09333
:101CC0001A0B50FC10C08091CB0A9091CC0AA091C5
:101CD000CD0AB091CE0A8093340B9093350BA0932C
:101CE000360BB093370B80910C0B813031F446FEEC
:101CF0009CC68FEB9FEF482259228091110B8230B6
:101D000088F490E0FC01E050FE4FA081AEA7FC01FA
:101D1000EE5FFD4FB081BFA78C5F9D4FFC01F0814E
:101D2000FCAB05C01CAA22E02FA731E03EA76090C3
:101D30000F0B662009F441C008E31BE0E8E0CE2E5B
:101D4000ECE0DE2EAA24BB248E2C9924C4010A2C9C
:101D500002C0959587950A94E2F780FF21C0862DF1
:101D6000823069F4D8016D917D918D919C91F6013D
:101D700020813181428153810E94073C0BC0F801D0
:101D8000608171818281938123E333E34BEC51E4E1
:101D90000E943E3ED8016D937D938D939C93139743
:101DA0000894A11CB11C0C5F1F4FE4E0F0E0CE0EC4
:101DB000DF1EF4E0AF16B10449F6232D233041F4C1
:101DC0008091120B813021F43E2D343009F02BC666
:101DD000DE011696E4EEFAE080E101900D9281506A
:101DE000E1F78EA187FF11C08091130B873008F0B7
:101DF0001EC69091C70A981741F0BE016A5F7F4FD7
:101E00000E94E724882309F416C6F0900C0B9F2D3E
:101E1000923021F0983009F013C1A4C0EE2009F4EB
:101E20001AC6C20180759070009709F4FEC56091D2
:101E30002C0B70912D0B80912E0B90912F0B0E94EB
:101E40000C3F0E94743C673008F0F1C58091270B6D
:101E5000843129F0823009F0ECC547FCEAC56623DD
:101E600019F0862F815002C08091130B8E010A5EFB
:101E70001F4FB8010E94E724882309F4DCC5F090C5
:101E8000270B8091040B9091050BA091060BB0914C
:101E9000070B8EA39FA3A8A7B9A778E3A72E7BE083
:101EA000B72E64ED662E6AE0762ECC24DD248E2CCF
:101EB0009924C4010C2C02C0959587950A94E2F7E9
:101EC00080FF3BC09F2D943171F5D3016D917D91C1
:101ED0008D919C91139790962D913D914D915C9190
:101EE00093970E94263BF5012081318142815381E5
:101EF0000E94263B262F372F482F592FD8012D938C
:101F00003D934D935C931397BC2DB230B1F42EA149
:101F10003FA148A559A50E94263BF8016083718323
:101F2000828393830AC0F50180819181A281B3816C
:101F3000F80180839183A283B3830894C11CD11CD0
:101F40000C5F1F4F24E030E0A20EB31E620E731E22
:101F500034E0C316D10409F0ACCF8FEA9FEF4822DA
:101F6000592211C1EE2009F476C58091040B90919D
:101F7000050BA091060BB091070B8EA39FA3A8A7FA
:101F8000B9A708E31BE054EDA52E5AE0B52E46E0B4
:101F9000C42ED12CCC0EDD1E662477248E2C9924E1
:101FA000C401062C02C0959587950A94E2F780FF3C
:101FB0002CC0D5016D917D918D919C91F601208170
:101FC0003181428153810E94263BD8012D913D9160
:101FD0004D915C910E94263B262F372F482F592F79
:101FE000F8012083318342835383F62DF230B9F414
:101FF0002EA13FA148A559A50E94263BD8016D936B
:102000007D938D939C9313970AC0F50180A191A1B4
:10201000A2A1B3A1F80180839183A283B383089422
:10202000611C711C0C5F1F4F24E030E0A20EB31E38
:10203000C20ED31E34E06316710409F0B1CFA3C001
:10204000832D833009F487C0EE2009F484C02090EA
:10205000100B8091040B9091050BA091060BB09191
:10206000070B8EA39FA3A8A7B9A734EDA32E3AE030
:10207000B32E08E31BE026E0C22ED12CCC0EDD1ED1
:10208000662477248E2C9924C401062C02C09595D1
:1020900087950A94E2F780FD0BC0F501808191815C
:1020A000A281B381F80180839183A283B38343C06B
:1020B000FF2DF73009F43FC0222061F5D6016D9164
:1020C0007D918D919C91F50120A131A142A153A157
:1020D0000E94273BD8012D913D914D915C910E942A
:1020E000273B262F372F482F592FF8012083318384
:1020F00042835383F62DF230F1F42EA13FA148A57F
:1021000059A50E94273BD8016D937D938D939C9395
:10211000139711C0F8016081718182819381D5018B
:102120002D913D914D915C910E94273BF801608378
:102130007183828393830894611C711C24E030E0D6
:10214000A20EB31E0C5F1F4FC20ED31E34E06316E7
:10215000710409F099CF80910C0B853031F08730F4
:1021600069F0833081F486E001C087E0BE016A5ED9
:102170007F4F0E94E724882331F45DC480910D0BCA
:10218000823008F05AC410910D0B153041F4EE2046
:1021900009F458C2832D813009F051C453C2932DE4
:1021A000923009F04FC21123E1F06091170B70914A
:1021B000180B8091190B90911A0B20E030E0A901C7
:1021C0000E94003C882309F43CC4143030F41230DF
:1021D00060F4113009F036C204C0143009F032C284
:1021E00023C2EE2009F42DC22DC2EE2009F433C41F
:1021F000BEA5AB2FB0E0B9ABA8ABFFA5EF2FF0E0C9
:10220000FBABEAAB81E090E08C010FA402C0000FB1
:10221000111F0A94E2F70EA402C0880F991F0A94B6
:10222000E2F7082B192BFF24E022F122E114F1043C
:1022300009F409C4E0900F0B2E2D223009F405C4D7
:10224000AA0FBB1FAA0FBB1FA85CB44FE8A9F9A92E
:10225000EE0FFF1FEE0FFF1FEF53F54F6D917D91B6
:102260008D919C9123893489458956890E94263B0A
:10227000662E972E882E792EAAA9BBA9AA0FBB1F5E
:10228000AA0FBB1FA85CB44FEAA9FBA9EE0FFF1F62
:10229000EE0FFF1FEF53F54F6D917D918D919C9146
:1022A00023893489458956890E94263B262E7EA3A0
:1022B0008AA79DA747FE01C10E943E0A882309F014
:1022C000CCC33E2D3130B1F46091300B7091310BA5
:1022D0008091320B9091330B23E333E34BEC51E4C9
:1022E0000E943E3E6093300B7093310B8093320B13
:1022F0009093330BE090300BF090310B0091320B48
:102300001091330BC801B70120E030E040E850E401
:102310000E943E3EA80197010E943E3E7B018C0137
:10232000662D792D882D972D262D392D482D572D49
:102330000E943E3E9B01AC01C801B7010E94263BB2
:102340007B018C014EA13AA52DA5622D742F832F00
:10235000922FF901222D342F4F2F5E2F0E943E3EE7
:102360009B01AC01C801B7010E94263B7B018C0197
:102370007F2D912F20E030E0A9010E94003C87FDD5
:1023800066C36E2D7F2D802F912F0E94CB3E7B0147
:102390008C01662D792D882D972DAEA1FAA5EDA57E
:1023A000222D3A2F4F2F5E2F0E94FA2D9B01AC0158
:1023B000C801B70190580E94073CA62EB72EC82E20
:1023C000D92E80910D0B833021F4D7FAD094D7F811
:1023D000D094E090300BF090310B0091320B1091C3
:1023E000330BC801B70120E030E0A9010E94003C96
:1023F00087FF10C0D7FAD094D7F8D09417FB109568
:1024000017F91095E092300BF092310B0093320BDC
:102410001093330B8FE79FEF4822592208A919A97F
:10242000000F111F000F111F005F144F4EA13AA59E
:102430002DA5622D742F832F922FA60195010E9446
:102440003E3E9B01AC01662D792D882D972D0E9473
:10245000263B20E030E040E05FE30E943E3ED801B2
:102460001B966D937D938D939C931E970AA91BA930
:10247000000F111F000F111F005F144F662D792DE3
:10248000882D972DA60195010E943E3E9B01AC012F
:10249000AEA1FAA5EDA5622D7A2F8F2F9E2F0E9457
:1024A000273B20E030E040E05FE30E943E3EF80141
:1024B0006387748785879687C5C0FCA5CF2EDD24EA
:1024C0000C211D210115110509F4C3C221EF3FEFB5
:1024D000422253223E2D313031F50BE11BE0EE2438
:1024E000FF24C6010E2C02C0959587950A94E2F749
:1024F00080FF10C0D8016D917D918D919C9123E357
:1025000033E34BEC51E40E943E3EF801608371835B
:10251000828393830894E11CF11C0C5F1F4FF4E04D
:10252000EF16F104F1F608A919A9000F111F000F09
:10253000111F005F144F662D792D882D972DD8011E
:102540001B962D913D914D915C911E970E94263BCB
:102550005B016C01EAA8FBA8EE0CFF1CEE0CFF1C53
:10256000E0E1FBE0EE0EFF1E4EA13AA52DA5622D87
:10257000742F832F922FD7011B962D913D914D9152
:102580005C911E970E94263B9B01AC01C601B501E0
:102590000E94FA2D5B016C01F801638574858585C5
:1025A0009685D7011B962D913D914D915C911E977B
:1025B0000E94FA2D7B018C016093300B7093310BDC
:1025C0008093320B9093330BC601B501A80197019C
:1025D0000E94263B5B016C01E894D7F8C601B50167
:1025E0002AE037ED43EA5BE30E94033E181654F5F8
:1025F000C601B50120E030E040E05FE30E94033E09
:1026000018160CF42AC2C801B7012FE632E143E8DC
:102610005AE30E943E3E9B01AC01C601B5010E94F7
:10262000033E18167CF419C2EE2009F414C20E946D
:102630003E0A882309F011C20E941433882311F046
:102640000EC23324C2018E7D9C7F332019F0C2015B
:102650008E7D907C009709F004C280910E0B8093D0
:10266000C20A8091170B9091180BA091190BB09191
:102670001A0B8093CF0A9093D00AA093D10AB093FB
:10268000D20AE090340BF090350B0091360B10918C
:10269000370B6091CB0A7091CC0A8091CD0A909152
:1026A000CE0AA80197010E94003C882381F0E092A5
:1026B000CB0AF092CC0A0093CD0A1093CE0A8091F7
:1026C000CA0A882321F0B801A7010E944F15809102
:1026D000160B9091CA0A981761F08093CA0A40912C
:1026E000CB0A5091CC0A6091CD0A7091CE0A0E941B
:1026F0004F158091150B9091C90A981721F080937E
:10270000C90A0E94521580910C0B813051F46091DE
:102710002C0B70912D0B80912E0B90912F0B0E9402
:10272000FF088091110B8093C50A80910F0B809355
:10273000C30AB32DB330D1F48091120B8093C60A33
:10274000813049F48091400B9091410BA091420B54
:10275000B091430B03C080E090E0DC018093040B58
:102760009093050BA093060BB093070B8091130B6E
:102770009091C70A981759F08093C70AA4EEBAE05F
:10278000FE01369680E101900D928150E1F7809133
:10279000100B8093C40A80910C0B8530E9F18630D0
:1027A00048F48330C9F1843008F067C0823009F002
:1027B0007DC00AC0883009F468C0893009F46FC050
:1027C000863009F073C05BC060912C0B70912D0BAB
:1027D00080912E0B90912F0B0E940C3F0E94743C15
:1027E000662319F0F62EFA9402C0F090C70A8E0103
:1027F0000A5E1F4F8F2DB8010E94AF238091C70A38
:102800008F1509F053C0A4EEBAE0F80180E1019001
:102810000D928150E1F74AC0332089F0E090280BF7
:10282000F090290B00912A0B10912B0B88E39BE071
:1028300040E050E060E87FEB20E00E94570596E121
:10284000C92ED12CCC0EDD1EE090280BF090290B68
:1028500000912A0B10912B0BC60140E050E060E87C
:102860007FEB20E00E945705A4EDBAE0F60180E17D
:1028700001900D928150E1F719C086E001C087E018
:1028800064ED7AE00E94AF2311C0A4EFBAE0E8E360
:10289000FBE080E101900D928150E1F707C080E1FB
:1028A000E4EFFAE0DF011D928A95E9F780910D0BC4
:1028B0008093C10A853009F494C0B32DB23009F079
:1028C00090C0843040F4823088F5882341F0813014
:1028D00009F07EC014C0843009F07AC063C0E09073
:1028E000280BF090290B00912A0B10912B0B88E3F9
:1028F0009BE040E050E060E87FEB20E014C04091B6
:10290000CF0A5091D00A6091D10A7091D20AE0901A
:10291000280BF090290B00912A0B10912B0B88E3C8
:102920009BE02091C20A0E94570552C000D000D0FF
:10293000EDB7FEB731960091300B1091310B20911D
:10294000320B3091330BC090CF0AD090D00AE09078
:10295000D10AF090D20A8FA5ADB7BEB711968C936D
:102960009CA991838091280B9091290BA0912A0B0F
:10297000B0912B0B82839383A483B58384ED9AE07B
:1029800068E37BE04BE15BE0A090C20A8EA40E946A
:102990009805ADB7BEB716960FB6F894BEBF0FBE7A
:1029A000ADBF16C04091CF0A5091D00A6091D10AB4
:1029B0007091D20AE090280BF090290B00912A0B1D
:1029C00010912B0B88E39BE02091C20A0E947D09A5
:1029D000A4EDBAE0E8E3FBE080E101900D928150C4
:1029E000E1F78091140B8093C80A8823E1F10E94DB
:1029F00096161092980A8091C80A823019F40E94A3
:102A00002F0A31C01092C80A2EC081E02DC082E08A
:102A10002BC088E129C087E127C089E125C084E077
:102A200023C08BE121C086E21FC08CE11DC08DE177
:102A30001BC084E119C087E017C08EE115C08FE18B
:102A400013C086E111C080E20FC085E10DC082E2B3
:102A50000BC083E209C08AE107C081E205C084E2BD
:102A600003C085E201C080E0E4960FB6F894DEBFB3
:102A70000FBECDBFCF91DF911F910F91FF90EF90CF
:102A8000DF90CF90BF90AF909F908F907F906F908E
:102A90005F904F903F902F90089508950895089566
:102AA000089508950895E0ECF0E080818D7F8083A3
:102AB0001092C50089E18093C400E1ECF0E08081D0
:102AC000806180838081886080838081806880834A
:102AD0000895E09128029E2F9F5F903429F403C04F
:102AE000F49B02C0089590E0209129029217C1F34F
:102AF000F0E0E853F44F8083909328028091C10066
:102B000080628093C10008951F920F920FB60F92BA
:102B10000BB60F9211248F939F93EF93FF938091A5
:102B20002902E82FF0E0E853F44F90819093C6001B
:102B30008F5F803409F480E080932902909128020D
:102B4000891729F48091C1008F7D8093C100FF9186
:102B5000EF919F918F910F900BBE0F900FBE0F9032
:102B60001F9018959091270280912602891761F095
:102B7000E92FF0E0E85BF44F80819F5F903809F423
:102B800090E09093270208958FEF08951F920F927F
:102B90000FB60F920BB60F9211242F933F934F93C2
:102BA0005F936F937F938F939F93AF93BF93EF93B5
:102BB000FF938091C6008F3361F0803428F4883110
:102BC00081F0813289F40BC08E3529F08E3761F4A3
:102BD00004C0F09A1AC0F79A18C0F19A16C0F39A76
:102BE00014C00E942F0A11C0E09126029E2F9F5F01
:102BF000903809F490E020912702921731F0F0E02C
:102C0000E85BF44F808390932602FF91EF91BF9190
:102C1000AF919F918F917F916F915F914F913F9174
:102C20002F910F900BBE0F900FBE0F901F90189515
:102C3000809126028093270208951F93CF93DF93FC
:102C40001EB3112309F468C0C12FD0E0CE018076F5
:102C500090700097D1F081E08093970ACE0186FFB3
:102C60000EC085FF02C08FEF01C08DEF0E9496332A
:102C700081E00E94B733F498F49BFECF03C08EEF3F
:102C80000E9496338EB38F798EBBC4FF04C081E05F
:102C90008093960A47C0C0FF03C00E94F937F0989E
:102CA00017FF03C00E94C338F798C3FF0EC080917E
:102CB000970A803149F480E28093970A0E94F21AC1
:102CC0000E94141B1092980AF398C1FF18C08091BB
:102CD000970A82FD14C0883089F480E18093970AB6
:102CE0000E94141B0E9422178091540C81FF04C083
:102CF00081E08093980A02C01092980AF198C2FF6E
:102D00000BC00E94F828009721F088E08093970A72
:102D100002C01092970AF2988091970A847311F07A
:102D20000E94141BDF91CF911F9108958091970A03
:102D3000803151F481E08093980A06C00E941D16EC
:102D40008091960A882341F40E94F8280097B1F7F1
:102D50008091970A803191F308958091980A8111AA
:102D6000F19A08950F931F930E94E1338091970A7F
:102D7000813021F482E00E94B7331CC01092970A80
:102D80008AE292E00E94DB3815C08A3011F08D3063
:102D900031F5E12FF0E0E65DFD4F10820E941D1637
:102DA0008091960A882331F480912A02882329F49D
:102DB0000E942F3310E000E035C0843229F48AE20B
:102DC00092E00E94FA38F4CF8091970A813011F492
:102DD00089E0EECF8AE292E00E94030BE9CF002364
:102DE00019F08932F9F4E7CF8132E0F08F32D1F077
:102DF0008832B9F0153428F08BE00E942F3310E0B0
:102E000011C0982F9156212F30E01F5F9A3120F486
:102E1000265D3D4F805202C0265D3D4FF901808303
:102E200001C001E00E94B2158F3F09F0AECF0E94B1
:102E3000AD160E941D168091960A882399F31F9162
:102E40000F9108958091540C82FF04C08091050178
:102E50008E6303C080910501817C80930501809180
:102E6000970A847121F180914A0C80935C038091D0
:102E7000490C80935B032091480C30E040E050E027
:102E8000DA01C9010896A11DB11D880F991FAA1F5B
:102E9000BB1F819580935A03220F331F441F551F78
:102EA000219527BD80916F00826080936F00089507
:102EB00080916F008D7F80936F0080918100887F6B
:102EC0008160809381001092750380914B0C8F3F3D
:102ED00011F4F59B09C09091970A943029F090E085
:102EE0000E94CE2D81E001C080E09091540C92FFB1
:102EF00002C091E08927882321F0809105018E632B
:102F000003C080910501817C8093050108951F9283
:102F10000F920FB60F920BB60F9211242F933F937F
:102F20004F935F936F937F938F939F93AF93BF93D1
:102F3000EF93FF9382B1805882B980917503882303
:102F400009F094C29091020180915C03807F9F7090
:102F5000892B8093020180910201807F90915B0315
:102F6000892B8093700380915A0386BD82E085BDD2
:102F700081E080937503789480917303909174033A
:102F8000009709F0CFC08091480390911C039817D7
:102F900009F4C4C02091480330E0F901A3E0EE0F2A
:102FA000FF1FAA95E1F7E21BF30BE35EFC4FF093E2
:102FB0007403E093730382819381909389008093DB
:102FC00088008081918190936E0380936D0344818A
:102FD00080916F038417E1F140936F0350E089E122
:102FE00090E0489FF001499FF00D589FF00D11248B
:102FF000E356FD4FF0937203E09371038589968940
:10300000A789B08D8093B90A9093BA0AA093BB0A9E
:10301000B093BC0A81899289A389B489B695A79592
:1030200097958795E9E4F3E08093490390934A03E9
:10303000A0934B03B0934C0384839583A683B783FB
:1030400080879187A287B38784879587A687B7876C
:10305000E0917103F091720380914A0C908189276D
:1030600080935C03D90173E0AA0FBB1F7A95E1F747
:10307000A21BB30BA35EBC4F15962C91818192814C
:10308000A381B481022E04C0B695A7959795879524
:103090000A94D2F780935D0390935E03A0935F033D
:1030A000B093600385819681A781B085022E04C00C
:1030B000B695A795979587950A94D2F78093610363
:1030C00090936203A0936303B09364038185928518
:1030D000A385B485022E04C0B695A79597958795CC
:1030E0000A94D2F78093650390936603A0936703D5
:1030F000B093680385859685A785B08904C0B69589
:10310000A795979587952A95D2F780936903909311
:103110006A03A0936B03B0936C0304C00E9458171A
:10312000F29AA4C10E941A3310925B0380915D034E
:1031300090915E03A0915F03B091600320914903D9
:1031400030914A0340914B0350914C03820F931FDF
:10315000A41FB51F8093490390934A03A0934B0388
:10316000B0934C03E0917103F0917203218932898D
:1031700043895489281739074A075B0768F521E016
:1031800020935B032189328943895489821B930BE5
:10319000A40BB50B8093490390934A03A0934B0370
:1031A000B0934C0320818091990A90919A0AA09142
:1031B0009B0AB0919C0A24FF04C00197A109B109A0
:1031C00003C00196A11DB11D8093990A90939A0A9C
:1031D000A0939B0AB0939C0A809161039091620333
:1031E000A0916303B091640320914D0330914E038D
:1031F00040914F0350915003820F931FA41FB51F9E
:1032000080934D0390934E03A0934F03B0935003CC
:103210002189328943895489281739074A075B076E
:1032200078F520915B03226020935B03218932892A
:1032300043895489821B930BA40BB50B80934D03D8
:1032400090934E03A0934F03B0935003208180913D
:103250009D0A90919E0AA0919F0AB091A00A25FF15
:1032600004C00197A109B10903C00196A11DB11DB8
:1032700080939D0A90939E0AA0939F0AB093A00A00
:103280008091650390916603A0916703B0916803F4
:1032900020915103309152034091530350915403B4
:1032A000820F931FA41FB51F809351039093520365
:1032B000A0935303B09354032189328943895489DD
:1032C000281739074A075B0778F520915B032460CC
:1032D00020935B032189328943895489821B930B94
:1032E000A40BB50B8093510390935203A093530307
:1032F000B093540320818091A10A9091A20AA091D9
:10330000A30AB091A40A26FF04C00197A109B1093C
:1033100003C00196A11DB11D8093A10A9093A20A3A
:10332000A093A30AB093A40A8091690390916A03C1
:10333000A0916B03B0916C0320915503309156031B
:103340004091570350915803820F931FA41FB51F3C
:103350008093550390935603A0935703B09358035B
:103360002189328943895489281739074A075B071D
:1033700078F520915B03286020935B0321893289D3
:1033800043895489821B930BA40BB50B809355037F
:1033900090935603A0935703B093580320818091D4
:1033A000A50A9091A60AA091A70AB091A80A27FFA2
:1033B00004C00197A109B10903C00196A11DB11D67
:1033C0008093A50A9093A60AA093A70AB093A80A8F
:1033D00089B19091830A89279091840A8923C1F049
:1033E000809590915B03892380935B03882329F464
:1033F0008091850A81608093850A8091970A857003
:1034000039F4F59905C00E942F0A8EB3806E8EBBE9
:1034100080916D0390916E03019790936E0380935A
:103420006D030097B9F48EB3E0917303F0917403C8
:103430009681892B8EBB1092740310927303809136
:1034400048038F5F8093480380914803863011F4CE
:10345000109248038091490C90915B0389278093D7
:103460005B031092750382B1805882B9FF91EF918E
:10347000BF91AF919F918F917F916F915F914F918C
:103480003F912F910F900BBE0F900FBE0F901F908A
:1034900018951F920F920FB60F920BB60F92112430
:1034A0008F939F93EF93FF93E2E0F1E090818091FF
:1034B000490C8F70907F892B808315BCFF91EF9111
:1034C0009F918F910F900BBE0F900FBE0F901F908A
:1034D00018951F920F920FB60F9211248F9380911F
:1034E0007003809302018F910F900FBE0F901F9079
:1034F00018950E9458178BE2E2E7F2E0DF011D9277
:103500008A95E9F78CE2E9E4F3E0DF011D928A9500
:10351000E9F7109271021092700210924803109213
:103520001C0381E080934703109275030895989AD5
:103530009998A09AA1988FEF87B99091640C98B947
:1035400080930A019091650C892F880F880F892B31
:1035500080930B018AB1807F8AB98BB18F608BB960
:10356000809A88980895CF93DF93A1E0B1E08C9181
:103570008F608C93E2E0F1E08081807F9091490C34
:10358000892B8083C4E0D1E088818E6388838C910D
:10359000806F8C9380818F7090914A0C892B8083EF
:1035A000E1E8F0E080818F7E808380818860808385
:1035B000E0E8F0E080818C7F808380818F70808361
:1035C000EEE6F0E08081887F808314BC15BC8081AA
:1035D000816080838081826080830E94971ADF915E
:1035E000CF910895CF93DF93C0917002D091710273
:1035F0002097B9F081E08093730220918902309185
:103600008A0240918B0250918C02CA01B9010E943A
:103610003E3E6D8B7E8B8F8B988F10927102109235
:103620007002DF91CF9108952F923F924F925F9257
:103630006F927F928F929F92AF92BF92CF92DF92C2
:10364000EF92FF920F931F93DF93CF93CDB7DEB727
:10365000AE970FB6F894DEBF0FBECDBF94C7809172
:10366000700290917102009709F0BCC20E94F82884
:103670006C019093710280937002009709F48AC7DD
:1036800080917302882319F010927302E7C0809131
:1036900072028F5F80937202853011F41092720271
:1036A0008091720290E029E130E0829FF001839FD7
:1036B000F00D929FF00D1124E356FD4FF0931B0384
:1036C000E0931A03D6018C9180839D962D913D91B4
:1036D0004D915C91D097258B368B478B508F1196EF
:1036E0002D913D914D915C91149793E0220F331FE2
:1036F000441F551F9A95D1F7218332834383548306
:1037000015962D913D914D915C91189783E0220F74
:10371000331F441F551F8A95D1F72583368347836E
:10372000508719962D913D914D915C911C9703E026
:10373000220F331F441F551F0A95D1F72187328767
:10374000438754871D962D913D914D915C915097E3
:1037500013E0220F331F441F551F1A95D1F72587F9
:1037600036874787508B51966D917D918D919C91B5
:1037700054979B01AC01A3E0220F331F441F551F38
:10378000AA95D1F7218B328B438B548B0E94A03C9E
:10379000609374027093750280937602909377021F
:1037A000F60121A532A543A554A50E94073C7B0143
:1037B0008C01762F272F3F2D402F512F20937802F9
:1037C0003093790240937A0250937B0260E070E07C
:1037D00080EA9FE30E94073C60937C0270937D0225
:1037E00080937E0290937F0280E090E0DC018093E2
:1037F000800290938102A0938202B0938302809111
:10380000970A8032E1F42091910230919202409126
:103810009302509194022093890230938A0240933C
:103820008B0250938C02CA01B9010E943E3ED60120
:1038300055966D937D938D939C9358970FC0F60189
:10384000658976898789908D0E94CB3E6093890235
:1038500070938A0280938B0290938C0280E090E0B8
:10386000DC018093850290938602A0938702B09337
:103870008802D6019596ED90FD900D911C91989738
:1038800060E070E080E09FE3A80197010E94073CA0
:1038900069837B838C839D838091970A803209F0B2
:1038A0005EC0B2E0B0938402F60161A472A483A466
:1038B00094A4258836884788508C3C81832FA201A8
:1038C00091010E943E3E9B01AC01C401B3010E94E4
:1038D000263BD62EC72EB82EA92EA6019501652F00
:1038E000742F832F922F20E030E0A9010E94003C2A
:1038F00087FF1BC0C801B701A80197010E94273BA1
:10390000A40193010E943E3E9B01AC01C201B101A2
:103910000E94263B0E94CB3E6093910270939202DC
:1039200080939302909394025DC1A6019501852F27
:10393000942FA32FB22F8093850290938602A09399
:103940008702B093880280E090E0DC0180939102CE
:1039500090939202A0939302B093940243C1109269
:103960008402F60181A592A5A3A5B4A58093950232
:1039700090939602A0939702B09398020E940F2909
:103980005B016C01609391027093920280939302A9
:1039900090939402A60195010E943E3E6E837F8320
:1039A0008B879C87209170023091710238A72FA3DA
:1039B000D90199966D907D908D909C909C9755968D
:1039C0002D903D904D905C905897C201B101BE8101
:1039D000AF811B850C852B2F3A2F412F502F0E9432
:1039E000263B9B01AC01B981AB811C810D816B2F02
:1039F0007A2F812F902F0E943E3E9B01AC01C40183
:103A0000B3010E94273B20E030E040E05FE30E94EA
:103A10003E3EF62E072F182FE92E20E030E0A901B8
:103A20000E94033E18160CF0CAC06F2D702F812F14
:103A30009E2DA40193010E94003C87FFACC0EFA122
:103A4000F8A5A1A0B2A0C3A0D4A0C601B501BE81B3
:103A5000AF819B848C842B2F3A2F492D582D0E94A7
:103A6000263B9B01AC01B981AB819C808D806B2F83
:103A70007A2F892D982D0E943E3E262F372F482FD2
:103A8000592F2093990230939A0240939B025093AE
:103A90009C022F2D302F412F5E2D0E94003C87FF6E
:103AA0003FC0C601B5010E94CB3E60938D0270936A
:103AB0008E0280938F0290939002C201B101A60101
:103AC00095010E94003C882321F4F1E0F0938402E8
:103AD00089C0C601B501A20191010E94263B9B014C
:103AE000AC01B981AB811C810D816B2F7A2F812FA5
:103AF000902F0E943E3E9B01AC0160919502709117
:103B0000960280919702909198020E94263B6093C2
:103B1000950270939602809397029093980262C0E8
:103B20008F2D902FA12FBE2D8093950290939602FA
:103B3000A0939702B09398028093990290939A026F
:103B4000A0939B02B0939C02AFA1B8A595962D912E
:103B50003D914D915C919897CA01B9010E94273B14
:103B60002F2D302F412F5E2D0E943E3EBE81AF8112
:103B70001B850C852B2F3A2F412F502F0E94273B5E
:103B80000E94CB3E60938D0270938E0280938F02D1
:103B90009093900227C0B2E0B09384028091890292
:103BA00090918A02A0918B02B0918C0280938D0239
:103BB00090938E02A0938F02B093900213C080E086
:103BC00090E0DC018093950290939602A093970277
:103BD000B0939802A0928D02B0928E02C0928F0292
:103BE000D092900280911C03A82FB0E0BA83A983E1
:103BF000FD0153E0EE0FFF1F5A95E1F7EA1BFB0BA7
:103C0000E35EFC4F8091720284836090700270903A
:103C10007102F30101A512A5F3A4D4A4602F712FA2
:103C20008F2D9D2D20917C0230917D0240917E024E
:103C300050917F020E94263B6F8F78A389A39AA39D
:103C400020E030E0A9010E94003C87FF04C01F8EE5
:103C500018A219A21AA2F0919502FF87209196024C
:103C6000288B30919702398B609198026A8B8091F2
:103C70008D028B8B90918E029C8BA0918F02AD8BCD
:103C8000B0919002BE8BE0919902EF8BF0919A0275
:103C9000F88F20919B02298F30919C023A8F60917E
:103CA00085026B8F809186028C8F909187029D8F09
:103CB000A0918802AE8F8091910290919202A09182
:103CC0009302B09194028FA398A7A9A7BAA7909046
:103CD000890240908A0230908B0220908C02909151
:103CE00084029B834AE0E42E30EEC32E2EE1B22EF6
:103CF00099E3A92E1B861C861D861E86AAE0AC832E
:103D0000B0EEBD83EEE1EE83F9E3FF837EA66DA600
:103D1000592C2B81222321F0213009F005C1B2C09A
:103D200095016E2D7C2D832F9A2DADA5BEA5959660
:103D30002D913D914D915C9198970E943E3E962E1B
:103D4000872E782E692EA4019301652F742F832F5F
:103D5000922F20E030E040E05FE30E943E3E9B0176
:103D6000AC01D201F1016B2F742D8F2F922D0E9487
:103D7000273B9B01AC01F5016E2D7C2D8F2F9A2DD9
:103D80000E943E3E9B01AC01602F712F8F2D9D2D17
:103D90000E94263B8B01F82ED92E712FBF85A88952
:103DA000E989EBA3FA89FCA32B2F3A2FAF010E94DC
:103DB000003C87FF54C0ADA5BEA599966D917D913D
:103DC0008D919C919C97BF85A88919890A892B2F71
:103DD0003A2F412F502F0E94263B9B01AC010E949D
:103DE000273B7B018C01A2019101652F742D832F4C
:103DF000922DBB89AC89DD88CE882B2F3A2F4D2D93
:103E00005C2D0E94273B9B01AC01C801B7010E94B9
:103E1000073CE62EC72EB82EA92E5F854889398922
:103E20002A89652F742F832F922FBF89A88D198D12
:103E30000A8D2B2F3A2F412F502F0E94003C8823B0
:103E400019F0B1E0BB8302C0E2E0EB835B884C88F1
:103E50003D882E880F851889F988DA8812C1A20159
:103E60009101652F742D832F922DD401F3012B2FF7
:103E70003A2F4F2F5E2F0E94273B562E472E382E6B
:103E8000292EFFC05B894C893D892E89652F742FAF
:103E9000832F922FF5012E2D3C2D4F2F5A2D0E944E
:103EA0003E3E9B01AC01602F712F8F2D9D2D0E94F6
:103EB000263B962E872E782E692EA4019301652F1E
:103EC000742F832F922FAF89F88DFBA3298D2CA3FC
:103ED000BA8D2A2F3F2F4CA15B2F0E94003C87FFF9
:103EE000CCC0602F712F8F2D9D2DBF89A88D198D6E
:103EF0000A8D2B2F3A2F412F502F0E94263BBB8932
:103F0000AC891D890E892B2F3A2F412F502F0E94EB
:103F1000073CE62EC72EB82EA92E0F89188DF98CD6
:103F2000DA8C32E03B83ADC095016E2D7C2D832F62
:103F30009A2DADA5BEA595962D913D914D915C9183
:103F400098970E943E3E6BA37CA38DA39EA3A201E3
:103F50009101652F742D832F922DBBA1ACA19DA043
:103F60008EA02B2F3A2F492D582D0E94033E181654
:103F70000CF054C05BA14CA19401652F742F832FCA
:103F8000922F20E030E040E05FE30E943E3E9B0144
:103F9000AC01D201F1016B2F742D8F2F922D0E9455
:103FA000263B9B01AC01F5016E2D7C2D8F2F9A2DA8
:103FB0000E943E3E9B01AC01602F712F8F2D9D2DE5
:103FC0000E94263B962E872E782E692EA4019301FF
:103FD000652F742F832F922FBB8DAC8DED8DEBA7AA
:103FE000FE8DFCA72B2F3A2FAF010E94033E18161F
:103FF000ACF4A2019101652F742D832F922DBBA1EA
:10400000ACA11DA10EA12B2F3A2F412F502F0E94A2
:10401000263B562E472E382E292E2FC0602F712F6B
:104020008F2D9D2DBB8DAC8D1D8D0E8D2B2F3A2F81
:10403000412F502F0E94263B9B01AC010E94273B41
:104040007B018C01A2019101652F742D832F922D8C
:104050002FA138A549A55AA50E94273B9B01AC0179
:10406000C801B7010E94073CE62EC72EB82EA92E24
:104070000B8D1C8DFD8CDE8C04C0092D182DF72CAA
:10408000D62C5B854C853D852E85652F742F832F1F
:10409000922FF5012E2D3C2D4F2F5A2D0E94273B9C
:1040A000762E672E4C016B877C878D879E86A301B9
:1040B000652F742F992DBC81AD81EE80CF802B2F81
:1040C0003A2F4E2D5C2D0E94003C87FF0AC05C8178
:1040D0004D81652F742F8E2D9C2DD301E82CC92C7A
:1040E00039C0602F712F8F2D9D2DBF8DA8A1E9A004
:1040F000CAA02B2F3A2F4E2D5C2D0E94033E18167E
:104100009CF0E82CC92C9101852D942DA32FB22D64
:104110008093890290938A02A0938B02B0938C02C1
:104120002B812093840245C05C814D813E812F818B
:10413000652F742F832F922F2AE030EE4EE159E342
:104140000E94273B6C837D838E839F83BB85AC85D8
:10415000ED84CE842B2F3A2F4E2D5C2D0E94263BD2
:10416000E62EC72EB82EA92E602F712F8F2D9D2DD4
:10417000BB8DAC8D3D8D3BA3EE8DECA32B2F3A2F49
:104180004BA15E2F0E94033E18160CF4C2CDE82C02
:10419000C92C9101852D942DA32FB22D80938902D6
:1041A00090938A02A0938B02B0938C02FB81F093D0
:1041B0008402209078023090790240907A025090E8
:1041C0007B02C201B101202F312F4F2D5D2D0E94A6
:1041D0003E3E6B837C838D839E830E94ED3B4B012F
:1041E0005C016091740270917502809176029091E9
:1041F00077020E94ED3B6F83788789879A87A501B4
:1042000094010E94263B0E94743CE981FA8183E07C
:10421000EE0FFF1F8A95E1F729813A81E21BF30B2C
:10422000E35EFC4F718360836115710551F58091E8
:10423000970A803231F56501540180E090E0DC019D
:104240008093890290938A02A0938B02B0938C0290
:104250008093800290938102A0938202B0938302A4
:10426000A0927402B0927502C0927602D092770248
:104270000091700210917102C601B501A201910175
:104280006DC1A301652F762D8E2D9C2D209180026E
:104290003091810240918202509183020E94273B1B
:1042A0002B013C016F81788589859A85BB81AC8122
:1042B000ED80CE802B2F3A2F4E2D5C2D0E94263B79
:1042C0009B01AC01C301B2010E94073CE62EC72E40
:1042D000782E692EC501B401BB81AC815D804E8012
:1042E0002B2F3A2F452D542D0E94263BF3012E2DC6
:1042F0003C2D4F2F5E2F0E943E3E609380027093B4
:104300008102809382029093830293016E2D7C2D13
:10431000832F922F20EC31EE44E65EE40E943E3E75
:104320000E94ED3B0E94743C9B01AC01DA01C90183
:10433000803DE7E09E07E0E0AE07E0E0BE0780F4E6
:1043400049815A81B3E0440F551FBA95E1F729819D
:104350003A81421B530B435E5C4FFA01158262C0E7
:10436000203AFFE03F07F0E04F07F0E05F0780F4FE
:10437000E981FA81A3E0EE0FFF1FAA95E1F7898199
:104380009A81E81BF90BE35EFC4F91E0958321C015
:1043900069817A81E3E0660F771FEA95E1F72034BF
:1043A000AFE13A07A0E04A07A0E05A0740F4E981EC
:1043B000FA816E1B7F0B635E7C4FE2E007C0898150
:1043C0009A81681B790B635E7C4FE3E0DB011596F5
:1043D000EC93E981FA8163E0EE0FFF1F6A95E1F744
:1043E00089819A81E81BF90BE35EFC4F6581DA0154
:1043F000C901062E04C0B695A795979587950A948E
:10440000D2F72081318102C0220F331F6A95E2F773
:1044100031832083803020E0920721E0A20720E052
:10442000B20788F449815A8123E0440F551F2A9529
:10443000E1F7E981FA814E1B5F0B435E5C4FFA01A5
:104440009383828304C02FEF3FEF338322838091D5
:10445000470380931C038F5F80934703863011F4DA
:1044600010924703602F712F8F2D9D2D2091850273
:104470003091860240918702509188020E94033E4B
:1044800069817A81B3E0660F771FBA95E1F7181654
:104490003CF5E0917002F0917102802F912FAF2DC9
:1044A000BD2D81A792A7A3A7B4A75B814C813D81B5
:1044B0002E81852F942FA32FB22F80937402909377
:1044C0007502A0937602B093770289819A81681B66
:1044D000790B635E7C4FDB0116961C92169753C0D6
:1044E000E981FA816E1B7F0B635E7C4FE1E0DB01AB
:1044F0001696EC93602F712F8F2D9D2D20E030E0CC
:10450000A9010E94033E1816C4F56501540180E01C
:1045100090E0DC01E5E8F2E084839583A683B7832D
:104520008093800290938102A0938202B0938302D1
:10453000A0927402B0927502C0927602D092770275
:104540000091700210917102C601B50120917802AC
:104550003091790240917A0250917B020E94073C8F
:10456000D80199966D937D938D939C939C970E940F
:104570000F2D88E08093970A0DC01092710210925F
:1045800070020E94E4289091480380914703981795
:1045900009F065C8AE960FB6F894DEBF0FBECDBF6A
:1045A000CF91DF911F910F91FF90EF90DF90CF900F
:1045B000BF90AF909F908F907F906F905F904F9043
:1045C0003F902F900895F999FECF92BD81BD81E073
:1045D0008FBB80B50895F894F999FECF92BD81BD47
:1045E00081E08FBB40B54627842F992787FD9095A2
:1045F000262F30E082239323009739F06F3F19F084
:1046000060BD84E006C084E104C0442321F060BDA5
:1046100084E28FBBF99A789408958F929F92AF921B
:10462000BF92CF92DF92EF92FF920F931F93DF938F
:10463000CF930F92CDB7DEB75C016B017A014A01CF
:1046400020E01BC0222341F4332727FD3095222789
:10465000330F221F332702C021E030E0F6016191C1
:104660006F01260F8C010F5F1F4F29830E94EB22E1
:10467000089481089108C80129818114910411F7D7
:10468000C7018A0D9B1D622F0E94EB220F90CF91D4
:10469000DF911F910F91FF90EF90DF90CF90BF902F
:1046A000AF909F908F9008959F92AF92BF92CF92BC
:1046B000DF92EF92FF920F931F93CF93DF936C01E2
:1046C000EB017A018A01CB0199241BC05C0108949B
:1046D000A11CB11C0E94E322992049F4292D332703
:1046E00027FD30952227330F221F332702C021E0F8
:1046F00030E0982E920EF60181936F010150104028
:10470000C5010115110511F7C7018C0F9D1F0E94EE
:10471000E32221E030E0981611F020E030E0C901FA
:10472000DF91CF911F910F91FF90EF90DF90CF908D
:10473000BF90AF909F90089597E4899FC001112486
:1047400080509D4F46E450E00E940D230895BC0127
:1047500080EE93E046E450E00E940D23089591E13D
:10476000899FC001112480509E4F40E150E00E947B
:104770000D23089580E090E067E40E94EB2281E041
:1047800090E068E07CE04EE550E00E940D23089543
:1047900080E090E0A8ECB3E48093080C9093090CBF
:1047A000A0930A0CB0930B0C80930C0C90930D0CFF
:1047B000A0930E0CB0930F0C8093100C9093110CDF
:1047C000A093120CB093130C8093140C9093150CBF
:1047D000A093160CB093170C2FE02093480C20E008
:1047E00030E04AE754E42093180C3093190C4093BE
:1047F0001A0C50931B0C20931C0C30931D0C4093EF
:104800001E0C50931F0C2093200C3093210C4093CE
:10481000220C5093230C8093240C9093250CA0938E
:10482000260CB093270C80E090EAACE0B7E48093CC
:10483000280C9093290CA0932A0CB0932B0C8093F6
:104840002C0C90932D0CA0932E0CB0932F0C8093D6
:10485000300C9093310CA093320CB093330C80E069
:1048600090ECA8EAB6E48093340C9093350CA093B6
:10487000360CB093370C8FE692E1A3E0BBE3809354
:10488000500C9093510CA093520CB093530C109277
:10489000490C10924A0C8AE097EDA3EABCE380939E
:1048A0004C0C90934D0CA0934E0CB0934F0C82E5A2
:1048B0008093540C1092550C80E090E0A0E2B1E49B
:1048C0008093560C9093570CA093580CB093590CAE
:1048D00080E090E0A0EAB1E480935A0C90935B0CE6
:1048E000A0935C0CB0935D0C8AEF90E090935F0C0A
:1048F00080935E0C80E090E0A0E8BFE38093600CC2
:104900009093610CA093620CB093630C89E1809347
:104910004B0C80E090E0A8E4B2EC8093380C9093CC
:10492000390CA0933A0CB0933B0C80933C0C9093C1
:104930003D0CA0933E0CB0933F0C8093400C9093A1
:10494000410CA093420CB093430C8093440C909381
:10495000450CA093460CB093470C1092640C109237
:10496000650C0E94BA2308951F93CF93DF93182FED
:10497000EB0167E4869FB001112460507D4FCE01AA
:1049800046E450E00E945423009739F41882812FA6
:10499000BE010E949C2380E001C081E0DF91CF91A5
:1049A0001F910895CF93DF93EC0160EE73E046E42E
:1049B00050E00E945423009731F41882CE010E94E7
:1049C000A72380E001C081E0DF91CF910895FF929D
:1049D0000F931F93F82E8B0121E1829F90011124E8
:1049E00020503E4FCB01B90140E150E00E945423DA
:1049F000009759F480E1D8011D928A95E9F78F2D2F
:104A0000B8010E94AF2380E001C081E01F910F91A7
:104A1000FF90089580E090E00E94E322873459F4EB
:104A200088E09CE061E070E04EE550E00E94542395
:104A300021E0009709F420E0822F0895EF92FF9281
:104A40000F931F93CF93DF93EC017A018B01CB017E
:104A5000BA0120E030E0A9010E94003C87FDBFC1FF
:104A6000C432D10508F0BDC1FE01EE58FF4FEE0F74
:104A7000FF1F0590F491E02D1994CC0FDD1FCC0F92
:104A8000DD1FC85FD34FE882F9820A831B83A3C16D
:104A9000E092180CF092190C00931A0C10931B0C56
:104AA0009AC1E0921C0CF0921D0C00931E0C109306
:104AB0001F0C91C1E092200CF092210C0093220C6B
:104AC0001093230C88C1E092240CF092250C0093E3
:104AD000260C1093270C7FC1C801B70120E030E0FD
:104AE00040E752E40E943E3E20E030E040E752E4DE
:104AF0000E943E3E6093280C7093290C80932A0CF0
:104B000090932B0C68C1C801B70120E030E040E76A
:104B100052E40E943E3E20E030E040E752E40E9432
:104B20003E3E60932C0C70932D0C80932E0C909332
:104B30002F0C51C1C801B70120E030E040E752E43A
:104B40000E943E3E20E030E040E752E40E943E3EBC
:104B50006093300C7093310C8093320C9093330C33
:104B60003AC1C801B70120E030E040E752E40E94BA
:104B70003E3E20E030E040E752E40E943E3E60933B
:104B8000340C7093350C8093360C9093370C23C102
:104B900017FB109517F91095E092380CF092390C2C
:104BA00000933A0C10933B0C16C117FB109517F9A4
:104BB0001095E0923C0CF0923D0C00933E0C10934B
:104BC0003F0C09C117FB109517F91095E092400CA6
:104BD000F092410C0093420C1093430CFCC017FB65
:104BE000109517F91095E092440CF092450C009343
:104BF000460C1093470CEFC0C801B70120E030E02D
:104C000040E450E40E94003C87FDEDC0C801B701BC
:104C10000E94A13E0E94743C6093480CDCC0C80115
:104C2000B7010E940C3F0E94743C6093490CD3C0B2
:104C3000C801B7010E940C3F0E94743C60934A0C6B
:104C4000CAC0C801B7010E94A13E0E94743C609393
:104C50004B0CC1C0E89417F9E0924C0CF0924D0C4B
:104C600000934E0C10934F0CB6C0E092500CF09293
:104C7000510C0093520C1093530CADC0C801B701F6
:104C800020E030E0A9010E94003C9091540C882360
:104C900011F091600EC09E7F0CC0C801B70120E0EA
:104CA00030E0A9010E94003C9091540C882321F02F
:104CB00092609093540C8FC09D7FFBCFC801B701C9
:104CC00020E030E0A9010E94003C9091540C882320
:104CD00011F09460EECF9B7FECCFC801B70120E0CC
:104CE00030E0A9010E94003C9091540C882311F0FF
:104CF0009064DFCF9F7BDDCFC801B70120E030E0BB
:104D0000A9010E94003C9091540C882321F094FF4B
:104D10006CC09062CECF9F7DCCCFC801B70120E0A0
:104D200030E0A9010E94003C9091540C882311F0BE
:104D3000986001C0977F9093540C0E94312E4BC015
:104D4000C801B70120E030E0A9010E94003C909129
:104D5000540C882311F09061ACCF9F7CAACFC8017E
:104D6000B7010E940C3F0E94743C6093550C33C005
:104D7000E092560CF092570C0093580C1093590C7B
:104D80002AC0E0925A0CF0925B0C00935C0C1093DA
:104D90005D0C21C0C801B7010E94A13E0E94743C75
:104DA00070935F0C60935E0C16C0E092600CF09202
:104DB000610C0093620C1093630C0DC0C801B70125
:104DC0000E94743C6093640C06C0C801B7010E9445
:104DD000743C6093650C0E94BA2380E007C084E0B5
:104DE00005C083E003C086E001C08AE0DF91CF9177
:104DF0001F910F91FF90EF900895FF920F931F93D3
:104E0000DF93CF93CDB7DEB760970FB6F894DEBFD0
:104E10000FBECDBF0E940A25882339F487E00E9487
:104E20002F330E94C8230E94EB33FF248E010F5FB3
:104E30001F4F8F2DB8010E94E724882319F487E0C3
:104E40000E942F33F3948F2D883099F760960FB618
:104E5000F894DEBF0FBECDBFCF91DF911F910F91B0
:104E6000FF9008952F923F924F925F926F927F92A0
:104E70008F929F92AF92BF92CF92DF92EF92FF926A
:104E80000F931F93DF93CF9300D0CDB7DEB7109170
:104E90007803112309F414E21150C09077031C1514
:104EA00009F46BC1A12EBB2481E390E0A89E7001A0
:104EB000A99EF00CB89EF00C112449E753E0E40ED3
:104EC000F51EF7017996D70159969C905997618004
:104ED0008280738095962D913D914D915C9198972C
:104EE000CA01B9010E94273BF70121A532A543A5BC
:104EF00054A50E943E3EE62E072FF82ED92E692D8E
:104F0000762D882D972D2E2D302F4F2D5D2D0E9423
:104F1000003C87FF04C0E92C062DF82CD72C81E338
:104F200090E0A89EF001A99EF00DB89EF00D11240E
:104F3000E758FC4F8E2D902FAF2DBD2D858B968B76
:104F4000A78BB08F112309F414E211501C1589F0BE
:104F500081E390E0A89E7001A99EF00CB89EF00C31
:104F6000112449E753E0E40EF51E91E3492E512C3C
:104F700070C080917603C81609F070C00E94F21AC2
:104F80006DC0C12EDD24C49C3001C59C700CD49C26
:104F9000700C112489E793E0680E791E112309F43F
:104FA00014E2115080917603181711F40E94F21A3E
:104FB000C49C1001C59C300CD49C300C1124A9E772
:104FC000B3E02A0E3B1EF101A18CB28CC38CD48CB1
:104FD000658976898789908DA60195010E94003C9C
:104FE0008823B1F1D10195962D913D914D915C9120
:104FF0009897CA01B9010E94273BF10121A532A56A
:1050000043A554A50E943E3ED70155962D913D9152
:105010004D915C9158970E94273B062FF72EE82E62
:10502000992EA60195010E94003C87FF0AC0802F9F
:105030009F2DAE2DB92DF101858B968BA78BB08F4F
:1050400007C0D1015596AD92BD92CD92DC92589792
:10505000730180917703181709F093CF00917703BC
:10506000202F30E081E390E0289FF001299FF00D90
:10507000389FF00D1124E758FC4FFB83EA83102F73
:105080001F5F143209F410E0F0917803F98381E393
:10509000282E312C6CC0412E5524429C7001439C1B
:1050A000F00C529CF00C112449E753E0E40EF51E7D
:1050B000AA81BB815596AD90BD90CD90DC9058975C
:1050C000F701658876888788908CC601B501A401B0
:1050D00093010E94003C87FF2EC0AA81BB81959658
:1050E0002D913D914D915C919897CA01B9010E9413
:1050F000273BEA81FB8121A532A543A554A50E9447
:105100003E3E9B01AC01C601B5010E94273BD62E55
:10511000A72EC82EB92EA40193010E94003C87FF40
:105120000AC08D2D9A2DAC2DBB2DF701858B968B4A
:10513000A78BB08F012F429CF001439CF00D529C35
:10514000F00D1124E758FC4F658976898789908D89
:10515000218D328D438D548D0E94003C882309F4AB
:10516000012F1F5F143209F410E0FB82EA82F981FB
:105170001F1709F090CF009377030F900F900F90B7
:10518000CF91DF911F910F91FF90EF90DF90CF9023
:10519000BF90AF909F908F907F906F905F904F9057
:1051A0003F902F90089584E2EDE5FAE0DF011D9233
:1051B0008A95E9F7109276031092780381E0809344
:1051C000810A109277030895909176038091780375
:1051D000891769F0892F8F5F843209F480E020916C
:1051E0007703921711F480937703809376030895E1
:1051F0004091760380917803841769F050E081E351
:1052000090E0489F9001499F300D589F300D112428
:1052100027583C4F02C020E030E0C901089520919A
:1052200076032F5F243209F420E080917803281759
:1052300099F030E081E390E0289FF001299FF00D84
:10524000389FF00D1124E758FC4F658976898789CE
:10525000908D0E94CB3E04C060E070E080E090E062
:10526000089581E0209176039091810A291380E0CE
:1052700008952F923F924F925F926F927F928F92FA
:105280009F92AF92BF92CF92DF92EF92FF920F93D5
:105290001F93DF93CF93CDB7DEB7E9970FB6F8949E
:1052A000DEBF0FBECDBF942E852E672E29AB6701C2
:1052B000780120917803422F50E05AA349A321E3BB
:1052C00030E0429F8001439F100D529F100D11242A
:1052D000F801E758FC4F118A128A138A148A20E0D9
:1052E00030E0A90121A732A743A754A7108229E9DA
:1052F00036E746E95EE725A336A347A350A7C5A630
:10530000D6A6E7A6F0AA282F392F38A72FA388E022
:105310009CE09EA38DA39E012F5F3F4F3AA729A734
:105320004DE55AE05CA74BA706581C4FCE014196AD
:105330009CA38BA39EA78DA755245F017196F8AB04
:10534000EFA779E2272E312C2A0C3B1C9AAA8BAAB4
:105350006CAB462CEFA1F8A561917191819191916F
:10536000F8A7EFA3EDA1FEA16190719081909190BB
:10537000FEA3EDA3A40193010E943E3E0E940E3EB7
:105380009B01AC01E9A5FAA5219331934193519377
:10539000FAA7E9A7EBA5FCA581919191A191B19103
:1053A000FCA7EBA7281B390B4A0B5B0BDA01C901E1
:1053B00057FF07C088279927DC01821B930BA40B9A
:1053C000B50BF80180839183A283B3830C5F1F4FD9
:1053D000EFA5F8A9C080D180E280F3808C159D05EF
:1053E000AE05BF0510F4D701C601EFA5F8A980836B
:1053F0009183A283B383CA01B9010E94A23CA40194
:1054000093010E94073CF62EE72ED82EC92E862F38
:105410009E2DAD2DBC2DEDA5FEA581939193A1935D
:10542000B193FEA7EDA7A7019601652F742F832FD7
:10543000922F20E030E0A9010E94003C87FF08C0C5
:10544000F5019080852D0E94D92D8929F501808351
:10545000A7019601652F7E2D832F9C2DD701F60184
:105460002B2F3E2D4F2F5C2D0E943E3EF1012081BF
:105470003181428153810E94273B262F372F482FAD
:10548000592FF10120833183428353835394F52DA7
:10549000F43009F05FCF9AA88BA87CA8642C0E94F6
:1054A000CB3E7B018C01F101608371838283938306
:1054B000F50181899289A389B4890097A105B10575
:1054C00011F4F09A52C2A4019301652F742F832F17
:1054D000922F20E030E0A9010E94003C87FD12C01D
:1054E000F9A9FF23B9F0C801B701D401F3012B2FAB
:1054F0003A2F4F2F5E2F0E94073C962E872E782E34
:10550000692E08C069E9962E56E7852E46E9742E65
:105510003EE7632E60E070E080E89FE3A80197011A
:105520000E94073C6CAB7DAB8EAB9FAB2DE63AE0A7
:105530003EA32DA328E1A22E2CE0B22EAE014F5D9A
:105540005F4F59AF48AF1FA219A61BA61DA681E346
:1055500090E0E9A1FAA1E89F8001E99F100DF89F72
:10556000100D112402561C4FEBA1FCA1C080D1806C
:10557000E280F380C701B60120E030E0A9010E947B
:10558000003C882309F49EC0C701B601BCA9ADA99F
:10559000FEA9EFA92B2F3A2F4F2F5E2F0E943E3EE0
:1055A000562E79AB8AAB9BAB472F382F292F862FEE
:1055B000942FA32FB22FEBA1FCA180839183A28310
:1055C000B38360E070E080E89FE3F901252D342F7C
:1055D0004F2F5E2F0E94073C6B017C01E894F7F887
:1055E000C701B601F50120813181428153810E94BA
:1055F0003E3E462E372E282E9FA7A4019301652FED
:10560000782D832F962DEFA5242D332D422D5E2F3F
:105610000E94003C87FF04C0492C382C272C6FA621
:10562000F8019080818072806380C701B601F50126
:1056300020893189428953890E943E3EF62EE72E09
:10564000D82EC92EA4019301652F742F832F922F7A
:10565000D701F6012B2F3A2F4F2F5E2F0E94003CCF
:1056600087FF02C074016301A7019601852F9E2D5B
:10567000A32FBC2DF80180839183A283B38349A912
:105680003AA92BA9652D742F832F922FEDA1FEA18E
:1056900020813181428153810E943E3E9B01AC01B9
:1056A000BFA1A9A5FBA5EDA56B2F7A2F8F2F9E2F4C
:1056B0000E94263B6FA379A78BA79DA7942C832CD0
:1056C000722C6FA42BA13CA12C5F3F4F3CA32BA3BA
:1056D0004DA15EA14C5F5F4F5EA34DA384E090E0BF
:1056E000A80EB91EE8ADF9AD2E173F0709F03CCF63
:1056F00090917803809176039817A9F481E390E064
:1057000029A13AA1289FF001299FF00D389FF00DA3
:105710001124E758FC4F80E090E0DC01858B968BEC
:10572000A78BB08F67C060E070E080E89FE3BFA107
:10573000A9A5FBA5EDA52B2F3A2F4F2F5E2F0E9479
:10574000263B20E030E040E05FE30E943E3E0E94C6
:10575000CB3E7B018C0181E390E049A15AA1489F97
:10576000F001499FF00D589FF00D1124E758FC4FB0
:1057700065A176A187A190A520914C0C30914D0C8C
:1057800040914E0C50914F0C0E943E3EA801970153
:105790000E943E3E5B016C0160E070E080E89FE3A8
:1057A000A80197010E94263B9B01AC01C601B501EF
:1057B0000E94073C7B018C017F2D912F20E030E07F
:1057C000A9010E94003C87FF04C0EE24FF2400E0F2
:1057D00010E081E390E029A13AA1289FF001299FE0
:1057E000F00D389FF00D1124E758FC4F8E2D9F2DA2
:1057F000A02FB12F858F968FA78FB0A3A4019301FF
:10580000652F782D832F962DD401F3012B2F382D62
:105810004F2F562D0E943E3E7B01082FD92E81E34B
:1058200090E049A15AA1489FF001499FF00D589F6F
:10583000F00D1124E758FC4F8E2D9F2DA02FBD2D6C
:1058400081A392A3A3A3B4A3DF015D96C58C119697
:105850001C9111971296BC9012971396AC90909051
:105860007D0A80907E0A70907F0A6090800A55249D
:1058700053946E2D7F2D802F9D2DD401F3012B2F5E
:105880003A2F4F2F5E2F0E94003C87FD04C0552405
:10589000A401930104C05E2D4F2D302F2D2DF50155
:1058A0006C2D712F8F2F9A2DE52FF42FA32FB22F50
:1058B0009F01AD010E94003C87FD0AC0552029F0E0
:1058C000CE2C1F2DB02EAD2C03C0C92C182D53018A
:1058D00081E390E029A13AA1289FF001299FF00DD2
:1058E000389FF00D1124E758FC4F95018C2D912F16
:1058F000A32FBA2D818F928FA38FB48FADE6BAE01C
:10590000FE01719680E101900D928150E1F781E3F3
:1059100090E049A15AA1489FF001499FF00D589F7E
:10592000F00D1124E758FC4F81A192A1A3A1B4A1CD
:1059300080937D0A90937E0AA0937F0AB093800A99
:10594000ADE5BAE0FE01319680E101900D92815003
:10595000E1F78091810A809378038F5F843209F4A4
:1059600080E08093810A0E943227E9960FB6F8946E
:10597000DEBF0FBECDBFCF91DF911F910F91FF9082
:10598000EF90DF90CF90BF90AF909F908F907F90DF
:105990006F905F904F903F902F9008958091990A5B
:1059A00090919A0AA0919B0AB0919C0A80935D0AFB
:1059B00090935E0AA0935F0AB093600A80919D0A5B
:1059C00090919E0AA0919F0AB091A00A8093610ACB
:1059D0009093620AA093630AB093640A8091A10A2B
:1059E0009091A20AA091A30AB091A40A8093650A9B
:1059F0009093660AA093670AB093680A8091A50AFB
:105A00009091A60AA091A70AB091A80A8093690A6A
:105A100090936A0AA0936B0AB0936C0A08950E944F
:105A2000F21A80917603809377030E9432270895BB
:105A30006F927F928F929F92AF92BF92CF92DF929E
:105A4000EF92FF920F931F93CF93DF933C014B0193
:105A50005A01FB018081F301E80FF11DEF0129914B
:105A60002D3221F42181219601E005C02B3211F461
:105A70002181219600E0F0E0E0E010E060E070E0DD
:105A8000CB01A22FA053AA30F8F4EF5FE930C0F4A5
:105A9000F11111509B01AC01B2E0220F331F441FE2
:105AA000551FBA95D1F7620F731F841F951F660F9C
:105AB000771F881F991F6A0F711D811D911D09C0D5
:105AC000FF2339F41F5F05C0AE3F29F4FF2319F40B
:105AD000F1E02991D6CFEE2309F450C00E94A03CFA
