:100000000C9421050C94062F0C9442050C94420587
:100010000C9442050C9442050C9442050C94420544
:100020000C9442050C9442050C9442050C94883BB8
:100030000C941E2F0C9442050C9442050C9442051E
:100040000C9442050C94C1170C9442050C94420583
:100050000C9442050C949D1A0C9442050C947D1A44
:100060000C9442050C9400160C94BE150C94420599
:100070000C9442050C9442050C9442050C944205E4
:100080000C9442050C9442050C9442050C944205D4
:100090000C9442050C9442050C9442050C944205C4
:1000A0000C9442050C9442050C9442050C944205B4
:1000B0000C9442050C9442050C9442050C944205A4
:1000C0000C9442050C9442050C9442050C94420594
:1000D0000C9442050C9442050C9442050C94420584
:1000E0000C944205B825B825B825B825C325CC25DC
:1000F000D525DE25E725FE2515262C2643264C266C
:1001000055265E2667267A2683268C269526A026E7
:10011000A926B826C926D826E726F8260B271A27A7
:1001200023272C2735273E27472750275B2764277F
:100130006B27084AD73B3BCE016E84BCBFFDC12F65
:100140003D6C74319ABD56833DDA3D00C77F11BEC8
:10015000D9E4BB4C3E916BAAAABE000000803F05CB
:10016000A84CCDB2D44EB93836A9020C50B99186FC
:1001700088083CA6AAAA2ABE000000803F290A0DD2
:100180000028003E0D0A002C4C6E3A002C004374EF
:10019000733A002C002C506F733A003C436865633F
:1001A0006B003C416C61726D003C486F6D65003CBA
:1001B000486F6C64003C52756E003C517565756506
:1001C000003C49646C6500297D0A0D0020283A0036
:1001D0002C20633A2000297C0020283A007B7A3AC0
:1001E00020007D0A0D002C20763A007B653A005DE8
:1001F0000D0A005B302E39652C20417567203135A2
:1002000020323031342031343A33373A30302028FC
:100210004B65794D65203235363029203A000D0A7C
:10022000003D00244E005D0D0A00204600205400D1
:10023000204D3800204D3900204D3500204D340030
:10024000204D3300204D3200204D3100204D300034
:100250002047393400204739330020473931002006
:1002600047393000204732300020473231002047E4
:1002700036360020473230002047323100204731E7
:100280003900204731380020473137002047005BD4
:10029000473830005B4733005B4732005B47310033
:1002A0005B4730005D0D0A005B544C4F3A005D0D1A
:1002B0000A002C005B4739323A005D0D0A002C0021
:1002C0003A003330003238005B47005D0D0A002CE5
:1002D000005B5052423A000D0A00202864656361B9
:1002E00079206D6F64652C2028302E2E332929004B
:1002F000290D0A2433383D0020286D6963726F731D
:1003000074657073203A20000D0A2433373D0020B5
:1003100028686F6D696E672070756C6C2D6F6666EE
:100320002C206D6D29002028686F6D696E67206430
:1003300065626F756E63652C206D736563290D0AA8
:100340002433363D002028686F6D696E6720736521
:10035000656B20632C206D6D2F6D696E290D0A244D
:1003600033353D002028686F6D696E6720736565C1
:100370006B207A2C206D6D2F6D696E290D0A243348
:10038000343D002028686F6D696E67207365656B6A
:1003900020792C206D6D2F6D696E290D0A24333361
:1003A0003D002028686F6D696E67207365656B205E
:1003B000782C206D6D2F6D696E290D0A2433323D26
:1003C000002028686F6D696E6720666565642C2063
:1003D0006D6D2F6D696E290D0A2433313D00290D95
:1003E0000A2433303D002028686F6D696E672064F1
:1003F000697220696E76657274206D61736B3A0064
:100400002028686F6D696E67206379636C652C20A6
:10041000626F6F6C290D0A2432393D002028686113
:100420007264206C696D6974732C20626F6F6C2923
:100430000D0A2432383D002028736F6674206C69E1
:100440006D6974732C20626F6F6C290D0A2432372A
:100450003D002028696E76657274206C696D697440
:100460002070696E732C20626F6F6C290D0A243224
:10047000363D002028696E7665727420737465704D
:1004800020656E61626C652C20626F6F6C290D0AAD
:100490002432353D0020286175746F2073746172B9
:1004A000742C20626F6F6C290D0A2432343D0020B9
:1004B000287265706F727420696E636865732C2092
:1004C000626F6F6C290D0A2432333D00202861725F
:1004D0006320746F6C6572616E63652C206D6D298D
:1004E0000D0A2432323D0020286A756E6374696FEC
:1004F0006E20646576696174696F6E2C206D6D295C
:100500000D0A2432313D002028737465702069641F
:100510006C652064656C61792C206D736563290DB1
:100520000A2432303D00290D0A2431393D002028AB
:1005300064697220706F727420696E7665727420BF
:100540006D61736B3A00290D0A2431383D00202873
:100550007374657020706F727420696E7665727442
:10056000206D61736B3A002028737465702070757C
:100570006C73652C2075736563290D0A2431373D32
:1005800000202863206D61782074726176656C2C80
:10059000206D6D290D0A2431363D0020287A206D0A
:1005A00061782074726176656C2C206D6D290D0A5E
:1005B0002431353D00202879206D617820747261E6
:1005C00076656C2C206D6D290D0A2431343D002098
:1005D0002878206D61782074726176656C2C206DAE
:1005E0006D290D0A2431333D0020286320616363A7
:1005F000656C2C206D6D2F7365635E32290D0A24A6
:1006000031323D0020287A20616363656C2C206DB7
:100610006D2F7365635E32290D0A2431313D002050
:10062000287920616363656C2C206D6D2F73656381
:100630005E32290D0A2431303D0020287820616384
:1006400063656C2C206D6D2F7365635E32290D0A16
:1006500024393D00202863206D6178207261746523
:100660002C206D6D2F6D696E290D0A24383D0020F8
:10067000287A206D617820726174652C206D6D2F51
:100680006D696E290D0A24373D00202879206D619F
:100690007820726174652C206D6D2F6D696E290D47
:1006A0000A24363D00202878206D6178207261741C
:1006B000652C206D6D2F6D696E290D0A24353D0066
:1006C0002028632C20737465702F6D6D290D0A240A
:1006D000343D0020287A2C20737465702F6D6D29AD
:1006E0000D0A24333D002028792C20737465702F67
:1006F0006D6D290D0A24323D002028782C2073745A
:1007000065702F6D6D290D0A24313D0024303D00A8
:100710002424202876696577204772626C207365EF
:100720007474696E6773290D0A242320287669651D
:1007300077202320706172616D6574657273290D75
:100740000A24472028766965772070617273657284
:10075000207374617465290D0A244E20287669651A
:1007600077207374617274757020626C6F636B7341
:10077000290D0A24783D76616C75652028736176B1
:1007800065204772626C2073657474696E67290D09
:100790000A244E783D6C696E652028736176652069
:1007A0007374617274757020626C6F636B290D0ACB
:1007B00024432028636865636B2067636F6465204A
:1007C0006D6F6465290D0A245820286B696C6C20B4
:1007D000616C61726D206C6F636B290D0A24483C5B
:1007E000783D73696E676C6520617869733E202877
:1007F00072756E20686F6D696E67206379636C65D2
:10080000290D0A24453C783D636C6561722061784E
:1008100069733E20287265706F727420656E636F15
:1008200064657273290D0A7E20286379636C6520E4
:100830007374617274290D0A21202866656564202D
:10084000686F6C64290D0A3F202863757272656EAB
:100850007420737461747573290D0A5E20286C69A5
:100860006D69742070696E73290D0A6374726C2D42
:100870007820287265736574204772626C290D0AAE
:10088000000D0A4772626C20302E3965205B2724E8
:100890002720666F722068656C705D0D0A005D0D23
:1008A0000A0044697361626C656400456E61626C44
:1008B00065640043617574696F6E3A20556E6C6FA4
:1008C000636B656400272448277C272458272074FD
:1008D0006F20756E6C6F636B005265736574207466
:1008E0006F20636F6E74696E7565005B000D0A00A2
:1008F00050726F6265206661696C0041626F72744C
:1009000020647572696E67206379636C6500486165
:1009100072642F736F6674206C696D697400414C4A
:1009200041524D3A20000D0A00496E76616C6964AF
:100930002067636F64652049443A00556E646566BC
:10094000696E656420666565642072617465005532
:100950006E737570706F7274656420636F6D6D6116
:100960006E64004D6F64616C2067726F75702076E5
:10097000696F6C6174696F6E004C696E65206F768B
:100980006572666C6F7700486F6D696E67206E6F79
:100990007420656E61626C656400416C61726D20EB
:1009A0006C6F636B004E6F742069646C6500454525
:1009B00050524F4D2072656164206661696C2E2033
:1009C0005573696E672064656661756C7473005653
:1009D000616C7565203C2033207573656300536539
:1009E0007474696E672064697361626C6564005633
:1009F000616C7565203C203000496E76616C6964DD
:100A00002073746174656D656E7400426164206E5C
:100A1000756D62657220666F726D617400457870E5
:100A2000656374656420636F6D6D616E64206C65D1
:100A300074746572006572726F723A20006F6B0D8C
:100A40000A0011241FBECFEFD1E2DEBFCDBF00E010
:100A50000CBF12E0A0E0B2E0ECE0F1E800E00BBF78
:100A600002C007900D92A632B107D9F71CE0A6E2AA
:100A7000B2E001C01D92A437B107E1F70E9444051E
:100A80000C9484400C9400001F930E948D150E94CA
:100A900083270E94E71A0E948E390E944A3B87E210
:100AA000E8E9FAE0DF011D928A95E9F71092BF0AA2
:100AB0001092C00A1092C10A1092C20A1EBA81E0B6
:100AC0008093980A789411E00E9452160E949A0A24
:100AD0000E9487150E948A150E94B72E0E947D33BE
:100AE0000E9459290E94AD1A0E94542D0E94060BA3
:100AF0001092980A1EBA8091560C81FF03C0109381
:100B00009A0A02C010929A0A0E94EC16DDCF9F92B8
:100B1000AF92BF92CF92DF92EF92FF920F931F930B
:100B2000CF93DF93EC015A016B01922E8091560C0A
:100B300085FF03C0CE010E946B318091990A8230FB
:100B4000D9F00E9457168091980A8823A9F40E9430
:100B5000B729882319F00E94E716F3CFCE01B6011A
:100B6000A501292D0E94BF298091990A882321F48B
:100B700088E0E8E9FAE08183DF91CF911F910F913E
:100B8000FF90EF90DF90CF90BF90AF909F9008952F
:100B90002F923F924F925F926F927F928F929F928D
:100BA000AF92BF92CF92DF92EF92FF920F931F937B
:100BB000DF93CF93CDB7DEB7E6970FB6F894DEBFDD
:100BC0000FBECDBF9E878D87788B6F872A010987DF
:100BD0001A872B873C87C98ADA8AEB8AFC8AAB8E14
:100BE0009924880C991C880C991C880D991D9D8F3F
:100BF0008C8F9201280D391D3F8F2E8FD901CD90FA
:100C0000DD90ED90FC90C701B601EC8DFD8D20814B
:100C10003181428153810E942B3C6CA37DA38EA322
:100C20009FA32D960FAD2D9710E0000F111F000F01
:100C3000111F2D853E85200F311F39A328A3C20126
:100C4000800F911F9BA38AA3DC014D905D906D9056
:100C50007C90C301B201F90120813181428153812D
:100C60000E942B3C68A779A78AA79BA7D701C6013A
:100C7000B0588D839E83AF83B887D301C201B0582B
:100C800089839A83AB83BC83EF85F889E80DF91DCE
:100C90006081718182819381BCA1ADA1FEA1EFA190
:100CA0002B2F3A2F4F2F5E2F0E942A3CE62EC72E65
:100CB000A82E892EEF85F889E00FF11F60817181E0
:100CC00082819381B8A5A9A5FAA5EBA52B2F3A2F70
:100CD0004F2F5E2F0E942A3CF62E072F182F992E99
:100CE0006D817E818F8198852F2D302F412F592D39
:100CF0000E94423F2B013C0169817A818B819C815A
:100D00002E2D3C2D4A2D582D0E94423F9B01AC01B7
:100D1000C301B2010E942A3C2B013C016D817E81FE
:100D20008F8198852E2D3C2D4A2D582D0E94423FB3
:100D30005B016C0169817A818B819C812F2D302F21
:100D4000412F592D0E94423F9B01AC01C601B501C4
:100D50000E942B3C9B01AC01C301B2010E949E3C4E
:100D6000F62E172F882E092F8091C30A8230B1F4F6
:100D70006F2D712F882D902F20E030E0A9010E9467
:100D8000073F87FD24C06F2D712F882D902F2BEDED
:100D90003FE049EC50E40E942A3C15C06F2D712FB2
:100DA000882D902F20E030E0A9010E94043D181604
:100DB00074F06F2D712F882D902F2BED3FE049ECB3
:100DC00050E40E942B3CF62E172F882E092FA0905E
:100DD000520CB090530CC090540CD090550C6985B7
:100DE0007A858B859C859B01AC010E942B3CA601DA
:100DF00095010E942A3C9B01AC01C601B5010E94ED
:100E0000423F0E94CF3F5B016C016F2D712F882DF7
:100E1000902F20E030E040E05FE30E94423F2985D0
:100E20003A854B855C850E94423F9F77A6019501DC
:100E30000E940B3D0E94E13D0E94783D7A876987C0
:100E4000DB01109709F4DFC1BB8DBB23A1F080E06B
:100E500090E00E94A43D9B01AC01B989AA89FB895D
:100E6000EC896B2F7A2F8F2F9E2F0E94423F698B28
:100E70007A8B8B8B9C8B29853A85B90180E090E039
:100E80000E94A43D5B016C016F2D712F882D902F66
:100E9000A60195010E940B3D6D8B7E8B8F8B988FE9
:100EA0002E968FAD2E9790E0880F991F880F991F6F
:100EB000AD85BE85A80FB91FBA8FA98FEF85F889B8
:100EC0008E0F9F1FDC016D917D918D919C91E98D1D
:100ED000FA8D20813181428153810E942A3CA601F2
:100EE00095010E940B3D6BAB7CAB8DAB9EAB5D89DE
:100EF0004E893F89288D652F742F832F922FDA0119
:100F0000F9012B2F3A2F4F2F5E2F0E94423F9B015A
:100F1000AC0160E070E080E090E40E942A3CF62E94
:100F2000072F182FC92E5D894E893F89288D652F7F
:100F3000742F832F922F2BEA3AEA4AE25EE30E9453
:100F4000423F4B015C016F2D702F812F9C2D20E0C3
:100F500030E040E850E40E942B3C9B01AC01C5010D
:100F6000B4010E94423F6CA77DA78EA79FA76F2D5B
:100F7000702F812F9C2D20E030E040E05FE30E9445
:100F8000423FC62E78AB89AB9AAB882481E0282EED
:100F9000312C9C2C32C1F82DF43108F063C06D81E6
:100FA0007E818F819885BCA5ADA5FEA5EFA52B2FD1
:100FB0003A2F4F2F5E2F0E94423F7B018C016981A7
:100FC0007A818B819C81A8A9F9A9EAA9292D3A2FB8
:100FD0004F2F5E2F0E94423F9B01AC01C801B70119
:100FE0000E942B3CD62EC72EA82E492E6D817E81C5
:100FF0008F819885A8A9F9A9EAA9292D3A2F4F2F01
:101000005E2F0E94423F162F072FF82EE92E69818E
:101010007A818B819C81BCA5ADA5FEA5EFA52B2F68
:101020003A2F4F2F5E2F0E94423F9B01AC01D80107
:10103000F7016B2F7A2F8F2F9E2F0E942A3C262F8D
:10104000372F482F592F2D833E834F835887839402
:10105000A601852F942FAA2DB42D89839A83AB8363
:10106000BC8372C0B10180E090E00E94A43DBD89C4
:10107000AE89FF89E88D2B2F3A2F4F2F5E2F0E94CC
:10108000423F7B018C017F2D912F0E94083D698397
:101090007A838B839C836E2D7F2D802F912F0E94CE
:1010A000C53F5B016C01AE8DBF8DED90FD900D9144
:1010B0001C9117FB109517F91095EAA1FBA1408030
:1010C000518062807380C801B70129813A814B81C8
:1010D0005C810E94423F6D837E838F839887C3012A
:1010E000B201A60195010E94423F9B01AC016D81B6
:1010F0007E818F8198850E942B3C262F372F482F89
:10110000592F2D833E834F835887C801B701A6010D
:1011100095010E94423F7B018C01C301B2012981EC
:101120003A814B815C810E94423F9B01AC01C80126
:10113000B7010E942A3C262F372F482F592F298389
:101140003A834B835C8388245CA14DA13EA12FA1EF
:10115000652F742F832F922F2D813E814F815885CB
:101160000E942B3CAC8DBD8D6D937D938D939C9394
:10117000139758A549A53AA52BA5652F742F832F42
:10118000922F29813A814B815C810E942B3CE8A1FE
:10119000F9A16083718382839383A98DBA8D6D9148
:1011A0007D918D919C91BBA9ACA9FDA9EEA92B2F96
:1011B0003A2F4F2F5E2F0E942B3CE98DFA8D6083D2
:1011C0007183828393838D859E85F989EA893B8922
:1011D0002C894F2F5E2F632F722F2B8D6296ECACD4
:1011E000FDAC0EAD1FAD62970E9487058091980AF5
:1011F0008823E1F40894211C311C29853A852216A4
:10120000330608F4C8CE8F859889F989EA893B8925
:101210002C894F2F5E2F632F722F2B8D6296ECAC93
:10122000FDAC0EAD1FAD62970E948705E6960FB626
:10123000F894DEBF0FBECDBFCF91DF911F910F910C
:10124000FF90EF90DF90CF90BF90AF909F908F90E6
:101250007F906F905F904F903F902F900895EF9206
:10126000FF920F931F93CF93DF937B018C018091AB
:10127000990A823009F447C0C801B70120E030E084
:1012800040EA51E40E94423F0E94E13D0E94783DC5
:10129000EB010E94D016C801B70120E030E04AE718
:1012A00054E40E94423F7B018C0182E390E0C89F9E
:1012B000B001C99F700DD89F700D112480E090E09F
:1012C0000E94A43D9B01AC01C801B7010E942A3CC9
:1012D0000E94E13D0E94783DDC01CB010E94542E2A
:1012E00010C00E94571621978091980A882359F4BC
:1012F0008FEF90E7A2E081509040A040E1F700C05E
:101300000000209771F7DF91CF911F910F91FF900F
:10131000EF9008951F93182F84E08093990A0E94FC
:10132000B22E812F84700E944E2F812F82700E94D6
:101330004E2F812F89700E944E2F0E945716809148
:10134000980A882381F40E94060B12FF06C00E94AF
:101350007B3B82E090E00E94643B1092990A0E94DD
:1013600092170E94B72E1F9108953F924F925F925D
:101370006F927F928F929F92AF92BF92CF92DF92A5
:10138000EF92FF920F931F93DF93CF9300D000D083
:10139000CDB7DEB7982E892E2A013B01322E570198
:1013A00068018091990A803111F00E94E7160E942D
:1013B000D0168091980A882309F073C00E94A33345
:1013C000892D982DB301A201232D860175010E945C
:1013D000870581E08093C00AF19A0E945716809198
:1013E000980A882309F05DC08091990A882311F03A
:1013F000883099F78091C00A883009F4F69A0E94E3
:1014000057168091980A882309F04BC08BEA9AE01E
:101410009E838D830AE01CE0C401E92EF82CED8147
:10142000FE816191719181919191FE83ED83F8012B
:1014300021913191419151918F0129833A834B83BD
:101440005C830E94A63D29813A814B815C810E9488
:101450000B3DF70161937193819391937F018D818E
:101460009E81EAE08B3B9E07D1F60E9457160E94B0
:10147000AD1A0E9459290E94542D892D982DB3012F
:10148000A201232D860175010E948705F19A0E9411
:10149000D0168091980A882321F40E94060B0E949E
:1014A000833626960FB6F894DEBF0FBECDBFCF9120
:1014B000DF911F910F91FF90EF90DF90CF90BF9041
:1014C000AF909F908F907F906F905F904F903F90E4
:1014D0000895F4990CC0F49A0E9488150E948B1507
:1014E0008091990A847319F0F59A0E9492170895D1
:1014F0000F931F93CF93DF93C6EDDAE00AE31BE06F
:101500006991799189919991F80121913191419154
:1015100051918F010E94043D882331F4FAE0C63EC8
:10152000DF0771F781E001C080E0DF91CF911F916B
:101530000F910895AF92BF92CF92DF92EF92FF92F8
:101540000F931F93CF93DF9363EC7AE087E4FB0163
:1015500011928A95E9F780E06D5D7F4F0E946225C8
:10156000882319F487E00E94A33360E070E080E2F2
:1015700091E420910A0C30910B0C40910C0C50918D
:101580000D0C0E940B3D162F072FF82EE92ECEE0F2
:10159000DCE0299139914991599160E070E080E255
:1015A00091E40E940B3DD62EC72EB82EA92EA8017D
:1015B0009701652F702F832F9E2DD601F5012B2FBC
:1015C0003A2F4F2F5E2F0E94043D87FD02C08601F7
:1015D0007501FCE0CA31DF07E1F6A8019701852F0C
:1015E000902FA32FBE2D80930A0B90930B0BA093EB
:1015F0000C0BB0930D0BDF91CF911F910F91FF90CA
:10160000EF90DF90CF90BF90AF900895AF92BF92D0
:10161000CF92DF92EF92FF920F931F93CF93DF93BE
:10162000CBE9DAE00AE01CE086EDE82E8AE0F82E4D
:101630006991799189919991F801A190B190C190A6
:10164000D1908F010E94A63DA60195010E940B3DFD
:10165000F70161937193819391937F01FAE0CB3A03
:10166000DF0731F7DF91CF911F910F91FF90EF903E
:10167000DF90CF90BF90AF9008952F923F924F92FE
:101680005F926F927F928F929F92AF92BF92CF9212
:10169000DF92EF92FF920F931F93DF93CF93CDB71B
:1016A000DEB7E4970FB6F894DEBF0FBECDBF9BA7A1
:1016B0008AA7AEE0BBE08CE3FD0111928A95E9F7C1
:1016C0001196E3ECFAE08AE001900D928150E1F787
:1016D0001982442455241FA21EA21CA6EE243324E2
:1016E00091E0C92ED12CAA24A39484E0282E05E0F1
:1016F000B02E12E0F12EB3C2912F91549A3110F016
:101700000C943F158F5F89838AA59BA5BE016F5FEF
:101710007F4FAE014E5F5F4F0E949E2D882311F4D4
:101720000C9441156A807B808C809D80C401B3013C
:101730000E9410400E94783D062F70E0882777FDB8
:101740008095982F0E94A63D9B01AC01C401B30176
:101750000E942A3C20E030E048EC52E40E94423FE4
:101760000E94A53F0E94783D173421F01D3409F0F6
:1017700061C124C10B3209F4ECC00C3200F5043114
:1017800070F4013108F0B9C0043009F445C00430E8
:1017900008F48AC00A3011F00C94531535C00C318E
:1017A00099F10D3128F4063110F00C945315C5C091
:1017B0000E3151F1063211F00C94531575C00035FD
:1017C00009F478C0013590F40C3358F4063308F06E
:1017D000D3C0013309F4BDC0053311F00C94531587
:1017E0001BC0023411F00C945315B0C00C3561F0DD
:1017F0000D3528F40A3510F40C9453158CC00F35B0
:1018000010F00C94531590C0662331F4332011F07E
:101810000C944315332433940C31B1F00D3130F472
:10182000043061F00A3009F0ACC00BC0053349F157
:101830000C3559F10E3109F0A4C015C0A0920E0B61
:10184000A0C0F0920E0B9DC0662329F06A3011F003
:101850000C94531504C0F3E0F0930E0B02C02092D9
:101860000E0B80E095C0662329F06A3011F00C94CD
:10187000531503C0B0920E0BF4CF26E020930E0B4D
:10188000F0CF37E030930E0B7CC0662329F06A302E
:1018900011F00C94531504C088E080930E0BE1CF37
:1018A00099E090930E0BDDCF332011F00C9443158B
:1018B000B2E03B2E023099F0033030F4002361F0A7
:1018C000013009F060C00BC0063261F0003591F0C4
:1018D000033009F058C003C010920F0B54C000939E
:1018E0000F0B51C0643111F00C94531520920F0B63
:1018F00081E04EC0B0920F0B46C0023129F0033197
:1019000031F01092130B05C0A092130B02C0F0929D
:10191000130B82E039C00A3519F41092120B02C081
:10192000A092120B83E030C00D3519F4A092100B79
:1019300002C01092100B84E027C0043119F4A09269
:10194000110B02C01092110B85E01EC0F092110B1A
:10195000FBCF332011F00C944315013319F410928E
:10196000140B06C06A3011F00C945315A092140B9E
:1019700086E0A3E03A2E0CC006530093150B87E0D7
:1019800003C080E001C081E0662311F00C9445158E
:10199000D60102C0AA0FBB1F8A95E2F72EA13FA174
:1019A0002A233B232115310511F00C945F15EEA17C
:1019B000FFA1EA2BFB2BFFA3EEA351C1662311F07D
:1019C0000C944515063018F40330D0F40AC00830E2
:1019D00010F40C9453150A3010F10E3111F00C94E0
:1019E0005315023041F00E3131F0002311F00C9408
:1019F000531581E001C082E08093160B0C945315BF
:101A0000043021F0053039F081E001C082E080939C
:101A1000180B0C9453151092180B0C945315093095
:101A200029F082E08093170B0C9453151092170B3A
:101A30000C9453151E3409F485C01F34BCF41934BA
:101A400009F44DC01A343CF4133459F1163411F032
:101A50000C94531536C01B3409F45FC01B340CF4CE
:101A60004BC01C3411F00C94531568C0143509F4A4
:101A7000D1C015355CF4123509F480C013350CF073
:101A80008BC0103511F00C9453156AC0193509F448
:101A9000A1C01A3509F4AEC0183511F00C945315D5
:101AA00089C08A819B81AC81BD818093460B9093D4
:101AB000470BA093480BB093490BF8E0EF2A8DE059
:101AC000AAC08A819B81AC81BD818093190B9093C0
:101AD0001A0BA0931B0BB0931C0B80E09CC0609270
:101AE0001D0B70921E0B80921F0B9092200B2CA549
:101AF00021602CA781E08FC08A819B81AC81BD8150
:101B00008093210B9093220BA093230BB093240B73
:101B10003CA532603CA782E07EC08A819B81AC817B
:101B2000BD818093250B9093260BA093270BB09338
:101B3000280B8CA584608CA783E06DC00093290BD3
:101B400084E069C0C401B3010E94733D60932A0B15
:101B500070932B0B80932C0B90932D0B85E05BC027
:101B60008A819B81AC81BD8180932E0B90932F0B3A
:101B7000A093300BB093310B86E04DC08A819B81DE
:101B8000AC81BD818093320B9093330BA093340BC7
:101B9000B093350B87E03FC08A819B81AC81BD81CA
:101BA0008093360B9093370BA093380BB093390B7F
:101BB00088E031C08A819B81AC81BD8180933A0BE2
:101BC00090933B0BA0933C0BB0933D0B91E0E92A23
:101BD0008AE021C08A819B81AC81BD8180933E0BCC
:101BE00090933F0BA093400BB093410BA2E0EA2AE5
:101BF0008BE011C08A819B81AC81BD818093420BB7
:101C00009093430BA093440BB093450BB4E0EB2AA5
:101C10008CE001C089E08601082E02C0000F111F70
:101C20000A94E2F79801242135212115310509F0A4
:101C30002EC7E1E6F3E002C0F595E7958A95E2F755
:101C4000E0FF0BC06A817B818C819D8120E030E0C8
:101C5000A9010E94043D87FD1CC7402A512A8981A1
:101C6000EAA5FBA5E80FF11D1081112309F044CD71
:101C7000EE2021F0332011F4F2E03F2E45FE11C09A
:101C800080912A0B90912B0BA0912C0BB0912D0BD6
:101C90008038F6E99F07F8E9AF07F0E0BF070CF0DE
:101CA000FAC68091100B813051F4232D223011F4AB
:101CB00040FE01C78091110B8230E9F5F4C6809196
:101CC000C40A8823C1F540FE26C08091110B8130E3
:101CD000B9F46091190B70911A0B80911B0B9091C4
:101CE0001C0B23E333E34BEC51E40E94423F60932F
:101CF000190B70931A0B80931B0B90931C0B1BC03A
:101D00008230C9F480910A0B90910B0BA0910C0BBF
:101D1000B0910D0B08C08091D10A9091D20AA09188
:101D2000D30AB091D40A8093190B90931A0BA09305
:101D30001B0BB0931C0B50FC10C08091CD0A9091EE
:101D4000CE0AA091CF0AB091D00A8093360B90931F
:101D5000370BA093380BB093390B80910E0B813069
:101D600031F446FE9CC68FEB9FEF482259228091AA
:101D7000130B823088F490E0FC01E050FE4FA0810C
:101D8000AEA7FC01EE5FFD4FB081BFA78C5F9D4FFA
:101D9000FC01F081FCAB05C01CAA22E02FA731E0BA
:101DA0003EA76090110B662009F441C00AE31BE0D6
:101DB000EAE0CE2EECE0DE2EAA24BB248E2C992461
:101DC000C4010A2C02C0959587950A94E2F780FF1A
:101DD00021C0862D823069F4D8016D917D918D915D
:101DE0009C91F60120813181428153810E940B3DFB
:101DF0000BC0F801608171818281938123E333E319
:101E00004BEC51E40E94423FD8016D937D938D933A
:101E10009C9313970894A11CB11C0C5F1F4FE4E026
:101E2000F0E0CE0EDF1EF4E0AF16B10449F6232D2C
:101E3000233041F48091140B813021F43E2D343055
:101E400009F02BC6DE011696E6EEFAE080E101907D
:101E50000D928150E1F78EA187FF11C08091150B83
:101E6000873008F01EC69091C90A981741F0BE014C
:101E70006A5F7F4F0E946225882309F416C6F0909E
:101E80000E0B9F2D923021F0983009F013C1A4C0A1
:101E9000EE2009F41AC6C20180759070009709F40B
:101EA000FEC560912E0B70912F0B8091300B90919D
:101EB000310B0E9410400E94783D673008F0F1C558
:101EC0008091290B843129F0823009F0ECC547FC60
:101ED000EAC5662319F0862F815002C08091150B48
:101EE0008E010A5E1F4FB8010E946225882309F403
:101EF000DCC5F090290B8091060B9091070BA09107
:101F0000080BB091090B8EA39FA3A8A7B9A77AE3EA
:101F1000A72E7BE0B72E66ED662E6AE0762ECC24E7
:101F2000DD248E2C9924C4010C2C02C09595879534
:101F30000A94E2F780FF3BC09F2D943171F5D301E5
:101F40006D917D918D919C91139790962D913D91DE
:101F50004D915C9193970E942A3CF501208131813B
:101F6000428153810E942A3C262F372F482F592F18
:101F7000D8012D933D934D935C931397BC2DB230B4
:101F8000B1F42EA13FA148A559A50E942A3CF80111
:101F900060837183828393830AC0F501808191817C
:101FA000A281B381F80180839183A283B3830894D3
:101FB000C11CD11C0C5F1F4F24E030E0A20EB31EE9
:101FC000620E731E34E0C316D10409F0ACCF8FEA61
:101FD0009FEF4822592211C1EE2009F476C5809165
:101FE000060B9091070BA091080BB091090B8EA3E3
:101FF0009FA3A8A7B9A70AE31BE056EDA52E5AE0B8
:10200000B52E46E0C42ED12CCC0EDD1E66247724DE
:102010008E2C9924C401062C02C0959587950A94AC
:10202000E2F780FF2CC0D5016D917D918D919C913F
:10203000F60120813181428153810E942A3CD801DE
:102040002D913D914D915C910E942A3C262F372F76
:10205000482F592FF8012083318342835383F62D73
:10206000F230B9F42EA13FA148A559A50E942A3CFF
:10207000D8016D937D938D939C9313970AC0F501BE
:1020800080A191A1A2A1B3A1F80180839183A28331
:10209000B3830894611C711C0C5F1F4F24E030E077
:1020A000A20EB31EC20ED31E34E06316710409F0F3
:1020B000B1CFA3C0832D833009F487C0EE2009F48B
:1020C00084C02090120B8091060B9091070BA09179
:1020D000080BB091090B8EA39FA3A8A7B9A736ED53
:1020E000A32E3AE0B32E0AE31BE026E0C22ED12C49
:1020F000CC0EDD1E662477248E2C9924C401062C78
:1021000002C0959587950A94E2F780FD0BC0F50112
:1021100080819181A281B381F80180839183A28320
:10212000B38343C0FF2DF73009F43FC0222061F58F
:10213000D6016D917D918D919C91F50120A131A1E8
:1021400042A153A10E942B3CD8012D913D914D916C
:102150005C910E942B3C262F372F482F592FF801D6
:102160002083318342835383F62DF230F1F42EA184
:102170003FA148A559A50E942B3CD8016D937D93A2
:102180008D939C93139711C0F801608171818281B6
:102190009381D5012D913D914D915C910E942B3CF5
:1021A000F80160837183828393830894611C711C9E
:1021B00024E030E0A20EB31E0C5F1F4FC20ED31EF0
:1021C00034E06316710409F099CF80910E0B8530CD
:1021D00031F0873069F0833081F486E001C087E018
:1021E000BE016A5E7F4F0E946225882331F45DC480
:1021F00080910F0B823008F05AC410910F0B1530EC
:1022000041F4EE2009F458C2832D813009F051C405
:1022100053C2932D923009F04FC21123E1F0609127
:10222000190B70911A0B80911B0B90911C0B20E0E5
:1022300030E0A9010E94043D882309F43CC4143015
:1022400030F4123060F4113009F036C204C014309A
:1022500009F032C223C2EE2009F42DC22DC2EE20B5
:1022600009F433C4BEA5AB2FB0E0B9ABA8ABFFA552
:10227000EF2FF0E0FBABEAAB81E090E08C010FA424
:1022800002C0000F111F0A94E2F70EA402C0880FCB
:10229000991F0A94E2F7082B192BFF24E022F12260
:1022A000E114F10409F409C4E090110B2E2D223041
:1022B00009F405C4AA0FBB1FAA0FBB1FA65CB44F2D
:1022C000E8A9F9A9EE0FFF1FEE0FFF1FED53F54F21
:1022D0006D917D918D919C91238934894589568991
:1022E0000E942A3C662E972E882E792EAAA9BBA979
:1022F000AA0FBB1FAA0FBB1FA65CB44FEAA9FBA97C
:10230000EE0FFF1FEE0FFF1FED53F54F6D917D9107
:102310008D919C9123893489458956890E942A3C54
:10232000262E7EA38AA79DA747FE01C10E94780A98
:10233000882309F0CCC33E2D3130B1F46091320BCB
:102340007091330B8091340B9091350B23E333E381
:102350004BEC51E40E94423F6093320B7093330B7D
:102360008093340B9093350BE090320BF090330B4D
:102370000091340B1091350BC801B70120E030E01B
:1023800040E850E40E94423FA80197010E94423F6A
:102390007B018C01662D792D882D972D262D392DC9
:1023A000482D572D0E94423F9B01AC01C801B70147
:1023B0000E942A3C7B018C014EA13AA52DA5622DDD
:1023C000742F832F922FF901222D342F4F2F5E2F40
:1023D0000E94423F9B01AC01C801B7010E942A3C08
:1023E0007B018C017F2D912F20E030E0A9010E941C
:1023F000043D87FD66C36E2D7F2D802F912F0E9497
:10240000CF3F7B018C01662D792D882D972DAEA1B4
:10241000FAA5EDA5222D3A2F4F2F5E2F0E94802E78
:102420009B01AC01C801B70190580E940B3DA62E3C
:10243000B72EC82ED92E80910F0B833021F4D7FAF6
:10244000D094D7F8D094E090320BF090330B0091F9
:10245000340B1091350BC801B70120E030E0A90121
:102460000E94043D87FF10C0D7FAD094D7F8D094CB
:1024700017FB109517F91095E092320BF092330B81
:102480000093340B1093350B8FE79FEF48225922AE
:1024900008A919A9000F111F000F111F0E5E144F7C
:1024A0004EA13AA52DA5622D742F832F922FA60140
:1024B00095010E94423F9B01AC01662D792D882D2C
:1024C000972D0E942A3C20E030E040E05FE30E942C
:1024D000423FD8011B966D937D938D939C931E97DD
:1024E0000AA91BA9000F111F000F111F0E5E144F28
:1024F000662D792D882D972DA60195010E94423FCA
:102500009B01AC01AEA1FAA5EDA5622D7A2F8F2F0C
:102510009E2F0E942B3C20E030E040E05FE30E94D1
:10252000423FF8016387748785879687C5C0FCA5FD
:10253000CF2EDD240C211D210115110509F4C3C284
:1025400021EF3FEF422253223E2D313031F50DE194
:102550001BE0EE24FF24C6010E2C02C09595879542
:102560000A94E2F780FF10C0D8016D917D918D91A2
:102570009C9123E333E34BEC51E40E94423FF8018A
:1025800060837183828393830894E11CF11C0C5F48
:102590001F4FF4E0EF16F104F1F608A919A9000F96
:1025A000111F000F111F0E5E144F662D792D882DFF
:1025B000972DD8011B962D913D914D915C911E97C1
:1025C0000E942A3C5B016C01EAA8FBA8EE0CFF1CF0
:1025D000EE0CFF1CE2E1FBE0EE0EFF1E4EA13AA561
:1025E0002DA5622D742F832F922FD7011B962D912D
:1025F0003D914D915C911E970E942A3C9B01AC013C
:10260000C601B5010E94802E5B016C01F801638553
:10261000748585859685D7011B962D913D914D91A9
:102620005C911E970E94802E7B018C016093320B7F
:102630007093330B8093340B9093350BC601B50127
:10264000A80197010E942A3C5B016C01E894D7F82D
:10265000C601B5012AE037ED43EA5BE30E94073F7C
:10266000181654F5C601B50120E030E040E05FE304
:102670000E94073F18160CF42AC2C801B7012FE6C2
:1026800032E143E85AE30E94423F9B01AC01C6019C
:10269000B5010E94073F18167CF419C2EE2009F418
:1026A00014C20E94780A882309F011C20E9488335C
:1026B000882311F00EC23324C2018E7D9C7F33200B
:1026C00019F0C2018E7D907C009709F004C28091C0
:1026D000100B8093C40A8091190B90911A0BA09152
:1026E0001B0BB0911C0B8093D10A9093D20AA0933C
:1026F000D30AB093D40AE090360BF090370B0091D8
:10270000380B1091390B6091CD0A7091CE0A8091EF
:10271000CF0A9091D00AA80197010E94043D882316
:1027200081F0E092CD0AF092CE0A0093CF0A109386
:10273000D00A8091CC0A882321F0B801A7010E9419
:1027400089158091180B9091CC0A981761F08093AD
:10275000CC0A4091CD0A5091CE0A6091CF0A709177
:10276000D00A0E9489158091170B9091CB0A981777
:1027700021F08093CB0A0E948C1580910E0B813042
:1027800051F460912E0B70912F0B8091300B909132
:10279000310B0E942F098091130B8093C70A8091FF
:1027A000110B8093C50AB32DB330D1F48091140B73
:1027B0008093C80A813049F48091420B9091430B79
:1027C000A091440BB091450B03C080E090E0DC0188
:1027D0008093060B9093070BA093080BB093090B03
:1027E0008091150B9091C90A981759F08093C90AE6
:1027F000A6EEBAE0FE01369680E101900D9281507E
:10280000E1F78091120B8093C60A80910E0B853000
:10281000E9F1863048F48330C9F1843008F067C0AC
:10282000823009F07DC00AC0883009F468C0893060
:1028300009F46FC0863009F073C05BC060912E0B45
:1028400070912F0B8091300B9091310B0E941040B2
:102850000E94783D662319F0F62EFA9402C0F0909B
:10286000C90A8E010A5E1F4F8F2DB8010E94E32313
:102870008091C90A8F1509F053C0A6EEBAE0F8019D
:1028800080E101900D928150E1F74AC0332089F038
:10289000E0902A0BF0902B0B00912C0B10912D0B3C
:1028A0008AE39BE040E050E060E87FEB20E00E949C
:1028B000870596E1C92ED12CCC0EDD1EE0902A0BA7
:1028C000F0902B0B00912C0B10912D0BC60140E0CA
:1028D00050E060E87FEB20E00E948705A6EDBAE0BB
:1028E000F60180E101900D928150E1F719C086E078
:1028F00001C087E066ED7AE00E94E32311C0A6EFF5
:10290000BAE0EAE3FBE080E101900D928150E1F74B
:1029100007C080E1E6EFFAE0DF011D928A95E9F752
:1029200080910F0B8093C30A853009F494C0B32DB6
:10293000B23009F090C0843040F4823088F58823AA
:1029400041F0813009F07EC014C0843009F07AC0B3
:1029500063C0E0902A0BF0902B0B00912C0B109190
:102960002D0B8AE39BE040E050E060E87FEB20E045
:1029700014C04091D10A5091D20A6091D30A70914B
:10298000D40AE0902A0BF0902B0B00912C0B1091A5
:102990002D0B8AE39BE02091C40A0E94870552C058
:1029A00000D000D0EDB7FEB731960091320B1091F8
:1029B000330B2091340B3091350BC090D10AD0905D
:1029C000D20AE090D30AF090D40A8FA5ADB7BEB773
:1029D00011968C939CA9918380912A0B90912B0B3B
:1029E000A0912C0BB0912D0B82839383A483B5838C
:1029F00086ED9AE06AE37BE04DE15BE0A090C40ADB
:102A00008EA40E94C805ADB7BEB716960FB6F8944F
:102A1000BEBF0FBEADBF16C04091D10A5091D20AC1
:102A20006091D30A7091D40AE0902A0BF0902B0B9E
:102A300000912C0B10912D0B8AE39BE02091C40A8E
:102A40000E94B509A6EDBAE0EAE3FBE080E101905F
:102A50000D928150E1F78091160B8093CA0A88236A
:102A6000E1F10E94D01610929A0A8091CA0A82302F
:102A700019F40E94690A31C01092CA0A2EC081E07E
:102A80002DC082E02BC088E129C087E127C089E101
:102A900025C084E023C08BE121C086E21FC08CE109
:102AA0001DC08DE11BC084E119C087E017C08EE115
:102AB00015C08FE113C086E111C080E20FC085E12F
:102AC0000DC082E20BC083E209C08AE107C081E247
:102AD00005C084E203C085E201C080E0E4960FB641
:102AE000F894DEBF0FBECDBFCF91DF911F910F9144
:102AF000FF90EF90DF90CF90BF90AF909F908F901E
:102B00007F906F905F904F903F902F900895089521
:102B100008950895089508950895E0ECF0E0808107
:102B20008D7F80831092C50089E18093C400E1EC21
:102B3000F0E08081806180838081886080838081F3
:102B4000806880830895E09128029E2F9F5F9034D3
:102B500029F403C0F49B02C0089590E0209129025B
:102B60009217C1F3F0E0E653F44F8083909328026C
:102B70008091C10080628093C10008951F920F92DE
:102B80000FB60F920BB60F9211248F939F93EF9372
:102B9000FF9380912902E82FF0E0E653F44F9081F3
:102BA0009093C6008F5F803409F480E080932902FF
:102BB00090912802891729F48091C1008F7D80931C
:102BC000C100FF91EF919F918F910F900BBE0F90DD
:102BD0000FBE0F901F9018959091270280912602AA
:102BE000891761F0E92FF0E0E65BF44F80819F5F89
:102BF000903809F490E09093270208958FEF08959C
:102C00001F920F920FB60F920BB60F9211242F93B3
:102C10003F934F935F936F937F938F939F93AF9364
:102C2000BF93EF93FF938091C6008F3361F08034A0
:102C300028F4883181F0813289F40BC08E3529F077
:102C40008E3761F404C0F09A1AC0F79A18C0F19A4E
:102C500016C0F39A14C00E94690A11C0E0912602BE
:102C60009E2F9F5F903809F490E0209127029217E1
:102C700031F0F0E0E65BF44F808390932602FF9101
:102C8000EF91BF91AF919F918F917F916F915F91E4
:102C90004F913F912F910F900BBE0F900FBE0F9051
:102CA0001F901895809126028093270208951F9304
:102CB000CF93DF931EB3112309F468C0C12FD0E076
:102CC000CE01807690700097D1F081E08093990AD0
:102CD000CE0186FF0EC085FF02C08FEF01C08DEFD1
:102CE0000E940A3481E00E942B34F498F49BFECFBA
:102CF00003C08EEF0E940A348EB38F798EBBC4FF5F
:102D000004C081E08093980A47C0C0FF03C00E94BE
:102D10009F38F09817FF03C00E946939F798C3FFE6
:102D20000EC08091990A803149F480E28093990A1B
:102D30000E94261B0E94481B10929A0AF398C1FF1A
:102D400018C08091990A82FD14C0883089F480E10E
:102D50008093990A0E94481B0E945C178091560C30
:102D600081FF04C081E080939A0A02C010929A0AFF
:102D7000F198C2FF0BC00E947E29009721F088E0E5
:102D80008093990A02C01092990AF2988091990A48
:102D9000847311F00E94481BDF91CF911F91089519
:102DA0008091990A803151F481E080939A0A06C09B
:102DB0000E9457168091980A882341F40E947E2928
:102DC0000097B1F78091990A803191F3089580912D
:102DD0009A0A8111F19A08950F931F930E94553416
:102DE0008091990A813021F482E00E942B341CC02A
:102DF0001092990A8AE292E00E94903915C08A30B6
:102E000011F08D3031F5E12FF0E0E65DFD4F1082DD
:102E10000E9457168091980A882331F480912A02E3
:102E2000882329F40E94A33310E000E035C08432E7
:102E300029F48AE292E00E94AF39F4CF8091990A96
:102E4000813011F489E0EECF8AE292E00E943D0BDE
:102E5000E9CF002319F08932F9F4E7CF8132E0F0AD
:102E60008F32D1F08832B9F0153428F08BE00E940F
:102E7000A33310E011C0982F9156212F30E01F5F2F
:102E80009A3120F4265D3D4F805202C0265D3D4FB1
:102E9000F901808301C001E00E94EC158F3F09F029
:102EA000AECF0E94E7160E9457168091980A882399
:102EB00099F31F910F9108958091560C82FF04C0E1
:102EC000809105018E6303C080910501817C809310
:102ED00005018091990A847121F180914C0C8093B5
:102EE0005C0380914B0C80935B0320914A0C30E093
:102EF00040E050E0DA01C9010896A11DB11D880F1C
:102F0000991FAA1FBB1F819580935A03220F331F5D
:102F1000441F551F219527BD80916F0082608093CB
:102F20006F00089580916F008D7F80936F00809176
:102F30008100887F81608093810010927503809169
:102F40004D0C8F3F11F4F59B09C09091990A943074
:102F500029F090E00E94542E81E001C080E0909121
:102F6000560C92FF02C091E08927882321F08091BE
:102F700005018E6303C080910501817C809305016A
:102F800008951F920F920FB60F920BB60F92112455
:102F90002F933F934F935F936F937F938F939F9361
:102FA000AF93BF93EF93FF9380917503882309F04C
:102FB00091C29091020180915C03807F9F70892B68
:102FC0008093020180910201807F90915B03892BA5
:102FD0008093700380915A0386BD82E085BD81E0B5
:102FE0008093750378948091730390917403009794
:102FF00009F0CFC08091480390911C03981709F401
:10300000C4C02091480330E0F901A3E0EE0FFF1F98
:10301000AA95E1F7E21BF30BE35EFC4FF093740318
:10302000E093730382819381909389008093880059
:103030008081918190936E0380936D034481809190
:103040006F038417E1F140936F0350E089E190E052
:10305000489FF001499FF00D589FF00D1124E35651
:10306000FD4FF0937203E093710385899689A789D8
:10307000B08D8093BB0A9093BC0AA093BD0AB09315
:10308000BE0A81899289A389B489B695A795979537
:103090008795E9E4F3E08093490390934A03A09372
:1030A0004B03B0934C0384839583A683B7838087B7
:1030B0009187A287B38784879587A687B787E09192
:1030C0007103F091720380914C0C90818927809359
:1030D0005C03D90173E0AA0FBB1F7A95E1F7A21B2D
:1030E000B30BA35EBC4F15962C9181819281A38175
:1030F000B481022E04C0B695A795979587950A943A
:10310000D2F780935D0390935E03A0935F03B09327
:10311000600385819681A781B085022E04C0B69593
:10312000A795979587950A94D2F78093610390931A
:103130006203A0936303B093640381859285A385A2
:10314000B485022E04C0B695A795979587950A94E5
:10315000D2F78093650390936603A0936703B093BF
:10316000680385859685A785B08904C0B695A7951F
:10317000979587952A95D2F78093690390936A0370
:10318000A0936B03B0936C0304C00E949217F29A51
:10319000A1C10E948E3310925B0380915D039091D8
:1031A0005E03A0915F03B0916003209149033091C9
:1031B0004A0340914B0350914C03820F931FA41F6D
:1031C000B51F8093490390934A03A0934B03B09398
:1031D0004C03E0917103F091720321893289438994
:1031E0005489281739074A075B0768F521E02093BF
:1031F0005B032189328943895489821B930BA40B79
:10320000B50B8093490390934A03A0934B03B0936B
:103210004C03208180919B0A90919C0AA0919D0A69
:10322000B0919E0A24FF04C00197A109B10903C00F
:103230000196A11DB11D80939B0A90939C0AA093B7
:103240009D0AB0939E0A8091610390916203A091C0
:103250006303B091640320914D0330914E0340917C
:103260004F0350915003820F931FA41FB51F8093EB
:103270004D0390934E03A0934F03B09350032189C5
:10328000328943895489281739074A075B0778F53B
:1032900020915B03226020935B032189328943895B
:1032A0005489821B930BA40BB50B80934D03909311
:1032B0004E03A0934F03B0935003208180919F0A47
:1032C0009091A00AA091A10AB091A20A25FF04C082
:1032D0000197A109B10903C00196A11DB11D8093F9
:1032E0009F0A9093A00AA093A10AB093A20A80918A
:1032F000650390916603A0916703B09168032091E4
:103300005103309152034091530350915403820F63
:10331000931FA41FB51F8093510390935203A09352
:103320005303B09354032189328943895489281760
:1033300039074A075B0778F520915B0324602093E7
:103340005B032189328943895489821B930BA40B27
:10335000B50B8093510390935203A0935303B09302
:10336000540320818091A30A9091A40AA091A50AF8
:10337000B091A60A26FF04C00197A109B10903C0B4
:103380000196A11DB11D8093A30A9093A40AA09356
:10339000A50AB093A60A8091690390916A03A0914F
:1033A0006B03B0916C03209155033091560340910B
:1033B000570350915803820F931FA41FB51F80938A
:1033C000550390935603A0935703B0935803218954
:1033D000328943895489281739074A075B0778F5EA
:1033E00020915B03286020935B0321893289438904
:1033F0005489821B930BA40BB50B809355039093B8
:103400005603A0935703B093580320818091A70AD5
:103410009091A80AA091A90AB091AA0A27FF04C016
:103420000197A109B10903C00196A11DB11D8093A7
:10343000A70A9093A80AA093A90AB093AA0A89B1EF
:103440009091830A89279091840A8923C1F08095FD
:1034500090915B03892380935B03882329F48091F7
:10346000850A81608093850A8091990A857039F474
:10347000F59905C00E94690A8EB3806E8EBB80915B
:103480006D0390916E03019790936E0380936D038B
:103490000097B9F48EB3E0917303F09174039681B1
:1034A000892B8EBB10927403109273038091480392
:1034B0008F5F8093480380914803863011F4109207
:1034C000480380914B0C90915B03892780935B03A9
:1034D00010927503FF91EF91BF91AF919F918F91E2
:1034E0007F916F915F914F913F912F910F900BBE04
:1034F0000F900FBE0F901F9018951F920F920FB64E
:103500000F920BB60F9211248F939F93EF93FF931B
:10351000E2E0F1E0908180914B0C8F70907F892BDD
:10352000808315BCFF91EF919F918F910F900BBEFF
:103530000F900FBE0F901F9018951F920F920FB60D
:103540000F9211248F9380917003809302018F91C9
:103550000F900FBE0F901F9018950E9492178BE24C
:10356000E2E7F2E0DF011D928A95E9F78CE2E9E4F7
:10357000F3E0DF011D928A95E9F710927102109233
:1035800070021092480310921C0381E0809347035D
:10359000109275030895989A9998A09AA1988FEF20
:1035A00087B99091720C98B980930A019091730C2D
:1035B000892F880F880F892B80930B018AB1807F18
:1035C0008AB98BB18F608BB9809A88980895CF9310
:1035D000DF93A1E0B1E08C918F608C93E2E0F1E0A9
:1035E0008081807F90914B0C892B8083C4E0D1E057
:1035F00088818E6388838C91806F8C9380818F709B
:1036000090914C0C892B8083E1E8F0E080818F7EE3
:103610008083808188608083E0E8F0E080818C7F17
:10362000808380818F708083EEE6F0E08081887FE8
:10363000808314BC15BC808181608083808182601E
:1036400080830E94CB1ADF91CF910895CF93DF93AF
:10365000C0917002D09171022097B9F081E08093FF
:1036600073022091890230918A0240918B0250911D
:103670008C02CA01B9010E94423F6D8B7E8B8F8BF9
:10368000988F1092710210927002DF91CF9108957D
:103690002F923F924F925F926F927F928F929F9262
:1036A000AF92BF92CF92DF92EF92FF920F931F9350
:1036B000DF93CF93CDB7DEB7AE970FB6F894DEBFEA
:1036C0000FBECDBF94C78091700290917102009798
:1036D00009F0BCC20E947E296C0190937102809314
:1036E0007002009709F48AC780917302882319F049
:1036F00010927302E7C0809172028F5F8093720212
:10370000853011F4109272028091720290E029E1EA
:1037100030E0829FF001839FF00D929FF00D112405
:10372000E356FD4FF0931B03E0931A03D6018C91EF
:1037300080839D962D913D914D915C91D097258BE5
:10374000368B478B508F11962D913D914D915C9109
:10375000149793E0220F331F441F551F9A95D1F7FA
:10376000218332834383548315962D913D914D914E
:103770005C91189783E0220F331F441F551F8A95D1
:10378000D1F7258336834783508719962D913D9134
:103790004D915C911C9703E0220F331F441F551F6E
:1037A0000A95D1F721873287438754871D962D913B
:1037B0003D914D915C91509713E0220F331F441FB0
:1037C000551F1A95D1F7258736874787508B519615
:1037D0006D917D918D919C9154979B01AC01A3E0DB
:1037E000220F331F441F551FAA95D1F7218B328B0F
:1037F000438B548B0E94A43D6093740270937502B6
:103800008093760290937702F60121A532A543A515
:1038100054A50E940B3D7B018C01762F272F3F2D55
:10382000402F512F209378023093790240937A02EF
:1038300050937B0260E070E080EA9FE30E940B3DC2
:1038400060937C0270937D0280937E0290937F024E
:1038500080E090E0DC018093800290938102A0934D
:103860008202B09383028091990A8032E1F4209120
:1038700091023091920240919302509194022093D0
:10388000890230938A0240938B0250938C02CA01C2
:10389000B9010E94423FD60155966D937D938D9359
:1038A0009C9358970FC0F601658976898789908D1A
:1038B0000E94CF3F6093890270938A0280938B02AB
:1038C00090938C0280E090E0DC01809385029093DD
:1038D0008602A0938702B0938802D6019596ED9058
:1038E000FD900D911C91989760E070E080E09FE35F
:1038F000A80197010E940B3D69837B838C839D8384
:103900008091990A803209F05EC0B2E0B0938402DF
:10391000F60161A472A483A494A4258836884788FC
:10392000508C3C81832FA20191010E94423F9B0158
:10393000AC01C401B3010E942A3CD62EC72EB82E7A
:10394000A92EA6019501652F742F832F922F20E0B9
:1039500030E0A9010E94043D87FF1BC0C801B701E8
:10396000A80197010E942B3CA40193010E94423FB1
:103970009B01AC01C201B1010E942A3C0E94CF3FD1
:1039800060939102709392028093930290939402B9
:103990005DC1A6019501852F942FA32FB22F80938F
:1039A000850290938602A0938702B093880280E0FC
:1039B00090E0DC018093910290939202A093930295
:1039C000B093940243C110928402F60181A592A59E
:1039D000A3A5B4A58093950290939602A093970215
:1039E000B09398020E9495295B016C01609391024B
:1039F000709392028093930290939402A601950192
:103A00000E94423F6E837F838B879C872091700248
:103A10003091710238A72FA3D90199966D907D90AE
:103A20008D909C909C9755962D903D904D905C90DC
:103A30005897C201B101BE81AF811B850C852B2F28
:103A40003A2F412F502F0E942A3C9B01AC01B98193
:103A5000AB811C810D816B2F7A2F812F902F0E94BB
:103A6000423F9B01AC01C401B3010E942B3C20E00A
:103A700030E040E05FE30E94423FF62E072F182F10
:103A8000E92E20E030E0A9010E94073F18160CF053
:103A9000CAC06F2D702F812F9E2DA40193010E940B
:103AA000043D87FFACC0EFA1F8A5A1A0B2A0C3A0C0
:103AB000D4A0C601B501BE81AF819B848C842B2F1D
:103AC0003A2F492D582D0E942A3C9B01AC01B98107
:103AD000AB819C808D806B2F7A2F892D982D0E9431
:103AE000423F262F372F482F592F2093990230938A
:103AF0009A0240939B0250939C022F2D302F412F0E
:103B00005E2D0E94043D87FF3FC0C601B5010E94A3
:103B1000CF3F60938D0270938E0280938F029093BB
:103B20009002C201B101A60195010E94043D8823C3
:103B300021F4F1E0F093840289C0C601B501A2012D
:103B400091010E942A3C9B01AC01B981AB811C818F
:103B50000D816B2F7A2F812F902F0E94423F9B0166
:103B6000AC016091950270919602809197029091BC
:103B700098020E942A3C609395027093960280936B
:103B800097029093980262C08F2D902FA12FBE2D87
:103B90008093950290939602A0939702B093980217
:103BA0008093990290939A02A0939B02B0939C02F7
:103BB000AFA1B8A595962D913D914D915C919897A7
:103BC000CA01B9010E942B3C2F2D302F412F5E2DB1
:103BD0000E94423FBE81AF811B850C852B2F3A2F5F
:103BE000412F502F0E942B3C0E94CF3F60938D02AB
:103BF00070938E0280938F029093900227C0B2E060
:103C0000B09384028091890290918A02A0918B02E4
:103C1000B0918C0280938D0290938E02A0938F02BC
:103C2000B093900213C080E090E0DC018093950295
:103C300090939602A0939702B0939802A0928D025F
:103C4000B0928E02C0928F02D092900280911C039B
:103C5000A82FB0E0BA83A983FD0153E0EE0FFF1F48
:103C60005A95E1F7EA1BFB0BE35EFC4F8091720271
:103C700084836090700270907102F30101A512A517
:103C8000F3A4D4A4602F712F8F2D9D2D20917C0241
:103C900030917D0240917E0250917F020E942A3C29
:103CA0006F8F78A389A39AA320E030E0A9010E9436
:103CB000043D87FF04C01F8E18A219A21AA2F0911A
:103CC0009502FF8720919602288B30919702398BBD
:103CD000609198026A8B80918D028B8B90918E02FD
:103CE0009C8BA0918F02AD8BB0919002BE8BE09126
:103CF0009902EF8BF0919A02F88F20919B02298F05
:103D000030919C023A8F609185026B8F8091860280
:103D10008C8F909187029D8FA0918802AE8F8091A9
:103D2000910290919202A0919302B09194028FA37C
:103D300098A7A9A7BAA79090890240908A023090CC
:103D40008B0220908C02909184029B834AE0E42EA7
:103D500030EEC32E2EE1B22E99E3A92E1B861C86CF
:103D60001D861E86AAE0AC83B0EEBD83EEE1EE8335
:103D7000F9E3FF837EA66DA6592C2B81222321F027
:103D8000213009F005C1B2C095016E2D7C2D832F25
:103D90009A2DADA5BEA595962D913D914D915C9125
:103DA00098970E94423F962E872E782E692EA40166
:103DB0009301652F742F832F922F20E030E040E095
:103DC0005FE30E94423F9B01AC01D201F1016B2FE6
:103DD000742D8F2F922D0E942B3C9B01AC01F5017D
:103DE0006E2D7C2D8F2F9A2D0E94423F9B01AC019E
:103DF000602F712F8F2D9D2D0E942A3C8B01F82E54
:103E0000D92E712FBF85A889E989EBA3FA89FCA374
:103E10002B2F3A2FAF010E94043D87FF54C0ADA560
:103E2000BEA599966D917D918D919C919C97BF8532
:103E3000A88919890A892B2F3A2F412F502F0E94C8
:103E40002A3C9B01AC010E942B3C7B018C01A2010E
:103E50009101652F742D832F922DBB89AC89DD884C
:103E6000CE882B2F3A2F4D2D5C2D0E942B3C9B0191
:103E7000AC01C801B7010E940B3DE62EC72EB82E3B
:103E8000A92E5F85488939892A89652F742F832F48
:103E9000922FBF89A88D198D0A8D2B2F3A2F412F74
:103EA000502F0E94043D882319F0B1E0BB8302C06B
:103EB000E2E0EB835B884C883D882E880F8518896B
:103EC000F988DA8812C1A2019101652F742D832F20
:103ED000922DD401F3012B2F3A2F4F2F5E2F0E94EA
:103EE0002B3C562E472E382E292EFFC05B894C893D
:103EF0003D892E89652F742F832F922FF5012E2D4A
:103F00003C2D4F2F5A2D0E94423F9B01AC01602F48
:103F1000712F8F2D9D2D0E942A3C962E872E782E54
:103F2000692EA4019301652F742F832F922FAF89DF
:103F3000F88DFBA3298D2CA3BA8D2A2F3F2F4CA1DE
:103F40005B2F0E94043D87FFCCC0602F712F8F2D07
:103F50009D2DBF89A88D198D0A8D2B2F3A2F412FAA
:103F6000502F0E942A3CBB89AC891D890E892B2FBA
:103F70003A2F412F502F0E940B3DE62EC72EB82E10
:103F8000A92E0F89188DF98CDA8C32E03B83ADC0F5
:103F900095016E2D7C2D832F9A2DADA5BEA59596EE
:103FA0002D913D914D915C9198970E94423F6BA35A
:103FB0007CA38DA39EA3A2019101652F742D832F55
:103FC000922DBBA1ACA19DA08EA02B2F3A2F492DE5
:103FD000582D0E94073F18160CF054C05BA14CA14D
:103FE0009401652F742F832F922F20E030E040E062
:103FF0005FE30E94423F9B01AC01D201F1016B2FB4
:10400000742D8F2F922D0E942A3C9B01AC01F5014B
:104010006E2D7C2D8F2F9A2D0E94423F9B01AC016B
:10402000602F712F8F2D9D2D0E942A3C962E872E5A
:10403000782E692EA4019301652F742F832F922F60
:10404000BB8DAC8DED8DEBA7FE8DFCA72B2F3A2FF2
:10405000AF010E94073F1816ACF4A2019101652F31
:10406000742D832F922DBBA1ACA11DA10EA12B2FCE
:104070003A2F412F502F0E942A3C562E472E382E81
:10408000292E2FC0602F712F8F2D9D2DBB8DAC8DB4
:104090001D8D0E8D2B2F3A2F412F502F0E942A3C21
:1040A0009B01AC010E942B3C7B018C01A201910180
:1040B000652F742D832F922D2FA138A549A55AA5C0
:1040C0000E942B3C9B01AC01C801B7010E940B3D33
:1040D000E62EC72EB82EA92E0B8D1C8DFD8CDE8CE6
:1040E00004C0092D182DF72CD62C5B854C853D85F9
:1040F0002E85652F742F832F922FF5012E2D3C2DA9
:104100004F2F5A2D0E942B3C762E672E4C016B8729
:104110007C878D879E86A301652F742F992DBC8186
:10412000AD81EE80CF802B2F3A2F4E2D5C2D0E943B
:10413000043D87FF0AC05C814D81652F742F8E2D51
:104140009C2DD301E82CC92C39C0602F712F8F2DE5
:104150009D2DBF8DA8A1E9A0CAA02B2F3A2F4E2DCF
:104160005C2D0E94073F18169CF0E82CC92C910189
:10417000852D942DA32FB22D8093890290938A02CE
:10418000A0938B02B0938C022B812093840245C0B4
:104190005C814D813E812F81652F742F832F922F5B
:1041A0002AE030EE4EE159E30E942B3C6C837D8384
:1041B0008E839F83BB85AC85ED84CE842B2F3A2FD5
:1041C0004E2D5C2D0E942A3CE62EC72EB82EA92E1D
:1041D000602F712F8F2D9D2DBB8DAC8D3D8D3BA301
:1041E000EE8DECA32B2F3A2F4BA15E2F0E94073FA1
:1041F00018160CF4C2CDE82CC92C9101852D942DF4
:10420000A32FB22D8093890290938A02A0938B02F0
:10421000B0938C02FB81F09384022090780230905E
:10422000790240907A0250907B02C201B101202FA6
:10423000312F4F2D5D2D0E94423F6B837C838D83F8
:104240009E830E94F13C4B015C016091740270916D
:10425000750280917602909177020E94F13C6F8303
:10426000788789879A87A50194010E942A3C0E9439
:10427000783DE981FA8183E0EE0FFF1F8A95E1F72F
:1042800029813A81E21BF30BE35EFC4F718360836B
:104290006115710551F58091990A803231F56501FA
:1042A000540180E090E0DC018093890290938A02BF
:1042B000A0938B02B0938C02809380029093810232
:1042C000A0938202B0938302A0927402B09275020E
:1042D000C0927602D0927702009170021091710222
:1042E000C601B501A20191016DC1A301652F762D13
:1042F0008E2D9C2D2091800230918102409182026E
:10430000509183020E942B3C2B013C016F817885E8
:1043100089859A85BB81AC81ED80CE802B2F3A2F89
:104320004E2D5C2D0E942A3C9B01AC01C301B201C1
:104330000E940B3DE62EC72E782E692EC501B401D2
:10434000BB81AC815D804E802B2F3A2F452D542DA3
:104350000E942A3CF3012E2D3C2D4F2F5E2F0E94F0
:10436000423F609380027093810280938202909317
:10437000830293016E2D7C2D832F922F20EC31EE42
:1043800044E65EE40E94423F0E94F13C0E94783D78
:104390009B01AC01DA01C901803DE7E09E07E0E046
:1043A000AE07E0E0BE0780F449815A81B3E0440FD4
:1043B000551FBA95E1F729813A81421B530B435EA1
:1043C0005C4FFA01158262C0203AFFE03F07F0E03F
:1043D0004F07F0E05F0780F4E981FA81A3E0EE0F78
:1043E000FF1FAA95E1F789819A81E81BF90BE35E2B
:1043F000FC4F91E0958321C069817A81E3E0660FEB
:10440000771FEA95E1F72034AFE13A07A0E04A07C9
:10441000A0E05A0740F4E981FA816E1B7F0B635ECE
:104420007C4FE2E007C089819A81681B790B635E4B
:104430007C4FE3E0DB011596EC93E981FA8163E0C0
:10444000EE0FFF1F6A95E1F789819A81E81BF90B4E
:10445000E35EFC4F6581DA01C901062E04C0B69502
:10446000A795979587950A94D2F72081318102C04C
:10447000220F331F6A95E2F731832083803020E0DA
:10448000920721E0A20720E0B20788F449815A810F
:1044900023E0440F551F2A95E1F7E981FA814E1B6D
:1044A0005F0B435E5C4FFA019383828304C02FEF5E
:1044B0003FEF338322838091470380931C038F5FF8
:1044C00080934703863011F410924703602F712FB9
:1044D0008F2D9D2D2091850230918602409187027B
:1044E000509188020E94073F69817A81B3E0660F8C
:1044F000771FBA95E1F718163CF5E0917002F0913C
:104500007102802F912FAF2DBD2D81A792A7A3A758
:10451000B4A75B814C813D812E81852F942FA32FE1
:10452000B22F8093740290937502A0937602B09399
:10453000770289819A81681B790B635E7C4FDB016E
:1045400016961C92169753C0E981FA816E1B7F0B59
:10455000635E7C4FE1E0DB011696EC93602F712FD8
:104560008F2D9D2D20E030E0A9010E94073F1816F5
:10457000C4F56501540180E090E0DC01E5E8F2E07B
:1045800084839583A683B78380938002909381026E
:10459000A0938202B0938302A0927402B09275023B
:1045A000C0927602D092770200917002109171024F
:1045B000C601B501209178023091790240917A02CA
:1045C00050917B020E940B3DD80199966D937D938B
:1045D0008D939C939C970E94952D88E08093990AD7
:1045E0000DC010927102109270020E946A2990917F
:1045F000480380914703981709F065C8AE960FB637
:10460000F894DEBF0FBECDBFCF91DF911F910F9108
:10461000FF90EF90DF90CF90BF90AF909F908F90E2
:104620007F906F905F904F903F902F900895F999F1
:10463000FECF92BD81BD81E08FBB80B50895F89417
:10464000F999FECF92BD81BD81E08FBB40B5462771
:10465000842F992787FD9095262F30E0822393237E
:10466000009739F06F3F19F060BD84E006C084E127
:1046700004C0442321F060BD84E28FBBF99A789492
:1046800008958F929F92AF92BF92CF92DF92EF9256
:10469000FF920F931F93DF93CF930F92CDB7DEB7A7
:1046A0005C016B017A014A0120E01BC0222341F426
:1046B000332727FD30952227330F221F332702C0CF
:1046C00021E030E0F60161916F01260F8C010F5F50
:1046D0001F4F29830E941F23089481089108C80155
:1046E00029818114910411F7C7018A0D9B1D622F46
:1046F0000E941F230F90CF91DF911F910F91FF9088
:10470000EF90DF90CF90BF90AF909F908F900895E3
:104710009F92AF92BF92CF92DF92EF92FF920F9350
:104720001F93CF93DF936C01EB017A018A01CB01D8
:1047300099241BC05C010894A11CB11C0E94172382
:10474000992049F4292D332727FD30952227330F4F
:10475000221F332702C021E030E0982E920EF6018E
:1047600081936F0101501040C5010115110511F72A
:10477000C7018C0F9D1F0E94172321E030E098167F
:1047800011F020E030E0C901DF91CF911F910F912E
:10479000FF90EF90DF90CF90BF90AF909F900895E3
:1047A00097E4899FC001112480509D4F46E450E05A
:1047B0000E9441230895BC0180EE93E046E450E05E
:1047C0000E944123089591E1899FC00111248050E6
:1047D0009E4F40E150E00E944123089580E090E028
:1047E00069E40E941F2381E090E06AE07CE04AE6F1
:1047F00050E00E9441230895EF92FF920F931F9380
:104800008EEF94E5A5E8B2E480930A0C90930B0C2C
:10481000A0930C0CB0930D0C80E090E0A0E2B2E409
:1048200080930E0C90930F0CA093100CB093110C6E
:1048300080E090E0A8ECB3E48093120C9093130C0A
:10484000A093140CB093150C20E030E048E652E43D
:104850002093160C3093170C4093180C5093190C9E
:104860002FE020934A0C20E030E045EA54E4209306
:104870001A0C30931B0C40931C0C50931D0C20E021
:1048800030E443E055E420931E0C30931F0C40931A
:10489000200C5093210C8093220C9093230CA09316
:1048A000240CB093250C80E090E0A6E9B3E480935B
:1048B000260C9093270CA093280CB093290C80E031
:1048C00098ECAFE2B8E480932A0C90932B0CA09361
:1048D0002C0CB0932D0C80E096EDA3E8B8E4809307
:1048E0002E0C90932F0CA093300CB093310C80E0E1
:1048F00090E0A1EEB6E48093320C9093330CA09339
:10490000340CB093350C80E090E2ADE7B6E48093D0
:10491000360C9093370CA093380CB093390C8FE67B
:1049200092E1A3E0BBE38093520C9093530CA093CD
:10493000540CB093550C10924B0C80E480934C0CAB
:104940008AE097EDA3EABCE380934E0C90934F0C62
:10495000A093500CB093510C80E58093560C1092AC
:10496000570C20E030E048EC52E42093580C309390
:10497000590C40935A0C50935B0C80E090E0A8E4F3
:10498000B3E480935C0C90935D0CA0935E0CB093A9
:104990005F0C8093600C9093610CA093620CB093B9
:1049A000630C8093640C9093650CA093660CB09399
:1049B000670C8093680C9093690CA0936A0CB09379
:1049C0006B0C6AEF70E070936D0C60936C0C0F2EA3
:1049D000F0E0EF2EF0E0FF2EF0E80F2FFFE31F2FA7
:1049E000F02DE0926E0CF0926F0C0093700C10930F
:1049F000710C69E160934D0C20933A0C30933B0CA1
:104A000040933C0C50933D0C80933E0C90933F0C94
:104A1000A093400CB093410C80E090E0A8E4B2E495
:104A20008093420C9093430CA093440CB093450C9C
:104A300080E090E8AEE3B4E48093460C9093470C9A
:104A4000A093480CB093490C1092720C1092730C06
:104A50000E94EE231F910F91FF90EF9008951F93F6
:104A6000CF93DF93182FEB0167E4869FB0011124E9
:104A700060507D4FCE0146E450E00E9488230097AD
:104A800039F41882812FBE010E94D02380E001C03A
:104A900081E0DF91CF911F910895CF93DF93EC01D7
:104AA00060EE73E046E450E00E948823009731F402
:104AB0001882CE010E94DB2380E001C081E0DF91FB
:104AC000CF910895FF920F931F93F82E8B0121E150
:104AD000829F9001112420503E4FCB01B90140E14B
:104AE00050E00E948823009759F480E1D8011D927C
:104AF0008A95E9F78F2DB8010E94E32380E001C079
:104B000081E01F910F91FF90089580E090E00E9456
:104B10001723893459F48AE09CE061E070E04AE6AA
:104B200050E00E94882321E0009709F420E0822FC2
:104B30000895EF92FF920F931F93CF93DF93EC01B1
:104B40007A018B01CB01BA0120E030E0A9010E947B
:104B5000043D87FDCAC1C732D10508F0C8C1FE01B6
:104B6000EE58FF4FEE0FFF1F0590F491E02D1994C2
:104B7000CC0FDD1FCC0FDD1FC65FD34FE882F9825B
:104B80000A831B83AEC1E0921A0CF0921B0C0093B7
:104B90001C0C10931D0CA5C1E0921E0CF0921F0C72
:104BA0000093200C1093210C9CC1E092220CF092F7
:104BB000230C0093240C1093250C93C1E092260C37
:104BC000F092270C0093280C1093290C8AC1C8017D
:104BD000B70120E030E040E752E40E94423F20E08D
:104BE00030E040E752E40E94423F60932A0C709309
:104BF0002B0C80932C0C90932D0C73C1C801B70122
:104C000020E030E040E752E40E94423F20E030E004
:104C100040E752E40E94423F60932E0C70932F0CA9
:104C20008093300C9093310C5CC1C801B70120E037
:104C300030E040E752E40E94423F20E030E040E7AD
:104C400052E40E94423F6093320C7093330C809385
:104C5000340C9093350C45C1C801B70120E030E019
:104C600040E752E40E94423F20E030E040E752E457
:104C70000E94423F6093360C7093370C8093380C3F
:104C80009093390C2EC1E0923A0CF0923B0C0093B9
:104C90003C0C10933D0C25C1E0923E0CF0923F0C71
:104CA0000093400C1093410C1CC1E092420CF09216
:104CB000430C0093440C1093450C13C1E092460C36
:104CC000F092470C0093480C1093490C0AC1C8019C
:104CD000B70120E030E040E450E40E94043D87FD4D
:104CE00008C1C801B7010E94A53F0E94783D6093AA
:104CF0004A0CF7C0C801B7010E9410400E94783DDD
:104D000060934B0CEEC0C801B7010E9410400E9496
:104D1000783D60934C0CE5C0C801B7010E94A53FE7
:104D20000E94783D60934D0CDCC0E89417F9E09246
:104D30004E0CF0924F0C0093500C1093510CD1C0BC
:104D4000E092520CF092530C0093540C1093550CBB
:104D5000C8C0C801B70120E030E0A9010E94043DAD
:104D60009091560C882311F091600EC09E7F0CC06C
:104D7000C801B70120E030E0A9010E94043D9091F4
:104D8000560C882321F092609093560CAAC09D7F08
:104D9000FBCFC801B70120E030E0A9010E94043D2B
:104DA0009091560C882311F09460EECF9B7FECCF4E
:104DB000C801B70120E030E0A9010E94043D9091B4
:104DC000560C882311F09064DFCF9F7BDDCFC801A4
:104DD000B70120E030E0A9010E94043D9091560CFB
:104DE000882321F094FF87C09062CECF9F7DCCCFE7
:104DF000C801B70120E030E0A9010E94043D909174
:104E0000560C882311F0986001C0977F9093560C40
:104E10000E94B72E66C0C801B70120E030E0A901AA
:104E20000E94043D9091560C882311F09061ACCF04
:104E30009F7CAACFC801B7010E9410400E94783D14
:104E40006093570C4EC0E092580CF092590C0093AE
:104E50005A0C10935B0C45C0E0925C0CF0925D0C18
:104E600000935E0C10935F0C3CC0E092600CF092DB
:104E7000610C0093620C1093630C33C0E092640CDD
:104E8000F092650C0093660C1093670C2AC0E092B8
:104E9000680CF092690C00936A0C10936B0C21C0A3
:104EA000C801B7010E94A53F0E94783D70936D0C28
:104EB00060936C0C16C0E0926E0CF0926F0C009335
:104EC000700C1093710C0DC0C801B7010E94783DA1
:104ED0006093720C06C0C801B7010E94783D6093D0
:104EE000730C0E94EE2380E007C084E005C083E0DD
:104EF00003C086E001C08AE0DF91CF911F910F913E
:104F0000FF90EF900895FF920F931F93DF93CF933D
:104F1000CDB7DEB760970FB6F894DEBF0FBECDBF3A
:104F20000E948525882339F487E00E94A3330E94DC
:104F3000FC230E945F34FF248E010F5F1F4F8F2DD3
:104F4000B8010E946225882319F487E00E94A333E8
:104F5000F3948F2D883099F760960FB6F894DEBFE2
:104F60000FBECDBFCF91DF911F910F91FF9008959C
:104F70002F923F924F925F926F927F928F929F9269
:104F8000AF92BF92CF92DF92EF92FF920F931F9357
:104F9000DF93CF9300D0CDB7DEB710917803112304
:104FA00009F414E21150C09077031C1509F46BC189
:104FB000A12EBB2481E390E0A89E7001A99EF00C75
:104FC000B89EF00C112449E753E0E40EF51EF701FA
:104FD0007996D70159969C90599761808280738009
:104FE00095962D913D914D915C919897CA01B9018B
:104FF0000E942B3CF70121A532A543A554A50E9490
:10500000423FE62E072FF82ED92E692D762D882DBA
:10501000972D2E2D302F4F2D5D2D0E94043D87FFA3
:1050200004C0E92C062DF82CD72C81E390E0A89E33
:10503000F001A99EF00DB89EF00D1124E758FC4F29
:105040008E2D902FAF2DBD2D858B968BA78BB08F7E
:10505000112309F414E211501C1589F081E390E04A
:10506000A89E7001A99EF00CB89EF00C112449E78F
:1050700053E0E40EF51E91E3492E512C70C080914F
:105080007603C81609F070C00E94261B6DC0C12EA1
:10509000DD24C49C3001C59C700CD49C700C112480
:1050A00089E793E0680E791E112309F414E2115088
:1050B00080917603181711F40E94261BC49C1001DE
:1050C000C59C300CD49C300C1124A9E7B3E02A0E07
:1050D0003B1EF101A18CB28CC38CD48C658976897E
:1050E0008789908DA60195010E94043D8823B1F126
:1050F000D10195962D913D914D915C919897CA0162
:10510000B9010E942B3CF10121A532A543A554A56C
:105110000E94423FD70155962D913D914D915C9152
:1051200058970E942B3C062FF72EE82E992EA601A9
:1051300095010E94043D87FF0AC0802F9F2DAE2D50
:10514000B92DF101858B968BA78BB08F07C0D1014C
:105150005596AD92BD92CD92DC9258977301809195
:105160007703181709F093CF00917703202F30E0D1
:1051700081E390E0289FF001299FF00D389FF00D0A
:105180001124E758FC4FFB83EA83102F1F5F143272
:1051900009F410E0F0917803F98381E3282E312C93
:1051A0006CC0412E5524429C7001439CF00C529CD3
:1051B000F00C112449E753E0E40EF51EAA81BB81EF
:1051C0005596AD90BD90CD90DC905897F7016588CD
:1051D00076888788908CC601B501A40193010E944E
:1051E000043D87FF2EC0AA81BB8195962D913D91EC
:1051F0004D915C919897CA01B9010E942B3CEA81BC
:10520000FB8121A532A543A554A50E94423F9B01E5
:10521000AC01C601B5010E942B3CD62EA72EC82E8C
:10522000B92EA40193010E94043D87FF0AC08D2D71
:105230009A2DAC2DBB2DF701858B968BA78BB08F4C
:10524000012F429CF001439CF00D529CF00D112463
:10525000E758FC4F658976898789908D218D328D3D
:10526000438D548D0E94043D882309F4012F1F5F54
:10527000143209F410E0FB82EA82F9811F1709F069
:1052800090CF009377030F900F900F90CF91DF9105
:105290001F910F91FF90EF90DF90CF90BF90AF9054
:1052A0009F908F907F906F905F904F903F902F9046
:1052B000089584E2EDE5FAE0DF011D928A95E9F7B1
:1052C000109276031092780381E08093810A109205
:1052D000770308959091760380917803891769F098
:1052E000892F8F5F843209F480E020917703921731
:1052F00011F48093770380937603089540917603A9
:1053000080917803841769F050E081E390E0489F32
:105310009001499F300D589F300D112427583C4F64
:1053200002C020E030E0C9010895209176032F5F8C
:10533000243209F420E080917803281799F030E0B6
:1053400081E390E0289FF001299FF00D389FF00D38
:105350001124E758FC4F658976898789908D0E94D2
:10536000CF3F04C060E070E080E090E0089581E00D
:10537000209176039091810A291380E008952F925D
:105380003F924F925F926F927F928F929F92AF92D5
:10539000BF92CF92DF92EF92FF920F931F93DF9312
:1053A000CF93CDB7DEB7E9970FB6F894DEBF0FBE47
:1053B000CDBF942E852E672E29AB670178012091F1
:1053C0007803422F50E05AA349A321E330E0429FE3
:1053D0008001439F100D529F100D1124F801E758D2
:1053E000FC4F118A128A138A148A20E030E0A90146
:1053F00021A732A743A754A7108229E936E746E937
:105400005EE725A336A347A350A7C5A6D6A6E7A661
:10541000F0AA282F392F38A72FA38AE09CE09EA35B
:105420008DA39E012F5F3F4F3AA729A74DE55AE074
:105430005CA74BA706581C4FCE0141969CA38BA39B
:105440009EA78DA755245F017196F8ABEFA779E26F
:10545000272E312C2A0C3B1C9AAA8BAA6CAB462C0B
:10546000EFA1F8A56191719181919191F8A7EFA3B6
:10547000EDA1FEA16190719081909190FEA3EDA3AA
:10548000A40193010E94423F0E94123F9B01AC0184
:10549000E9A5FAA52193319341935193FAA7E9A77E
:1054A000EBA5FCA581919191A191B191FCA7EBA7EE
:1054B000281B390B4A0B5B0BDA01C90157FF07C0E8
:1054C00088279927DC01821B930BA40BB50BF801ED
:1054D00080839183A283B3830C5F1F4FEFA5F8A94C
:1054E000C080D180E280F3808C159D05AE05BF059C
:1054F00010F4D701C601EFA5F8A980839183A28398
:10550000B383CA01B9010E94A63DA40193010E9480
:105510000B3DF62EE72ED82EC92E862F9E2DAD2DB3
:10552000BC2DEDA5FEA581939193A193B193FEA708
:10553000EDA7A7019601652F742F832F922F20E0EE
:1055400030E0A9010E94043D87FF08C0F50190806A
:10555000852D0E945F2E8929F5018083A701960180
:10556000652F7E2D832F9C2DD701F6012B2F3E2DED
:105570004F2F5C2D0E94423FF101208131814281F9
:1055800053810E942B3C262F372F482F592FF10192
:1055900020833183428353835394F52DF43009F0F3
:1055A0005FCF9AA88BA87CA8642C0E94CF3F7B0178
:1055B0008C01F1016083718382839383F50181897A
:1055C0009289A389B4890097A105B10511F4F09AD5
:1055D00052C2A4019301652F742F832F922F20E0D4
:1055E00030E0A9010E94043D87FD12C0F9A9FF2304
:1055F000B9F0C801B701D401F3012B2F3A2F4F2F77
:105600005E2F0E940B3D962E872E782E692E08C0A5
:1056100069E9962E56E7852E46E9742E3EE7632EFD
:1056200060E070E080E89FE3A80197010E940B3DD5
:105630006CAB7DAB8EAB9FAB2DE63AE03EA32DA3CA
:105640002AE1A22E2CE0B22EAE014F5D5F4F59AF82
:1056500048AF1FA219A61BA61DA681E390E0E9A1F1
:10566000FAA1E89F8001E99F100DF89F100D112409
:1056700002561C4FEBA1FCA1C080D180E280F380D8
:10568000C701B60120E030E0A9010E94043D882353
:1056900009F49EC0C701B601BCA9ADA9FEA9EFA936
:1056A0002B2F3A2F4F2F5E2F0E94423F562E79AB61
:1056B0008AAB9BAB472F382F292F862F942FA32FF0
:1056C000B22FEBA1FCA180839183A283B38360E01E
:1056D00070E080E89FE3F901252D342F4F2F5E2FD6
:1056E0000E940B3D6B017C01E894F7F8C701B601FD
:1056F000F50120813181428153810E94423F462E33
:10570000372E282E9FA7A4019301652F782D832F74
:10571000962DEFA5242D332D422D5E2F0E94043DA2
:1057200087FF04C0492C382C272C6FA6F8019080E5
:10573000818072806380C701B601F50120893189BB
:10574000428953890E94423FF62EE72ED82EC92E59
:10575000A4019301652F742F832F922FD701F60197
:105760002B2F3A2F4F2F5E2F0E94043D87FF02C040
:1057700074016301A7019601852F9E2DA32FBC2DD7
:10578000F80180839183A283B38349A93AA92BA905
:10579000652D742F832F922FEDA1FEA120813181E1
:1057A000428153810E94423F9B01AC01BFA1A9A548
:1057B000FBA5EDA56B2F7A2F8F2F9E2F0E942A3CE1
:1057C0006FA379A78BA79DA7942C832C722C6FA411
:1057D0002BA13CA12C5F3F4F3CA32BA34DA15EA16D
:1057E0004C5F5F4F5EA34DA384E090E0A80EB91E0E
:1057F000E8ADF9AD2E173F0709F03CCF9091780343
:10580000809176039817A9F481E390E029A13AA149
:10581000289FF001299FF00D389FF00D1124E758C3
:10582000FC4F80E090E0DC01858B968BA78BB08FDE
:1058300067C060E070E080E89FE3BFA1A9A5FBA579
:10584000EDA52B2F3A2F4F2F5E2F0E942A3C20E0F0
:1058500030E040E05FE30E94423F0E94CF3F7B0187
:105860008C0181E390E049A15AA1489FF001499F32
:10587000F00D589FF00D1124E758FC4F65A176A15B
:1058800087A190A520914E0C30914F0C4091500C67
:105890005091510C0E94423FA80197010E94423F43
:1058A0005B016C0160E070E080E89FE3A801970174
:1058B0000E942A3C9B01AC01C601B5010E940B3D30
:1058C0007B018C017F2D912F20E030E0A9010E9407
:1058D000043D87FF04C0EE24FF2400E010E081E3D4
:1058E00090E029A13AA1289FF001299FF00D389F4F
:1058F000F00D1124E758FC4F8E2D9F2DA02FB12FB6
:10590000858F968FA78FB0A3A4019301652F782D63
:10591000832F962DD401F3012B2F382D4F2F562D89
:105920000E94423F7B01082FD92E81E390E049A1DC
:105930005AA1489FF001499FF00D589FF00D112486
:10594000E758FC4F8E2D9F2DA02FBD2D81A392A334
:10595000A3A3B4A3DF015D96C58C11961C9111978A
:105960001296BC9012971396AC9090907D0A8090FE
:105970007E0A70907F0A6090800A552453946E2DA1
:105980007F2D802F9D2DD401F3012B2F3A2F4F2FE8
:105990005E2F0E94043D87FD04C05524A40193019D
:1059A00004C05E2D4F2D302F2D2DF5016C2D712F44
:1059B0008F2F9A2DE52FF42FA32FB22F9F01AD012A
:1059C0000E94043D87FD0AC0552029F0CE2C1F2DD2
:1059D000B02EAD2C03C0C92C182D530181E390E0EB
:1059E00029A13AA1289FF001299FF00D389FF00DC1
:1059F0001124E758FC4F95018C2D912FA32FBA2D20
:105A0000818F928FA38FB48FADE6BAE0FE017196BD
:105A100080E101900D928150E1F781E390E049A18E
:105A20005AA1489FF001499FF00D589FF00D112495
:105A3000E758FC4F81A192A1A3A1B4A180937D0A54
:105A400090937E0AA0937F0AB093800AADE5BAE0F6
:105A5000FE01319680E101900D928150E1F7809135
:105A6000810A809378038F5F843209F480E0809309
:105A7000810A0E94B827E9960FB6F894DEBF0FBEE0
:105A8000CDBFCF91DF911F910F91FF90EF90DF90ED
:105A9000CF90BF90AF909F908F907F906F905F90CE
:105AA0004F903F902F90089580919B0A90919C0A6F
:105AB000A0919D0AB0919E0A80935D0A90935E0A20
:105AC000A0935F0AB093600A80919F0A9091A00A08
:105AD000A091A10AB091A20A8093610A9093620AF0
