:100000000C94D4040C94642E0C94F5040C94F50414
:100010000C94F5040C94F5040C94F5040C94F5047C
:100020000C94F5040C94F5040C94F5040C94F5046C
:100030000C947C2E0C94F5040C94F5040C94F504AB
:100040000C94F5040C946B170C94F5040C94F504C3
:100050000C94F5040C944D1A0C94F5040C942D1A80
:100060000C94F5040C94A7150C9465150C94F504E8
:100070000C94F5040C94F5040C94F5040C94F5041C
:100080000C94F5040C94F5040C94F5040C94F5040C
:100090000C94F5040C94F5040C94F5040C94F504FC
:1000A0000C94F5040C94F5040C94F5040C94F504EC
:1000B0000C94F5040C94F5040C94F5040C94F504DC
:1000C0000C94F5040C94F5040C94F5040C94F504CC
:1000D0000C94F5040C94F5040C94F5040C94F504BC
:1000E0000C94F50421252125212521252C253525B4
:1000F0003E254725502567257E259525AC25B92524
:10010000C625D325E025F325FC2505260E26192630
:1001100022263126422651266026712684269326E1
:100120009C26A526AE26B926C226C926084AD73B54
:100130003BCE016E84BCBFFDC12F3D6C74319ABDB6
:1001400056833DDA3D00C77F11BED9E4BB4C3E91DA
:100150006BAAAABE000000803F05A84CCDB2D44EC9
:10016000B93836A9020C50B9918688083CA6AAAACB
:100170002ABE000000803F290A0D0028003E0D0A1B
:10018000002C4C6E3A002C004374733A002C002C67
:10019000506F733A003C436865636B003C416C618F
:1001A000726D003C486F6D65003C486F6C64003CAC
:1001B00052756E003C5175657565003C49646C650F
:1001C000007D0A0D0020283A00292C2063283A00DF
:1001D00020283A007B7A3A20007D0A0D002C2076F8
:1001E0003A007B653A005D0D0A005B302E39652CC4
:1001F000204A756C20323320323031342031393A84
:1002000031383A353520284B65794D652032353601
:100210003029203A000D0A003D00244E005D0D0AF1
:1002200000204600205400204D3800204D39002089
:100230004D3500204D3400204D3300204D3200203C
:100240004D3100204D3000204739340020473933EC
:100250000020473931002047393000204732300034
:100260002047323100204736360020473230002008
:1002700047323100204731390020473138002047CC
:100280003137002047005B473830005B4733005B65
:100290004732005B4731005B4730005D0D0A005B71
:1002A000544C4F3A005D0D0A002C005B4739323A3E
:1002B000005D0D0A002C003A003330003238005B3C
:1002C00047005D0D0A002C005B5052423A000D0AB7
:1002D0000020286465636179206D6F64652C202897
:1002E000302E2E33292900290D0A2433353D0020D4
:1002F000286D6963726F7374657073203A20000D06
:100300000A2433343D002028686F6D696E672070C1
:10031000756C6C2D6F66662C206D6D290020286829
:100320006F6D696E67206465626F756E63652C2002
:100330006D736563290D0A2433333D002028686FEF
:100340006D696E67207365656B2C206D6D2F6D690F
:100350006E290D0A2433323D002028686F6D696EC6
:100360006720666565642C206D6D2F6D696E290DA3
:100370000A2433313D00290D0A2433303D00202862
:10038000686F6D696E672064697220696E76657248
:1003900074206D61736B3A002028686F6D696E6719
:1003A000206379636C652C20626F6F6C290D0A24C1
:1003B00032393D00202868617264206C696D69746F
:1003C000732C20626F6F6C290D0A2432383D002097
:1003D00028736F6674206C696D6974732C20626F6A
:1003E0006F6C290D0A2432373D002028696E76652E
:1003F0007274206C696D69742070696E732C206250
:100400006F6F6C290D0A2432363D002028696E7604
:10041000657274207374657020656E61626C652C02
:1004200020626F6F6C290D0A2432353D002028614F
:1004300075746F2073746172742C20626F6F6C29F5
:100440000D0A2432343D0020287265706F727420CA
:10045000696E636865732C20626F6F6C290D0A24C6
:1004600032333D00202861726320746F6C657261C5
:100470006E63652C206D6D290D0A2432323D0020FB
:10048000286A756E6374696F6E206465766961743D
:10049000696F6E2C206D6D290D0A2432313D0020CC
:1004A00028737465702069646C652064656C61797B
:1004B0002C206D736563290D0A2432303D00290D0F
:1004C0000A2431393D00202864697220706F7274EB
:1004D00020696E76657274206D61736B3A00290D28
:1004E0000A2431383D0020287374657020706F72C3
:1004F0007420696E76657274206D61736B3A0020AA
:1005000028737465702070756C73652C2075736525
:1005100063290D0A2431373D00202863206D61785E
:100520002074726176656C2C206D6D290D0A243162
:10053000363D0020287A206D6178207472617665DE
:100540006C2C206D6D290D0A2431353D0020287951
:10055000206D61782074726176656C2C206D6D2938
:100560000D0A2431343D00202878206D61782074F4
:10057000726176656C2C206D6D290D0A2431333D36
:100580000020286320616363656C2C206D6D2F73E0
:1005900065635E32290D0A2431323D0020287A201D
:1005A000616363656C2C206D6D2F7365635E32290A
:1005B0000D0A2431313D0020287920616363656C88
:1005C0002C206D6D2F7365635E32290D0A24313046
:1005D0003D0020287820616363656C2C206D6D2FB1
:1005E0007365635E32290D0A24393D00202863209B
:1005F0006D617820726174652C206D6D2F6D696E50
:10060000290D0A24383D0020287A206D6178207257
:100610006174652C206D6D2F6D696E290D0A24376C
:100620003D00202879206D617820726174652C204E
:100630006D6D2F6D696E290D0A24363D00202878D6
:10064000206D617820726174652C206D6D2F6D694D
:100650006E290D0A24353D002028632C2073746513
:10066000702F6D6D290D0A24343D0020287A2C202E
:10067000737465702F6D6D290D0A24333D00202899
:10068000792C20737465702F6D6D290D0A24323D0D
:10069000002028782C20737465702F6D6D290D0A49
:1006A00024313D0024303D002424202876696577DC
:1006B000204772626C2073657474696E6773290DCC
:1006C0000A242320287669657720232070617261CF
:1006D0006D6574657273290D0A2447202876696553
:1006E0007720706172736572207374617465290D6F
:1006F0000A244E20287669657720737461727475B8
:100700007020626C6F636B73290D0A24783D7661EB
:100710006C7565202873617665204772626C207362
:10072000657474696E67290D0A244E783D6C696E94
:10073000652028736176652073746172747570200A
:10074000626C6F636B290D0A24432028636865631C
:100750006B2067636F6465206D6F6465290D0A24E3
:100760005820286B696C6C20616C61726D206C6F15
:10077000636B290D0A2448202872756E20686F6DFE
:10078000696E67206379636C65290D0A7E20286392
:1007900079636C65207374617274290D0A212028B5
:1007A0006665656420686F6C64290D0A3F202863C4
:1007B000757272656E7420737461747573290D0A95
:1007C0005E20286C696D69742070696E73290D0A4A
:1007D0006374726C2D78202872657365742047727B
:1007E000626C290D0A000D0A4772626C20302E39A6
:1007F00065205B27242720666F722068656C705D1A
:100800000D0A005D0D0A0044697361626C65640045
:10081000456E61626C65640043617574696F6E3A20
:1008200020556E6C6F636B656400272448277C2716
:1008300024582720746F20756E6C6F636B005265AF
:1008400073657420746F20636F6E74696E756500D4
:100850005B000D0A0050726F6265206661696C0072
:1008600041626F727420647572696E672063796388
:100870006C6500486172642F736F6674206C696DDB
:10088000697400414C41524D3A20000D0A00496EF6
:1008900076616C69642067636F64652049443A003F
:1008A000556E646566696E65642066656564207270
:1008B00061746500556E737570706F727465642035
:1008C000636F6D6D616E64004D6F64616C20677263
:1008D0006F75702076696F6C6174696F6E004C691A
:1008E0006E65206F766572666C6F7700486F6D6914
:1008F0006E67206E6F7420656E61626C6564004186
:100900006C61726D206C6F636B004E6F7420696454
:100910006C6500454550524F4D20726561642066FC
:1009200061696C2E205573696E6720646566617518
:100930006C74730056616C7565203C2033207573B0
:1009400065630053657474696E67206469736162DE
:100950006C65640056616C7565203C203000496E02
:1009600076616C69642073746174656D656E740082
:10097000426164206E756D62657220666F726D6192
:100980007400457870656374656420636F6D6D6194
:100990006E64206C6574746572006572726F723A71
:1009A00020006F6B0D0A000011241FBECFEFD1E2B3
:1009B000DEBFCDBF00E00CBF12E0A0E0B2E0ECE291
:1009C000FDE700E00BBF02C007900D92A632B10711
:1009D000D9F71CE0A6E2B2E001C01D92AF35B10725
:1009E000E1F70E94F7040C94943E0C9400001F93CE
:1009F0000E9434150E94E1260E94971A0E94BF3877
:100A000087E2EFE8FAE0DF011D928A95E9F710929C
:100A1000B60A1092B70A1092B80A1092B90A1EBA12
:100A200081E080938F0A789411E00E94F9150E946A
:100A3000410A0E942E150E9431150E94152E0E9417
:100A4000ED320E94B7280E945D1A0E94B22C0E94CB
:100A5000AD0A10928F0A1EBA80914D0C81FF03C01F
:100A60001093910A02C01092910A0E949616DDCF4F
:100A70009F92AF92BF92CF92DF92EF92FF920F932D
:100A80001F93CF93DF93EC015A016B01922E80915B
:100A90004D0C85FF03C0CE010E94DA308091900A90
:100AA0008230D9F00E94FE1580918F0A8823A9F424
:100AB0000E941529882319F00E949116F3CFCE01C8
:100AC000B601A501292D0E941D298091900A882335
:100AD00021F488E0EFE8FAE08183DF91CF911F9164
:100AE0000F91FF90EF90DF90CF90BF90AF909F90CD
:100AF00008952F923F924F925F926F927F928F92C2
:100B00009F92AF92BF92CF92DF92EF92FF920F939C
:100B10001F93DF93CF93CDB7DEB7E6970FB6F89468
:100B2000DEBF0FBECDBF9E878D87788B6F872A0172
:100B300009871A872B873C87C98ADA8AEB8AFC8A5D
:100B4000AB8E9924880C991C880C991C880D991DD2
:100B50009D8F8C8F9201280D391D3F8F2E8FD901CB
:100B6000CD90DD90ED90FC90C701B601EC8DFD8D30
:100B700020813181428153810E94623A6CA37DA31E
:100B80008EA39FA32D960FAD2D9710E0000F111F80
:100B9000000F111F2D853E85200F311F39A328A37B
:100BA000C201800F911F9BA38AA3DC014D905D9031
:100BB0006D907C90C301B201F901208131814281A5
:100BC00053810E94623A68A779A78AA79BA7D70199
:100BD000C601B0588D839E83AF83B887D301C2010D
:100BE000B05889839A83AB83BC83EF85F889E80D7D
:100BF000F91D6081718182819381BCA1ADA1FEA1AB
:100C0000EFA12B2F3A2F4F2F5E2F0E94613AE62E35
:100C1000C72EA82E892EEF85F889E00FF11F60817D
:100C2000718182819381B8A5A9A5FAA5EBA52B2F87
:100C30003A2F4F2F5E2F0E94613AF62E072F182F62
:100C4000992E6D817E818F8198852F2D302F412F98
:100C5000592D0E94793D2B013C0169817A818B815C
:100C60009C812E2D3C2D4A2D582D0E94793D9B01B3
:100C7000AC01C301B2010E94613A2B013C016D81BC
:100C80007E818F8198852E2D3C2D4A2D582D0E94D6
:100C9000793D5B016C0169817A818B819C812F2D6B
:100CA000302F412F592D0E94793D9B01AC01C60187
:100CB000B5010E94623A9B01AC01C301B2010E94DE
:100CC000D53AF62E172F882E092F8091BA0A823036
:100CD000B1F46F2D712F882D902F20E030E0A90105
:100CE0000E943E3D87FD24C06F2D712F882D902FCF
:100CF0002BED3FE049EC50E40E94613A15C06F2DA6
:100D0000712F882D902F20E030E0A9010E943B3BFD
:100D1000181674F06F2D712F882D902F2BED3FE05A
:100D200049EC50E40E94623AF62E172F882E092FC4
:100D3000A090490CB0904A0CC0904B0CD0904C0C39
:100D400069857A858B859C859B01AC010E94623AFE
:100D5000A60195010E94613A9B01AC01C601B50153
:100D60000E94793D0E94063E5B016C016F2D712F40
:100D7000882D902F20E030E040E05FE30E94793D35
:100D800029853A854B855C850E94793D9F77A60130
:100D900095010E94423B0E94183C0E94AF3B7A871B
:100DA0006987DB01109709F4DFC1BB8DBB23A1F07C
:100DB00080E090E00E94DB3B9B01AC01B989AA89ED
:100DC000FB89EC896B2F7A2F8F2F9E2F0E94793D04
:100DD000698B7A8B8B8B9C8B29853A85B90180E056
:100DE00090E00E94DB3B5B016C016F2D712F882D21
:100DF000902FA60195010E94423B6D8B7E8B8F8BBD
:100E0000988F2E968FAD2E9790E0880F991F880FA0
:100E1000991FAD85BE85A80FB91FBA8FA98FEF8521
:100E2000F8898E0F9F1FDC016D917D918D919C91B2
:100E3000E98DFA8D20813181428153810E94613A8E
:100E4000A60195010E94423B6BAB7CAB8DAB9EAB88
:100E50005D894E893F89288D652F742F832F922FAE
:100E6000DA01F9012B2F3A2F4F2F5E2F0E94793D87
:100E70009B01AC0160E070E080E090E40E94613A88
:100E8000F62E072F182FC92E5D894E893F89288D90
:100E9000652F742F832F922F2BEA3AEA4AE25EE302
:100EA0000E94793D4B015C016F2D702F812F9C2D8D
:100EB00020E030E040E850E40E94623A9B01AC013F
:100EC000C501B4010E94793D6CA77DA78EA79FA79D
:100ED0006F2D702F812F9C2D20E030E040E05FE3EC
:100EE0000E94793DC62E78AB89AB9AAB882481E00D
:100EF000282E312C9C2C32C1F82DF43108F063C01F
:100F00006D817E818F819885BCA5ADA5FEA5EFA5DD
:100F10002B2F3A2F4F2F5E2F0E94793D7B018C01A2
:100F200069817A818B819C81A8A9F9A9EAA9292DD7
:100F30003A2F4F2F5E2F0E94793D9B01AC01C801D3
:100F4000B7010E94623AD62EC72EA82E492E6D8177
:100F50007E818F819885A8A9F9A9EAA9292D3A2F20
:100F60004F2F5E2F0E94793D162F072FF82EE92E66
:100F700069817A818B819C81BCA5ADA5FEA5EFA579
:100F80002B2F3A2F4F2F5E2F0E94793D9B01AC01F2
:100F9000D801F7016B2F7A2F8F2F9E2F0E94613A75
:100FA000262F372F482F592F2D833E834F83588765
:100FB0008394A601852F942FAA2DB42D89839A831B
:100FC000AB83BC8372C0B10180E090E00E94DB3B48
:100FD000BD89AE89FF89E88D2B2F3A2F4F2F5E2FC9
:100FE0000E94793D7B018C017F2D912F0E943F3B18
:100FF00069837A838B839C836E2D7F2D802F912F25
:101000000E94FC3D5B016C01AE8DBF8DED90FD90AB
:101010000D911C9117FB109517F91095EAA1FBA1F2
:101020004080518062807380C801B70129813A8174
:101030004B815C810E94793D6D837E838F8398878D
:10104000C301B201A60195010E94793D9B01AC014B
:101050006D817E818F8198850E94623A262F372F7D
:10106000482F592F2D833E834F835887C801B701DE
:10107000A60195010E94793D7B018C01C301B2015B
:1010800029813A814B815C810E94793D9B01AC01B1
:10109000C801B7010E94613A262F372F482F592FD8
:1010A00029833A834B835C8388245CA14DA13EA1B4
:1010B0002FA1652F742F832F922F2D813E814F8179
:1010C00058850E94623AAC8DBD8D6D937D938D9352
:1010D0009C93139758A549A53AA52BA5652F742F66
:1010E000832F922F29813A814B815C810E94623A41
:1010F000E8A1F9A16083718382839383A98DBA8D5E
:101100006D917D918D919C91BBA9ACA9FDA9EEA992
:101110002B2F3A2F4F2F5E2F0E94623AE98DFA8DC6
:1011200060837183828393838D859E85F989EA89A3
:101130003B892C894F2F5E2F632F722F2B8D629648
:10114000ECACFDAC0EAD1FAD62970E9438058091EE
:101150008F0A8823E1F40894211C311C29853A85E3
:101160002216330608F4C8CE8F859889F989EA8952
:101170003B892C894F2F5E2F632F722F2B8D629608
:10118000ECACFDAC0EAD1FAD62970E943805E69643
:101190000FB6F894DEBF0FBECDBFCF91DF911F9188
:1011A0000F91FF90EF90DF90CF90BF90AF909F9006
:1011B0008F907F906F905F904F903F902F90089509
:1011C000EF92FF920F931F93CF93DF937B018C01DC
:1011D0008091900A823009F447C0C801B70120E02D
:1011E00030E040EA51E40E94793D0E94183C0E94A0
:1011F000AF3BEB010E947A16C801B70120E030E056
:101200004AE754E40E94793D7B018C0182E390E03F
:10121000C89FB001C99F700DD89F700D112480E048
:1012200090E00E94DB3B9B01AC01C801B7010E942A
:10123000613A0E94183C0E94AF3BDC01CB010E9446
:10124000B22D10C00E94FE15219780918F0A88232D
:1012500059F48FEF90E7A2E081509040A040E1F771
:1012600000C00000209771F7DF91CF911F910F917F
:10127000FF90EF9008951F93182F84E08093900AB9
:101280000E94102E812F84700E94AC2E812F8270BC
:101290000E94AC2E812F89700E94AC2E0E94FE15F8
:1012A00080918F0A882341F40E94AD0A1092900A1F
:1012B0000E943C170E94152E1F9108953F924F9255
:1012C0005F926F927F928F929F92AF92BF92CF92D6
:1012D000DF92EF92FF920F931F93DF93CF9300D093
:1012E00000D0CDB7DEB7982E892E2A013B01322ED1
:1012F000570168018091900A803111F00E94911687
:101300000E947A1680918F0A882309F071C0892D76
:10131000982DB301A201232D860175010E94380585
:1013200081E08093B70AF19A0E94FE1580918F0A9E
:10133000882309F05DC08091900A882311F08830DD
:1013400099F78091B70A883009F4F69A0E94FE1541
:1013500080918F0A882309F04BC082EA9AE09E832D
:101360008D8301E01CE0C401E92EF82CED81FE81A3
:101370006191719181919191FE83ED83F8012191A9
:101380003191419151918F0129833A834B835C8341
:101390000E94DD3B29813A814B815C810E94423B66
:1013A000F70161937193819391937F018D819E8168
:1013B000EAE0823B9E07D1F60E94FE150E945D1A6C
:1013C0000E94B7280E94B22C892D982DB301A2014A
:1013D000232D860175010E943805F19A0E947A1624
:1013E00080918F0A882321F40E94AD0A0E94CD3596
:1013F00026960FB6F894DEBF0FBECDBFCF91DF911A
:101400001F910F91FF90EF90DF90CF90BF90AF9022
:101410009F908F907F906F905F904F903F90089536
:10142000F4990CC0F49A0E942F150E9432158091F5
:10143000900A847319F0F59A0E943C1708950F934F
:101440001F93CF93DF93CDECDAE001E31BE06991CA
:10145000799189919991F80121913191419151911D
:101460008F010E943B3B882331F4FAE0CD3DDF073A
:1014700071F781E001C080E0DF91CF911F910F9162
:101480000895AF92BF92CF92DF92EF92FF920F93A7
:101490001F93CF93DF936AEB7AE087E4FB0111920D
:1014A0008A95E9F780E06D5D7F4F0E94CB24882309
:1014B00019F487E00E94133360E070E080E291E469
:1014C0002091010C3091020C4091030C5091040CBE
:1014D0000E94423B162F072FF82EE92EC5E0DCE0D4
:1014E000299139914991599160E070E080E291E44D
:1014F0000E94423BD62EC72EB82EA92EA8019701D6
:10150000652F702F832F9E2DD601F5012B2F3A2F9B
:101510004F2F5E2F0E943B3B87FD02C08601750165
:10152000FCE0C131DF07E1F6A8019701852F902F7C
:10153000A32FBE2D8093010B9093020BA093030B5E
:10154000B093040BDF91CF911F910F91FF90EF901B
:10155000DF90CF90BF90AF900895AF92BF92CF929F
:10156000DF92EF92FF920F931F93CF93DF93C2E925
:10157000DAE001E01CE08DECE82E8AE0F82E6991BB
:10158000799189919991F801A190B190C190D190F0
:101590008F010E94DD3BA60195010E94423BF701AD
:1015A00061937193819391937F01FAE0C23ADF07CF
:1015B00031F7DF91CF911F910F91FF90EF90DF9066
:1015C000CF90BF90AF9008952F923F924F925F922D
:1015D0006F927F928F929F92AF92BF92CF92DF9243
:1015E000EF92FF920F931F93DF93CF93CDB7DEB7A8
:1015F000E4970FB6F894DEBF0FBECDBF9BA78AA7B6
:10160000A5E0BBE08CE3FD0111928A95E9F7119604
:10161000EAEBFAE08AE001900D928150E1F719823D
:10162000442455241FA21EA21CA6EE24332491E0BC
:10163000C92ED12CAA24A39484E0282E05E0B02E34
:1016400012E0F12EB3C2912F91549A3110F00C9404
:10165000E6148F5F89838AA59BA5BE016F5F7F4FCC
:10166000AE014E5F5F4F0E94FC2C882311F40C9456
:10167000E8146A807B808C809D80C401B3010E9445
:10168000473E0E94AF3B062F70E0882777FD80958C
:10169000982F0E94DD3B9B01AC01C401B3010E9465
:1016A000613A20E030E048EC52E40E94793D0E942B
:1016B000DC3D0E94AF3B173421F01D3409F061C1BD
:1016C00024C10B3209F4ECC00C3200F5043170F483
:1016D000013108F0B9C0043009F445C0043008F401
:1016E0008AC00A3011F00C94FA1435C00C3199F10B
:1016F0000D3128F4063110F00C94FA14C5C00E31E7
:1017000051F1063211F00C94FA1475C0003509F449
:1017100078C0013590F40C3358F4063308F0D3C088
:10172000013309F4BDC0053311F00C94FA141BC049
:10173000023411F00C94FA14B0C00C3561F00D3580
:1017400028F40A3510F40C94FA148CC00F3510F0FC
:101750000C94FA1490C0662331F4332011F00C94E9
:10176000EA14332433940C31B1F00D3130F40430E9
:1017700061F00A3009F0ACC00BC0053349F10C35FB
:1017800059F10E3109F0A4C015C0A092050BA0C0FC
:10179000F092050B9DC0662329F06A3011F00C947D
:1017A000FA1404C0F3E0F093050B02C02092050B7D
:1017B00080E095C0662329F06A3011F00C94FA1489
:1017C00003C0B092050BF4CF26E02093050BF0CFB9
:1017D00037E03093050B7CC0662329F06A3011F0A6
:1017E0000C94FA1404C088E08093050BE1CF99E0D3
:1017F0009093050BDDCF332011F00C94EA14B2E086
:101800003B2E023099F0033030F4002361F00130B8
:1018100009F060C00BC0063261F0003591F0033072
:1018200009F058C003C01092060B54C00093060B79
:1018300051C0643111F00C94FA142092060B81E02F
:101840004EC0B092060B46C0023129F0033131F090
:1018500010920A0B05C0A0920A0B02C0F0920A0B6C
:1018600082E039C00A3519F41092090B02C0A09227
:10187000090B83E030C00D3519F4A092070B02C0AC
:101880001092070B84E027C0043119F4A092080BD2
:1018900002C01092080B85E01EC0F092080BFBCF2F
:1018A000332011F00C94EA14013319F410920B0B4D
:1018B00006C06A3011F00C94FA14A0920B0B86E06B
:1018C000A3E03A2E0CC0065300930C0B87E003C034
:1018D00080E001C081E0662311F00C94EC14D60185
:1018E00002C0AA0FBB1F8A95E2F72EA13FA12A23AF
:1018F0003B232115310511F00C940615EEA1FFA133
:10190000EA2BFB2BFFA3EEA351C1662311F00C942D
:10191000EC14063018F40330D0F40AC0083010F488
:101920000C94FA140A3010F10E3111F00C94FA14E0
:10193000023041F00E3131F0002311F00C94FA1412
:1019400081E001C082E080930D0B0C94FA14043006
:1019500021F0053039F081E001C082E080930F0B67
:101960000C94FA1410920F0B0C94FA14093029F00D
:1019700082E080930E0B0C94FA1410920E0B0C94D0
:10198000FA141E3409F485C01F34BCF4193409F468
:101990004DC01A343CF4133459F1163411F00C9440
:1019A000FA1436C01B3409F45FC01B340CF44BC06E
:1019B0001C3411F00C94FA1468C0143509F4D1C029
:1019C00015355CF4123509F480C013350CF08BC06A
:1019D000103511F00C94FA146AC0193509F4A1C03D
:1019E0001A3509F4AEC0183511F00C94FA1489C0F8
:1019F0008A819B81AC81BD8180933D0B90933E0B8E
:101A0000A0933F0BB093400BF8E0EF2A8DE0AAC003
:101A10008A819B81AC81BD818093100B9093110BC7
:101A2000A093120BB093130B80E09CC06092140B38
:101A30007092150B8092160B9092170B2CA52160BB
:101A40002CA781E08FC08A819B81AC81BD8180936E
:101A5000180B9093190BA0931A0BB0931B0B3CA57A
:101A600032603CA782E07EC08A819B81AC81BD81CF
:101A700080931C0B90931D0BA0931E0BB0931F0B18
:101A80008CA584608CA783E06DC00093200B84E05C
:101A900069C0C401B3010E94AA3B6093210B7093FB
:101AA000220B8093230B9093240B85E05BC08A81EB
:101AB0009B81AC81BD818093250B9093260BA093D5
:101AC000270BB093280B86E04DC08A819B81AC81A7
:101AD000BD818093290B90932A0BA0932B0BB0937D
:101AE0002C0B87E03FC08A819B81AC81BD818093B4
:101AF0002D0B90932E0BA0932F0BB093300B88E0FF
:101B000031C08A819B81AC81BD818093310B9093E0
:101B1000320BA093330BB093340B91E0E92A8AE0A7
:101B200021C08A819B81AC81BD818093350B9093CC
:101B3000360BA093370BB093380BA2E0EA2A8BE068
:101B400011C08A819B81AC81BD818093390B9093B8
:101B50003A0BA0933B0BB0933C0BB4E0EB2A8CE028
:101B600001C089E08601082E02C0000F111F0A94EF
:101B7000E2F79801242135212115310509F02EC7FE
:101B8000E1E6F3E002C0F595E7958A95E2F7E0FF1C
:101B90000BC06A817B818C819D8120E030E0A901AE
:101BA0000E943B3B87FD1CC7402A512A8981EAA538
:101BB000FBA5E80FF11D1081112309F044CDEE20A3
:101BC00021F0332011F4F2E03F2E45FE11C0809148
:101BD000210B9091220BA091230BB091240B803804
:101BE000F6E99F07F8E9AF07F0E0BF070CF0FAC687
:101BF0008091070B813051F4232D223011F440FEE7
:101C000001C78091080B8230E9F5F4C68091BB0AC8
:101C10008823C1F540FE26C08091080B8130B9F4BD
:101C20006091100B7091110B8091120B9091130B1E
:101C300023E333E34BEC51E40E94793D6093100BB6
:101C40007093110B8093120B9093130B1BC0823077
:101C5000C9F48091010B9091020BA091030BB091FC
:101C6000040B08C08091C80A9091C90AA091CA0AC1
:101C7000B091CB0A8093100B9093110BA093120B91
:101C8000B093130B50FC10C08091C40A9091C50A08
:101C9000A091C60AB091C70A80932D0B90932E0B8A
:101CA000A0932F0BB093300B8091050B813031F452
:101CB00046FE9CC68FEB9FEF4822592280910A0B6B
:101CC000823088F490E0FC01E050FE4FA081AEA786
:101CD000FC01EE5FFD4FB081BFA78C5F9D4FFC0103
:101CE000F081FCAB05C01CAA22E02FA731E03EA783
:101CF0006090080B662009F441C001E31BE0E1E0BD
:101D0000CE2EECE0DE2EAA24BB248E2C9924C40116
:101D10000A2C02C0959587950A94E2F780FF21C0AE
:101D2000862D823069F4D8016D917D918D919C91C1
:101D3000F60120813181428153810E94423B0BC0D8
:101D4000F801608171818281938123E333E34BEC5D
:101D500051E40E94793DD8016D937D938D939C93BE
:101D600013970894A11CB11C0C5F1F4FE4E0F0E036
:101D7000CE0EDF1EF4E0AF16B10449F6232D23305A
:101D800041F480910B0B813021F43E2D343009F069
:101D90002BC6DE011696EDEDFAE080E101900D9282
:101DA0008150E1F78EA187FF11C080910C0B873025
:101DB00008F01EC69091C00A981741F0BE016A5FF4
:101DC0007F4F0E94CB24882309F416C6F090050BA0
:101DD0009F2D923021F0983009F013C1A4C0EE205D
:101DE00009F41AC6C20180759070009709F4FEC507
:101DF0006091250B7091260B8091270B9091280BF9
:101E00000E94473E0E94AF3B673008F0F1C58091C9
:101E1000200B843129F0823009F0ECC547FCEAC57B
:101E2000662319F0862F815002C080910C0B8E0121
:101E30000A5E1F4FB8010E94CB24882309F4DCC539
:101E4000F090200B8091FD0A9091FE0AA091FF0A6C
:101E5000B091000B8EA39FA3A8A7B9A771E3A72EEB
:101E60007BE0B72E6DEC662E6AE0762ECC24DD2466
:101E70008E2C9924C4010C2C02C0959587950A9448
:101E8000E2F780FF3BC09F2D943171F5D3016D9136
:101E90007D918D919C91139790962D913D914D91AF
:101EA0005C9193970E94613AF501208131814281D2
:101EB00053810E94613A262F372F482F592FD8017E
:101EC0002D933D934D935C931397BC2DB230B1F499
:101ED0002EA13FA148A559A50E94613AF80160834F
:101EE0007183828393830AC0F50180819181A281ED
:101EF000B381F80180839183A283B3830894C11CCA
:101F0000D11C0C5F1F4F24E030E0A20EB31E620E06
:101F1000731E34E0C316D10409F0ACCF8FEA9FEFF3
:101F20004822592211C1EE2009F476C58091FD0A9C
:101F30009091FE0AA091FF0AB091000B8EA39FA37F
:101F4000A8A7B9A701E31BE05DECA52E5AE0B52ECA
:101F500046E0C42ED12CCC0EDD1E662477248E2CB8
:101F60009924C401062C02C0959587950A94E2F73E
:101F700080FF2CC0D5016D917D918D919C91F601D2
:101F800020813181428153810E94613AD8012D9193
:101F90003D914D915C910E94613A262F372F482F39
:101FA000592FF8012083318342835383F62DF23079
:101FB000B9F42EA13FA148A559A50E94613AD801C4
:101FC0006D937D938D939C9313970AC0F50180A127
:101FD00091A1A2A1B3A1F80180839183A283B383CD
:101FE0000894611C711C0C5F1F4F24E030E0A20EAE
:101FF000B31EC20ED31E34E06316710409F0B1CFD4
:10200000A3C0832D833009F487C0EE2009F484C077
:102010002090090B8091FD0A9091FE0AA091FF0A81
:10202000B091000B8EA39FA3A8A7B9A73DECA32E48
:102030003AE0B32E01E31BE026E0C22ED12CCC0EF9
:10204000DD1E662477248E2C9924C401062C02C040
:10205000959587950A94E2F780FD0BC0F501808184
:102060009181A281B381F80180839183A283B3839C
:1020700043C0FF2DF73009F43FC0222061F5D6019F
:102080006D917D918D919C91F50120A131A142A18D
:1020900053A10E94623AD8012D913D914D915C91DE
:1020A0000E94623A262F372F482F592FF80120839C
:1020B000318342835383F62DF230F1F42EA13FA1F8
:1020C00048A559A50E94623AD8016D937D938D93DE
:1020D0009C93139711C0F801608171818281938173
:1020E000D5012D913D914D915C910E94623AF8018C
:1020F00060837183828393830894611C711C24E044
:1021000030E0A20EB31E0C5F1F4FC20ED31E34E090
:102110006316710409F099CF8091050B853031F079
:10212000873069F0833081F486E001C087E0BE012A
:102130006A5E7F4F0E94CB24882331F45DC4809176
:10214000060B823008F05AC41091060B153041F48A
:10215000EE2009F458C2832D813009F051C453C2D6
:10216000932D923009F04FC21123E1F06091100BD2
:102170007091110B8091120B9091130B20E030E0C5
:10218000A9010E943B3B882309F43CC4143030F47D
:10219000123060F4113009F036C204C0143009F076
:1021A00032C223C2EE2009F42DC22DC2EE2009F462
:1021B00033C4BEA5AB2FB0E0B9ABA8ABFFA5EF2FE2
:1021C000F0E0FBABEAAB81E090E08C010FA402C031
:1021D000000F111F0A94E2F70EA402C0880F991F86
:1021E0000A94E2F7082B192BFF24E022F122E114D4
:1021F000F10409F409C4E090080B2E2D223009F4F3
:1022000005C4AA0FBB1FAA0FBB1FAF5CB44FE8A940
:10221000F9A9EE0FFF1FEE0FFF1FE654F54F6D916A
:102220007D918D919C9123893489458956890E949D
:10223000613A662E972E882E792EAAA9BBA9AA0FDD
:10224000BB1FAA0FBB1FAF5CB44FEAA9FBA9EE0FDF
:10225000FF1FEE0FFF1FE654F54F6D917D918D919D
:102260009C9123893489458956890E94613A262E9A
:102270007EA38AA79DA747FE01C10E941F0A88234B
:1022800009F0CCC33E2D3130B1F46091290B70912F
:102290002A0B80912B0B90912C0B23E333E34BEC17
:1022A00051E40E94793D6093290B70932A0B80932F
:1022B0002B0B90932C0BE090290BF0902A0B0091A4
:1022C0002B0B10912C0BC801B70120E030E040E847
:1022D00050E40E94793DA80197010E94793D7B015D
:1022E0008C01662D792D882D972D262D392D482D81
:1022F000572D0E94793D9B01AC01C801B7010E9496
:10230000613A7B018C014EA13AA52DA5622D742F57
:10231000832F922FF901222D342F4F2F5E2F0E94F1
:10232000793D9B01AC01C801B7010E94613A7B0174
:102330008C017F2D912F20E030E0A9010E943B3BD2
:1023400087FD66C36E2D7F2D802F912F0E94063E44
:102350007B018C01662D792D882D972DAEA1FAA5D4
:10236000EDA5222D3A2F4F2F5E2F0E94DE2D9B01CF
:10237000AC01C801B70190580E94423BA62EB72E6F
:10238000C82ED92E8091060B833021F4D7FAD09431
:10239000D7F8D094E090290BF0902A0B00912B0BEA
:1023A00010912C0BC801B70120E030E0A9010E9478
:1023B0003B3B87FF10C0D7FAD094D7F8D09417FBD7
:1023C000109517F91095E092290BF0922A0B0093C3
:1023D0002B0B10932C0B8FE79FEF4822592208A953
:1023E00019A9000F111F000F111F075F144F4EA1F5
:1023F0003AA52DA5622D742F832F922FA60195014A
:102400000E94793D9B01AC01662D792D882D972D79
:102410000E94613A20E030E040E05FE30E94793DB5
:10242000D8011B966D937D938D939C931E970AA95B
:102430001BA9000F111F000F111F075F144F662DFE
:10244000792D882D972DA60195010E94793D9B013C
:10245000AC01AEA1FAA5EDA5622D7A2F8F2F9E2F8C
:102460000E94623A20E030E040E05FE30E94793D64
:10247000F8016387748785879687C5C0FCA5CF2E32
:10248000DD240C211D210115110509F4C3C221EF22
:102490003FEF422253223E2D313031F504E11BE063
:1024A000EE24FF24C6010E2C02C0959587950A9450
:1024B000E2F780FF10C0D8016D917D918D919C91C4
:1024C00023E333E34BEC51E40E94793DF801608350
:1024D0007183828393830894E11CF11C0C5F1F4F6E
:1024E000F4E0EF16F104F1F608A919A9000F111F85
:1024F000000F111F075F144F662D792D882D972D22
:10250000D8011B962D913D914D915C911E970E9493
:10251000613A5B016C01EAA8FBA8EE0CFF1CEE0C13
:10252000FF1CE9E0FBE0EE0EFF1E4EA13AA52DA533
:10253000622D742F832F922FD7011B962D913D91E1
:102540004D915C911E970E94613A9B01AC01C601BE
:10255000B5010E94DE2D5B016C01F8016385748575
:1025600085859685D7011B962D913D914D915C9166
:102570001E970E94DE2D7B018C016093290B7093C6
:102580002A0B80932B0B90932C0BC601B501A8014D
:1025900097010E94613A5B016C01E894D7F8C6018B
:1025A000B5012AE037ED43EA5BE30E943E3D181691
:1025B00054F5C601B50120E030E040E05FE30E9441
:1025C0003E3D18160CF42AC2C801B7012FE632E1CD
:1025D00043E85AE30E94793D9B01AC01C601B50175
:1025E0000E943E3D18167CF419C2EE2009F414C274
:1025F0000E941F0A882309F011C20E94F832882322
:1026000011F00EC23324C2018E7D9C7F332019F05D
:10261000C2018E7D907C009709F004C28091070B67
:102620008093BB0A8091100B9091110BA091120B1B
:10263000B091130B8093C80A9093C90AA093CA0A59
:10264000B093CB0AE0902D0BF0902E0B00912F0B46
:102650001091300B6091C40A7091C50A8091C60A2E
:102660009091C70AA80197010E943B3B882381F003
:10267000E092C40AF092C50A0093C60A1093C70AF2
:102680008091C30A882321F0B801A7010E94301568
:1026900080910F0B9091C30A981761F08093C30A41
:1026A0004091C40A5091C50A6091C60A7091C70A48
:1026B0000E94301580910E0B9091C20A981721F05C
:1026C0008093C20A0E9433158091050B813051F42A
:1026D0006091250B7091260B8091270B9091280B10
:1026E0000E94E00880910A0B8093BE0A8091080B3B
:1026F0008093BC0AB32DB330D1F480910B0B80933F
:10270000BF0A813049F48091390B90913A0BA09126
:102710003B0BB0913C0B03C080E090E0DC01809368
:10272000FD0A9093FE0AA093FF0AB093000B8091DC
:102730000C0B9091C00A981759F08093C00AADED28
:10274000BAE0FE01369680E101900D928150E1F7EA
:102750008091090B8093BD0A8091050B8530E9F1CA
:10276000863048F48330C9F1843008F067C0823085
:1027700009F07DC00AC0883009F468C0893009F4C6
:102780006FC0863009F073C05BC06091250B7091FB
:10279000260B8091270B9091280B0E94473E0E94A8
:1027A000AF3B662319F0F62EFA9402C0F090C00AEF
:1027B0008E010A5E1F4F8F2DB8010E9493238091D6
:1027C000C00A8F1509F053C0ADEDBAE0F80180E101
:1027D00001900D928150E1F74AC0332089F0E090DA
:1027E000210BF090220B0091230B1091240B81E31D
:1027F0009BE040E050E060E87FEB20E00E9438057D
:1028000096E1C92ED12CCC0EDD1EE090210BF0906C
:10281000220B0091230B1091240BC60140E050E0E5
:1028200060E87FEB20E00E943805ADECBAE0F601ED
:1028300080E101900D928150E1F719C086E001C05E
:1028400087E06DEC7AE00E94932311C0ADEEBAE010
:10285000E1E3FBE080E101900D928150E1F707C0D8
:1028600080E1EDEEFAE0DF011D928A95E9F78091B3
:10287000060B8093BA0A853009F494C0B32DB230A8
:1028800009F090C0843040F4823088F5882341F00C
:10289000813009F07EC014C0843009F07AC063C072
:1028A000E090210BF090220B0091230B1091240B50
:1028B00081E39BE040E050E060E87FEB20E014C063
:1028C0004091C80A5091C90A6091CA0A7091CB0A16
:1028D000E090210BF090220B0091230B1091240B20
:1028E00081E39BE02091BB0A0E94380552C000D0D2
:1028F00000D0EDB7FEB731960091290B10912A0B4D
:1029000020912B0B30912C0BC090C80AD090C90A93
:10291000E090CA0AF090CB0A8FA5ADB7BEB711966A
:102920008C939CA991838091210B9091220BA09173
:10293000230BB091240B82839383A483B5838DEC06
:102940009AE061E37BE044E15BE0A090BB0A8EA4E7
:102950000E947905ADB7BEB716960FB6F894BEBF04
:102960000FBEADBF16C04091C80A5091C90A609110
:10297000CA0A7091CB0AE090210BF090220B0091D3
:10298000230B1091240B81E39BE02091BB0A0E9452
:102990005E09ADECBAE0E1E3FBE080E101900D926D
:1029A0008150E1F780910D0B8093C10A8823E1F1FA
:1029B0000E947A161092910A8091C10A823019F40D
:1029C0000E94100A31C01092C10A2EC081E02DC0B1
:1029D00082E02BC088E129C087E127C089E125C0BA
:1029E00084E023C08BE121C086E21FC08CE11DC0C2
:1029F0008DE11BC084E119C087E017C08EE115C0CE
:102A00008FE113C086E111C080E20FC085E10DC0E7
:102A100082E20BC083E209C08AE107C081E205C0FF
:102A200084E203C085E201C080E0E4960FB6F8942A
:102A3000DEBF0FBECDBFCF91DF911F910F91FF90F1
:102A4000EF90DF90CF90BF90AF909F908F907F904E
:102A50006F905F904F903F902F9008950895089544
:102A60000895089508950895E0ECF0E080818D7F49
:102A700080831092C50089E18093C400E1ECF0E00E
:102A8000808180618083808188608083808180688C
:102A900080830895E09128029E2F9F5F903429F44F
:102AA00003C0F49B02C0089590E020912902921780
:102AB000C1F3F0E0EF53F44F8083909328028091AC
:102AC000C10080628093C10008951F920F920FB6DB
:102AD0000F920BB60F9211248F939F93EF93FF9356
:102AE00080912902E82FF0E0EF53F44F908190930A
:102AF000C6008F5F803409F480E0809329029091B2
:102B00002802891729F48091C1008F7D8093C1002C
:102B1000FF91EF919F918F910F900BBE0F900FBE81
:102B20000F901F9018959091270280912602891787
:102B300061F0E92FF0E0EF5BF44F80819F5F903808
:102B400009F490E09093270208958FEF08951F9263
:102B50000F920FB60F920BB60F9211242F933F9343
:102B60004F935F936F937F938F939F93AF93BF9395
:102B7000EF93FF938091C6008F3361F0803428F487
:102B8000883181F0813289F40BC08E3529F08E377F
:102B900061F404C0F09A1AC0F79A18C0F19A16C0EE
:102BA000F39A14C00E94100A11C0E09126029E2FD1
:102BB0009F5F903809F490E020912702921731F03E
:102BC000F0E0EF5BF44F808390932602FF91EF914A
:102BD000BF91AF919F918F917F916F915F914F9135
:102BE0003F912F910F900BBE0F900FBE0F901F9033
:102BF0001895809126028093270208951F93CF9302
:102C0000DF931EB3112309F46BC0C12FD0E0CE01B6
:102C1000807690700097D1F081E08093900ACE0189
:102C200086FF0EC085FF02C08FEF01C08DEF0E94AE
:102C30007A3381E00E949B33F498F49BFECF03C06B
:102C40008EEF0E947A338EB38F798EBBC4FF04C09F
:102C500081E080938F0A4AC0C0FF03C00E94DF3723
:102C6000F09817FF06C00E94A938F7980E94A9386B
:102C7000F798C3FF0EC08091900A803149F480E23A
:102C80008093900A0E94D61A0E94F81A1092910A14
:102C9000F398C1FF18C08091900A82FD14C088305B
:102CA00089F480E18093900A0E94F81A0E94061726
:102CB00080914D0C81FF04C081E08093910A02C095
:102CC0001092910AF198C2FF0BC00E94DC28009775
:102CD00021F088E08093900A02C01092900AF29846
:102CE0008091900A847311F00E94F81ADF91CF91BD
:102CF0001F9108958091900A803151F481E0809372
:102D0000910A06C00E94FE1580918F0A882341F423
:102D10000E94DC280097B1F78091900A803191F3EE
:102D200008958091910A8111F19A08950F931F934C
:102D30000E94C5338091900A813021F482E00E9484
:102D40009B331CC01092900A8AE292E00E94C13824
:102D500015C08A3011F08D3031F5E12FF0E0E65DDD
:102D6000FD4F10820E94FE1580918F0A882331F456
:102D700080912A02882329F40E94133310E000E096
:102D800035C0843229F48AE292E00E94E038F4CF20
:102D90008091900A813011F489E0EECF8AE292E0CE
:102DA0000E94E40AE9CF002319F08932F9F4E7CF51
:102DB0008132E0F08F32D1F08832B9F0153428F04A
:102DC0008BE00E94133310E011C0982F9156212FF1
:102DD00030E01F5F9A3120F4265D3D4F805202C0E3
:102DE000265D3D4FF901808301C001E00E949315EB
:102DF0008F3F09F0AECF0E9491160E94FE15809180
:102E00008F0A882399F31F910F91089580914D0C9B
:102E100082FF04C0809105018E6303C0809105018B
:102E2000817C809305018091900A847121F18091C9
:102E3000430C80935C038091420C80935B03209150
:102E4000410C30E040E050E0DA01C9010896A11DD4
:102E5000B11D880F991FAA1FBB1F819580935A032C
:102E6000220F331F441F551F219527BD80916F00EE
:102E7000826080936F00089580916F008D7F8093B2
:102E80006F0080918100887F816080938100109223
:102E900075038091440C8F3F11F4F59B09C090910C
:102EA000900A943029F090E00E94B22D81E001C098
:102EB00080E090914D0C92FF02C091E08927882319
:102EC00021F0809105018E6303C080910501817C12
:102ED0008093050108951F920F920FB60F920BB6C3
:102EE0000F9211242F933F934F935F936F937F9390
:102EF0008F939F93AF93BF93EF93FF9382B18058CB
:102F000082B980917503882309F094C290910201DF
:102F100080915C03807F9F70892B80930201809158
:102F20000201807F90915B03892B809370038091D5
:102F30005A0386BD82E085BD81E080937503789455
:102F40008091730390917403009709F0CFC0809132
:102F5000480390911C03981709F4C4C020914803BA
:102F600030E0F901A3E0EE0FFF1FAA95E1F7E21BA5
:102F7000F30BE35EFC4FF0937403E09373038281E1
:102F800093819093890080938800808191819093B0
:102F90006E0380936D03448180916F038417E1F188
:102FA00040936F0350E089E190E0489FF001499F12
:102FB000F00D589FF00D1124E356FD4FF09372036E
:102FC000E093710385899689A789B08D8093B20AB1
:102FD0009093B30AA093B40AB093B50A81899289F9
:102FE000A389B489B695A79597958795E9E4F3E009
:102FF0008093490390934A03A0934B03B0934C03EF
:1030000084839583A683B78380879187A287B387BC
:1030100084879587A687B787E0917103F091720343
:103020008091430C9081892780935C03D90173E0E0
:10303000AA0FBB1F7A95E1F7A21BB30BA35EBC4F8F
:1030400015962C9181819281A381B481022E04C0B6
:10305000B695A795979587950A94D2F780935D03C7
:1030600090935E03A0935F03B09360038581968184
:10307000A781B085022E04C0B695A7959795879530
:103080000A94D2F78093610390936203A093630341
:10309000B093640381859285A385B485022E04C014
:1030A000B695A795979587950A94D2F7809365036F
:1030B00090936603A0936703B09368038585968514
:1030C000A785B08904C0B695A795979587952A9549
:1030D000D2F78093690390936A03A0936B03B09334
:1030E0006C0304C00E943C17F29AA4C10E94FE32F5
:1030F00010925B0380915D0390915E03A0915F034A
:10310000B09160032091490330914A0340914B03F1
:1031100050914C03820F931FA41FB51F8093490346
:1031200090934A03A0934B03B0934C03E091710337
:10313000F09172032189328943895489281739070C
:103140004A075B0768F521E020935B0321893289F8
:1031500043895489821B930BA40BB50B80934903BD
:1031600090934A03A0934B03B0934C03208180912A
:10317000920A9091930AA091940AB091950A24FF23
:1031800004C00197A109B10903C00196A11DB11D99
:103190008093920A9093930AA093940AB093950A0D
:1031A0008091610390916203A0916303B0916403E5
:1031B00020914D0330914E0340914F0350915003A5
:1031C000820F931FA41FB51F80934D0390934E034E
:1031D000A0934F03B09350032189328943895489C6
:1031E000281739074A075B0778F520915B032260AF
:1031F00020935B032189328943895489821B930B75
:10320000A40BB50B80934D0390934E03A0934F03F3
:10321000B093500320818091960A9091970AA091D3
:10322000980AB091990A25FF04C00197A109B10934
:1032300003C00196A11DB11D8093960A9093970A31
:10324000A093980AB093990A8091650390916603C0
:10325000A0916703B091680320915103309152030C
:103260004091530350915403820F931FA41FB51F25
:103270008093510390935203A0935303B09354034C
:103280002189328943895489281739074A075B07FE
:1032900078F520915B03246020935B0321893289B8
:1032A00043895489821B930BA40BB50B8093510364
:1032B00090935203A0935303B093540320818091C1
:1032C0009A0A90919B0AA0919C0AB0919D0A26FFB0
:1032D00004C00197A109B10903C00196A11DB11D48
:1032E00080939A0A90939B0AA0939C0AB0939D0A9C
:1032F0008091690390916A03A0916B03B0916C0374
:103300002091550330915603409157035091580333
:10331000820F931FA41FB51F8093550390935603EC
:10332000A0935703B0935803218932894389548964
:10333000281739074A075B0778F520915B03286057
:1033400020935B032189328943895489821B930B23
:10335000A40BB50B8093550390935603A09357038A
:10336000B0935803208180919E0A90919F0AA0916A
:10337000A00AB091A10A27FF04C00197A109B109D1
:1033800003C00196A11DB11D80939E0A90939F0AD0
:10339000A093A00AB093A10A89B19091830A8927CA
:1033A0009091840A8923C1F0809590915B038923D1
:1033B00080935B03882329F48091850A8160809340
:1033C000850A8091900A857039F4F59905C00E94AC
:1033D000100A8EB3806E8EBB80916D0390916E0348
:1033E000019790936E0380936D030097B9F48EB3A9
:1033F000E0917303F09174039681892B8EBB109238
:10340000740310927303809148038F5F8093480385
:1034100080914803863011F4109248038091420C49
:1034200090915B03892780935B031092750382B1AF
:10343000805882B9FF91EF91BF91AF919F918F9189
:103440007F916F915F914F913F912F910F900BBEA4
:103450000F900FBE0F901F9018951F920F920FB6EE
:103460000F920BB60F9211248F939F93EF93FF93BC
:10347000E2E0F1E090818091420C8F70907F892B87
:10348000808315BCFF91EF919F918F910F900BBEA0
:103490000F900FBE0F901F9018951F920F920FB6AE
:1034A0000F9211248F9380917003809302018F916A
:1034B0000F900FBE0F901F9018950E943C178BE243
:1034C000E2E7F2E0DF011D928A95E9F78CE2E9E498
:1034D000F3E0DF011D928A95E9F7109271021092D4
:1034E00070021092480310921C0381E080934703FE
:1034F000109275030895989A9998A09AA1988FEFC1
:1035000087B990915D0C98B980930A0190915E0CF7
:10351000892F880F880F892B80930B018AB1807FB8
:103520008AB98BB18F608BB9809A88980895CF93B0
:10353000DF93A1E0B1E08C918F608C93E2E0F1E049
:103540008081807F9091420C892B8083C4E0D1E000
:1035500088818E6388838C91806F8C9380818F703B
:103560009091430C892B8083E1E8F0E080818F7E8D
:103570008083808188608083E0E8F0E080818C7FB8
:10358000808380818F708083EEE6F0E08081887F89
:10359000808314BC15BC80818160808380818260BF
:1035A00080830E947B1ADF91CF910895CF93DF93A0
:1035B000C0917002D09171022097B9F081E08093A0
:1035C00073022091890230918A0240918B025091BE
:1035D0008C02CA01B9010E94793D6D8B7E8B8F8B65
:1035E000988F1092710210927002DF91CF9108951E
:1035F0002F923F924F925F926F927F928F929F9203
:10360000AF92BF92CF92DF92EF92FF920F931F93F0
:10361000DF93CF93CDB7DEB7AE970FB6F894DEBF8A
:103620000FBECDBF94C78091700290917102009738
:1036300009F0BCC20E94DC286C0190937102809357
:103640007002009709F48AC780917302882319F0E9
:1036500010927302E7C0809172028F5F80937202B2
:10366000853011F4109272028091720290E029E18B
:1036700030E0829FF001839FF00D929FF00D1124A6
:10368000E356FD4FF0931B03E0931A03D6018C9190
:1036900080839D962D913D914D915C91D097258B86
:1036A000368B478B508F11962D913D914D915C91AA
:1036B000149793E0220F331F441F551F9A95D1F79B
:1036C000218332834383548315962D913D914D91EF
:1036D0005C91189783E0220F331F441F551F8A9572
:1036E000D1F7258336834783508719962D913D91D5
:1036F0004D915C911C9703E0220F331F441F551F0F
:103700000A95D1F721873287438754871D962D91DB
:103710003D914D915C91509713E0220F331F441F50
:10372000551F1A95D1F7258736874787508B5196B5
:103730006D917D918D919C9154979B01AC01A3E07B
:10374000220F331F441F551FAA95D1F7218B328BAF
:10375000438B548B0E94DB3B609374027093750221
:103760008093760290937702F60121A532A543A5B6
:1037700054A50E94423B7B018C01762F272F3F2DC1
:10378000402F512F209378023093790240937A0290
:1037900050937B0260E070E080EA9FE30E94423B2E
:1037A00060937C0270937D0280937E0290937F02EF
:1037B00080E090E0DC018093800290938102A093EE
:1037C0008202B09383028091900A8032E1F42091CA
:1037D0009102309192024091930250919402209371
:1037E000890230938A0240938B0250938C02CA0163
:1037F000B9010E94793DD60155966D937D938D93C5
:103800009C9358970FC0F601658976898789908DBA
:103810000E94063E6093890270938A0280938B0215
:1038200090938C0280E090E0DC018093850290937D
:103830008602A0938702B0938802D6019596ED90F8
:10384000FD900D911C91989760E070E080E09FE3FF
:10385000A80197010E94423B69837B838C839D83EF
:103860008091900A803209F05EC0B2E0B093840289
:10387000F60161A472A483A494A42588368847889D
:10388000508C3C81832FA20191010E94793D9B01C4
:10389000AC01C401B3010E94613AD62EC72EB82EE6
:1038A000A92EA6019501652F742F832F922F20E05A
:1038B00030E0A9010E943B3B87FF1BC0C801B70154
:1038C000A80197010E94623AA40193010E94793DE8
:1038D0009B01AC01C201B1010E94613A0E94063E07
:1038E000609391027093920280939302909394025A
:1038F0005DC1A6019501852F942FA32FB22F809330
:10390000850290938602A0938702B093880280E09C
:1039100090E0DC018093910290939202A093930235
:10392000B093940243C110928402F60181A592A53E
:10393000A3A5B4A58093950290939602A0939702B5
:10394000B09398020E94F3285B016C01609391028E
:10395000709392028093930290939402A601950132
:103960000E94793D6E837F838B879C8720917002B4
:103970003091710238A72FA3D90199966D907D904F
:103980008D909C909C9755962D903D904D905C907D
:103990005897C201B101BE81AF811B850C852B2FC9
:1039A0003A2F412F502F0E94613A9B01AC01B981FF
:1039B000AB811C810D816B2F7A2F812F902F0E945C
:1039C000793D9B01AC01C401B3010E94623A20E041
:1039D00030E040E05FE30E94793DF62E072F182F7C
:1039E000E92E20E030E0A9010E943E3D18160CF0BF
:1039F000CAC06F2D702F812F9E2DA40193010E94AC
:103A00003B3B87FFACC0EFA1F8A5A1A0B2A0C3A02B
:103A1000D4A0C601B501BE81AF819B848C842B2FBD
:103A20003A2F492D582D0E94613A9B01AC01B98172
:103A3000AB819C808D806B2F7A2F892D982D0E94D1
:103A4000793D262F372F482F592F209399023093F5
:103A50009A0240939B0250939C022F2D302F412FAE
:103A60005E2D0E943B3B87FF3FC0C601B5010E940F
:103A7000063E60938D0270938E0280938F02909326
:103A80009002C201B101A60195010E943B3B88232F
:103A900021F4F1E0F093840289C0C601B501A201CE
:103AA00091010E94613A9B01AC01B981AB811C81FB
:103AB0000D816B2F7A2F812F902F0E94793D9B01D2
:103AC000AC0160919502709196028091970290915D
:103AD00098020E94613A60939502709396028093D7
:103AE00097029093980262C08F2D902FA12FBE2D28
:103AF0008093950290939602A0939702B0939802B8
:103B00008093990290939A02A0939B02B0939C0297
:103B1000AFA1B8A595962D913D914D915C91989747
:103B2000CA01B9010E94623A2F2D302F412F5E2D1C
:103B30000E94793DBE81AF811B850C852B2F3A2FCA
:103B4000412F502F0E94623A0E94063E60938D02E0
:103B500070938E0280938F029093900227C0B2E000
:103B6000B09384028091890290918A02A0918B0285
:103B7000B0918C0280938D0290938E02A0938F025D
:103B8000B093900213C080E090E0DC018093950236
:103B900090939602A0939702B0939802A0928D0200
:103BA000B0928E02C0928F02D092900280911C033C
:103BB000A82FB0E0BA83A983FD0153E0EE0FFF1FE9
:103BC0005A95E1F7EA1BFB0BE35EFC4F8091720212
:103BD00084836090700270907102F30101A512A5B8
:103BE000F3A4D4A4602F712F8F2D9D2D20917C02E2
:103BF00030917D0240917E0250917F020E94613A95
:103C00006F8F78A389A39AA320E030E0A9010E94D6
:103C10003B3B87FF04C01F8E18A219A21AA2F09185
:103C20009502FF8720919602288B30919702398B5D
:103C3000609198026A8B80918D028B8B90918E029D
:103C40009C8BA0918F02AD8BB0919002BE8BE091C6
:103C50009902EF8BF0919A02F88F20919B02298FA5
:103C600030919C023A8F609185026B8F8091860221
:103C70008C8F909187029D8FA0918802AE8F80914A
:103C8000910290919202A0919302B09194028FA31D
:103C900098A7A9A7BAA79090890240908A0230906D
:103CA0008B0220908C02909184029B834AE0E42E48
:103CB00030EEC32E2EE1B22E99E3A92E1B861C8670
:103CC0001D861E86AAE0AC83B0EEBD83EEE1EE83D6
:103CD000F9E3FF837EA66DA6592C2B81222321F0C8
:103CE000213009F005C1B2C095016E2D7C2D832FC6
:103CF0009A2DADA5BEA595962D913D914D915C91C6
:103D000098970E94793D962E872E782E692EA401D1
:103D10009301652F742F832F922F20E030E040E035
:103D20005FE30E94793D9B01AC01D201F1016B2F51
:103D3000742D8F2F922D0E94623A9B01AC01F501E8
:103D40006E2D7C2D8F2F9A2D0E94793D9B01AC0109
:103D5000602F712F8F2D9D2D0E94613A8B01F82EBF
:103D6000D92E712FBF85A889E989EBA3FA89FCA315
:103D70002B2F3A2FAF010E943B3B87FF54C0ADA5CC
:103D8000BEA599966D917D918D919C919C97BF85D3
:103D9000A88919890A892B2F3A2F412F502F0E9469
:103DA000613A9B01AC010E94623A7B018C01A20145
:103DB0009101652F742D832F922DBB89AC89DD88ED
:103DC000CE882B2F3A2F4D2D5C2D0E94623A9B01FD
:103DD000AC01C801B7010E94423BE62EC72EB82EA7
:103DE000A92E5F85488939892A89652F742F832FE9
:103DF000922FBF89A88D198D0A8D2B2F3A2F412F15
:103E0000502F0E943B3B882319F0B1E0BB8302C0D6
:103E1000E2E0EB835B884C883D882E880F8518890B
:103E2000F988DA8812C1A2019101652F742D832FC0
:103E3000922DD401F3012B2F3A2F4F2F5E2F0E948A
:103E4000623A562E472E382E292EFFC05B894C89A8
:103E50003D892E89652F742F832F922FF5012E2DEA
:103E60003C2D4F2F5A2D0E94793D9B01AC01602FB4
:103E7000712F8F2D9D2D0E94613A962E872E782EC0
:103E8000692EA4019301652F742F832F922FAF8980
:103E9000F88DFBA3298D2CA3BA8D2A2F3F2F4CA17F
:103EA0005B2F0E943B3B87FFCCC0602F712F8F2D73
:103EB0009D2DBF89A88D198D0A8D2B2F3A2F412F4B
:103EC000502F0E94613ABB89AC891D890E892B2F26
:103ED0003A2F412F502F0E94423BE62EC72EB82E7C
:103EE000A92E0F89188DF98CDA8C32E03B83ADC096
:103EF00095016E2D7C2D832F9A2DADA5BEA595968F
:103F00002D913D914D915C9198970E94793D6BA3C5
:103F10007CA38DA39EA3A2019101652F742D832FF5
:103F2000922DBBA1ACA19DA08EA02B2F3A2F492D85
:103F3000582D0E943E3D18160CF054C05BA14CA1B8
:103F40009401652F742F832F922F20E030E040E002
:103F50005FE30E94793D9B01AC01D201F1016B2F1F
:103F6000742D8F2F922D0E94613A9B01AC01F501B7
:103F70006E2D7C2D8F2F9A2D0E94793D9B01AC01D7
:103F8000602F712F8F2D9D2D0E94613A962E872EC6
:103F9000782E692EA4019301652F742F832F922F01
:103FA000BB8DAC8DED8DEBA7FE8DFCA72B2F3A2F93
:103FB000AF010E943E3D1816ACF4A2019101652F9D
:103FC000742D832F922DBBA1ACA11DA10EA12B2F6F
:103FD0003A2F412F502F0E94613A562E472E382EED
:103FE000292E2FC0602F712F8F2D9D2DBB8DAC8D55
:103FF0001D8D0E8D2B2F3A2F412F502F0E94613A8D
:104000009B01AC010E94623A7B018C01A2019101EB
:10401000652F742D832F922D2FA138A549A55AA560
:104020000E94623A9B01AC01C801B7010E94423B69
:10403000E62EC72EB82EA92E0B8D1C8DFD8CDE8C86
:1040400004C0092D182DF72CD62C5B854C853D8599
:104050002E85652F742F832F922FF5012E2D3C2D49
:104060004F2F5A2D0E94623A762E672E4C016B8795
:104070007C878D879E86A301652F742F992DBC8127
:10408000AD81EE80CF802B2F3A2F4E2D5C2D0E94DC
:104090003B3B87FF0AC05C814D81652F742F8E2DBD
:1040A0009C2DD301E82CC92C39C0602F712F8F2D86
:1040B0009D2DBF8DA8A1E9A0CAA02B2F3A2F4E2D70
:1040C0005C2D0E943E3D18169CF0E82CC92C9101F5
:1040D000852D942DA32FB22D8093890290938A026F
:1040E000A0938B02B0938C022B812093840245C055
:1040F0005C814D813E812F81652F742F832F922FFC
:104100002AE030EE4EE159E30E94623A6C837D83EF
:104110008E839F83BB85AC85ED84CE842B2F3A2F75
:104120004E2D5C2D0E94613AE62EC72EB82EA92E88
:10413000602F712F8F2D9D2DBB8DAC8D3D8D3BA3A1
:10414000EE8DECA32B2F3A2F4BA15E2F0E943E3D0C
:1041500018160CF4C2CDE82CC92C9101852D942D94
:10416000A32FB22D8093890290938A02A0938B0291
:10417000B0938C02FB81F0938402209078023090FF
:10418000790240907A0250907B02C201B101202F47
:10419000312F4F2D5D2D0E94793D6B837C838D8364
:1041A0009E830E94283B4B015C01609174027091D8
:1041B000750280917602909177020E94283B6F836E
:1041C000788789879A87A50194010E94613A0E94A5
:1041D000AF3BE981FA8183E0EE0FFF1F8A95E1F79B
:1041E00029813A81E21BF30BE35EFC4F718360830C
:1041F0006115710551F58091900A803231F56501A4
:10420000540180E090E0DC018093890290938A025F
:10421000A0938B02B0938C028093800290938102D2
:10422000A0938202B0938302A0927402B0927502AE
:10423000C0927602D09277020091700210917102C2
:10424000C601B501A20191016DC1A301652F762DB3
:104250008E2D9C2D2091800230918102409182020E
:10426000509183020E94623A2B013C016F81788554
:1042700089859A85BB81AC81ED80CE802B2F3A2F2A
:104280004E2D5C2D0E94613A9B01AC01C301B2012D
:104290000E94423BE62EC72E782E692EC501B4013E
:1042A000BB81AC815D804E802B2F3A2F452D542D44
:1042B0000E94613AF3012E2D3C2D4F2F5E2F0E945C
:1042C000793D609380027093810280938202909383
:1042D000830293016E2D7C2D832F922F20EC31EEE3
:1042E00044E65EE40E94793D0E94283B0E94AF3B79
:1042F0009B01AC01DA01C901803DE7E09E07E0E0E7
:10430000AE07E0E0BE0780F449815A81B3E0440F74
:10431000551FBA95E1F729813A81421B530B435E41
:104320005C4FFA01158262C0203AFFE03F07F0E0DF
:104330004F07F0E05F0780F4E981FA81A3E0EE0F18
:10434000FF1FAA95E1F789819A81E81BF90BE35ECB
:10435000FC4F91E0958321C069817A81E3E0660F8B
:10436000771FEA95E1F72034AFE13A07A0E04A076A
:10437000A0E05A0740F4E981FA816E1B7F0B635E6F
:104380007C4FE2E007C089819A81681B790B635EEC
:104390007C4FE3E0DB011596EC93E981FA8163E061
:1043A000EE0FFF1F6A95E1F789819A81E81BF90BEF
:1043B000E35EFC4F6581DA01C901062E04C0B695A3
:1043C000A795979587950A94D2F72081318102C0ED
:1043D000220F331F6A95E2F731832083803020E07B
:1043E000920721E0A20720E0B20788F449815A81B0
:1043F00023E0440F551F2A95E1F7E981FA814E1B0E
:104400005F0B435E5C4FFA019383828304C02FEFFE
:104410003FEF338322838091470380931C038F5F98
:1044200080934703863011F410924703602F712F59
:104430008F2D9D2D2091850230918602409187021B
:10444000509188020E943E3D69817A81B3E0660FF7
:10445000771FBA95E1F718163CF5E0917002F091DC
:104460007102802F912FAF2DBD2D81A792A7A3A7F9
:10447000B4A75B814C813D812E81852F942FA32F82
:10448000B22F8093740290937502A0937602B0933A
:10449000770289819A81681B790B635E7C4FDB010F
:1044A00016961C92169753C0E981FA816E1B7F0BFA
:1044B000635E7C4FE1E0DB011696EC93602F712F79
:1044C0008F2D9D2D20E030E0A9010E943E3D181661
:1044D000C4F56501540180E090E0DC01E5E8F2E01C
:1044E00084839583A683B78380938002909381020F
:1044F000A0938202B0938302A0927402B0927502DC
:10450000C0927602D09277020091700210917102EF
:10451000C601B501209178023091790240917A026A
:1045200050917B020E94423BD80199966D937D93F6
:104530008D939C939C970E94F32C88E08093900A23
:104540000DC010927102109270020E94C8289091C2
:10455000480380914703981709F065C8AE960FB6D7
:10456000F894DEBF0FBECDBFCF91DF911F910F91A9
:10457000FF90EF90DF90CF90BF90AF909F908F9083
:104580007F906F905F904F903F902F900895F99992
:10459000FECF92BD81BD81E08FBB80B50895F894B8
:1045A000F999FECF92BD81BD81E08FBB40B5462712
:1045B000842F992787FD9095262F30E0822393231F
:1045C000009739F06F3F19F060BD84E006C084E1C8
:1045D00004C0442321F060BD84E28FBBF99A789433
:1045E00008958F929F92AF92BF92CF92DF92EF92F7
:1045F000FF920F931F93DF93CF930F92CDB7DEB748
:104600005C016B017A014A0120E01BC0222341F4C6
:10461000332727FD30952227330F221F332702C06F
:1046200021E030E0F60161916F01260F8C010F5FF0
:104630001F4F29830E94CF22089481089108C80146
:1046400029818114910411F7C7018A0D9B1D622FE6
:104650000E94CF220F90CF91DF911F910F91FF9079
:10466000EF90DF90CF90BF90AF909F908F90089584
:104670009F92AF92BF92CF92DF92EF92FF920F93F1
:104680001F93CF93DF936C01EB017A018A01CB0179
:1046900099241BC05C010894A11CB11C0E94C72274
:1046A000992049F4292D332727FD30952227330FF0
:1046B000221F332702C021E030E0982E920EF6012F
:1046C00081936F0101501040C5010115110511F7CB
:1046D000C7018C0F9D1F0E94C72221E030E0981671
:1046E00011F020E030E0C901DF91CF911F910F91CF
:1046F000FF90EF90DF90CF90BF90AF909F90089584
:1047000097E4899FC001112480509D4F46E450E0FA
:104710000E94F1220895BC0180EE93E046E450E04F
:104720000E94F122089591E1899FC00111248050D7
:104730009E4F40E150E00E94F122089580E090E019
:1047400067E40E94CF2281E090E061E07CE04EE5EA
:1047500050E00E94F122089580E090E0A8ECB3E4DC
:104760008093010C9093020CA093030CB093040C63
:104770008093050C9093060CA093070CB093080C43
:104780008093090C90930A0CA0930B0CB0930C0C23
:1047900080930D0C90930E0CA0930F0CB093100C03
:1047A0002FE02093410C20E030E04AE754E42093CE
:1047B000110C3093120C4093130C5093140C209353
:1047C000150C3093160C4093170C5093180C209333
:1047D000190C30931A0C40931B0C50931C0C8093B3
:1047E0001D0C90931E0CA0931F0CB093200C80E026
:1047F00090EAACE0B7E48093210C9093220CA09354
:10480000230CB093240C8093250C9093260CA0933A
:10481000270CB093280C8093290C90932A0CA0931A
:104820002B0CB0932C0C80E090ECA8EAB6E48093BB
:104830002D0C90932E0CA0932F0CB093300C8FE680
:1048400092E1A3E0BBE38093490C90934A0CA093C0
:104850004B0CB0934C0C1092420C1092430C8AE01B
:1048600097EDA3EABCE38093450C9093460CA0938C
:10487000470CB093480C82E580934D0C10924E0C7F
:1048800080E090E0A0E2B1E480934F0C9093500C54
:10489000A093510CB093520C80E090E0A0EAB1E4F8
:1048A0008093530C9093540CA093550CB093560CDA
:1048B0008AEF90E09093580C8093570C80E090E042
:1048C000A0E8BFE38093590C90935A0CA0935B0C23
:1048D000B0935C0C89E18093440C80E090E0A8E404
:1048E000B2EC8093310C9093320CA093330CB093C4
:1048F000340C8093350C9093360CA093370CB09306
:10490000380C8093390C90933A0CA0933B0CB093E5
:104910003C0C80933D0C90933E0CA0933F0CB093C5
:10492000400C10925D0C10925E0C0E949E23089524
:104930001F93CF93DF93182FEB0167E4869FB0019D
:10494000112460507D4FCE0146E450E00E94382390
:10495000009739F41882812FBE010E94802380E0E5
:1049600001C081E0DF91CF911F910895CF93DF9334
:10497000EC0160EE73E046E450E00E9438230097BB
:1049800031F41882CE010E948B2380E001C081E0C7
:10499000DF91CF910895FF920F931F93F82E8B0113
:1049A00021E1829F9001112420503E4FCB01B9019B
:1049B00040E150E00E943823009759F480E1D8018B
:1049C0001D928A95E9F78F2DB8010E94932380E00C
:1049D00001C081E01F910F91FF90089580E090E069
:1049E0000E94C722873459F481E09CE061E070E0C6
:1049F0004EE550E00E94382321E0009709F420E0C2
:104A0000822F0895EF92FF920F931F93CF93DF931E
:104A1000EC017A018B01CB01BA0120E030E0A90161
:104A20000E943B3B87FDBFC1C432D10508F0BDC128
:104A3000FE01EE58FF4FEE0FFF1F0590F491E02DA1
:104A40001994CC0FDD1FCC0FDD1FCF5FD34FE88251
:104A5000F9820A831B83A3C1E092110CF092120C1D
:104A60000093130C1093140C9AC1E092150CF09261
:104A7000160C0093170C1093180C91C1E092190CAE
:104A8000F0921A0C00931B0C10931C0C88C1E0923E
:104A90001D0CF0921E0C00931F0C1093200C7FC174
:104AA000C801B70120E030E040E752E40E94793DC0
:104AB00020E030E040E752E40E94793D6093210C11
:104AC0007093220C8093230C9093240C68C1C8012E
:104AD000B70120E030E040E752E40E94793D20E059
:104AE00030E040E752E40E94793D6093250C7093DA
:104AF000260C8093270C9093280C51C1C801B70154
:104B000020E030E040E752E40E94793D20E030E0D0
:104B100040E752E40E94793D6093290C70932A0C7F
:104B200080932B0C90932C0C3AC1C801B70120E064
:104B300030E040E752E40E94793D20E030E040E779
:104B400052E40E94793D60932D0C70932E0C80935B
:104B50002F0C9093300C23C117FB109517F910956B
:104B6000E092310CF092320C0093330C1093340C21
:104B700016C117FB109517F91095E092350CF092BD
:104B8000360C0093370C1093380C09C117FB1095A5
:104B900017F91095E092390CF0923A0C00933B0C07
:104BA00010933C0CFCC017FB109517F91095E09280
:104BB0003D0CF0923E0C00933F0C1093400CEFC064
:104BC000C801B70120E030E040E450E40E943B3BE4
:104BD00087FDEDC0C801B7010E94DC3D0E94AF3BDC
:104BE0006093410CDCC0C801B7010E94473E0E949F
:104BF000AF3B6093420CD3C0C801B7010E94473E4F
:104C00000E94AF3B6093430CCAC0C801B7010E9429
:104C1000DC3D0E94AF3B6093440CC1C0E89417F99F
:104C2000E092450CF092460C0093470C1093480C10
:104C3000B6C0E092490CF0924A0C00934B0C1093D2
:104C40004C0CADC0C801B70120E030E0A9010E94C2
:104C50003B3B90914D0C882311F091600EC09E7FDC
:104C60000CC0C801B70120E030E0A9010E943B3B25
:104C700090914D0C882321F0926090934D0C8FC041
:104C80009D7FFBCFC801B70120E030E0A9010E9461
:104C90003B3B90914D0C882311F09460EECF9B7FAD
:104CA000ECCFC801B70120E030E0A9010E943B3BF6
:104CB00090914D0C882311F09064DFCF9F7BDDCF66
:104CC000C801B70120E030E0A9010E943B3B909170
:104CD0004D0C882321F094FF6CC09062CECF9F7D55
:104CE000CCCFC801B70120E030E0A9010E943B3BD6
:104CF00090914D0C882311F0986001C0977F90939C
:104D00004D0C0E94152E4BC0C801B70120E030E0C9
:104D1000A9010E943B3B90914D0C882311F09061BA
:104D2000ACCF9F7CAACFC801B7010E94473E0E942A
:104D3000AF3B60934E0C33C0E0924F0CF092500C9E
:104D40000093510C1093520C2AC0E092530CF09235
:104D5000540C0093550C1093560C21C0C801B70198
:104D60000E94DC3D0E94AF3B7093580C6093570C3F
:104D700016C0E092590CF0925A0C00935B0C109301
:104D80005C0C0DC0C801B7010E94AF3B60935D0C85
:104D900006C0C801B7010E94AF3B60935E0C0E9441
:104DA0009E2380E007C084E005C083E003C086E066
:104DB00001C08AE0DF91CF911F910F91FF90EF909A
:104DC0000895FF920F931F93DF93CF93CDB7DEB774
:104DD00060970FB6F894DEBF0FBECDBF0E94EE24E1
:104DE000882339F487E00E9413330E94AC230E9489
:104DF000CF33FF248E010F5F1F4F8F2DB8010E940C
:104E0000CB24882319F487E00E941333F3948F2D69
:104E1000883099F760960FB6F894DEBF0FBECDBF0D
:104E2000CF91DF911F910F91FF9008952F923F92A4
:104E30004F925F926F927F928F929F92AF92BF92AA
:104E4000CF92DF92EF92FF920F931F93DF93CF9356
:104E500000D0CDB7DEB710917803112309F414E226
:104E60001150C09077031C1509F46BC1A12EBB240F
:104E700081E390E0A89E7001A99EF00CB89EF00C12
:104E8000112449E753E0E40EF51EF7017996D701A6
:104E900059969C90599761808280738095962D9148
:104EA0003D914D915C919897CA01B9010E94623A77
:104EB000F70121A532A543A554A50E94793DE62E10
:104EC000072FF82ED92E692D762D882D972D2E2D72
:104ED000302F4F2D5D2D0E943B3B87FF04C0E92CF6
:104EE000062DF82CD72C81E390E0A89EF001A99E16
:104EF000F00DB89EF00D1124E758FC4F8E2D902F29
:104F0000AF2DBD2D858B968BA78BB08F112309F408
:104F100014E211501C1589F081E390E0A89E700105
:104F2000A99EF00CB89EF00C112449E753E0E40E62
:104F3000F51E91E3492E512C70C080917603C8165E
:104F400009F070C00E94D61A6DC0C12EDD24C49C29
:104F50003001C59C700CD49C700C112489E793E03F
:104F6000680E791E112309F414E211508091760322
:104F7000181711F40E94D61AC49C1001C59C300C5D
:104F8000D49C300C1124A9E7B3E02A0E3B1EF1019A
:104F9000A18CB28CC38CD48C658976898789908DDD
:104FA000A60195010E943B3B8823B1F1D101959662
:104FB0002D913D914D915C919897CA01B9010E9444
:104FC000623AF10121A532A543A554A50E94793D7D
:104FD000D70155962D913D914D915C9158970E9426
:104FE000623A062FF72EE82E992EA60195010E940F
:104FF0003B3B87FF0AC0802F9F2DAE2DB92DF101BD
:10500000858B968BA78BB08F07C0D1015596AD923B
:10501000BD92CD92DC925897730180917703181757
:1050200009F093CF00917703202F30E081E390E0E7
:10503000289FF001299FF00D389FF00D1124E758AB
:10504000FC4FFB83EA83102F1F5F143209F410E03A
:10505000F0917803F98381E3282E312C6CC0412E26
:105060005524429C7001439CF00C529CF00C11247E
:1050700049E753E0E40EF51EAA81BB815596AD9039
:10508000BD90CD90DC905897F70165887688878829
:10509000908CC601B501A40193010E943B3B87FFA0
:1050A0002EC0AA81BB8195962D913D914D915C9129
:1050B0009897CA01B9010E94623AEA81FB8121A551
:1050C00032A543A554A50E94793D9B01AC01C601C0
:1050D000B5010E94623AD62EA72EC82EB92EA40181
:1050E00093010E943B3B87FF0AC08D2D9A2DAC2D6A
:1050F000BB2DF701858B968BA78BB08F012F429C20
:10510000F001439CF00D529CF00D1124E758FC4F28
:10511000658976898789908D218D328D438D548D57
:105120000E943B3B882309F4012F1F5F143209F4CE
:1051300010E0FB82EA82F9811F1709F090CF0093FB
:1051400077030F900F900F90CF91DF911F910F91E8
:10515000FF90EF90DF90CF90BF90AF909F908F9097
:105160007F906F905F904F903F902F90089584E2D2
:10517000EDE5FAE0DF011D928A95E9F710927603DA
:105180001092780381E08093810A1092770308954A
:105190009091760380917803891769F0892F8F5F4A
:1051A000843209F480E020917703921711F4809300
:1051B0007703809376030895409176038091780376
:1051C000841769F050E081E390E0489F9001499F87
:1051D000300D589F300D112427583C4F02C020E05D
:1051E00030E0C9010895209176032F5F243209F43D
:1051F00020E080917803281799F030E081E390E077
:10520000289FF001299FF00D389FF00D1124E758D9
:10521000FC4F658976898789908D0E94063E04C07F
:1052200060E070E080E090E0089581E020917603F6
:105230009091810A291380E008952F923F924F9216
:105240005F926F927F928F929F92AF92BF92CF9216
:10525000DF92EF92FF920F931F93DF93CF93CDB71F
:10526000DEB7E9970FB6F894DEBF0FBECDBF942E20
:10527000852E672E29AB6701780120917803422F94
:1052800050E05AA349A321E330E0429F8001439FAD
:10529000100D529F100D1124F801E758FC4F118A90
:1052A000128A138A148A20E030E0A90121A732A7CC
:1052B00043A754A7108229E936E746E95EE725A30C
:1052C00036A347A350A7C5A6D6A6E7A6F0AA282FBF
:1052D000392F38A72FA381E09CE09EA38DA39E01C8
:1052E0002F5F3F4F3AA729A74DE55AE05CA74BA790
:1052F00006581C4FCE0141969CA38BA39EA78DA759
:1053000055245F017196F8ABEFA779E2272E312C77
:105310002A0C3B1C9AAA8BAA6CAB462CEFA1F8A5D1
:105320006191719181919191F8A7EFA3EDA1FEA1F7
:105330006190719081909190FEA3EDA3A4019301DF
:105340000E94793D0E94493D9B01AC01E9A5FAA567
:105350002193319341935193FAA7E9A7EBA5FCA5BB
:1053600081919191A191B191FCA7EBA7281B390BD9
:105370004A0B5B0BDA01C90157FF07C08827992741
:10538000DC01821B930BA40BB50BF8018083918386
:10539000A283B3830C5F1F4FEFA5F8A9C080D18013
:1053A000E280F3808C159D05AE05BF0510F4D70192
:1053B000C601EFA5F8A980839183A283B383CA01B4
:1053C000B9010E94DD3BA40193010E94423BF62EED
:1053D000E72ED82EC92E862F9E2DAD2DBC2DEDA5E6
:1053E000FEA581939193A193B193FEA7EDA7A70189
:1053F0009601652F742F832F922F20E030E0A901B2
:105400000E943B3B87FF08C0F5019080852D0E94DC
:10541000BD2D8929F5018083A7019601652F7E2D79
:10542000832F9C2DD701F6012B2F3E2D4F2F5C2D66
:105430000E94793DF10120813181428153810E9496
:10544000623A262F372F482F592FF10120833183BD
:10545000428353835394F52DF43009F05FCF9AA81B
:105460008BA87CA8642C0E94063E7B018C01F10174
:105470006083718382839383F50181899289A389F3
:10548000B4890097A105B10511F4F09A52C2A401A4
:105490009301652F742F832F922F20E030E0A90114
:1054A0000E943B3B87FD12C0F9A9FF23B9F0C80158
:1054B000B701D401F3012B2F3A2F4F2F5E2F0E94FB
:1054C000423B962E872E782E692E08C069E9962ECB
:1054D00056E7852E46E9742E3EE7632E60E070E0C5
:1054E00080E89FE3A80197010E94423B6CAB7DAB33
:1054F0008EAB9FAB2DE63AE03EA32DA321E1A22E79
:105500002CE0B22EAE014F5D5F4F59AF48AF1FA2E6
:1055100019A61BA61DA681E390E0E9A1FAA1E89FC8
:105520008001E99F100DF89F100D112402561C4FA9
:10553000EBA1FCA1C080D180E280F380C701B6015D
:1055400020E030E0A9010E943B3B882309F49EC083
:10555000C701B601BCA9ADA9FEA9EFA92B2F3A2F0F
:105560004F2F5E2F0E94793D562E79AB8AAB9BABB5
:10557000472F382F292F862F942FA32FB22FEBA13F
:10558000FCA180839183A283B38360E070E080E814
:105590009FE3F901252D342F4F2F5E2F0E94423BB0
:1055A0006B017C01E894F7F8C701B601F501208191
:1055B0003181428153810E94793D462E372E282E1B
:1055C0009FA7A4019301652F782D832F962DEFA51A
:1055D000242D332D422D5E2F0E943B3B87FF04C0BC
:1055E000492C382C272C6FA6F8019080818072807E
:1055F0006380C701B601F501208931894289538949
:105600000E94793DF62EE72ED82EC92EA4019301D3
:10561000652F742F832F922FD701F6012B2F3A2F4E
:105620004F2F5E2F0E943B3B87FF02C07401630136
:10563000A7019601852F9E2DA32FBC2DF8018083F5
:105640009183A283B38349A93AA92BA9652D742F0D
:10565000832F922FEDA1FEA12081318142815381C0
:105660000E94793D9B01AC01BFA1A9A5FBA5EDA5B9
:105670006B2F7A2F8F2F9E2F0E94613A6FA379A7ED
:105680008BA79DA7942C832C722C6FA42BA13CA1DB
:105690002C5F3F4F3CA32BA34DA15EA14C5F5F4FFE
:1056A0005EA34DA384E090E0A80EB91EE8ADF9AD6D
:1056B0002E173F0709F03CCF909178038091760335
:1056C0009817A9F481E390E029A13AA1289FF0015D
:1056D000299FF00D389FF00D1124E758FC4F80E012
:1056E00090E0DC01858B968BA78BB08F67C060E064
:1056F00070E080E89FE3BFA1A9A5FBA5EDA52B2F36
:105700003A2F4F2F5E2F0E94613A20E030E040E0B8
:105710005FE30E94793D0E94063E7B018C0181E39C
:1057200090E049A15AA1489FF001499FF00D589F70
:10573000F00D1124E758FC4F65A176A187A190A533
:105740002091450C3091460C4091470C5091480CEB
:105750000E94793DA80197010E94793D5B016C018F
:1057600060E070E080E89FE3A80197010E94613A41
:105770009B01AC01C601B5010E94423B7B018C013B
:105780007F2D912F20E030E0A9010E943B3B87FF55
:1057900004C0EE24FF2400E010E081E390E029A1A2
:1057A0003AA1289FF001299FF00D389FF00D112498
:1057B000E758FC4F8E2D9F2DA02FB12F858F968FF0
:1057C000A78FB0A3A4019301652F782D832F962D69
:1057D000D401F3012B2F382D4F2F562D0E94793DE8
:1057E0007B01082FD92E81E390E049A15AA1489F5F
:1057F000F001499FF00D589FF00D1124E758FC4F20
:105800008E2D9F2DA02FBD2D81A392A3A3A3B4A362
:10581000DF015D96C58C11961C9111971296BC9074
:1058200012971396AC9090907D0A80907E0A7090AB
:105830007F0A6090800A552453946E2D7F2D802F0F
:105840009D2DD401F3012B2F3A2F4F2F5E2F0E9455
:105850003B3B87FD04C05524A401930104C05E2D89
:105860004F2D302F2D2DF5016C2D712F8F2F9A2D4F
:10587000E52FF42FA32FB22F9F01AD010E943B3BD8
:1058800087FD0AC0552029F0CE2C1F2DB02EAD2C3F
:1058900003C0C92C182D530181E390E029A13AA13E
:1058A000289FF001299FF00D389FF00D1124E75833
:1058B000FC4F95018C2D912FA32FBA2D818F928FA4
:1058C000A38FB48FADE6BAE0FE01719680E101903E
:1058D0000D928150E1F781E390E049A15AA1489FE0
:1058E000F001499FF00D589FF00D1124E758FC4F2F
:1058F00081A192A1A3A1B4A180937D0A90937E0A75
:10590000A0937F0AB093800AADE5BAE0FE0131961C
:1059100080E101900D928150E1F78091810A80939E
:1059200078038F5F843209F480E08093810A0E94BB
:105930001627E9960FB6F894DEBF0FBECDBFCF9104
:10594000DF911F910F91FF90EF90DF90CF90BF906C
:10595000AF909F908F907F906F905F904F903F900F
:105960002F9008958091920A9091930AA091940AA1
:10597000B091950A80935D0A90935E0AA0935F0AA6
:10598000B093600A8091960A9091970AA091980A24
:10599000B091990A8093610A9093620AA093630A76
:1059A000B093640A80919A0A90919B0AA0919C0AF4
:1059B000B0919D0A8093650A9093660AA093670A46
:1059C000B093680A80919E0A90919F0AA091A00AC4
:1059D000B091A10A8093690A90936A0AA0936B0A16
:1059E000B0936C0A08950E94D61A80917603809332
:1059F00077030E94162708956F927F928F929F924D
:105A0000AF92BF92CF92DF92EF92FF920F931F93CC
:105A1000CF93DF933C014B015A01FB018081F301DD
:105A2000E80FF11DEF0129912D3221F421812196FA
:105A300001E005C02B3211F42181219600E0F0E055
:105A4000E0E010E060E070E0CB01A22FA053AA30AC
:105A5000F8F4EF5FE930C0F4F11111509B01AC0193
:105A6000B2E0220F331F441F551FBA95D1F7620FC2
:105A7000731F841F951F660F771F881F991F6A0F5A
:105A8000711D811D911D09C0FF2339F41F5F05C0E1
:105A9000AE3F29F4FF2319F4F1E02991D6CFEE238C
:105AA00009F450C00E94DB3BC62ED72EE82EF92EFB
:105AB00020E030E0A9010E943B3B882371F431C013
:105AC000C701B6012AE037ED43E25CE30E94793D6D
:105AD000C62ED72EE82EF92E1E5F1F3F8CF31F3FD8
