:100000000C94A5040C94F42D0C94C6040C94C60412
:100010000C94C6040C94C6040C94C6040C94C60438
:100020000C94C6040C94C6040C94C6040C941338A7
:100030000C940C2E0C94C6040C94C6040C94C604A8
:100040000C94C6040C943C170C94C6040C94C6047F
:100050000C94C6040C94181A0C94C6040C94F81949
:100060000C94C6040C9478150C9436150C94C604A4
:100070000C94C6040C94C6040C94C6040C94C604D8
:100080000C94C6040C94C6040C94C6040C94C604C8
:100090000C94C6040C94C6040C94C6040C94C604B8
:1000A0000C94C6040C94C6040C94C6040C94C604A8
:1000B0000C94C6040C94C6040C94C6040C94C60498
:1000C0000C94C6040C94C6040C94C6040C94C60488
:1000D0000C94C6040C94C6040C94C6040C94C60478
:1000E0000C94C604C924C924C924C924D424DD24F9
:1000F000E624EF24F8240F2526253D2554256125E7
:100100006E257B2588259B25A425AD25B625C125F3
:10011000CA25D925EA25F925082619262C263B26A5
:1001200044264D2656266126084AD73B3BCE016E13
:1001300084BCBFFDC12F3D6C74319ABD56833DDA3E
:100140003D00C77F11BED9E4BB4C3E916BAAAABE4D
:10015000000000803F05A84CCDB2D44EB93836A976
:10016000020C50B9918688083CA6AAAA2ABE0000B3
:1001700000803F290A0D0028003E0D0A002C4C6E1D
:100180003A002C0057506F733A002C002C4D506FE2
:10019000733A003C436865636B003C416C61726D6F
:1001A000003C486F6D65003C486F6C64003C5275C4
:1001B0006E003C5175657565003C49646C65005D79
:1001C0000D0A005B302E39652C204A756C203131C8
:1001D00020323031342031363A31353A3139202825
:1001E0004B65794D65203235363029203A000D0AAD
:1001F000003D00244E005D0D0A0020460020540002
:10020000204D3800204D3900204D3500204D340060
:10021000204D3300204D3200204D3100204D300064
:100220002047393400204739330020473931002036
:100230004739300020473230002047323100204714
:100240003636002047323000204732310020473117
:100250003900204731380020473137002047005B04
:10026000473830005B4733005B4732005B47310063
:100270005B4730005D0D0A005B544C4F3A005D0D4A
:100280000A002C005B4739323A005D0D0A002C0051
:100290003A003330003238005B47005D0D0A002C15
:1002A000005B5052423A002028686F6D696E6720EB
:1002B00070756C6C2D6F66662C206D6D290D0A00B3
:1002C0002028686F6D696E67206465626F756E6364
:1002D000652C206D736563290D0A2433333D00209E
:1002E00028686F6D696E67207365656B2C206D6D76
:1002F0002F6D696E290D0A2433323D002028686F66
:100300006D696E6720666565642C206D6D2F6D6963
:100310006E290D0A2433313D00290D0A2433303D66
:10032000002028686F6D696E672064697220696EAD
:1003300076657274206D61736B3A002028686F6D6A
:10034000696E67206379636C652C20626F6F6C291E
:100350000D0A2432393D00202868617264206C69DE
:100360006D6974732C20626F6F6C290D0A2432380A
:100370003D002028736F6674206C696D6974732C5E
:1003800020626F6F6C290D0A2432373D00202869E6
:100390006E76657274206C696D69742070696E7315
:1003A0002C20626F6F6C290D0A2432363D00202804
:1003B000696E76657274207374657020656E616213
:1003C0006C652C20626F6F6C290D0A2432353D005C
:1003D00020286175746F2073746172742C20626FB1
:1003E0006F6C290D0A2432343D0020287265706F2D
:1003F000727420696E636865732C20626F6F6C295C
:100400000D0A2432333D00202861726320746F6C22
:100410006572616E63652C206D6D290D0A24323280
:100420003D0020286A756E6374696F6E206465767E
:10043000696174696F6E2C206D6D290D0A2432314B
:100440003D002028737465702069646C65206465C4
:100450006C61792C206D736563290D0A2432303D5F
:1004600000290D0A2431393D00202864697220706A
:100470006F727420696E76657274206D61736B3A69
:1004800000290D0A2431383D00202873746570203E
:10049000706F727420696E76657274206D61736B13
:1004A0003A002028737465702070756C73652C2079
:1004B00075736563290D0A2431373D0020286320B8
:1004C0006D61782074726176656C2C206D6D290DDC
:1004D0000A2431363D0020287A206D61782074721C
:1004E0006176656C2C206D6D290D0A2431353D0037
:1004F000202879206D61782074726176656C2C20DB
:100500006D6D290D0A2431343D00202878206D615D
:10051000782074726176656C2C206D6D290D0A242B
:1005200031333D0020286320616363656C2C206DAE
:100530006D2F7365635E32290D0A2431323D002030
:10054000287A20616363656C2C206D6D2F73656361
:100550005E32290D0A2431313D0020287920616363
:1005600063656C2C206D6D2F7365635E32290D0AF7
:100570002431303D0020287820616363656C2C2095
:100580006D6D2F7365635E32290D0A24393D00209D
:100590002863206D617820726174652C206D6D2F49
:1005A0006D696E290D0A24383D0020287A206D617E
:1005B0007820726174652C206D6D2F6D696E290D28
:1005C0000A24373D00202879206D617820726174FB
:1005D000652C206D6D2F6D696E290D0A24363D0046
:1005E000202878206D617820726174652C206D6DF3
:1005F0002F6D696E290D0A24353D002028632C20BB
:10060000737465702F6D6D290D0A24343D00202808
:100610007A2C20737465702F6D6D290D0A24333D7B
:10062000002028792C20737465702F6D6D290D0AB8
:1006300024323D002028782C20737465702F6D6D56
:10064000290D0A24313D0024303D00242420287641
:10065000696577204772626C2073657474696E6790
:1006600073290D0A242320287669657720232070BA
:100670006172616D6574657273290D0A24472028C3
:100680007669657720706172736572207374617426
:1006900065290D0A244E20287669657720737461D8
:1006A0007274757020626C6F636B73290D0A247805
:1006B0003D76616C756520287361766520477262AE
:1006C0006C2073657474696E67290D0A244E783D39
:1006D0006C696E652028736176652073746172742D
:1006E000757020626C6F636B290D0A2443202863A8
:1006F0006865636B2067636F6465206D6F6465294F
:100700000D0A245820286B696C6C20616C61726D35
:10071000206C6F636B290D0A2448202872756E20A7
:10072000686F6D696E67206379636C65290D0A7E59
:1007300020286379636C65207374617274290D0AD3
:100740002120286665656420686F6C64290D0A3F66
:10075000202863757272656E74207374617475738A
:10076000290D0A5E20286C696D69742070696E73AA
:10077000290D0A6374726C2D782028726573657474
:10078000204772626C290D0A000D0A4772626C20C4
:10079000302E3965205B27242720666F722068651C
:1007A0006C705D0D0A005D0D0A0044697361626C36
:1007B000656400456E61626C6564004361757469CF
:1007C0006F6E3A20556E6C6F636B6564002724482A
:1007D000277C2724582720746F20756E6C6F636BFD
:1007E00000526573657420746F20636F6E74696E58
:1007F0007565005B000D0A0050726F6265206661CE
:10080000696C0041626F727420647572696E672052
:100810006379636C6500486172642F736F6674203E
:100820006C696D697400414C41524D3A20000D0ACB
:1008300000496E76616C69642067636F6465204966
:10084000443A00556E646566696E65642066656548
:1008500064207261746500556E737570706F727488
:10086000656420636F6D6D616E64004D6F64616CD3
:100870002067726F75702076696F6C6174696F6E36
:10088000004C696E65206F766572666C6F77004804
:100890006F6D696E67206E6F7420656E61626C6546
:1008A0006400416C61726D206C6F636B004E6F74FD
:1008B0002069646C6500454550524F4D207265615A
:1008C00064206661696C2E205573696E67206465CB
:1008D0006661756C74730056616C7565203C2033DD
:1008E00020757365630053657474696E672064696D
:1008F0007361626C65640056616C7565203C2030E4
:1009000000496E76616C69642073746174656D650D
:100910006E7400426164206E756D62657220666F50
:10092000726D617400457870656374656420636FEF
:100930006D6D616E64206C657474657200657272B1
:100940006F723A20006F6B0D0A0011241FBECFEFAB
:10095000D1E2DEBFCDBF00E00CBF12E0A0E0B2E00C
:10096000EAE2FCE700E00BBF02C007900D92A6325E
:10097000B107D9F718E0A6E2B2E001C01D92A13894
:10098000B107E1F70E94C8040C94133E0C940000D8
:100990001F930E9405150E947B260E94461A0E9402
:1009A000FE3787E2E3EBF6E0DF011D928A95E9F777
:1009B0001092DA061092DB061092DC061092DD0629
:1009C0001EBA81E08093B306789411E00E94CA15A4
:1009D0000E94120A0E94FF140E9402150E94A42D78
:1009E0000E9472320E9451280E94281A0E944B2CA9
:1009F0000E947E0A1092B3061EBA8091710881FF90
:100A000003C01093B50602C01092B5060E94671687
:100A1000DDCF9F92AF92BF92CF92DF92EF92FF9283
:100A20000F931F93CF93DF93EC015A016B01922E2A
:100A30008091710885FF03C0CE010E946A308091C9
:100A4000B4068230D9F00E94CF158091B306882376
:100A5000A9F40E94AF28882319F00E946216F3CFF0
:100A6000CE01B601A501292D0E94B7288091B406B8
:100A7000882321F488E0E3EBF6E08183DF91CF91D6
:100A80001F910F91FF90EF90DF90CF90BF90AF90AC
:100A90009F9008952F923F924F925F926F927F9214
:100AA0008F929F92AF92BF92CF92DF92EF92FF927E
:100AB0000F931F93DF93CF93CDB7DEB7E6970FB6B3
:100AC000F894DEBF0FBECDBF9E878D87788B6F8772
:100AD0002A0109871A872B873C87C98ADA8AEB8A19
:100AE000FC8AAB8E9924880C991C880C991C880D63
:100AF000991D9D8F8C8F9201280D391D3F8F2E8F50
:100B0000D901CD90DD90ED90FC90C701B601EC8D40
:100B1000FD8D20813181428153810E94E1396CA396
:100B20007DA38EA39FA32D960FAD2D9710E0000FF0
:100B3000111F000F111F2D853E85200F311F39A376
:100B400028A3C201800F911F9BA38AA3DC014D90B3
:100B50005D906D907C90C301B201F90120813181DB
:100B6000428153810E94E13968A779A78AA79BA790
:100B7000D701C601B0588D839E83AF83B887D30158
:100B8000C201B05889839A83AB83BC83EF85F8890F
:100B9000E80DF91D6081718182819381BCA1ADA1B5
:100BA000FEA1EFA12B2F3A2F4F2F5E2F0E94E0398D
:100BB000E62EC72EA82E892EEF85F889E00FF11FAB
:100BC0006081718182819381B8A5A9A5FAA5EBA561
:100BD0002B2F3A2F4F2F5E2F0E94E039F62E072F32
:100BE000182F992E6D817E818F8198852F2D302F22
:100BF000412F592D0E94F83C2B013C0169817A81DB
:100C00008B819C812E2D3C2D4A2D582D0E94F83C25
:100C10009B01AC01C301B2010E94E0392B013C01F0
:100C20006D817E818F8198852E2D3C2D4A2D582DEA
:100C30000E94F83C5B016C0169817A818B819C8107
:100C40002F2D302F412F592D0E94F83C9B01AC01D4
:100C5000C601B5010E94E1399B01AC01C301B2019B
:100C60000E94543AF62E172F882E092F8091DE0607
:100C70008230B1F46F2D712F882D902F20E030E05D
:100C8000A9010E94BD3C87FD24C06F2D712F882DC6
:100C9000902F2BED3FE049EC50E40E94E03915C065
:100CA0006F2D712F882D902F20E030E0A9010E9438
:100CB000BA3A181674F06F2D712F882D902F2BEDE6
:100CC0003FE049EC50E40E94E139F62E172F882EC0
:100CD000092FA0906D08B0906E08C0906F08D0905A
:100CE000700869857A858B859C859B01AC010E9483
:100CF000E139A60195010E94E0399B01AC01C601D2
:100D0000B5010E94F83C0E94853D5B016C016F2D8E
:100D1000712F882D902F20E030E040E05FE30E94AB
:100D2000F83C29853A854B855C850E94F83C9F7785
:100D3000A60195010E94C13A0E94973B0E942E3B5A
:100D40007A876987DB01109709F4DFC1BB8DBB236C
:100D5000A1F080E090E00E945A3B9B01AC01B98970
:100D6000AA89FB89EC896B2F7A2F8F2F9E2F0E94E7
:100D7000F83C698B7A8B8B8B9C8B29853A85B901E2
:100D800080E090E00E945A3B5B016C016F2D712F57
:100D9000882D902FA60195010E94C13A6D8B7E8B04
:100DA0008F8B988F2E968FAD2E9790E0880F991F7E
:100DB000880F991FAD85BE85A80FB91FBA8FA98F5F
:100DC000EF85F8898E0F9F1FDC016D917D918D91CC
:100DD0009C91E98DFA8D20813181428153810E945D
:100DE000E039A60195010E94C13A6BAB7CAB8DAB9B
:100DF0009EAB5D894E893F89288D652F742F832F87
:100E0000922FDA01F9012B2F3A2F4F2F5E2F0E94DC
:100E1000F83C9B01AC0160E070E080E090E40E944F
:100E2000E039F62E072F182FC92E5D894E893F898C
:100E3000288D652F742F832F922F2BEA3AEA4AE2EE
:100E40005EE30E94F83C4B015C016F2D702F812FF7
:100E50009C2D20E030E040E850E40E94E1399B0105
:100E6000AC01C501B4010E94F83C6CA77DA78EA718
:100E70009FA76F2D702F812F9C2D20E030E040E048
:100E80005FE30E94F83CC62E78AB89AB9AAB88240E
:100E900081E0282E312C9C2C32C1F82DF43108F041
:100EA00063C06D817E818F819885BCA5ADA5FEA5AF
:100EB000EFA52B2F3A2F4F2F5E2F0E94F83C7B017E
:100EC0008C0169817A818B819C81A8A9F9A9EAA901
:100ED000292D3A2F4F2F5E2F0E94F83C9B01AC0129
:100EE000C801B7010E94E139D62EC72EA82E492E7F
:100EF0006D817E818F819885A8A9F9A9EAA9292DFC
:100F00003A2F4F2F5E2F0E94F83C162F072FF82EF6
:100F1000E92E69817A818B819C81BCA5ADA5FEA556
:100F2000EFA52B2F3A2F4F2F5E2F0E94F83C9B01ED
:100F3000AC01D801F7016B2F7A2F8F2F9E2F0E94C3
:100F4000E039262F372F482F592F2D833E834F838B
:100F500058878394A601852F942FAA2DB42D8983B9
:100F60009A83AB83BC8372C0B10180E090E00E94A1
:100F70005A3BBD89AE89FF89E88D2B2F3A2F4F2F21
:100F80005E2F0E94F83C7B018C017F2D912F0E94E7
:100F9000BE3A69837A838B839C836E2D7F2D802F4D
:100FA000912F0E947B3D5B016C01AE8DBF8DED905A
:100FB000FD900D911C9117FB109517F91095EAA162
:100FC000FBA14080518062807380C801B7012981F4
:100FD0003A814B815C810E94F83C6D837E838F83D4
:100FE0009887C301B201A60195010E94F83C9B01BC
:100FF000AC016D817E818F8198850E94E139262F19
:10100000372F482F592F2D833E834F835887C80190
:10101000B701A60195010E94F83C7B018C01C30138
:10102000B20129813A814B815C810E94F83C9B018D
:10103000AC01C801B7010E94E039262F372F482F95
:10104000592F29833A834B835C8388245CA14DA16B
:101050003EA12FA1652F742F832F922F2D813E81CA
:101060004F8158850E94E139AC8DBD8D6D937D9384
:101070008D939C93139758A549A53AA52BA5652F49
:10108000742F832F922F29813A814B815C810E949A
:10109000E139E8A1F9A16083718382839383A98DEB
:1010A000BA8D6D917D918D919C91BBA9ACA9FDA943
:1010B000EEA92B2F3A2F4F2F5E2F0E94E139E98D99
:1010C000FA8D60837183828393838D859E85F989F0
:1010D000EA893B892C894F2F5E2F632F722F2B8D2E
:1010E0006296ECACFDAC0EAD1FAD62970E94090597
:1010F0008091B3068823E1F40894211C311C2985D2
:101100003A852216330608F4C8CE8F859889F98966
:10111000EA893B892C894F2F5E2F632F722F2B8DED
:101120006296ECACFDAC0EAD1FAD62970E94090556
:10113000E6960FB6F894DEBF0FBECDBFCF91DF911C
:101140001F910F91FF90EF90DF90CF90BF90AF90E5
:101150009F908F907F906F905F904F903F902F90D7
:101160000895EF92FF920F931F93CF93DF937B012C
:101170008C018091B406823009F447C0C801B701E0
:1011800020E030E040EA51E40E94F83C0E94973BA6
:101190000E942E3BEB010E944B16C801B70120E0D4
:1011A00030E04AE754E40E94F83C7B018C0182E382
:1011B00090E0C89FB001C99F700DD89F700D112499
:1011C00080E090E00E945A3B9B01AC01C801B7014E
:1011D0000E94E0390E94973B0E942E3BDC01CB012C
:1011E0000E944B2D10C00E94CF1521978091B3060D
:1011F000882359F48FEF90E7A2E081509040A040FF
:10120000E1F700C00000209771F7DF91CF911F91A7
:101210000F91FF90EF9008951F93182F84E0809313
:10122000B4060E949F2D812F84700E943C2E812F36
:1012300082700E943C2E812F89700E943C2E0E9459
:10124000CF158091B306882341F40E947E0A109244
:10125000B4060E940D170E94A42D1F9108953F927D
:101260004F925F926F927F928F929F92AF92BF92B6
:10127000CF92DF92EF92FF920F931F93DF93CF9362
:1012800000D000D0CDB7DEB7982E892E2A013B01C1
:10129000322E570168018091B406803111F00E940E
:1012A00062160E944B168091B306882309F071C024
:1012B000892D982DB301A201232D860175010E946D
:1012C000090581E08093DB06F19A0E94CF15809199
:1012D000B306882309F05DC08091B406882311F01D
:1012E000883099F78091DB06883009F4F69A0E94DD
:1012F000CF158091B306882309F04BC086EC96E0A9
:101300009E838D8305E218E0C401E92EF82CED815F
:10131000FE816191719181919191FE83ED83F8013C
:1013200021913191419151918F0129833A834B83CE
:101330005C830E945C3B29813A814B815C810E94E5
:10134000C13AF70161937193819391937F018D81EC
:101350009E81E6E0863D9E07D1F60E94CF150E9451
:10136000281A0E9451280E944B2C892D982DB301D8
:10137000A201232D860175010E940905F19A0E94A0
:101380004B168091B306882321F40E947E0A0E94A6
:10139000323526960FB6F894DEBF0FBECDBFCF9183
:1013A000DF911F910F91FF90EF90DF90CF90BF9052
:1013B000AF909F908F907F906F905F904F903F90F5
:1013C0000895F4990CC0F49A0E9400150E94031528
:1013D0008091B406847319F0F59A0E940D17089550
:1013E0000F931F93CF93DF93C1EFD6E005E517E08E
:1013F0006991799189919991F80121913191419166
:1014000051918F010E94BA3A882331F4F7E0C1303C
:10141000DF0771F781E001C080E0DF91CF911F917C
:101420000F910895AF92BF92CF92DF92EF92FF9209
:101430000F931F93CF93DF936EED76E087E4FB016C
:1014400011928A95E9F780E06D5D7F4F0E947324C9
:10145000882319F487E00E94983260E070E080E20F
:1014600091E4209125083091260840912708509159
:1014700028080E94C13A162F072FF82EE92EC9E23C
:10148000D8E0299139914991599160E070E080E26A
:1014900091E40E94C13AD62EC72EB82EA92EA801DB
:1014A0009701652F702F832F9E2DD601F5012B2FCD
:1014B0003A2F4F2F5E2F0E94BA3A87FD02C0860155
:1014C0007501F8E0C533DF07E1F6A8019701852F24
:1014D000902FA32FBE2D8093250790932607A093CE
:1014E0002707B0932807DF91CF911F910F91FF90AD
:1014F000EF90DF90CF90BF90AF900895AF92BF92E2
:10150000CF92DF92EF92FF920F931F93CF93DF93CF
:10151000C6EBD6E005E218E081EFE82E86E0F82E73
:101520006991799189919991F801A190B190C190B7
:10153000D1908F010E945C3BA60195010E94C13AA7
:10154000F70161937193819391937F01F6E0C63C1B
:10155000DF0731F7DF91CF911F910F91FF90EF904F
:10156000DF90CF90BF90AF9008952F923F924F920F
:101570005F926F927F928F929F92AF92BF92CF9223
:10158000DF92EF92FF920F931F93DF93CF93CDB72C
:10159000DEB7E4970FB6F894DEBF0FBECDBF9BA7B2
:1015A0008AA7A9E2B7E08CE3FD0111928A95E9F7D9
:1015B0001196EEEDF6E08AE001900D928150E1F790
:1015C0001982442455241FA21EA21CA6EE243324F3
:1015D00091E0C92ED12CAA24A39484E0282E05E002
:1015E000B02E12E0F12EB3C2912F91549A3110F027
:1015F0000C94B7148F5F89838AA59BA5BE016F5F8A
:101600007F4FAE014E5F5F4F0E94952C882311F4EF
:101610000C94B9146A807B808C809D80C401B301D6
:101620000E94C63D0E942E3B062F70E0882777FD62
:101630008095982F0E945C3B9B01AC01C401B301D3
:101640000E94E03920E030E048EC52E40E94F83C8F
:101650000E945B3D0E942E3B173421F01D3409F09F
:1016600061C124C10B3209F4ECC00C3200F5043125
:1016700070F4013108F0B9C0043009F445C00430F9
:1016800008F48AC00A3011F00C94CB1435C00C3128
:1016900099F10D3128F4063110F00C94CB14C5C02B
:1016A0000E3151F1063211F00C94CB1475C0003597
:1016B00009F478C0013590F40C3358F4063308F07F
:1016C000D3C0013309F4BDC0053311F00C94CB1421
:1016D0001BC0023411F00C94CB14B0C00C3561F077
:1016E0000D3528F40A3510F40C94CB148CC00F354A
:1016F00010F00C94CB1490C0662331F4332011F019
:101700000C94BB14332433940C31B1F00D3130F40C
:10171000043061F00A3009F0ACC00BC0053349F168
:101720000C3559F10E3109F0A4C015C0A09229075B
:10173000A0C0F09229079DC0662329F06A3011F0FD
:101740000C94CB1404C0F3E0F093290702C020925C
:10175000290780E095C0662329F06A3011F00C94C7
:10176000CB1403C0B0922907F4CF26E020932907B9
:10177000F0CF37E0309329077CC0662329F06A3028
:1017800011F00C94CB1404C088E080932907E1CFBA
:1017900099E090932907DDCF332011F00C94BB140E
:1017A000B2E03B2E023099F0033030F4002361F0B8
:1017B000013009F060C00BC0063261F0003591F0D5
:1017C000033009F058C003C010922A0754C0009398
:1017D0002A0751C0643111F00C94CB1420922A07CF
:1017E00081E04EC0B0922A0746C0023129F0033191
:1017F00031F010922E0705C0A0922E0702C0F09281
:101800002E0782E039C00A3519F410922D0702C064
:10181000A0922D0783E030C00D3519F4A0922B075C
:1018200002C010922B0784E027C0043119F4A09263
:101830002C0702C010922C0785E01EC0F0922C07E6
:10184000FBCF332011F00C94BB14013319F4109228
:101850002F0706C06A3011F00C94CB14A0922F070A
:1018600086E0A3E03A2E0CC006530093300787E0D1
:1018700003C080E001C081E0662311F00C94BD1428
:10188000D60102C0AA0FBB1F8A95E2F72EA13FA185
:101890002A233B232115310511F00C94D714EEA116
:1018A000FFA1EA2BFB2BFFA3EEA351C1662311F08E
:1018B0000C94BD14063018F40330D0F40AC008307C
:1018C00010F40C94CB140A3010F10E3111F00C947A
:1018D000CB14023041F00E3131F0002311F00C94A2
:1018E000CB1481E001C082E0809331070C94CB14CB
:1018F000043021F0053039F081E001C082E08093AE
:1019000033070C94CB14109233070C94CB1409308A
:1019100029F082E0809332070C94CB1410923207A6
:101920000C94CB141E3409F485C01F34BCF4193454
:1019300009F44DC01A343CF4133459F1163411F043
:101940000C94CB1436C01B3409F45FC01B340CF468
:101950004BC01C3411F00C94CB1468C0143509F43E
:10196000D1C015355CF4123509F480C013350CF084
:101970008BC0103511F00C94CB146AC0193509F4E2
:10198000A1C01A3509F4AEC0183511F00C94CB146F
:1019900089C08A819B81AC81BD81809361079093CE
:1019A0006207A0936307B0936407F8E0EF2A8DE025
:1019B000AAC08A819B81AC81BD81809334079093BA
:1019C0003507A0933607B093370780E09CC060923C
:1019D00038077092390780923A0790923B072CA5FE
:1019E00021602CA781E08FC08A819B81AC81BD8161
:1019F00080933C0790933D07A0933E07B0933F0729
:101A00003CA532603CA782E07EC08A819B81AC818C
:101A1000BD818093400790934107A0934207B09304
:101A200043078CA584608CA783E06DC000934407B6
:101A300084E069C0C401B3010E94293B609345075B
:101A400070934607809347079093480785E05BC0F3
:101A50008A819B81AC81BD818093490790934A071D
:101A6000A0934B07B0934C0786E04DC08A819B81C1
:101A7000AC81BD8180934D0790934E07A0934F0793
:101A8000B093500787E03FC08A819B81AC81BD81C4
:101A90008093510790935207A0935307B093540734
:101AA00088E031C08A819B81AC81BD8180935507DC
:101AB00090935607A0935707B093580791E0E92AEF
:101AC0008AE021C08A819B81AC81BD8180935907C6
:101AD00090935A07A0935B07B0935C07A2E0EA2AB1
:101AE0008BE011C08A819B81AC81BD8180935D07B1
:101AF00090935E07A0935F07B0936007B4E0EB2A72
:101B00008CE001C089E08601082E02C0000F111F81
:101B10000A94E2F79801242135212115310509F0B5
:101B20002EC7E1E6F3E002C0F595E7958A95E2F766
:101B3000E0FF0BC06A817B818C819D8120E030E0D9
:101B4000A9010E94BA3A87FD1CC7402A512A8981FF
:101B5000EAA5FBA5E80FF11D1081112309F044CD82
:101B6000EE2021F0332011F4F2E03F2E45FE11C0AB
:101B70008091450790914607A0914707B09148078B
:101B80008038F6E99F07F8E9AF07F0E0BF070CF0EF
:101B9000FAC680912B07813051F4232D223011F4A5
:101BA00040FE01C780912C078230E9F5F4C6809190
:101BB000DF068823C1F540FE26C080912C078130C6
:101BC000B9F4609134077091350780913607909190
:101BD000370723E333E34BEC51E40E94F83C609376
:101BE00034077093350780933607909337071BC0EF
:101BF0008230C9F48091250790912607A09127078C
:101C0000B091280708C08091EC069091ED06A09154
:101C1000EE06B091EF068093340790933507A093BA
:101C20003607B093370750FC10C08091E8069091BA
:101C3000E906A091EA06B091EB06809351079093D4
:101C40005207A0935307B09354078091290781301E
:101C500031F446FE9CC68FEB9FEF482259228091BB
:101C60002E07823088F490E0FC01E050FE4FA08106
:101C7000AEA7FC01EE5FFD4FB081BFA78C5F9D4F0B
:101C8000FC01F081FCAB05C01CAA22E02FA731E0CB
:101C90003EA760902C07662009F441C005E517E0D7
:101CA000E5E2CE2EE8E0DE2EAA24BB248E2C992479
:101CB000C4010A2C02C0959587950A94E2F780FF2B
:101CC00021C0862D823069F4D8016D917D918D916E
:101CD0009C91F60120813181428153810E94C13A59
:101CE0000BC0F801608171818281938123E333E32A
:101CF0004BEC51E40E94F83CD8016D937D938D9399
:101D00009C9313970894A11CB11C0C5F1F4FE4E037
:101D1000F0E0CE0EDF1EF4E0AF16B10449F6232D3D
:101D2000233041F480912F07813021F43E2D34304F
:101D300009F02BC6DE011696E1E0F7E080E10190A4
:101D40000D928150E1F78EA187FF11C0809130077D
:101D5000873008F01EC69091E406981741F0BE0146
:101D60006A5F7F4F0E947324882309F416C6F0909F
:101D700029079F2D923021F0983009F013C1A4C09B
:101D8000EE2009F41AC6C20180759070009709F41C
:101D9000FEC56091490770914A0780914B07909169
:101DA0004C070E94C63D0E942E3B673008F0F1C5EB
:101DB00080914407843129F0823009F0ECC547FC5A
:101DC000EAC5662319F0862F815002C08091300742
:101DD0008E010A5E1F4FB8010E947324882309F404
:101DE000DCC5F09044078091210790912207A091D3
:101DF0002307B09124078EA39FA3A8A7B9A775E5D1
:101E0000A72E77E0B72E61EF662E66E0762ECC2403
:101E1000DD248E2C9924C4010C2C02C09595879545
:101E20000A94E2F780FF3BC09F2D943171F5D301F6
:101E30006D917D918D919C91139790962D913D91EF
:101E40004D915C9193970E94E039F5012081318199
:101E5000428153810E94E039262F372F482F592F76
:101E6000D8012D933D934D935C931397BC2DB230C5
:101E7000B1F42EA13FA148A559A50E94E039F8016F
:101E800060837183828393830AC0F501808191818D
:101E9000A281B381F80180839183A283B3830894E4
:101EA000C11CD11C0C5F1F4F24E030E0A20EB31EFA
:101EB000620E731E34E0C316D10409F0ACCF8FEA72
:101EC0009FEF4822592211C1EE2009F476C5809176
:101ED000210790912207A0912307B09124078EA398
:101EE0009FA3A8A7B9A705E517E051EFA52E56E0D7
:101EF000B52E46E0C42ED12CCC0EDD1E66247724F0
:101F00008E2C9924C401062C02C0959587950A94BD
:101F1000E2F780FF2CC0D5016D917D918D919C9150
:101F2000F60120813181428153810E94E039D8013C
:101F30002D913D914D915C910E94E039262F372FD4
:101F4000482F592FF8012083318342835383F62D84
:101F5000F230B9F42EA13FA148A559A50E94E0395D
:101F6000D8016D937D938D939C9313970AC0F501CF
:101F700080A191A1A2A1B3A1F80180839183A28342
:101F8000B3830894611C711C0C5F1F4F24E030E088
:101F9000A20EB31EC20ED31E34E06316710409F004
:101FA000B1CFA3C0832D833009F487C0EE2009F49C
:101FB00084C020902D078091210790912207A09145
:101FC0002307B09124078EA39FA3A8A7B9A731EF39
:101FD000A32E36E0B32E05E517E026E0C22ED12C65
:101FE000CC0EDD1E662477248E2C9924C401062C89
:101FF00002C0959587950A94E2F780FD0BC0F50124
:1020000080819181A281B381F80180839183A28331
:10201000B38343C0FF2DF73009F43FC0222061F5A0
:10202000D6016D917D918D919C91F50120A131A1F9
:1020300042A153A10E94E139D8012D913D914D91CA
:102040005C910E94E139262F372F482F592FF80134
:102050002083318342835383F62DF230F1F42EA195
:102060003FA148A559A50E94E139D8016D937D9300
:102070008D939C93139711C0F801608171818281C7
:102080009381D5012D913D914D915C910E94E13953
:10209000F80160837183828393830894611C711CAF
:1020A00024E030E0A20EB31E0C5F1F4FC20ED31E01
:1020B00034E06316710409F099CF809129078530C7
:1020C00031F0873069F0833081F486E001C087E029
:1020D000BE016A5E7F4F0E947324882331F45DC481
:1020E00080912A07823008F05AC410912A071530CF
:1020F00041F4EE2009F458C2832D813009F051C417
:1021000053C2932D923009F04FC21123E1F0609138
:10211000340770913507809136079091370720E09A
:1021200030E0A9010E94BA3A882309F43CC4143073
:1021300030F4123060F4113009F036C204C01430AB
:1021400009F032C223C2EE2009F42DC22DC2EE20C6
:1021500009F433C4BEA5AB2FB0E0B9ABA8ABFFA563
:10216000EF2FF0E0FBABEAAB81E090E08C010FA435
:1021700002C0000F111F0A94E2F70EA402C0880FDC
:10218000991F0A94E2F7082B192BFF24E022F12271
:10219000E114F10409F409C4E0902C072E2D22303B
:1021A00009F405C4AA0FBB1FAA0FBB1FAB5AB84F37
:1021B000E8A9F9A9EE0FFF1FEE0FFF1FE252F94F3A
:1021C0006D917D918D919C912389348945895689A2
:1021D0000E94E039662E972E882E792EAAA9BBA9D7
:1021E000AA0FBB1FAA0FBB1FAB5AB84FEAA9FBA986
:1021F000EE0FFF1FEE0FFF1FE252F94F6D917D9121
:102200008D919C9123893489458956890E94E039B2
:10221000262E7EA38AA79DA747FE01C10E94F00932
:10222000882309F0CCC33E2D3130B1F460914D07C5
:1022300070914E0780914F079091500723E333E34D
:102240004BEC51E40E94F83C60934D0770934E07AD
:1022500080934F0790935007E0904D07F0904E0702
:1022600000914F0710915007C801B70120E030E0FE
:1022700040E850E40E94F83CA80197010E94F83C15
:102280007B018C01662D792D882D972D262D392DDA
:10229000482D572D0E94F83C9B01AC01C801B701A5
:1022A0000E94E0397B018C014EA13AA52DA5622D3B
:1022B000742F832F922FF901222D342F4F2F5E2F51
:1022C0000E94F83C9B01AC01C801B7010E94E039B3
:1022D0007B018C017F2D912F20E030E0A9010E942D
:1022E000BA3A87FD66C36E2D7F2D802F912F0E94F5
:1022F000853D7B018C01662D792D882D972DAEA112
:10230000FAA5EDA5222D3A2F4F2F5E2F0E946D2D9D
:102310009B01AC01C801B70190580E94C13AA62E9A
:10232000B72EC82ED92E80912A07833021F4D7FAF0
:10233000D094D7F8D094E0904D07F0904E070091DC
:102340004F0710915007C801B70120E030E0A90104
:102350000E94BA3A87FF10C0D7FAD094D7F8D09429
:1023600017FB109517F91095E0924D07F0924E0764
:1023700000934F07109350078FE79FEF4822592291
:1023800008A919A9000F111F000F111F035D184F95
:102390004EA13AA52DA5622D742F832F922FA60151
:1023A00095010E94F83C9B01AC01662D792D882D8A
:1023B000972D0E94E03920E030E040E05FE30E948A
:1023C000F83CD8011B966D937D938D939C931E973B
:1023D0000AA91BA9000F111F000F111F035D184F41
:1023E000662D792D882D972DA60195010E94F83C28
:1023F0009B01AC01AEA1FAA5EDA5622D7A2F8F2F1E
:102400009E2F0E94E13920E030E040E05FE30E942F
:10241000F83CF8016387748785879687C5C0FCA55B
:10242000CF2EDD240C211D210115110509F4C3C295
:1024300021EF3FEF422253223E2D313031F508E3A8
:1024400017E0EE24FF24C6010E2C02C09595879557
:102450000A94E2F780FF10C0D8016D917D918D91B3
:102460009C9123E333E34BEC51E40E94F83CF801E8
:1024700060837183828393830894E11CF11C0C5F59
:102480001F4FF4E0EF16F104F1F608A919A9000FA7
:10249000111F000F111F035D184F662D792D882D18
:1024A000972DD8011B962D913D914D915C911E97D2
:1024B0000E94E0395B016C01EAA8FBA8EE0CFF1C4E
:1024C000EE0CFF1CEDE2F7E0EE0EFF1E4EA13AA56A
:1024D0002DA5622D742F832F922FD7011B962D913E
:1024E0003D914D915C911E970E94E0399B01AC019A
:1024F000C601B5010E946D2D5B016C01F801638579
:10250000748585859685D7011B962D913D914D91BA
:102510005C911E970E946D2D7B018C0160934D078D
:1025200070934E0780934F0790935007C601B501F3
:10253000A80197010E94E0395B016C01E894D7F88B
:10254000C601B5012AE037ED43EA5BE30E94BD3CDA
:10255000181654F5C601B50120E030E040E05FE315
:102560000E94BD3C18160CF42AC2C801B7012FE620
:1025700032E143E85AE30E94F83C9B01AC01C601FA
:10258000B5010E94BD3C18167CF419C2EE2009F476
:1025900014C20E94F009882309F011C20E947D3202
:1025A000882311F00EC23324C2018E7D9C7F33201C
:1025B00019F0C2018E7D907C009709F004C28091D1
:1025C0002B078093DF068091340790913507A09107
:1025D0003607B09137078093EC069093ED06A093F1
:1025E000EE06B093EF06E0905107F090520700918D
:1025F0005307109154076091E8067091E9068091A5
:10260000EA069091EB06A80197010E94BA3A882346
:1026100081F0E092E806F092E9060093EA06109352
:10262000EB068091E706882321F0B801A7010E94FC
:102630000115809133079091E706981761F0809318
:10264000E7064091E8065091E9066091EA0670912C
:10265000EB060E940115809132079091E6069817CB
:1026600021F08093E6060E940415809129078130AD
:1026700051F46091490770914A0780914B079091FE
:102680004C070E94B10880912E078093E20680914A
:102690002C078093E006B32DB330D1F480912F073F
:1026A0008093E306813049F480915D0790915E0745
:1026B000A0915F07B091600703C080E090E0DC016B
:1026C0008093210790932207A0932307B0932407B8
:1026D000809130079091E406981759F08093E406B2
:1026E000A1E0B7E0FE01369680E101900D928150A5
:1026F000E1F780912D078093E106809129078530CD
:10270000E9F1863048F48330C9F1843008F067C0BD
:10271000823009F07DC00AC0883009F468C0893071
:1027200009F46FC0863009F073C05BC0609149073F
:1027300070914A0780914B0790914C070E94C63DCB
:102740000E942E3B662319F0F62EFA9402C0F090F8
:10275000E4068E010A5E1F4F8F2DB8010E944223AE
:102760008091E4068F1509F053C0A1E0B7E0F801AD
:1027700080E101900D928150E1F74AC0332089F049
:10278000E0904507F09046070091470710914807F1
:1027900085E597E040E050E060E87FEB20E00E94B4
:1027A000090596E1C92ED12CCC0EDD1EE09045071F
:1027B000F09046070091470710914807C60140E096
:1027C00050E060E87FEB20E00E940905A1EFB6E051
:1027D000F60180E101900D928150E1F719C086E089
:1027E00001C087E061EF76E00E94422311C0A1E1C1
:1027F000B7E0E5E5F7E080E101900D928150E1F767
:1028000007C080E1E1E1F7E0DF011D928A95E9F779
:1028100080912A078093DE06853009F494C0B32D99
:10282000B23009F090C0843040F4823088F58823BB
:1028300041F0813009F07EC014C0843009F07AC0C4
:1028400063C0E0904507F09046070091470710915C
:10285000480785E597E040E050E060E87FEB20E046
:1028600014C04091EC065091ED066091EE06709117
:10287000EF06E0904507F09046070091470710915A
:10288000480785E597E02091DF060E94090552C0C0
:1028900000D000D0EDB7FEB7319600914D071091F2
:1028A0004E0720914F0730915007C090EC06D09012
:1028B000ED06E090EE06F090EF068FA5ADB7BEB73F
:1028C00011968C939CA9918380914507909146071E
:1028D000A0914707B091480782839383A483B5836F
:1028E00081EF96E065E577E048E357E0A090DF06EA
:1028F0008EA40E944A05ADB7BEB716960FB6F894DF
:10290000BEBF0FBEADBF16C04091EC065091ED06A4
:102910006091EE067091EF06E0904507F090460753
:10292000009147071091480785E597E02091DF0661
:102930000E942F09A1EFB6E0E5E5F7E080E1019004
:102940000D928150E1F7809131078093E50688234D
:10295000E1F10E944B161092B5068091E506823097
:1029600019F40E94E10931C01092E5062EC081E001
:102970002DC082E02BC088E129C087E127C089E112
:1029800025C084E023C08BE121C086E21FC08CE11A
:102990001DC08DE11BC084E119C087E017C08EE126
:1029A00015C08FE113C086E111C080E20FC085E140
:1029B0000DC082E20BC083E209C08AE107C081E258
:1029C00005C084E203C085E201C080E0E4960FB652
:1029D000F894DEBF0FBECDBFCF91DF911F910F9155
:1029E000FF90EF90DF90CF90BF90AF909F908F902F
:1029F0007F906F905F904F903F902F900895089533
:102A000008950895089508950895E0ECF0E0808118
:102A1000826080831092C50082E28093C400E1EC62
:102A2000F0E0808180618083808188608083808104
:102A3000806880830895E09128029E2F9F5F9034E4
:102A400029F403C0F49B02C0089590E0209129026C
:102A50009217C1F3F0E0EB51F84F80839093280276
:102A60008091C10080628093C10008951F920F92EF
:102A70000FB60F920BB60F9211248F939F93EF9383
:102A8000FF9380912902E82FF0E0EB51F84F9081FD
:102A90009093C6008F5F803409F480E08093290210
:102AA00090912802891729F48091C1008F7D80932D
:102AB000C100FF91EF919F918F910F900BBE0F90EE
:102AC0000FBE0F901F9018959091270280912602BB
:102AD000891761F0E92FF0E0EB59F84F80819F5F93
:102AE000903809F490E09093270208958FEF0895AD
:102AF0001F920F920FB60F920BB60F9211242F93C5
:102B00003F934F935F936F937F938F939F93AF9375
:102B1000BF93EF93FF938091C6008F3361F08034B1
:102B200028F4883181F0813289F40BC08E3529F088
:102B30008E3761F404C0F09A1AC0F79A18C0F19A5F
:102B400016C0F39A14C00E94E10911C0E091260258
:102B50009E2F9F5F903809F490E0209127029217F2
:102B600031F0F0E0EB59F84F808390932602FF910B
:102B7000EF91BF91AF919F918F917F916F915F91F5
:102B80004F913F912F910F900BBE0F900FBE0F9062
:102B90001F901895809126028093270208951F9315
:102BA000CF93DF931EB3112309F46BC0C12FD0E084
:102BB000CE01807690700097D1F081E08093B406CA
:102BC000CE0186FF0EC085FF02C08FEF01C08DEFE2
:102BD0000E94FF3281E00E942033F498F49BFECFE4
:102BE00003C08EEF0E94FF328EB38F798EBBC4FF7D
:102BF00004C081E08093B3064AC0C0FF03C00E94B6
:102C0000EC36F09817FF06C00E94E837F7980E944C
:102C1000E837F798C3FF0EC08091B406803149F4BD
:102C200080E28093B4060E94851A0E94A71A10922F
:102C3000B506F398C1FF18C08091B40682FD14C098
:102C4000883089F480E18093B4060E94A71A0E941C
:102C5000D7168091710881FF04C081E08093B5068A
:102C600002C01092B506F198C2FF0BC00E947628F0
:102C7000009721F088E08093B40602C01092B40659
:102C8000F2988091B406847311F00E94A71ADF9124
:102C9000CF911F9108958091B406803151F481E065
:102CA0008093B50606C00E94CF158091B306882395
:102CB00041F40E9476280097B1F78091B4068031E4
:102CC00091F308958091B5068111F19A08950F93BB
:102CD0001F930E944A338091B406813021F482E030
:102CE0000E9420331CC01092B4068AE292E00E9437
:102CF000533815C08A3011F08D3031F5E12FF0E0F6
:102D0000E65DFD4F10820E94CF158091B3068823A7
:102D100031F480912A02882329F40E94983210E02D
:102D200000E035C0843229F48AE292E00E947238D1
:102D3000F4CF8091B406813011F489E0EECF8AE2BD
:102D400092E00E94B50AE9CF002319F08932F9F424
:102D5000E7CF8132E0F08F32D1F08832B9F015340C
:102D600028F08BE00E94983210E011C0982F915605
:102D7000212F30E01F5F9A3120F4265D3D4F8052B5
:102D800002C0265D3D4FF901808301C001E00E9431
:102D900064158F3F09F0AECF0E9462160E94CF15D6
:102DA0008091B306882399F31F910F910895809124
:102DB000710882FF04C0809105018E6303C0809179
:102DC0000501817C809305018091B406847121F115
:102DD0008091670880935C038091660880935B0311
:102DE0002091650830E040E050E0DA01C901089622
:102DF000A11DB11D880F991FAA1FBB1F819580932C
:102E00005A03220F331F441F551F219527BD809160
:102E10006F00826080936F00089580916F008D7FB6
:102E200080936F0080918100887F81608093810012
:102E300010927503809168088F3F11F4F59B09C0CB
:102E40009091B406943029F090E00E944B2D81E0DF
:102E500001C080E09091710892FF02C091E0892743
:102E6000882321F0809105018E6303C080910501C4
:102E7000817C8093050108951F920F920FB60F92E7
:102E80000BB60F9211242F933F934F935F936F9341
:102E90007F938F939F93AF93BF93EF93FF93809113
:102EA0007503882309F091C29091020180915C031F
:102EB000807F9F70892B8093020180910201807F27
:102EC00090915B03892B8093700380915A0386BD98
:102ED00082E085BD81E080937503789480917303CF
:102EE00090917403009709F0CFC0809148039091AE
:102EF0001C03981709F4C4C02091480330E0F9017D
:102F0000A3E0EE0FFF1FAA95E1F7E21BF30BE35ED0
:102F1000FC4FF0937403E093730382819381909349
:102F20008900809388008081918190936E038093C3
:102F30006D03448180916F038417E1F140936F0327
:102F400050E089E190E0489FF001499FF00D589FC3
:102F5000F00D1124E356FD4FF0937203E0937103DB
:102F600085899689A789B08D8093D6069093D706D8
:102F7000A093D806B093D90681899289A389B48990
:102F8000B695A79597958795E9E4F3E08093490373
:102F900090934A03A0934B03B0934C03848395838F
:102FA000A683B78380879187A287B3878487958715
:102FB000A687B787E0917103F0917203809167084B
:102FC0009081892780935C03D90173E0AA0FBB1F0E
:102FD0007A95E1F7A21BB30BA35EBC4F15962C911B
:102FE00081819281A381B481022E04C0B695A795F8
:102FF000979587950A94D2F780935D0390935E032B
:10300000A0935F03B093600385819681A781B0850B
:10301000022E04C0B695A795979587950A94D2F786
:103020008093610390936203A0936303B09364035E
:1030300081859285A385B485022E04C0B695A79597
:10304000979587950A94D2F78093650390936603CA
:10305000A0936703B093680385859685A785B0899B
:1030600004C0B695A795979587952A95D2F7809332
:10307000690390936A03A0936B03B0936C0304C03D
:103080000E940D17F29AA1C10E94833210925B0335
:1030900080915D0390915E03A0915F03B091600306
:1030A0002091490330914A0340914B0350914C03C6
:1030B000820F931FA41FB51F8093490390934A0367
:1030C000A0934B03B0934C03E0917103F091720312
:1030D0002189328943895489281739074A075B07B0
:1030E00068F521E020935B03218932894389548963
:1030F000821B930BA40BB50B8093490390934A0357
:10310000A0934B03B0934C0320818091B60690911D
:10311000B706A091B806B091B90624FF04C0019784
:10312000A109B10903C00196A11DB11D8093B60686
:103130009093B706A093B806B093B9068091610347
:1031400090916203A0916303B091640320914D03B9
:1031500030914E0340914F0350915003820F931FC3
:10316000A41FB51F80934D0390934E03A0934F036C
:10317000B09350032189328943895489281739072C
:103180004A075B0778F520915B03226020935B037D
:103190002189328943895489821B930BA40BB50B77
:1031A00080934D0390934E03A0934F03B09350032D
:1031B00020818091BA069091BB06A091BC06B09187
:1031C000BD0625FF04C00197A109B10903C00196FE
:1031D000A11DB11D8093BA069093BB06A093BC06B7
:1031E000B093BD068091650390916603A09167033B
:1031F000B0916803209151033091520340915303E1
:1032000050915403820F931FA41FB51F8093510345
:1032100090935203A0935303B093540321893289AE
:1032200043895489281739074A075B0778F52091A5
:103230005B03246020935B0321893289438954898D
:10324000821B930BA40BB50B8093510390935203F5
:10325000A0935303B093540320818091BE069091B4
:10326000BF06A091C006B091C10626FF04C0019719
:10327000A109B10903C00196A11DB11D8093BE062D
:103280009093BF06A093C006B093C10680916903D6
:1032900090916A03A0916B03B0916C032091550348
:1032A000309156034091570350915803820F931F5A
:1032B000A41FB51F8093550390935603A093570303
:1032C000B0935803218932894389548928173907D3
:1032D0004A075B0778F520915B03286020935B0326
:1032E0002189328943895489821B930BA40BB50B26
:1032F0008093550390935603A0935703B0935803BC
:1033000020818091C2069091C306A091C406B0911D
:10331000C50627FF04C00197A109B10903C00196A2
:10332000A11DB11D8093C2069093C306A093C4064D
:10333000B093C50689B19091AF0689279091B006E8
:103340008923C1F0809590915B03892380935B036F
:10335000882329F48091B10681608093B106809121
:10336000B406857039F4F59905C00E94E1098EB361
:10337000806E8EBB80916D0390916E030197909348
:103380006E0380936D030097B9F48EB3E0917303DD
:10339000F09174039681892B8EBB10927403109266
:1033A0007303809148038F5F8093480380914803A3
:1033B000863011F4109248038091660890915B0367
:1033C000892780935B0310927503FF91EF91BF9162
:1033D000AF919F918F917F916F915F914F913F91AD
:1033E0002F910F900BBE0F900FBE0F901F9018954E
:1033F0001F920F920FB60F920BB60F9211248F935C
:103400009F93EF93FF93E2E0F1E090818091660853
:103410008F70907F892B808315BCFF91EF919F91D6
:103420008F910F900BBE0F900FBE0F901F901895AD
:103430001F920F920FB60F9211248F9380917003F9
:10344000809302018F910F900FBE0F901F901895DF
:103450000E940D178BE2E2E7F2E0DF011D928A95F0
:10346000E9F78CE2E9E4F3E0DF011D928A95E9F7E0
:1034700010927102109270021092480310921C0375
:1034800081E080934703109275030895CF93DF93F3
:10349000A1E0B1E08C918F608C93E2E0F1E080815B
:1034A000807F90916608892B8083C4E0D1E0888179
:1034B0008E6388838C91806F8C9380818F709091C4
:1034C0006708892B8083E1E8F0E080818F7E80832C
:1034D000808188608083E0E8F0E080818C7F808359
:1034E00080818F708083EEE6F0E08081887F80832A
:1034F00014BC15BC80818160808380818260808360
:10350000989AA09ADF91CF910895CF93DF93C091BD
:103510007002D09171022097B9F081E0809373021C
:103520002091890230918A0240918B0250918C0245
:10353000CA01B9010E94F83C6D8B7E8B8F8B988FEE
:103540001092710210927002DF91CF9108952F9224
:103550003F924F925F926F927F928F929F92AF9223
:10356000BF92CF92DF92EF92FF920F931F93DF9360
:10357000CF93CDB7DEB7AE970FB6F894DEBF0FBED0
:10358000CDBF94C78091700290917102009709F0AD
:10359000BCC20E9476286C019093710280937002E5
:1035A000009709F48AC780917302882319F010925A
:1035B0007302E7C0809172028F5F80937202853040
:1035C00011F4109272028091720290E029E130E0D1
:1035D000829FF001839FF00D929FF00D1124E3561E
:1035E000FD4FF0931B03E0931A03D6018C91808367
:1035F0009D962D913D914D915C91D097258B368B69
:10360000478B508F11962D913D914D915C91149760
:1036100093E0220F331F441F551F9A95D1F7218342
:1036200032834383548315962D913D914D915C9146
:10363000189783E0220F331F441F551F8A95D1F737
:10364000258336834783508719962D913D914D915F
:103650005C911C9703E0220F331F441F551F0A95EE
:10366000D1F721873287438754871D962D913D914D
:103670004D915C91509713E0220F331F441F551F4B
:103680001A95D1F7258736874787508B51966D91CC
:103690007D918D919C9154979B01AC01A3E0220FE9
:1036A000331F441F551FAA95D1F7218B328B438BB3
:1036B000548B0E945A3B60937402709375028093FE
:1036C000760290937702F60121A532A543A554A571
:1036D0000E94C13A7B018C01762F272F3F2D402F6E
:1036E000512F209378023093790240937A025093BD
:1036F0007B0260E070E080EA9FE30E94C13A609341
:103700007C0270937D0280937E0290937F0280E022
:1037100090E0DC018093800290938102A09382026A
:10372000B09383028091B4068032E1F4209191023B
:103730003091920240919302509194022093890219
:1037400030938A0240938B0250938C02CA01B901D4
:103750000E94F83CD60155966D937D938D939C9372
:1037600058970FC0F601658976898789908D0E94E8
:10377000853D6093890270938A0280938B029093B7
:103780008C0280E090E0DC018093850290938602B9
:10379000A0938702B0938802D6019596ED90FD9094
:1037A0000D911C91989760E070E080E09FE3A80184
:1037B00097010E94C13A69837B838C839D838091AA
:1037C000B406803209F05EC0B2E0B0938402F60124
:1037D00061A472A483A494A4258836884788508C59
:1037E0003C81832FA20191010E94F83C9B01AC0116
:1037F000C401B3010E94E039D62EC72EB82EA92EDF
:10380000A6019501652F742F832F922F20E030E0C1
:10381000A9010E94BA3A87FF1BC0C801B701A801DD
:1038200097010E94E139A40193010E94F83C9B0199
:10383000AC01C201B1010E94E0390E94853D609354
:1038400091027093920280939302909394025DC1CF
:10385000A6019501852F942FA32FB22F8093850267
:1038600090938602A0938702B093880280E090E054
:10387000DC018093910290939202A0939302B09303
:10388000940243C110928402F60181A592A5A3A5DA
:10389000B4A58093950290939602A0939702B0935B
:1038A00098020E948D285B016C01609391027093D5
:1038B00092028093930290939402A60195010E9434
:1038C000F83C6E837F838B879C87209170023091B8
:1038D000710238A72FA3D90199966D907D908D9094
:1038E0009C909C9755962D903D904D905C9058974C
:1038F000C201B101BE81AF811B850C852B2F3A2FF0
:10390000412F502F0E94E0399B01AC01B981AB815E
:103910001C810D816B2F7A2F812F902F0E94F83CF4
:103920009B01AC01C401B3010E94E13920E030E009
:1039300040E05FE30E94F83CF62E072F182FE92E97
:1039400020E030E0A9010E94BD3C18160CF0CAC06E
:103950006F2D702F812F9E2DA40193010E94BA3AE2
:1039600087FFACC0EFA1F8A5A1A0B2A0C3A0D4A0CE
:10397000C601B501BE81AF819B848C842B2F3A2F69
:10398000492D582D0E94E0399B01AC01B981AB81D2
:103990009C808D806B2F7A2F892D982D0E94F83C6A
:1039A000262F372F482F592F2093990230939A02B0
:1039B00040939B0250939C022F2D302F412F5E2D60
:1039C0000E94BA3A87FF3FC0C601B5010E94853DFB
:1039D00060938D0270938E0280938F029093900279
:1039E000C201B101A60195010E94BA3A882321F4CF
:1039F000F1E0F093840289C0C601B501A2019101F2
:103A00000E94E0399B01AC01B981AB811C810D8121
:103A10006B2F7A2F812F902F0E94F83C9B01AC01D5
:103A20006091950270919602809197029091980210
:103A30000E94E039609395027093960280939702FA
:103A40009093980262C08F2D902FA12FBE2D80934E
:103A5000950290939602A0939702B0939802809358
:103A6000990290939A02A0939B02B0939C02AFA1FB
:103A7000B8A595962D913D914D915C919897CA016D
:103A8000B9010E94E1392F2D302F412F5E2D0E9468
:103A9000F83CBE81AF811B850C852B2F3A2F412F1F
:103AA000502F0E94E1390E94853D60938D027093F2
:103AB0008E0280938F029093900227C0B2E0B09361
:103AC00084028091890290918A02A0918B02B09128
:103AD0008C0280938D0290938E02A0938F02B093FC
:103AE000900213C080E090E0DC01809395029093F7
:103AF0009602A0939702B0939802A0928D02B09282
:103B00008E02C0928F02D092900280911C03A82F47
:103B1000B0E0BA83A983FD0153E0EE0FFF1F5A9571
:103B2000E1F7EA1BFB0BE35EFC4F8091720284839A
:103B30006090700270907102F30101A512A5F3A4C8
:103B4000D4A4602F712F8F2D9D2D20917C02309158
:103B50007D0240917E0250917F020E94E0396F8F7A
:103B600078A389A39AA320E030E0A9010E94BA3A81
:103B700087FF04C01F8E18A219A21AA2F091950205
:103B8000FF8720919602288B30919702398B6091A4
:103B900098026A8B80918D028B8B90918E029C8B08
:103BA000A0918F02AD8BB0919002BE8BE0919902F3
:103BB000EF8BF0919A02F88F20919B02298F309120
:103BC0009C023A8F609185026B8F809186028C8F68
:103BD000909187029D8FA0918802AE8F8091910273
:103BE00090919202A0919302B09194028FA398A712
:103BF000A9A7BAA79090890240908A0230908B02C0
:103C000020908C02909184029B834AE0E42E30EE57
:103C1000C32E2EE1B22E99E3A92E1B861C861D868B
:103C20001E86AAE0AC83B0EEBD83EEE1EE83F9E33D
:103C3000FF837EA66DA6592C2B81222321F02130F3
:103C400009F005C1B2C095016E2D7C2D832F9A2DF0
:103C5000ADA5BEA595962D913D914D915C919897FE
:103C60000E94F83C962E872E782E692EA40193018F
:103C7000652F742F832F922F20E030E040E05FE328
:103C80000E94F83C9B01AC01D201F1016B2F742D15
:103C90008F2F922D0E94E1399B01AC01F5016E2D11
:103CA0007C2D8F2F9A2D0E94F83C9B01AC01602F38
:103CB000712F8F2D9D2D0E94E0398B01F82ED92E6A
:103CC000712FBF85A889E989EBA3FA89FCA32B2F63
:103CD0003A2FAF010E94BA3A87FF54C0ADA5BEA5E6
:103CE00099966D917D918D919C919C97BF85A889A6
:103CF00019890A892B2F3A2F412F502F0E94E03922
:103D00009B01AC010E94E1397B018C01A201910170
:103D1000652F742D832F922DBB89AC89DD88CE88C9
:103D20002B2F3A2F4D2D5C2D0E94E1399B01AC01C8
:103D3000C801B7010E94C13AE62EC72EB82EA92E9F
:103D40005F85488939892A89652F742F832F922F9F
:103D5000BF89A88D198D0A8D2B2F3A2F412F502FF7
:103D60000E94BA3A882319F0B1E0BB8302C0E2E0B6
:103D7000EB835B884C883D882E880F851889F988ED
:103D8000DA8812C1A2019101652F742D832F922D23
:103D9000D401F3012B2F3A2F4F2F5E2F0E94E139D0
:103DA000562E472E382E292EFFC05B894C893D891F
:103DB0002E89652F742F832F922FF5012E2D3C2DE8
:103DC0004F2F5A2D0E94F83C9B01AC01602F712FA0
:103DD0008F2D9D2D0E94E039962E872E782E692EEC
:103DE000A4019301652F742F832F922FAF89F88D33
:103DF000FBA3298D2CA3BA8D2A2F3F2F4CA15B2F1B
:103E00000E94BA3A87FFCCC0602F712F8F2D9D2D55
:103E1000BF89A88D198D0A8D2B2F3A2F412F502F36
:103E20000E94E039BB89AC891D890E892B2F3A2F5E
:103E3000412F502F0E94C13AE62EC72EB82EA92E30
:103E40000F89188DF98CDA8C32E03B83ADC0950177
:103E50006E2D7C2D832F9A2DADA5BEA595962D9107
:103E60003D914D915C9198970E94F83C6BA37CA387
:103E70008DA39EA3A2019101652F742D832F922DF6
:103E8000BBA1ACA19DA08EA02B2F3A2F492D582D60
:103E90000E94BD3C18160CF054C05BA14CA19401CB
:103EA000652F742F832F922F20E030E040E05FE3F6
:103EB0000E94F83C9B01AC01D201F1016B2F742DE3
:103EC0008F2F922D0E94E0399B01AC01F5016E2DE0
:103ED0007C2D8F2F9A2D0E94F83C9B01AC01602F06
:103EE000712F8F2D9D2D0E94E039962E872E782ED2
:103EF000692EA4019301652F742F832F922FBB8D00
:103F0000AC8DED8DEBA7FE8DFCA72B2F3A2FAF01CB
:103F10000E94BD3C1816ACF4A2019101652F742DCE
:103F2000832F922DBBA1ACA11DA10EA12B2F3A2F47
:103F3000412F502F0E94E039562E472E382E292E21
:103F40002FC0602F712F8F2D9D2DBB8DAC8D1D8DA2
:103F50000E8D2B2F3A2F412F502F0E94E0399B01BD
:103F6000AC010E94E1397B018C01A2019101652F16
:103F7000742D832F922D2FA138A549A55AA50E94F3
:103F8000E1399B01AC01C801B7010E94C13AE62E9C
:103F9000C72EB82EA92E0B8D1C8DFD8CDE8C04C077
:103FA000092D182DF72CD62C5B854C853D852E854B
:103FB000652F742F832F922FF5012E2D3C2D4F2F1F
:103FC0005A2D0E94E139762E672E4C016B877C8733
:103FD0008D879E86A301652F742F992DBC81AD819D
:103FE000EE80CF802B2F3A2F4E2D5C2D0E94BA3AB7
:103FF00087FF0AC05C814D81652F742F8E2D9C2D0B
:10400000D301E82CC92C39C0602F712F8F2D9D2D25
:10401000BF8DA8A1E9A0CAA02B2F3A2F4E2D5C2D51
:104020000E94BD3C18169CF0E82CC92C9101852DEE
:10403000942DA32FB22D8093890290938A02A0938E
:104040008B02B0938C022B812093840245C05C814B
:104050004D813E812F81652F742F832F922F2AE06F
:1040600030EE4EE159E30E94E1396C837D838E830B
:104070009F83BB85AC85ED84CE842B2F3A2F4E2DAC
:104080005C2D0E94E039E62EC72EB82EA92E602F97
:10409000712F8F2D9D2DBB8DAC8D3D8D3BA3EE8D56
:1040A000ECA32B2F3A2F4BA15E2F0E94BD3C18167C
:1040B0000CF4C2CDE82CC92C9101852D942DA32F91
:1040C000B22D8093890290938A02A0938B02B093C1
:1040D0008C02FB81F0938402209078023090790268
:1040E00040907A0250907B02C201B101202F312F03
:1040F0004F2D5D2D0E94F83C6B837C838D839E83C6
:104100000E94A73A4B015C016091740270917502A4
:1041100080917602909177020E94A73A6F83788708
:1041200089879A87A50194010E94E0390E942E3B5D
:10413000E981FA8183E0EE0FFF1F8A95E1F729817B
:104140003A81E21BF30BE35EFC4F718360836115E0
:10415000710551F58091B406803231F56501540145
:1041600080E090E0DC018093890290938A02A09322
:104170008B02B0938C028093800290938102A09373
:104180008202B0938302A0927402B0927502C09230
:104190007602D09277020091700210917102C601EE
:1041A000B501A20191016DC1A301652F762D8E2D60
:1041B0009C2D209180023091810240918202509189
:1041C00083020E94E1392B013C016F81788589854A
:1041D0009A85BB81AC81ED80CE802B2F3A2F4E2D5E
:1041E0005C2D0E94E0399B01AC01C301B2010E9429
:1041F000C13AE62EC72E782E692EC501B401BB81C7
:10420000AC815D804E802B2F3A2F452D542D0E947E
:10421000E039F3012E2D3C2D4F2F5E2F0E94F83CEC
:104220006093800270938102809382029093830254
:1042300093016E2D7C2D832F922F20EC31EE44E6DE
:104240005EE40E94F83C0E94A73A0E942E3B9B012C
:10425000AC01DA01C901803DE7E09E07E0E0AE076E
:10426000E0E0BE0780F449815A81B3E0440F551F56
:10427000BA95E1F729813A81421B530B435E5C4FAB
:10428000FA01158262C0203AFFE03F07F0E04F07D5
:10429000F0E05F0780F4E981FA81A3E0EE0FFF1FF1
:1042A000AA95E1F789819A81E81BF90BE35EFC4F3F
:1042B00091E0958321C069817A81E3E0660F771FE1
:1042C000EA95E1F72034AFE13A07A0E04A07A0E021
:1042D0005A0740F4E981FA816E1B7F0B635E7C4FC5
:1042E000E2E007C089819A81681B790B635E7C4F8D
:1042F000E3E0DB011596EC93E981FA8163E0EE0FD0
:10430000FF1F6A95E1F789819A81E81BF90BE35E4B
:10431000FC4F6581DA01C901062E04C0B695A79548
:10432000979587950A94D2F72081318102C0220F98
:10433000331F6A95E2F731832083803020E09207B3
:1043400021E0A20720E0B20788F449815A8123E0E6
:10435000440F551F2A95E1F7E981FA814E1B5F0B47
:10436000435E5C4FFA019383828304C02FEF3FEFDB
:10437000338322838091470380931C038F5F809354
:104380004703863011F410924703602F712F8F2D51
:104390009D2D209185023091860240918702509197
:1043A00088020E94BD3C69817A81B3E0660F771F65
:1043B000BA95E1F718163CF5E0917002F0917102A0
:1043C000802F912FAF2DBD2D81A792A7A3A7B4A7B2
:1043D0005B814C813D812E81852F942FA32FB22F9D
:1043E0008093740290937502A0937602B093770243
:1043F00089819A81681B790B635E7C4FDB0116967D
:104400001C92169753C0E981FA816E1B7F0B635E85
:104410007C4FE1E0DB011696EC93602F712F8F2D1E
:104420009D2D20E030E0A9010E94BD3C1816C4F586
:104430006501540180E090E0DC01E5E8F2E084836E
:104440009583A683B7838093800290938102A09383
:104450008202B0938302A0927402B0927502C0925D
:104460007602D09277020091700210917102C6011B
:10447000B501209178023091790240917A025091F1
:104480007B020E94C13AD80199966D937D938D93DA
:104490009C939C970E948C2C88E08093B4060DC05E
:1044A00010927102109270020E946228909148034B
:1044B00080914703981709F065C8AE960FB6F89437
:1044C000DEBF0FBECDBFCF91DF911F910F91FF9047
:1044D000EF90DF90CF90BF90AF909F908F907F90A4
:1044E0006F905F904F903F902F900895F999FECF75
:1044F00092BD81BD81E08FBB80B50895F894F99994
:10450000FECF92BD81BD81E08FBB40B54627842F91
:10451000992787FD9095262F30E0822393230097DB
:1045200039F06F3F19F060BD84E006C084E104C03B
:10453000442321F060BD84E28FBBF99A78940895FA
:104540008F929F92AF92BF92CF92DF92EF92FF92A3
:104550000F931F93DF93CF930F92CDB7DEB75C011C
:104560006B017A014A0120E01BC0222341F433276A
:1045700027FD30952227330F221F332702C021E069
:1045800030E0F60161916F01260F8C010F5F1F4F24
:1045900029830E947E22089481089108C8012981FC
:1045A0008114910411F7C7018A0D9B1D622F0E948F
:1045B0007E220F90CF91DF911F910F91FF90EF908E
:1045C000DF90CF90BF90AF909F908F9008959F9273
:1045D000AF92BF92CF92DF92EF92FF920F931F9311
:1045E000CF93DF936C01EB017A018A01CB0199240F
:1045F0001BC05C010894A11CB11C0E94762299206A
:1046000049F4292D332727FD30952227330F221F08
:10461000332702C021E030E0982E920EF6018193FC
:104620006F0101501040C5010115110511F7C701B7
:104630008C0F9D1F0E94762221E030E0981611F029
:1046400020E030E0C901DF91CF911F910F91FF90E1
:10465000EF90DF90CF90BF90AF909F90089597E438
:10466000899FC001112480509D4F46E450E00E9474
:10467000A0220895BC0180EE93E046E450E00E9441
:10468000A022089591E1899FC001112480509E4F7E
:1046900040E150E00E94A022089580E090E067E4AD
:1046A0000E947E2281E090E065E278E04CE550E0F7
:1046B0000E94A022089580E090E0A8E4B4E48093F2
:1046C000250890932608A0932708B0932808809384
:1046D000290890932A08A0932B08B0932C08809364
:1046E0002D0890932E08A0932F08B0933008809344
:1046F000310890933208A0933308B09334088FE0C8
:104700008093650880E090E0A8ECB2E480933508DF
:1047100090933608A0933708B093380880933908EF
:1047200090933A08A0933B08B0933C0880933D08CF
:1047300090933E08A0933F08B093400880934108AF
:1047400090934208A0934308B093440880E090EA15
:10475000ACE0B7E48093450890934608A0934708DF
:10476000B09348088093490890934A08A0934B0857
:10477000B0934C0880934D0890934E08A0934F0837
:10478000B09350088093510890935208A093530817
:10479000B09354088FE692E1A3E0BBE380936D08E9
:1047A00090936E08A0936F08B093700810926608FB
:1047B00080E6809367088AE097EDA3EABCE38093E4
:1047C000690890936A08A0936B08B0936C0882E123
:1047D000809371081092720880E090E0A8ECB1E438
:1047E0008093730890937408A0937508B09376082B
:1047F00080E090E0A8E4B2E4809377089093780892
:10480000A0937908B0937A088AEF90E090937C089F
:1048100080937B0880E090E0A0E8BFE380937D0870
:1048200090937E08A0937F08B093800889E18093DD
:10483000680880E090E0A8E4B2EC8093550890937B
:104840005608A0935708B09358088093590890933E
:104850005A08A0935B08B0935C0880935D0890931E
:104860005E08A0935F08B0936008809361089093FE
:104870006208A0936308B09364080E944D230895D2
:104880001F93CF93DF93182FEB0167E4869FB0014E
:10489000112460507D4FCE0146E450E00E94E72293
:1048A000009739F41882812FBE010E942F2380E0E7
:1048B00001C081E0DF91CF911F910895CF93DF93E5
:1048C000EC0160EE73E046E450E00E94E7220097BE
:1048D00031F41882CE010E943A2380E001C081E0C9
:1048E000DF91CF910895FF920F931F93F82E8B01C4
:1048F00021E1829F9001112420503E4FCB01B9014C
:1049000040E150E00E94E722009759F480E1D8018D
:104910001D928A95E9F78F2DB8010E94422380E00D
:1049200001C081E01F910F91FF90089580E090E019
:104930000E947622873459F485E298E061E070E0C5
:104940004CE550E00E94E72221E0009709F420E0C6
:10495000822F0895EF92FF920F931F93CF93DF93CF
:10496000EC017A018B01CB01BA0120E030E0A90112
:104970000E94BA3A87FDB1C1C232D10508F0AFC179
:10498000FE01EE58FF4FEE0FFF1F0590F491E02D52
:104990001994CC0FDD1FCC0FDD1FCB5DD74FE88204
:1049A000F9820A831B8395C1E0923508F09236089C
:1049B00000933708109338088CC1E0923908F092C0
:1049C0003A0800933B0810933C0883C1E0923D08ED
:1049D000F0923E0800933F08109340087AC1E0929D
:1049E0004108F0924208009343081093440871C1B3
:1049F000C801B70120E030E040E752E40E94F83CF3
:104A000020E030E040E752E40E94F83C6093450823
:104A10007093460880934708909348085AC1C8018C
:104A2000B70120E030E040E752E40E94F83C20E08B
:104A300030E040E752E40E94F83C609349087093EC
:104A40004A0880934B0890934C0843C1C801B701B2
:104A500020E030E040E752E40E94F83C20E030E003
:104A600040E752E40E94F83C60934D0870934E0872
:104A700080934F08909350082CC1C801B70120E0E3
:104A800030E040E752E40E94F83C20E030E040E7AC
:104A900052E40E94F83C609351087093520880934E
:104AA00053089093540815C117FB109517F91095EA
:104AB000E0925508F0925608009357081093580852
:104AC00008C117FB109517F91095E0925908F0925C
:104AD0005A0800935B0810935C08FBC017FB109505
:104AE00017F91095E0925D08F0925E0800935F0858
:104AF00010936008EEC017FB109517F91095E0921F
:104B00006108F09262080093630810936408E1C0A2
:104B1000C801B70120E030E040E450E40E94BA3A16
:104B200087FDDFC0C801B7010E945B3D0E942E3B9C
:104B300060936508CEC0C801B7010E94C63D0E94BF
:104B40002E3B60936608C5C0C801B7010E94C63DF0
:104B50000E942E3B60936708BCC0C801B7010E9449
:104B60005B3D0E942E3B60936808B3C0E89417F940
:104B7000E0926908F0926A0800936B0810936C0841
:104B8000A8C0E0926D08F0926E0800936F08109331
:104B900070089FC0C801B70120E030E0A9010E9461
:104BA000BA3A90917108882311F091600EC09E7FEF
:104BB0000CC0C801B70120E030E0A9010E94BA3A58
:104BC00090917108882321F092609093710881C0C0
:104BD0009D7FFBCFC801B70120E030E0A9010E9412
:104BE000BA3A90917108882311F09460EECF9B7FC0
:104BF000ECCFC801B70120E030E0A9010E94BA3A29
:104C000090917108882311F09064DFCF9F7BDDCFF6
:104C1000C801B70120E030E0A9010E94BA3A9091A2
:104C20007108882321F094FF5EC09062CECF9F7DF3
:104C3000CCCFC801B70120E030E0A9010E94BA3A08
:104C400090917108882311F0986001C0977F90932C
:104C500071080E94A42D3DC0C801B70120E030E0DA
:104C6000A9010E94BA3A90917108882311F09061CD
:104C7000ACCF9F7CAACFC801B7010E94C63D0E945D
:104C80002E3B6093720825C0E0927308F09274087E
:104C900000937508109376081CC0E0927708F09294
:104CA00078080093790810937A0813C0C801B701F7
:104CB0000E945B3D0E942E3B70937C0860937B08B2
:104CC00008C0E0927D08F0927E0800937F08109360
:104CD00080080E944D2380E007C084E005C083E087
:104CE00003C086E001C08AE0DF91CF911F910F9150
:104CF000FF90EF900895FF920F931F93DF93CF9350
:104D0000CDB7DEB760970FB6F894DEBF0FBECDBF4C
:104D10000E949624882339F487E00E9498320E94EA
:104D20005B230E945433FF248E010F5F1F4F8F2D92
:104D3000B8010E947324882319F487E00E949832F6
:104D4000F3948F2D883099F760960FB6F894DEBFF4
:104D50000FBECDBFCF91DF911F910F91FF900895AE
:104D60002F923F924F925F926F927F928F929F927B
:104D7000AF92BF92CF92DF92EF92FF920F931F9369
:104D8000DF93CF9300D0CDB7DEB710917803112316
:104D900009F410E11150C09077031C1509F46BC1A0
:104DA000A12EBB2481E390E0A89E7001A99EF00C87
:104DB000B89EF00C112449E753E0E40EF51EF7010C
:104DC0007996D70159969C9059976180828073801B
:104DD00095962D913D914D915C919897CA01B9019D
:104DE0000E94E139F70121A532A543A554A50E94EF
:104DF000F83CE62E072FF82ED92E692D762D882D1A
:104E0000972D2E2D302F4F2D5D2D0E94BA3A87FF02
:104E100004C0E92C062DF82CD72C81E390E0A89E45
:104E2000F001A99EF00DB89EF00D1124E758FC4F3B
:104E30008E2D902FAF2DBD2D858B968BA78BB08F90
:104E4000112309F410E111501C1589F081E390E061
:104E5000A89E7001A99EF00CB89EF00C112449E7A1
:104E600053E0E40EF51E91E3492E512C70C0809161
:104E70007603C81609F070C00E94851A6DC0C12E55
:104E8000DD24C49C3001C59C700CD49C700C112492
:104E900089E793E0680E791E112309F410E111509F
:104EA00080917603181711F40E94851AC49C100192
:104EB000C59C300CD49C300C1124A9E7B3E02A0E19
:104EC0003B1EF101A18CB28CC38CD48C6589768990
:104ED0008789908DA60195010E94BA3A8823B1F185
:104EE000D10195962D913D914D915C919897CA0174
:104EF000B9010E94E139F10121A532A543A554A5CC
:104F00000E94F83CD70155962D913D914D915C91B1
:104F100058970E94E139062FF72EE82E992EA60108
:104F200095010E94BA3A87FF0AC0802F9F2DAE2DAF
:104F3000B92DF101858B968BA78BB08F07C0D1015E
:104F40005596AD92BD92CD92DC92589773018091A7
:104F50007703181709F093CF00917703202F30E0E3
:104F600081E390E0289FF001299FF00D389FF00D1C
:104F70001124E758FC4FFB83EA83102F1F5F103189
:104F800009F410E0F0917803F98381E3282E312CA5
:104F90006CC0412E5524429C7001439CF00C529CE5
:104FA000F00C112449E753E0E40EF51EAA81BB8101
:104FB0005596AD90BD90CD90DC905897F7016588DF
:104FC00076888788908CC601B501A40193010E9460
:104FD000BA3A87FF2EC0AA81BB8195962D913D914B
:104FE0004D915C919897CA01B9010E94E139EA811B
:104FF000FB8121A532A543A554A50E94F83C9B0145
:10500000AC01C601B5010E94E139D62EA72EC82EEB
:10501000B92EA40193010E94BA3A87FF0AC08D2DD0
:105020009A2DAC2DBB2DF701858B968BA78BB08F5E
:10503000012F429CF001439CF00D529CF00D112475
:10504000E758FC4F658976898789908D218D328D4F
:10505000438D548D0E94BA3A882309F4012F1F5FB3
:10506000103109F410E0FB82EA82F9811F1709F080
:1050700090CF009377030F900F900F90CF91DF9117
:105080001F910F91FF90EF90DF90CF90BF90AF9066
:105090009F908F907F906F905F904F903F902F9058
:1050A000089584E2E9E8F6E0DF011D928A95E9F7C8
:1050B000109276031092780381E08093AD061092EF
:1050C000770308959091760380917803891769F0AA
:1050D000892F8F5F803109F480E020917703921748
:1050E00011F48093770380937603089540917603BB
:1050F00080917803841769F050E081E390E0489F45
:105100009001499F300D589F300D112427583C4F76
:1051100002C020E030E0C9010895209176032F5F9E
:10512000203109F420E080917803281799F030E0CD
:1051300081E390E0289FF001299FF00D389FF00D4A
:105140001124E758FC4F658976898789908D0E94E4
:10515000853D04C060E070E080E090E0089581E06B
:10516000209176039091AD06291380E008952F9247
:105170003F924F925F926F927F928F929F92AF92E7
:10518000BF92CF92DF92EF92FF920F931F93DF9324
:10519000CF93CDB7DEB7E9970FB6F894DEBF0FBE59
:1051A000CDBF942E852E672E29AB67017801209103
:1051B0007803422F50E05AA349A321E330E0429FF5
:1051C0008001439F100D529F100D1124F801E758E4
:1051D000FC4F118A128A138A148A20E030E0A90158
:1051E00021A732A743A754A7108229E936E746E949
:1051F0005EE725A336A347A350A7C5A6D6A6E7A674
:10520000F0AA282F392F38A72FA385E298E09EA374
:105210008DA39E012F5F3F4F3AA729A749E856E08B
:105220005CA74BA706581C4FCE0141969CA38BA3AD
:105230009EA78DA755245F017196F8ABEFA779E281
:10524000272E312C2A0C3B1C9AAA8BAA6CAB462C1D
:10525000EFA1F8A56191719181919191F8A7EFA3C8
:10526000EDA1FEA16190719081909190FEA3EDA3BC
:10527000A40193010E94F83C0E94C83C9B01AC0130
:10528000E9A5FAA52193319341935193FAA7E9A790
:10529000EBA5FCA581919191A191B191FCA7EBA700
:1052A000281B390B4A0B5B0BDA01C90157FF07C0FA
:1052B00088279927DC01821B930BA40BB50BF801FF
:1052C00080839183A283B3830C5F1F4FEFA5F8A95E
:1052D000C080D180E280F3808C159D05AE05BF05AE
:1052E00010F4D701C601EFA5F8A980839183A283AA
:1052F000B383CA01B9010E945C3BA40193010E94DF
:10530000C13AF62EE72ED82EC92E862F9E2DAD2D12
:10531000BC2DEDA5FEA581939193A193B193FEA71A
:10532000EDA7A7019601652F742F832F922F20E000
:1053300030E0A9010E94BA3A87FF08C0F5019080C9
:10534000852D0E94562D8929F5018083A70196019C
:10535000652F7E2D832F9C2DD701F6012B2F3E2DFF
:105360004F2F5C2D0E94F83CF10120813181428158
:1053700053810E94E139262F372F482F592FF101F1
:1053800020833183428353835394F52DF43009F005
:105390005FCF9AA88BA87CA8642C0E94853D7B01D6
:1053A0008C01F1016083718382839383F50181898C
:1053B0009289A389B4890097A105B10509F452C265
:1053C000A4019301652F742F832F922F20E030E0EA
:1053D000A9010E94BA3A87FD12C0F9A9FF23B9F0CA
:1053E000C801B701D401F3012B2F3A2F4F2F5E2FA5
:1053F0000E94C13A962E872E782E692E08C069E940
:10540000962E56E7852E46E9742E3EE7632E60E021
:1054100070E080E89FE3A80197010E94C13A6CAB5D
:105420007DAB8EAB9FAB29E936E03EA32DA325E3F0
:10543000A22E28E0B22EAE014F5D5F4F59AF48AFAC
:105440001FA219A61BA61DA681E390E0E9A1FAA15F
:10545000E89F8001E99F100DF89F100D112402565E
:105460001C4FEBA1FCA1C080D180E280F380C7017A
:10547000B60120E030E0A9010E94BA3A882309F47D
:105480009EC0C701B601BCA9ADA9FEA9EFA92B2FEB
:105490003A2F4F2F5E2F0E94F83C562E79AB8AABE5
:1054A0009BAB472F382F292F862F942FA32FB22F56
:1054B000EBA1FCA180839183A283B38360E070E0C1
:1054C00080E89FE3F901252D342F4F2F5E2F0E9496
:1054D000C13A6B017C01E894F7F8C701B601F50108
:1054E00020813181428153810E94F83C462E372E23
:1054F000282E9FA7A4019301652F782D832F962D29
:10550000EFA5242D332D422D5E2F0E94BA3A87FF3E
:1055100004C0492C382C272C6FA6F801908081807C
:1055200072806380C701B601F50120893189428903
:1055300053890E94F83CF62EE72ED82EC92EA401DE
:105540009301652F742F832F922FD701F6012B2FF4
:105550003A2F4F2F5E2F0E94BA3A87FF02C0740184
:105560006301A7019601852F9E2DA32FBC2DF80165
:1055700080839183A283B38349A93AA92BA9652D7E
:10558000742F832F922FEDA1FEA1208131814281C2
:1055900053810E94F83C9B01AC01BFA1A9A5FBA5CA
:1055A000EDA56B2F7A2F8F2F9E2F0E94E0396FA3CE
:1055B00079A78BA79DA7942C832C722C6FA42BA169
:1055C0003CA12C5F3F4F3CA32BA34DA15EA14C5FA0
:1055D0005F4F5EA34DA384E090E0A80EB91EE8AD36
:1055E000F9AD2E173F0709F03CCF909178038091D9
:1055F00076039817A9F481E390E029A13AA1289FA6
:10560000F001299FF00D389FF00D1124E758FC4F51
:1056100080E090E0DC01858B968BA78BB08F67C014
:1056200060E070E080E89FE3BFA1A9A5FBA5EDA520
:105630002B2F3A2F4F2F5E2F0E94E03920E030E0D1
:1056400040E05FE30E94F83C0E94853D7B018C01B5
:1056500081E390E049A15AA1489FF001499FF00DD4
:10566000589FF00D1124E758FC4F65A176A187A142
:1056700090A52091690830916A0840916B0850917B
:105680006C080E94F83CA80197010E94F83C5B015D
:105690006C0160E070E080E89FE3A80197010E9440
:1056A000E0399B01AC01C601B5010E94C13A7B0102
:1056B0008C017F2D912F20E030E0A9010E94BA3AA1
:1056C00087FF04C0EE24FF2400E010E081E390E0B7
:1056D00029A13AA1289FF001299FF00D389FF00DD4
:1056E0001124E758FC4F8E2D9F2DA02FB12F858FB1
:1056F000968FA78FB0A3A4019301652F782D832FD8
:10570000962DD401F3012B2F382D4F2F562D0E94AB
:10571000F83C7B01082FD92E81E390E049A15AA1E2
:10572000489FF001499FF00D589FF00D1124E75854
:10573000FC4F8E2D9F2DA02FBD2D81A392A3A3A33F
:10574000B4A3DF015D96C58C11961C91119712963A
:10575000BC9012971396AC909090A9068090AA06E0
:105760007090AB066090AC06552453946E2D7F2D3F
:10577000802F9D2DD401F3012B2F3A2F4F2F5E2F19
:105780000E94BA3A87FD04C05524A401930104C0C5
:105790005E2D4F2D302F2D2DF5016C2D712F8F2F5C
:1057A0009A2DE52FF42FA32FB22F9F01AD010E9458
:1057B000BA3A87FD0AC0552029F0CE2C1F2DB02EF5
:1057C000AD2C03C0C92C182D530181E390E029A111
:1057D0003AA1289FF001299FF00D389FF00D112468
:1057E000E758FC4F95018C2D912FA32FBA2D818F57
:1057F000928FA38FB48FA9E9B6E0FE01719680E184
:1058000001900D928150E1F781E390E049A15AA106
:10581000489FF001499FF00D589FF00D1124E75863
:10582000FC4F81A192A1A3A1B4A18093A90690935A
:10583000AA06A093AB06B093AC06A9E8B6E0FE01B9
:10584000319680E101900D928150E1F78091AD0693
:10585000809378038F5F803109F480E08093AD06F8
:105860000E94B026E9960FB6F894DEBF0FBECDBFFA
:10587000CF91DF911F910F91FF90EF90DF90CF902C
:10588000BF90AF909F908F907F906F905F904F9060
:105890003F902F9008958091B6069091B706A09101
:1058A000B806B091B9068093890690938A06A093B2
:1058B0008B06B0938C068091BA069091BB06A0919E
:1058C000BC06B091BD0680938D0690938E06A09382
:1058D0008F06B09390068091BE069091BF06A0916E
:1058E000C006B091C1068093910690939206A09352
:1058F0009306B09394068091C2069091C306A0913E
:10590000C406B091C5068093950690939606A09321
:105910009706B093980608950E94851A80917603A1
:10592000809377030E94B02608956F927F928F92A2
:105930009F92AF92BF92CF92DF92EF92FF920F931E
:105940001F93CF93DF933C014B015A01FB018081F0
:10595000F301E80FF11DEF0129912D3221F421818E
:10596000219601E005C02B3211F42181219600E03F
:10597000F0E0E0E010E060E070E0CB01A22FA05387
:10598000AA30F8F4EF5FE930C0F4F11111509B0137
:10599000AC01B2E0220F331F441F551FBA95D1F757
:1059A000620F731F841F951F660F771F881F991F33
:1059B0006A0F711D811D911D09C0FF2339F41F5FFE
:1059C00005C0AE3F29F4FF2319F4F1E02991D6CFA9
:1059D000EE2309F450C00E945A3BC62ED72EE82E63
:1059E000F92E20E030E0A9010E94BA3A882371F430
:1059F00031C0C701B6012AE037ED43E25CE30E9403
:105A0000F83CC62ED72EE82EF92E1E5F1F3F8CF3D2
:105A10001F3F79F46C2D7D2D8E2D9F2D2DEC3CECB0
:105A20004CEC5DE30E94F83CC62ED72EE82EF92EF2
:105A300011C0112379F0C701B60120E030E040E247
:105A400051E40E94F83CC62ED72EE82EF92E1150B4
:105A500011168CF3002321F0F7FAF094F7F8F09484
:105A6000F501C082D182E282F38260946C0EF4016F
:105A7000608281E001C080E0DF91CF911F910F91A2
:105A8000FF90EF90DF90CF90BF90AF909F908F905E
:105A90007F906F90089507C0EFE9FFE03197F1F72D
:105AA00000C0000001970097B9F70895843030F4E2
:105AB000E82FF0E0EA5FFD4F8081089580E00895CF
:105AC0008354883140F4E82FFF27E7FDF095E25F2B
:105AD000FD4F8081089584E00895AF92BF92CF92E8
