:100000000C94D4040C94E22D0C94F5040C94F50497
:100010000C94F5040C94F5040C94F5040C94F5047C
:100020000C94F5040C94F5040C94F5040C94F5046C
:100030000C94F5040C94F5040C94F5040C94F5045C
:100040000C94F5040C9423170C94F5040C94F5040B
:100050000C94F5040C94FA190C94F5040C94DA1928
:100060000C94F5040C945D150C941B150C94F5047C
:100070000C94F5040C94F5040C94F5040C94F5041C
:100080000C94F5040C94F5040C94F5040C94F5040C
:100090000C94F5040C94F5040C94F5040C94F504FC
:1000A0000C94F5040C94F5040C94F5040C94F504EC
:1000B0000C94F5040C94F5040C94F5040C94F504DC
:1000C0000C94F5040C94F5040C94F5040C94F504CC
:1000D0000C94F5040C94F5040C94F5040C94F504BC
:1000E0000C94F504C424C424C424C424CF24D824E8
:1000F000E124EA24F3240A25212538254F255C250F
:1001000069257625832596259F25A825B125BC251B
:10011000C525D425E525F4250326142627263626CD
:100120003F26482651265C2665266C26084AD73B82
:100130003BCE016E84BCBFFDC12F3D6C74319ABDB6
:1001400056833DDA3D00C77F11BED9E4BB4C3E91DA
:100150006BAAAABE000000803F05A84CCDB2D44EC9
:10016000B93836A9020C50B9918688083CA6AAAACB
:100170002ABE000000803F290A0D0028003E0D0A1B
:10018000002C4C6E3A002C004374733A002C002C67
:10019000506F733A003C436865636B003C416C618F
:1001A000726D003C486F6D65003C486F6C64003CAC
:1001B00052756E003C5175657565003C49646C650F
:1001C000007D0A0D0020283A00292C2063283A00DF
:1001D00020283A007B7A3A20007D0A0D002C2076F8
:1001E0003A007B653A005D0D0A005B302E39652CC4
:1001F000204A756C20323920323031342031313A86
:1002000034373A333820284B65794D6520323536FE
:100210003029203A000D0A003D00244E005D0D0AF1
:1002200000204600205400204D3800204D39002089
:100230004D3500204D3400204D3300204D3200203C
:100240004D3100204D3000204739340020473933EC
:100250000020473931002047393000204732300034
:100260002047323100204736360020473230002008
:1002700047323100204731390020473138002047CC
:100280003137002047005B473830005B4733005B65
:100290004732005B4731005B4730005D0D0A005B71
:1002A000544C4F3A005D0D0A002C005B4739323A3E
:1002B000005D0D0A002C003A003330003238005B3C
:1002C00047005D0D0A002C005B5052423A000D0AB7
:1002D0000020286465636179206D6F64652C202897
:1002E000302E2E33292900290D0A2433353D0020D4
:1002F000286D6963726F7374657073203A20000D06
:100300000A2433343D002028686F6D696E672070C1
:10031000756C6C2D6F66662C206D6D290020286829
:100320006F6D696E67206465626F756E63652C2002
:100330006D736563290D0A2433333D002028686FEF
:100340006D696E67207365656B2C206D6D2F6D690F
:100350006E290D0A2433323D002028686F6D696EC6
:100360006720666565642C206D6D2F6D696E290DA3
:100370000A2433313D00290D0A2433303D00202862
:10038000686F6D696E672064697220696E76657248
:1003900074206D61736B3A002028686F6D696E6719
:1003A000206379636C652C20626F6F6C290D0A24C1
:1003B00032393D00202868617264206C696D69746F
:1003C000732C20626F6F6C290D0A2432383D002097
:1003D00028736F6674206C696D6974732C20626F6A
:1003E0006F6C290D0A2432373D002028696E76652E
:1003F0007274206C696D69742070696E732C206250
:100400006F6F6C290D0A2432363D002028696E7604
:10041000657274207374657020656E61626C652C02
:1004200020626F6F6C290D0A2432353D002028614F
:1004300075746F2073746172742C20626F6F6C29F5
:100440000D0A2432343D0020287265706F727420CA
:10045000696E636865732C20626F6F6C290D0A24C6
:1004600032333D00202861726320746F6C657261C5
:100470006E63652C206D6D290D0A2432323D0020FB
:10048000286A756E6374696F6E206465766961743D
:10049000696F6E2C206D6D290D0A2432313D0020CC
:1004A00028737465702069646C652064656C61797B
:1004B0002C206D736563290D0A2432303D00290D0F
:1004C0000A2431393D00202864697220706F7274EB
:1004D00020696E76657274206D61736B3A00290D28
:1004E0000A2431383D0020287374657020706F72C3
:1004F0007420696E76657274206D61736B3A0020AA
:1005000028737465702070756C73652C2075736525
:1005100063290D0A2431373D00202863206D61785E
:100520002074726176656C2C206D6D290D0A243162
:10053000363D0020287A206D6178207472617665DE
:100540006C2C206D6D290D0A2431353D0020287951
:10055000206D61782074726176656C2C206D6D2938
:100560000D0A2431343D00202878206D61782074F4
:10057000726176656C2C206D6D290D0A2431333D36
:100580000020286320616363656C2C206D6D2F73E0
:1005900065635E32290D0A2431323D0020287A201D
:1005A000616363656C2C206D6D2F7365635E32290A
:1005B0000D0A2431313D0020287920616363656C88
:1005C0002C206D6D2F7365635E32290D0A24313046
:1005D0003D0020287820616363656C2C206D6D2FB1
:1005E0007365635E32290D0A24393D00202863209B
:1005F0006D617820726174652C206D6D2F6D696E50
:10060000290D0A24383D0020287A206D6178207257
:100610006174652C206D6D2F6D696E290D0A24376C
:100620003D00202879206D617820726174652C204E
:100630006D6D2F6D696E290D0A24363D00202878D6
:10064000206D617820726174652C206D6D2F6D694D
:100650006E290D0A24353D002028632C2073746513
:10066000702F6D6D290D0A24343D0020287A2C202E
:10067000737465702F6D6D290D0A24333D00202899
:10068000792C20737465702F6D6D290D0A24323D0D
:10069000002028782C20737465702F6D6D290D0A49
:1006A00024313D0024303D002424202876696577DC
:1006B000204772626C2073657474696E6773290DCC
:1006C0000A242320287669657720232070617261CF
:1006D0006D6574657273290D0A2447202876696553
:1006E0007720706172736572207374617465290D6F
:1006F0000A244E20287669657720737461727475B8
:100700007020626C6F636B73290D0A24783D7661EB
:100710006C7565202873617665204772626C207362
:10072000657474696E67290D0A244E783D6C696E94
:10073000652028736176652073746172747570200A
:10074000626C6F636B290D0A24432028636865631C
:100750006B2067636F6465206D6F6465290D0A24E3
:100760005820286B696C6C20616C61726D206C6F15
:10077000636B290D0A2448202872756E20686F6DFE
:10078000696E67206379636C65290D0A7E20286392
:1007900079636C65207374617274290D0A212028B5
:1007A0006665656420686F6C64290D0A3F202863C4
:1007B000757272656E7420737461747573290D0A95
:1007C0005E20286C696D69742070696E73290D0A4A
:1007D0006374726C2D78202872657365742047727B
:1007E000626C290D0A000D0A4772626C20302E39A6
:1007F00065205B27242720666F722068656C705D1A
:100800000D0A005D0D0A0044697361626C65640045
:10081000456E61626C65640043617574696F6E3A20
:1008200020556E6C6F636B656400272448277C2716
:1008300024582720746F20756E6C6F636B005265AF
:1008400073657420746F20636F6E74696E756500D4
:100850005B000D0A0050726F6265206661696C0072
:1008600041626F727420647572696E672063796388
:100870006C6500486172642F736F6674206C696DDB
:10088000697400414C41524D3A20000D0A00496EF6
:1008900076616C69642067636F64652049443A003F
:1008A000556E646566696E65642066656564207270
:1008B00061746500556E737570706F727465642035
:1008C000636F6D6D616E64004D6F64616C20677263
:1008D0006F75702076696F6C6174696F6E004C691A
:1008E0006E65206F766572666C6F7700486F6D6914
:1008F0006E67206E6F7420656E61626C6564004186
:100900006C61726D206C6F636B004E6F7420696454
:100910006C6500454550524F4D20726561642066FC
:1009200061696C2E205573696E6720646566617518
:100930006C74730056616C7565203C2033207573B0
:1009400065630053657474696E67206469736162DE
:100950006C65640056616C7565203C203000496E02
:1009600076616C69642073746174656D656E740082
:10097000426164206E756D62657220666F726D6192
:100980007400457870656374656420636F6D6D6194
:100990006E64206C6574746572006572726F723A71
:1009A00020006F6B0D0A000011241FBECFEFD1E2B3
:1009B000DEBFCDBF00E00CBF12E0A0E0B2E0EEE58C
:1009C000FCE700E00BBF02C007900D92A632B10712
:1009D000D9F71CE0A6E2B2E001C01D92AA34B1072B
:1009E000E1F70E94F7040C942D3E0C9400001F9335
:1009F0000E94EA140E9484260E94441A0E949E3992
:100A000084E2EFE7FAE0DF011D928A95E9F71092A0
:100A1000A30A1092A40A1092A50A1092A60A1EBA5E
:100A200081E080937F0A789411E00E94AF150E94C4
:100A3000300A0E94E4140E94E7140E94C92D0E940B
:100A400027320E945A280E940A1A0E94662C0E948D
:100A50009C0A10927F0A1EBA8091380C81FF03C055
:100A60001093810A02C01092810A0E944E16DDCFB7
:100A7000BF92CF92DF92EF92FF920F931F93CF938B
:100A8000DF93EC016A017B01B22E8091380C85FF67
:100A900003C0CE010E9414308091800A8230D9F0C8
:100AA0000E94B41580917F0A8823A9F40E94B82877
:100AB000882319F00E944916F3CFCE01B701A60191
:100AC0002B2D0E94C0288091800A882321F488E081
:100AD000EFE7FAE08183DF91CF911F910F91FF90B3
:100AE000EF90DF90CF90BF9008952F923F924F925A
:100AF0005F926F927F928F929F92AF92BF92CF92AE
:100B0000DF92EF92FF920F931F93DF93CF93CDB7B6
:100B1000DEB7E6970FB6F894DEBF0FBECDBF9E8757
:100B20008D87788B6F872A0109871A872B873C87E7
:100B3000C98ADA8AEB8AFC8AAB8E9924880C991CC4
:100B4000880C991C880D991D9D8F8C8F9201280D02
:100B5000391D3F8F2E8FD901CD90DD90ED90FC9007
:100B6000C701B601EC8DFD8D208131814281538119
:100B70000E94F4396CA37DA38EA39FA32D960FAD85
:100B80002D9710E0000F111F000F111F2D853E85BE
:100B9000200F311F39A328A3C201800F911F9BA3EF
:100BA0008AA3DC014D905D906D907C90C301B201F1
:100BB000F90120813181428153810E94F43968A773
:100BC00079A78AA79BA7D701C601B0588D839E83BA
:100BD000AF83B887D301C201B05889839A83AB83AE
:100BE000BC83EF85F889E80DF91D608171818281F0
:100BF0009381BCA1ADA1FEA1EFA12B2F3A2F4F2FC6
:100C00005E2F0E94F339E62EC72EA82E892EEF857F
:100C1000F889E00FF11F6081718182819381B8A50D
:100C2000A9A5FAA5EBA52B2F3A2F4F2F5E2F0E94D7
:100C3000F339F62E072F182F992E6D817E818F8123
:100C400098852F2D302F412F592D0E940B3D2B01C0
:100C50003C0169817A818B819C812E2D3C2D4A2D0E
:100C6000582D0E940B3D9B01AC01C301B2010E94B3
:100C7000F3392B013C016D817E818F8198852E2D6A
:100C80003C2D4A2D582D0E940B3D5B016C01698162
:100C90007A818B819C812F2D302F412F592D0E94DD
:100CA0000B3D9B01AC01C601B5010E94F4399B01CB
:100CB000AC01C301B2010E94673AF62E172F882EAD
:100CC000092F8091A70A8230B1F46F2D712F882DE2
:100CD000902F20E030E0A9010E94D03C87FD24C085
:100CE0006F2D712F882D902F2BED3FE049EC50E4B4
:100CF0000E94F33915C06F2D712F882D902F20E0A1
:100D000030E0A9010E94CD3A181674F06F2D712FB2
:100D1000882D902F2BED3FE049EC50E40E94F439F0
:100D2000F62E172F882E092FA090340CB090350C7A
:100D3000C090360CD090370C69857A858B859C8560
:100D40009B01AC010E94F439A60195010E94F33980
:100D50009B01AC01C601B5010E940B3D0E94983D6C
:100D60005B016C016F2D712F882D902F20E030E0FA
:100D700040E05FE30E940B3D29853A854B855C8509
:100D80000E940B3D9F77A60195010E94D43A0E94D4
:100D9000AA3B0E94413B7A876987DB01109709F4DF
:100DA000DDC1BB8DBB23A1F080E090E00E946D3BD4
:100DB0009B01AC01B989AA89FB89EC896B2F7A2F39
:100DC0008F2F9E2F0E940B3D698B7A8B8B8B9C8B78
:100DD00029853A85B90180E090E00E946D3B5B0176
:100DE0006C016F2D712F882D902FA60195010E9407
:100DF000D43A6D8B7E8B8F8B988F2E968FAD2E97DE
:100E000090E0880F991F880F991FAD85BE85A80FA8
:100E1000B91FBA8FA98FEF85F8898E0F9F1FDC014C
:100E20006D917D918D919C91E98DFA8D208131811B
:100E3000428153810E94F339A60195010E94D43A60
:100E40006BAB7CAB8DAB9EAB5D894E893F89288DAA
:100E5000652F742F832F922FDA01F9012B2F3A2F50
:100E60004F2F5E2F0E940B3D9B01AC0160E070E0B4
:100E700080E090E40E94F339F62E072F182FC92E38
:100E80005D894E893F89288D652F742F832F922F7E
:100E90002BEA3AEA4AE25EE30E940B3D4B015C0119
:100EA0006F2D702F812F9C2D20E030E040E850E422
:100EB0000E94F4399B01AC01C501B4010E940B3DB5
:100EC0006CA77DA78EA79FA76F2D702F812F9C2DBC
:100ED00020E030E040E05FE30E940B3DC62E78AB9F
:100EE00089AB9AAB882481E0282E312C9C2C30C110
:100EF000F82DF43108F063C06D817E818F81988573
:100F0000BCA5ADA5FEA5EFA52B2F3A2F4F2F5E2F29
:100F10000E940B3D7B018C0169817A818B819C81D0
:100F2000A8A9F9A9EAA9292D3A2F4F2F5E2F0E94CF
:100F30000B3D9B01AC01C801B7010E94F439D62ECC
:100F4000C72EA82E492E6D817E818F819885A8A9F4
:100F5000F9A9EAA9292D3A2F4F2F5E2F0E940B3DA8
:100F6000162F072FF82EE92E69817A818B819C81BB
:100F7000BCA5ADA5FEA5EFA52B2F3A2F4F2F5E2FB9
:100F80000E940B3D9B01AC01D801F7016B2F7A2F1A
:100F90008F2F9E2F0E94F339262F372F482F592F3E
:100FA0002D833E834F8358878394A601852F942FEA
:100FB000AA2DB42D89839A83AB83BC8372C0B101FF
:100FC00080E090E00E946D3BBD89AE89FF89E88D8D
:100FD0002B2F3A2F4F2F5E2F0E940B3D7B018C0150
:100FE0007F2D912F0E94D13A69837A838B839C83D2
:100FF0006E2D7F2D802F912F0E948E3D5B016C0105
:10100000AE8DBF8DED90FD900D911C9117FB10954D
:1010100017F91095EAA1FBA140805180628073808E
:10102000C801B70129813A814B815C810E940B3D47
:101030006D837E838F839887C301B201A6019501DA
:101040000E940B3D9B01AC016D817E818F81988553
:101050000E94F439262F372F482F592F2D833E8396
:101060004F835887C801B701A60195010E940B3D27
:101070007B018C01C301B20129813A814B815C81E2
:101080000E940B3D9B01AC01C801B7010E94F339DE
:10109000262F372F482F592F29833A834B835C8380
:1010A00088245CA14DA13EA12FA1652F742F832F11
:1010B000922F2D813E814F8158850E94F439AC8D4D
:1010C000BD8D6D937D938D939C93139758A549A5E2
:1010D0003AA52BA5652F742F832F922F29813A8152
:1010E0004B815C810E94F439E8A1F9A1608371838E
:1010F00082839383A98DBA8D6D917D918D919C9101
:10110000BBA9ACA9FDA9EEA92B2F3A2F4F2F5E2F1B
:101110000E94F439E98DFA8D608371838283938311
:101120008D859E85F989EA893B892C894F2F5E2F11
:10113000632F722F2B8D60960EAD1FAD60970E94AE
:10114000380580917F0A8823D1F40894211C311C32
:1011500029853A852216330608F4CACE8F859889E8
:10116000F989EA893B892C894F2F5E2F632F722FD3
:101170002B8D60960EAD1FAD60970E943805E696E8
:101180000FB6F894DEBF0FBECDBFCF91DF911F9198
:101190000F91FF90EF90DF90CF90BF90AF909F9016
:1011A0008F907F906F905F904F903F902F90089519
:1011B000EF92FF920F931F93CF93DF937B018C01EC
:1011C0008091800A823009F447C0C801B70120E04D
:1011D00030E040EA51E40E940B3D0E94AA3B0E948D
:1011E000413BEB010E943216C801B70120E030E01C
:1011F0004AE754E40E940B3D7B018C0182E390E0BE
:10120000C89FB001C99F700DD89F700D112480E058
:1012100090E00E946D3B9B01AC01C801B7010E94A8
:10122000F3390E94AA3B0E94413BDC01CB010E94A2
:10123000662D10C00E94B415219780917F0A8823E3
:1012400059F48FEF90E7A2E081509040A040E1F781
:1012500000C00000209771F7DF91CF911F910F918F
:10126000FF90EF9008951F93182F84E08093800AD9
:101270000E94C42D812F84700E94EC2D812F8270DA
:101280000E94EC2D812F89700E94EC2D0E94B415D4
:1012900080917F0A882341F40E949C0A1092800A60
:1012A0000E94F4160E94C92D1F9108952F923F921B
:1012B0005F926F927F928F929F92AF92BF92CF92E6
:1012C000DF92EF92FF920F931F93DF93CF9300D0A3
:1012D0000F92CDB7DEB7F82EE92E5A016B01522ED0
:1012E00018018091800A803111F00E9449160E94F5
:1012F000321680917F0A882309F06BC08F2D9E2DB6
:10130000B601A501252D81010E94380581E0809359
:10131000A40AF19A0E94B41580917F0A882309F0EB
:1013200058C08091800A882311F0883099F7809105
:10133000A40A883009F4F69A0E94B41580917F0AB5
:10134000882309F046C003E91AE05CEE852E5BE0D5
:10135000952EC701692E7E2CF801619171918191C2
:1013600091918F01F40121913191419151914F015E
:1013700029833A834B835C830E946F3B29813A81A6
:101380004B815C810E94D43AF30161937193819304
:1013900091933F01FAE0033A1F07F1F60E94B4155A
:1013A0000E940A1A0E945A280E94662C8F2D9E2D98
:1013B000B601A501252D81010E943805F19A0E94F0
:1013C000321680917F0A882321F40E949C0A0E9491
:1013D00007350F900F900F900F90CF91DF911F91D5
:1013E0000F91FF90EF90DF90CF90BF90AF909F90C4
:1013F0008F907F906F905F903F902F900895F49919
:101400000CC0F49A0E94E5140E94E8148091800AAE
:10141000847319F0F59A0E94F41608950F931F93A0
:10142000CF93DF93CAEBDAE00CE11BE0699179918D
:1014300089919991F80121913191419151918F01B7
:101440000E94CD3A882331F4FAE0CA3CDF0771F7F5
:1014500081E001C080E0DF91CF911F910F9108954D
:10146000AF92BF92CF92DF92EF92FF920F931F93B2
:10147000CF93DF9367EA7AE087E4FB0111928A95C4
:10148000E9F780E06D5D7F4F0E946E24882319F498
:1014900087E00E944D3260E070E080E291E42091AC
:1014A000EC0B3091ED0B4091EE0B5091EF0B0E9445
:1014B000D43A162F072FF82EE92EC0EFDBE0299142
:1014C00039914991599160E070E080E291E40E9485
:1014D000D43AD62EC72EB82EA92EA8019701652F73
:1014E000702F832F9E2DD601F5012B2F3A2F4F2FD2
:1014F0005E2F0E94CD3A87FD02C086017501FBE098
:10150000CC3FDF07E1F6A8019701852F902FA32F8D
:10151000BE2D8093EE0A9093EF0AA093F00AB09349
:10152000F10ADF91CF911F910F91FF90EF90DF9023
:10153000CF90BF90AF900895AF92BF92CF92DF92BD
:10154000EF92FF920F931F93CF93DF93C3E8DAE0FC
:101550000CEE1BE08AEBE82E8AE0F82E6991799177
:1015600089919991F801A190B190C190D1908F018A
:101570000E946F3BA60195010E94D43AF701619346
:101580007193819391937F01FAE0C339DF0731F7BB
:10159000DF91CF911F910F91FF90EF90DF90CF904F
:1015A000BF90AF9008952F923F924F925F926F92AB
:1015B0007F928F929F92AF92BF92CF92DF92EF92E3
:1015C000FF920F931F93DF93CF93CDB7DEB7E397CF
:1015D0000FB6F894DEBF0FBECDBF9FA38EA3A2EFC0
:1015E000BAE08AE3FD0111928A95E9F71196E7EADC
:1015F000FAE08AE001900D928150E1F719824424CB
:101600005524222433241AA6EE24DD2471E0672E0B
:10161000712CFF24F39462E0C62EADC2912F915439
:101620009A3110F00C949C148F5F89838EA19FA136
:10163000BE016F5F7F4FAE014E5F5F4F0E94B02CC7
:10164000882311F40C949E148A809B80AC80BD800A
:10165000C501B4010E94D93D0E94413B062F70E0B4
:10166000882777FD8095982F0E946F3B9B01AC01E6
:10167000C501B4010E94F33920E030E048EC52E4A7
:101680000E940B3D0E946E3D0E94413B173421F0A9
:101690001D3409F060C123C10B3209F4F0C00C32D3
:1016A00000F5043170F4013108F0BDC0043009F4D4
:1016B00045C0043008F48CC00A3011F00C94B0140A
:1016C00035C00C3199F10D3128F4063110F00C942D
:1016D000B014C9C00E3151F1063211F00C94B0149F
:1016E00077C0003509F47AC0013590F40C3358F412
:1016F000063308F0D7C0013309F4C1C0053311F037
:101700000C94B0141BC0023411F00C94B014B4C08B
:101710000C3561F00D3528F40A3510F40C94B01432
:1017200090C00F3510F00C94B01494C0662331F4BF
:10173000DD2011F00C94A014DD24D3940C31B1F011
:101740000D3130F4043061F00A3009F0B0C00BC044
:10175000053359F10C3569F10E3109F0A8C016C0F6
:10176000F092F20AA4C0C092F20AA1C0662329F046
:101770006A3011F00C94B01404C0F3E0F093F20A54
:1017800003C024E02093F20A80E098C0662329F089
:101790006A3011F00C94B01404C035E03093F20AB2
:1017A000F3CF86E08093F20AEFCF97E09093F20AAE
:1017B0007EC0662329F06A3011F00C94B01404C086
:1017C000A8E0A093F20AE0CFB9E0B093F20ADCCF30
:1017D000DD2011F00C94A01452E0D52E023099F0C7
:1017E000033030F4002361F0013009F062C00BC017
:1017F000063261F0003599F0033009F05AC003C099
:101800001092F30A56C00093F30A53C0643111F0EA
:101810000C94B014E4E0E093F30A81E04FC0F5E0EB
:10182000F093F30A46C0023129F0033131F01092EF
:10183000F70A05C0F092F70A02C0C092F70A82E0E8
:1018400039C00A3519F41092F60A02C0F092F60A6D
:1018500083E030C00D3519F4F092F40A02C0109202
:10186000F40A84E027C0043119F4F092F50A02C0AA
:101870001092F50A85E01EC0C092F50AFBCFDD206C
:1018800011F00C94A014013319F41092F80A06C058
:101890006A3011F00C94B014F092F80A86E043E03C
:1018A000D42E0CC006530093F90A87E003C080E0F1
:1018B00001C081E0662311F00C94A214930102C0D0
:1018C000220F331F8A95E2F7C90122213321211506
:1018D000310511F00C94BC14282A392A4CC1662316
:1018E00011F00C94A214063018F40330D0F40AC09E
:1018F000083010F40C94B0140A3010F10E3111F0CD
:101900000C94B014023041F00E3131F0002311F08C
:101910000C94B01481E001C082E08093FA0A0C9428
:10192000B014043021F0053039F081E001C082E0CC
:101930008093FC0A0C94B0141092FC0A0C94B0141E
:10194000093029F082E08093FB0A0C94B0141092C5
:10195000FB0A0C94B0141E3409F482C01F34B4F492
:10196000193409F44AC01A343CF4133441F11634E2
:1019700011F00C94B01433C01B3409F45CC01B3458
:101980000CF448C01C3409F0EBC766C0143509F4E8
:10199000CDC0153554F4123509F47CC013350CF064
:1019A00087C0103509F0DCC767C0193509F49EC03F
:1019B0001A3509F4ABC0183509F0D2C787C08A813F
:1019C0009B81AC81BD818093280B9093290BA093C0
:1019D0002A0BB0932B0B38E0E32A8DE0A8C08A8154
:1019E0009B81AC81BD818093FD0A9093FE0AA093F8
:1019F000FF0AB093000B80E09AC08092010B909296
:101A0000020BA092030BB092040B8AA581608AA7F7
:101A100081E08DC08A819B81AC81BD818093050B63
:101A20009093060BA093070BB093080B9AA59260B6
:101A30009AA782E07CC08A819B81AC81BD81809322
:101A4000090B90930A0BA0930B0BB0930C0BAAA558
:101A5000A460AAA783E06BC000930D0B84E067C06D
:101A6000C501B4010E94D93D0E94413B70930F0B08
:101A700060930E0B85E05BC08A819B81AC81BD8148
:101A80008093100B9093110BA093120BB093130B38
:101A900086E04DC08A819B81AC81BD818093140B0F
:101AA0009093150BA093160BB093170B87E03FC0D4
:101AB0008A819B81AC81BD818093180B9093190B17
:101AC000A0931A0BB0931B0B88E031C08A819B81D5
:101AD000AC81BD8180931C0B90931D0BA0931E0BBA
:101AE000B0931F0BB1E0EB2A8AE021C08A819B8171
:101AF000AC81BD818093200B9093210BA093220B8E
:101B0000B093230BE2E0EE2A8BE011C08A819B8127
:101B1000AC81BD818093240B9093250BA093260B61
:101B2000B093270BF4E0EF2A8CE001C089E0830139
:101B3000082E02C0000F111F0A94E2F79801242119
:101B400035212115310509F0FFC621E633E002C039
:101B5000359527958A95E2F720FF0BC06A817B8136
:101B60008C819D8120E030E0A9010E94CD3A87FD63
:101B7000EDC6402A512A8981EEA1FFA1E80FF11D8F
:101B80001081112309F04ACDEE2021F0DD2011F45F
:101B900032E0D32E45FE06C080910E0B90910F0BC4
:101BA00097FDD6C68091F40A813051F43D2D323034
:101BB00011F440FEDDC68091F50A8230E9F5D0C609
:101BC0008091A80A8823C1F540FE26C08091F50ABD
:101BD0008130B9F46091FD0A7091FE0A8091FF0A8C
:101BE0009091000B23E333E34BEC51E40E940B3D57
:101BF0006093FD0A7093FE0A8093FF0A9093000B96
:101C00001BC08230C9F48091EE0A9091EF0AA09136
:101C1000F00AB091F10A08C08091B50A9091B60A15
:101C2000A091B70AB091B80A8093FD0A9093FE0A7A
:101C3000A093FF0AB093000B50FC10C08091B10A32
:101C40009091B20AA091B30AB091B40A8093180B94
:101C50009093190BA0931A0BB0931B0B8091F20A6F
:101C6000813031F446FE78C68FEB9FEF482259222F
:101C70008091F70A823088F490E0FC01E050FE4F3A
:101C8000A081ADA7FC01EE5FFD4FB081BEA78C5FC8
:101C90009D4FFC01F081FBAB05C01BAA22E02EA7E3
:101CA00031E03DA7F090F50AFF2009F441C00CE1B6
:101CB0001BE02CEEA22E2BE0B22E882499246E2C51
:101CC0007724C301082C02C0959587950A94E2F702
:101CD00080FF21C08F2D823069F4D8016D917D91F4
:101CE0008D919C91F50120813181428153810E9427
:101CF000D43A0BC0F801608171818281938123E322
:101D000033E34BEC51E40E940B3DD8016D937D937E
:101D10008D939C9313970894811C911C0C5F1F4F0B
:101D2000E4E0F0E0AE0EBF1EF4E08F16910449F639
:101D30002D2D233041F48091F80A813021F43E2D7D
:101D4000343009F007C6DE011696EAECFAE080E1CD
:101D500001900D928150E1F727FE11C08091F90AA0
:101D6000873008F0FBC59091AD0A981741F0BE018D
:101D70006A5F7F4F0E946E24882309F4F3C5F090B8
:101D8000F20A8F2D823021F0883009F013C1A4C0EF
:101D9000EE2009F4F7C5C20180759070009709F430
:101DA000DBC56091100B7091110B8091120B90911B
:101DB000130B0E94D93D0E94413B673008F0CEC50D
:101DC00080910D0B843129F0823009F0C9C547FCA0
:101DD000C7C5662319F0862F815002C08091F90A89
:101DE0008E010A5E1F4FB8010E946E24882309F4F9
:101DF000B9C5F0900D0B8091EA0A9091EB0AA09181
:101E0000EC0AB091ED0A8EA39FA3A8A7B9A79CE105
:101E1000892E9BE0992E8AEBA82E8AE0B82E6624A4
:101E200077242E2C3324C101062C02C0959587956A
:101E30000A94E2F780FF3BC09F2D943171F5D501E4
:101E40006D917D918D919C91139790962D913D91DF
:101E50004D915C9193970E94F339F4012081318177
:101E6000428153810E94F339262F372F482F592F53
:101E7000D8012D933D934D935C931397B62DB230BB
:101E8000B1F42EA13FA148A559A50E94F339F8014C
:101E900060837183828393830AC0F401808191817E
:101EA000A281B381F80180839183A283B3830894D4
:101EB000611C711C0C5F1F4F24E030E0820E931EEA
:101EC000A20EB31E34E06316710409F0ACCF8FEAA2
:101ED0009FEF4822592211C1EE2009F453C5809189
:101EE000EA0A9091EB0AA091EC0AB091ED0A8EA358
:101EF0009FA3A8A7B9A70CE11BE0BAEB8B2EBAE011
:101F00009B2EA6E06A2E712C6C0E7D1EAA24BB248B
:101F10002E2C3324C1010A2C02C0959587950A9472
:101F2000E2F780FF2CC0D4016D917D918D919C9141
:101F3000F30120813181428153810E94F339D8011C
:101F40002D913D914D915C910E94F339262F372FB1
:101F5000482F592FF8012083318342835383FA2D70
:101F6000F230B9F42EA13FA148A559A50E94F3393A
:101F7000D8016D937D938D939C9313970AC0F401C0
:101F800080A191A1A2A1B3A1F80180839183A28332
:101F9000B3830894A11CB11C0C5F1F4F24E030E0F8
:101FA000820E931E620E731E34E0A316B10409F074
:101FB000B1CFA3C08D2D833009F487C0EE2009F482
:101FC00084C0C090F60A8091EA0A9091EB0AA09131
:101FD000EC0AB091ED0A8EA39FA3A8A7B9A7FAEBCC
:101FE0008F2EFAE09F2E0CE11BE0E6E06E2E712CA6
:101FF0006C0E7D1EAA24BB242E2C3324C1010A2C76
:1020000002C0959587950A94E2F780FD0BC0F40114
:1020100080819181A281B381F80180839183A28321
:10202000B38343C0FF2DF73009F43FC0CC2061F5E6
:10203000D3016D917D918D919C91F40120A131A1ED
:1020400042A153A10E94F439D8012D913D914D91A7
:102050005C910E94F439262F372F482F592FF80111
:102060002083318342835383FA2DF230F1F42EA181
:102070003FA148A559A50E94F439D8016D937D93DD
:102080008D939C93139711C0F801608171818281B7
:102090009381D4012D913D914D915C910E94F43931
:1020A000F80160837183828393830894A11CB11C1F
:1020B00024E030E0820E931E0C5F1F4F620E731EF1
:1020C00034E0A316B10409F099CF8091F20A85306B
:1020D00031F0873069F0833081F486E001C087E019
:1020E000BE016A5E7F4F0E946E24882331F43AC499
:1020F0008091F30A823008F037C41091F30A15304A
:1021000041F4EE2009F453C28D2D813009F02EC424
:102110004EC29D2D923009F04AC21123E1F0609128
:10212000FD0A7091FE0A8091FF0A9091000B20E059
:1021300030E0A9010E94CD3A882309F419C4143073
:1021400030F4123060F4113009F031C204C01430A0
:1021500009F02DC21EC2EE2009F428C228C2EE20CA
:1021600009F410C4BDA5AB2FB0E0B8ABAFA7FEA576
:10217000EF2FF0E0FAABE9AB81E090E08C010EA428
:1021800002C0000F111F0A94E2F70DA402C0880FCD
:10219000991F0A94E2F7082B192BFF24E022F12261
:1021A000E114F10409F4E6C3F090F50A2F2D223072
:1021B00009F4E2C3FD01EE0FFF1FEE0FFF1FDF0169
:1021C000AE50B54FE955F54F9A966D917D918D9131
:1021D0009C919D9723893489458956890E94F339BA
:1021E000C62E672E282E792EE9A9FAA9EE0FFF1F19
:1021F000EE0FFF1FDF01AE50B54FE955F54F9A9630
:102200006D917D918D919C919D972389348945890C
:1022100056890E94F339362E7EA38BA79CA747FED2
:1022200001C10E940E0A882309F0AEC33F2D313050
:10223000B1F46091140B7091150B8091160B909175
:10224000170B23E333E34BEC51E40E940B3D609307
:10225000140B7093150B8093160B9093170BE09053
:10226000140BF090150B0091160B1091170BC80171
:10227000B70120E030E040E850E40E940B3DA801A7
:1022800097010E940B3D7B018C016C2D762D822DD8
:10229000972D2C2D362D422D572D0E940B3D9B0145
:1022A000AC01C801B7010E94F3397B018C014EA13A
:1022B0003BA52CA5632D742F832F922FF901232D7D
:1022C000342F4F2F5E2F0E940B3D9B01AC01C801A4
:1022D000B7010E94F339F62E072F182FE92E20E0C0
:1022E00030E0A9010E94CD3A87FD48C36F2D702FC1
:1022F000812F9E2D0E94983D7B018C016C2D762DA7
:10230000822D972DAEA1FBA5ECA5232D3A2F4F2FA3
:102310005E2F0E94922D9B01AC01C801B70190581D
:102320000E94D43A862E972EA82EB92E8091F30AB9
:10233000833021F4B7FAB094B7F8B094E090140B5E
:10234000F090150B0091160B1091170BC801B701F7
:1023500020E030E0A9010E94CD3A87FF10C0B7FA13
:10236000B094B7F8B09417FB109517F91095E09258
:10237000140BF092150B0093160B1093170B8FE7AD
:102380009FEF482259220FA518A9000F111F000F17
:10239000111F0A50154F4EA13BA52CA5632D742F7C
:1023A000832F922FA50194010E940B3D9B01AC014C
:1023B0006C2D762D822D972D0E94F33920E030E090
:1023C00040E05FE30E940B3DD8011B966D937D9327
:1023D0008D939C931E9709A91AA9000F111F000F36
:1023E000111F0A50154F6C2D762D822D972DA501AA
:1023F00094010E940B3D9B01AC01AEA1FBA5ECA595
:10240000632D7A2F8F2F9E2F0E94F43920E030E029
:1024100040E05FE30E940B3DF80163877487858786
:102420009687C5C0FAA5AF2EBB240A211B21011532
:10243000110509F4A5C221EF3FEF422253223F2D9F
:10244000313031F501E01BE0EE24FF24C5010E2CF4
:1024500002C0959587950A94E2F780FF10C0D801D5
:102460006D917D918D919C9123E333E34BEC51E48D
:102470000E940B3DF80160837183828393830894EB
:10248000E11CF11C0C5F1F4FF4E0EF16F104F1F6B4
:102490000FA518A9000F111F000F111F0A50154F8B
:1024A0006C2D762D822D972DD8011B962D913D9167
:1024B0004D915C911E970E94F3394B015C01E9A894
:1024C000FAA8EE0CFF1CEE0CFF1CE6EFFAE0EE0E95
:1024D000FF1E4EA13BA52CA5632D742F832F922F99
:1024E000D7011B962D913D914D915C911E970E94B5
:1024F000F3399B01AC01C501B4010E94922D4B013F
:102500005C01F8016385748585859685D7011B96E6
:102510002D913D914D915C911E970E94922D7B01D2
:102520008C016093140B7093150B8093160B909392
:10253000170BC501B401A80197010E94F3394B01A3
:102540005C01E894B7F8C501B4012AE037ED43EA2D
:102550005BE30E94D03C181654F5C501B40120E09D
:1025600030E040E05FE30E94D03C18160CF40CC24F
:10257000C801B7012FE632E143E85AE30E940B3D60
:102580009B01AC01C501B4010E94D03C18167CF43B
:10259000FBC1EE2009F4F6C10E940E0A882309F05F
:1025A000F3C10E943232882311F0F0C1DD24C20150
:1025B0008E7D9C7FDD2019F0C2018E7D907C00977E
:1025C00009F0E6C18091F40A8093A80A8091FD0A7F
:1025D0009091FE0AA091FF0AB091000B8093B50A7A
:1025E0009093B60AA093B70AB093B80AE090180B7C
:1025F000F090190B00911A0B10911B0B6091B10A0E
:102600007091B20A8091B30A9091B40AA80197011F
:102610000E94CD3A882381F0E092B10AF092B20A8A
:102620000093B30A1093B40A8091B00A882321F072
:10263000B801A7010E94E6148091FC0A9091B00AAB
:10264000981761F08093B00A4091B10A5091B20A94
:102650006091B30A7091B40A0E94E6148091FB0A5B
:102660009091AF0A981721F08093AF0A0E94E91465
:102670008091F20A813051F46091100B7091110B2E
:102680008091120B9091130B0E94D8088091F70A49
:102690008093AB0A8091F50A8093A90ABD2DB330CF
:1026A000D1F48091F80A8093AC0A813049F480918A
:1026B000240B9091250BA091260BB091270B03C002
:1026C00080E090E0DC018093EA0A9093EB0AA0930B
:1026D000EC0AB093ED0A8091F90A9091AD0A98172F
:1026E00059F08093AD0AAAECBAE0FE01369680E17B
:1026F00001900D928150E1F78091F60A8093AA0A29
:102700008091F20A8530E9F1863048F48330C9F1CE
:10271000843008F05FC0823009F075C00AC088308C
:1027200009F460C0893009F467C0863009F06BC0D5
:1027300053C06091100B7091110B8091120B90910E
:10274000130B0E94D93D0E94413B662319F0F62EDF
:10275000FA9402C0F090AD0A8E010A5E1F4F8F2DD1
:10276000B8010E9436238091AD0A8F1509F04BC045
:10277000AAECBAE0F80180E101900D928150E1F7F6
:1027800042C0DD2069F000910E0B10910F0B8CE11F
:102790009BE040E050E060E87FEB20E00E943805DD
:1027A00096E1E92EF12CEC0EFD1E00910E0B10911E
:1027B0000F0BC70140E050E060E87FEB20E00E9493
:1027C0003805AAEBBAE0F70180E101900D92815043
:1027D000E1F719C086E001C087E06AEB7AE00E9469
:1027E000362311C0AAEDBAE0ECE1FBE080E10190F4
:1027F0000D928150E1F707C080E1EAEDFAE0DF01D8
:102800001D928A95E9F78091F30A8093A70A853093
:1028100009F47EC0BD2DB23009F07AC0843040F496
:10282000823048F5882341F0813009F068C010C03B
:10283000843009F064C051C000910E0B10910F0B51
:102840008CE19BE040E050E060E87FEB20E010C0CE
:102850004091B50A5091B60A6091B70A7091B80AD2
:1028600000910E0B10910F0B8CE19BE02091A80AB8
:102870000E94380544C000D00F92EDB7FEB73196E4
:102880000091140B1091150B2091160B3091170B22
:10289000C090B50AD090B60AE090B70AF090B80A96
:1028A0008EA5ADB7BEB711968C939BA991838091ED
:1028B0000E0B90910F0B938382838AEB9AE06CE16D
:1028C0007BE041E05BE0A090A80A8DA40E94750522
:1028D0000F900F900F900F9012C04091B50A509139
:1028E000B60A6091B70A7091B80A00910E0B109168
:1028F0000F0B8CE19BE02091A80A0E945609AAEBDD
:10290000BAE0ECE1FBE080E101900D928150E1F74B
:102910008091FA0A8093AE0A8823E1F10E94321670
:102920001092810A8091AE0A823019F40E94FF0948
:1029300031C01092AE0A2EC081E02DC082E02BC0C3
:1029400088E129C087E127C089E125C084E023C050
:102950008BE121C086E21FC08CE11DC08DE11BC050
:1029600084E119C087E017C08EE115C08FE113C064
:1029700086E111C080E20FC085E10DC082E20BC08C
:1029800083E209C08AE107C081E205C084E203C096
:1029900085E201C080E0E3960FB6F894DEBF0FBE7B
:1029A000CDBFCF91DF911F910F91FF90EF90DF90FE
:1029B000CF90BF90AF909F908F907F906F905F90DF
:1029C0004F903F902F900895089508950895089589
:1029D00008950895E0ECF0E080818D7F808310926F
:1029E000C50089E18093C400E1ECF0E08081806162
:1029F000808380818860808380818068808308955F
:102A0000E09128029E2F9F5F903429F403C0F49B2D
:102A100002C0089590E0209129029217C1F3F0E0DE
:102A2000E455F44F8083909328028091C100806226
:102A30008093C10008951F920F920FB60F920BB6AC
:102A40000F9211248F939F93EF93FF93809129020C
:102A5000E82FF0E0E455F44F90819093C6008F5F2B
:102A6000803409F480E0809329029091280289172C
:102A700029F48091C1008F7D8093C100FF91EF9177
:102A80009F918F910F900BBE0F900FBE0F901F90D4
:102A900018959091270280912602891761F0E92FFD
:102AA000F0E0E45DF44F80819F5F903809F490E09E
:102AB0009093270208958FEF08951F920F920FB6FB
:102AC0000F920BB60F9211242F933F934F935F9366
:102AD0006F937F938F939F93AF93BF93EF93FF93E6
:102AE0008091C6008F3361F0803428F4883181F002
:102AF000813289F40BC08E3529F08E3761F404C021
:102B0000F09A1AC0F79A18C0F19A16C0F39A14C036
:102B10000E94FF0911C0E09126029E2F9F5F90380E
:102B200009F490E020912702921731F0F0E0E45D83
:102B3000F44F808390932602FF91EF91BF91AF9164
:102B40009F918F917F916F915F914F913F912F91C5
:102B50000F900BBE0F900FBE0F901F901895809195
:102B600026028093270208951F93CF93DF931EB30D
:102B7000112309F46DC0C12FD0E0CE018076907092
:102B80000097D1F081E08093800ACE0186FF0EC0CD
:102B900085FF02C08FEF01C08DEF0E94B43281E04B
:102BA0000E94D532F498F49BFECF03C08EEF0E94B2
:102BB000B4328EB38F798EBBC4FF04C081E08093A2
:102BC0007F0A4CC0C0FF05C00E941937882309F452
:102BD000F09817FF06C00E94E237F7980E94E2378C
:102BE000F798C3FF0EC08091800A803149F480E2DB
:102BF0008093800A0E94831A0E94A51A1092810A6B
:102C0000F398C1FF18C08091800A82FD14C08830FB
:102C100089F480E18093800A0E94A51A0E94BE1662
:102C20008091380C81FF04C081E08093810A02C04A
:102C30001092810AF198C2FF0BC00E947F28009772
:102C400021F088E08093800A02C01092800AF298F6
:102C50008091800A847311F00E94A51ADF91CF91B0
:102C60001F9108958091800A803151F481E0809312
:102C7000810A06C00E94B41580917F0A882341F41E
:102C80000E947F280097B1F78091800A803191F3EC
:102C900008958091810A8111F19A08950F931F93ED
:102CA0000E94FF328091800A813021F482E00E94EC
:102CB000D5321CC01092800A8AE292E00E94F83756
:102CC00015C08A3011F08D3031F5E12FF0E0E65D6E
:102CD000FD4F10820E94B41580917F0A882331F441
:102CE00080912A02882329F40E944D3210E000E0EE
:102CF00035C0843229F48AE292E00E941738F4CF7A
:102D00008091800A813011F489E0EECF8AE292E06E
:102D10000E94D30AE9CF002319F08932F9F4E7CFF2
:102D20008132E0F08F32D1F08832B9F0153428F0DA
:102D30008BE00E944D3210E011C0982F9156212F48
:102D400030E01F5F9A3120F4265D3D4F805202C073
:102D5000265D3D4FF901808301C001E00E944915C5
:102D60008F3F09F0AECF0E9449160E94B4158091A2
:102D70007F0A882399F31F910F9108958091380C51
:102D800082FF04C0809105018E6303C0809105011C
:102D9000817C809305018091800A847121F180916A
:102DA0002E0C8093480380912D0C80934703209133
:102DB0002C0C30E040E050E0DA01C9010896A11D7A
:102DC000B11D880F991FAA1FBB1F819580934603D1
:102DD000220F331F441F551F219527BD80916F007F
:102DE000826080936F00089580916F008D7F809343
:102DF0006F0080918100887F8160809381001092B4
:102E0000610380912F0C8F3F11F4F59B09C09091C5
:102E1000800A943029F090E00E94662D81E001C084
:102E200080E09091380C92FF02C091E089278823BE
:102E300021F0809105018E6303C080910501817CA2
:102E40008093050108951F920F920FB60F920BB653
:102E50000F9211242F933F934F935F936F937F9320
:102E60008F939F93AF93BF93EF93FF93179A8091A4
:102E70006103882309F08AC290910201809148037E
:102E8000807F9F70892B8093020180910201807F57
:102E900090914703892B80935C038091460386BD04
:102EA00082E085BD81E080936103789480915F0327
:102EB00090916003009709F0C3C080913403909112
:102EC0000803981709F4B8C02091340330E0F901E1
:102ED000A3E0EE0FFF1FAA95E1F7E21BF30BE75FFC
:102EE000FC4FF0936003E0935F03828193819093A2
:102EF0008900809388008081918190935A03809308
:102F00005903448180915B03841781F140935B03F3
:102F100050E085E190E0489FF001499FF00D589FF7
:102F2000F00D1124E356FD4FF0935E03E0935D0333
:102F300081899289A389B489B695A7959795879534
:102F4000E5E3F3E08093350390933603A0933703D2
:102F5000B093380384839583A683B7838087918752
:102F6000A287B38784879587A687B787E0915D039B
:102F7000F0915E0380912E0C908189278093480305
:102F8000D90173E0AA0FBB1F7A95E1F7A21BB30B1F
:102F9000A75FBC4F15962C9181819281A381B4814A
:102FA000022E04C0B695A795979587950A94D2F7F7
:102FB0008093490390934A03A0934B03B0934C032F
:102FC00085819681A781B085022E04C0B695A7950C
:102FD000979587950A94D2F780934D0390934E036B
:102FE000A0934F03B093500381859285A385B48548
:102FF000022E04C0B695A795979587950A94D2F7A7
:103000008093510390935203A0935303B0935403BE
:1030100085859685A785B08904C0B695A7959795AF
:1030200087952A95D2F78093550390935603A093E2
:103030005703B093580304C00E94F416F29AA6C135
:103040000E943832109247038091490390914A03BD
:10305000A0914B03B0914C0320913503309136037E
:103060004091370350913803820F931FA41FB51F5F
:103070008093350390933603A0933703B0933803BE
:10308000E0915D03F0915E0321893289438954897F
:10309000281739074A075B0768F521E020934703A3
:1030A0002189328943895489821B930BA40BB50B68
:1030B0008093350390933603A0933703B09338037E
:1030C00020818091830A9091840AA091850AB09111
:1030D000860A24FF04C00197A109B10903C0019623
:1030E000A11DB11D8093830A9093840AA093850A41
:1030F000B093860A80914D0390914E03A0914F03A7
:10310000B09150032091390330913A0340913B0331
:1031100050913C03820F931FA41FB51F8093390366
:1031200090933A03A0933B03B0933C0321893289E7
:1031300043895489281739074A075B0778F5209196
:1031400047032260209347032189328943895489A8
:10315000821B930BA40BB50B8093390390933A0316
:10316000A0933B03B0933C0320818091870A909108
:10317000880AA091890AB0918A0A25FF04C00197A4
:10318000A109B10903C00196A11DB11D8093870A51
:103190009093880AA093890AB0938A0A8091510378
:1031A00090915203A0915303B091540320913D0399
:1031B00030913E0340913F0350914003820F931F93
:1031C000A41FB51F80933D0390933E03A0933F033C
:1031D000B0934003218932894389548928173907DC
:1031E0004A075B0778F52091470324602093470343
:1031F0002189328943895489821B930BA40BB50B17
:1032000080933D0390933E03A0933F03B09340030C
:10321000208180918B0A90918C0AA0918D0AB091A7
:103220008E0A26FF04C00197A109B10903C00196C7
:10323000A11DB11D80938B0A90938C0AA0938D0AD7
:10324000B0938E0A8091550390915603A091570335
:10325000B0915803209141033091420340914303C0
:1032600050914403820F931FA41FB51F8093410305
:1032700090934203A0934303B0934403218932897E
:1032800043895489281739074A075B0778F5209145
:103290004703286020934703218932894389548951
:1032A000821B930BA40BB50B8093410390934203B5
:1032B000A0934303B0934403208180918F0A90919F
:1032C000900AA091910AB091920A27FF04C0019739
:1032D000A109B10903C00196A11DB11D80938F0AF8
:1032E0009093900AA093910AB093920A89B1909119
:1032F000270A89279091280A8923C1F08095909107
:103300004703892380934703882329F48091290A5E
:1033100081608093290A8091800A857039F4F5993B
:1033200005C00E94FF098EB3806E8EBB8091590349
:1033300090915A03019790935A03809359030097F1
:10334000E1F4E0915F03F091600396818091820A3D
:10335000892B8093820A8EB3892B8EBB10926003D7
:1033600010925F03809134038F5F809334038091C8
:103370003403863011F41092340380912D0C909117
:103380004703892780934703109261031798FF91A1
:10339000EF91BF91AF919F918F917F916F915F91CD
:1033A0004F913F912F910F900BBE0F900FBE0F903A
:1033B0001F9018951F920F920FB60F920BB60F9297
:1033C00011248F939F93EF93FF93E2E0F1E09081BC
:1033D00080912D0C8F70907F892B808315BCFF917D
:1033E000EF919F918F910F900BBE0F900FBE0F909A
:1033F0001F9018951F920F920FB60F9211248F9362
:1034000080915C03809302018F910F900FBE0F900B
:103410001F9018950E94F4168BE2E2E7F2E0DF01BC
:103420001D928A95E9F78CE2E5E3F3E0DF011D9256
:103430008A95E9F71092710210927002109234038B
:103440001092080381E08093330310926103089582
:10345000989A9998A09AA1988FEF87B99091480C63
:1034600098B980930A019091490C892F880F880F91
:10347000892B80930B018AB1807F8AB98BB18F60D1
:103480008BB9809A88980895CF93DF93A1E0B1E03B
:103490008C918F608C93E2E0F1E08081807F90914D
:1034A0002D0C892B8083C4E0D1E088818E638883D2
:1034B0008C91806F8C9380818F7090912E0C892BD2
:1034C0008083E1E8F0E080818F7E80838081886066
:1034D0008083E0E8F0E080818C7F808380818F7042
:1034E0008083EEE6F0E08081887F808314BC15BC89
:1034F0008081816080838081826080830E94281A1D
:10350000DF91CF910895CF93DF93C0917002D09156
:1035100071022097B9F081E08093730220918902B3
:1035200030918A0240918B0250918C02CA01B901FC
:103530000E940B3D6D8B7E8B8F8B988F109271024A
:1035400010927002DF91CF9108952F923F924F9287
:103550005F926F927F928F929F92AF92BF92CF9223
:10356000DF92EF92FF920F931F93DF93CF93CDB72C
:10357000DEB7AE970FB6F894DEBF0FBECDBF8AC7D9
:103580008091700290917102009709F0B2C20E947E
:103590007F286C019093710280937002009709F468
:1035A00080C780917302882319F010927302DDC0E6
:1035B000809172028F5F80937202853011F41092B5
:1035C00072028091720290E025E130E0829FF0016A
:1035D000839FF00D929FF00D1124E356FD4FF09361
:1035E0000703E0930603D6018C91808311962D91F9
:1035F0003D914D915C91149793E0220F331F441F2E
:10360000551F9A95D1F721833283438354831596AE
:103610002D913D914D915C91189783E0220F331FBE
:10362000441F551F8A95D1F72583368347835087DA
:1036300019962D913D914D915C911C9703E0220FBD
:10364000331F441F551F0A95D1F7218732874387BF
:1036500054871D962D913D914D915C91509713E0AB
:10366000220F331F441F551F1A95D1F72587368720
:103670004787508B51966D917D918D919C91549778
:103680009B01AC01A3E0220F331F441F551FAA95D5
:10369000D1F7218B328B438B548B0E946D3B60930F
:1036A0007402709375028093760290937702F6010C
:1036B00021A532A543A554A50E94D43A7B018C01D3
:1036C000762F272F3F2D402F512F209378023093B4
:1036D000790240937A0250937B0260E070E080EAC6
:1036E0009FE30E94D43A60937C0270937D028093A2
:1036F0007E0290937F0280E090E0DC018093800264
:1037000090938102A0938202B09383028091800AF9
:103710008032E1F420919102309192024091930223
:10372000509194022093890230938A0240938B0235
:1037300050938C02CA01B9010E940B3DD6015596E7
:103740006D937D938D939C9358970FC0F601658977
:1037500076898789908D0E94983D60938902709345
:103760008A0280938B0290938C0280E090E0DC01CF
:103770008093850290938602A0938702B09388027B
:10378000D6019596ED90FD900D911C91989760E073
:1037900070E080E09FE3A80197010E94D43A69831A
:1037A0007B838C839D838091800A803209F05EC088
:1037B000B2E0B0938402F60161A472A483A494A43D
:1037C000258836884788508C3C81832FA20191013F
:1037D0000E940B3D9B01AC01C401B3010E94F3396F
:1037E000D62EC72EB82EA92EA6019501652F742FAF
:1037F000832F922F20E030E0A9010E94CD3A87FF6D
:103800001BC0C801B701A80197010E94F439A401A7
:1038100093010E940B3D9B01AC01C201B1010E94CA
:10382000F3390E94983D60939102709392028093C5
:103830009302909394025DC1A6019501852F942F68
:10384000A32FB22F8093850290938602A0938702C4
:10385000B093880280E090E0DC0180939102909325
:103860009202A0939302B093940243C110928402F7
:10387000F60181A592A5A3A5B4A580939502909386
:103880009602A0939702B09398020E9496285B013B
:103890006C016093910270939202809393029093D3
:1038A0009402A60195010E940B3D6E837F838B8756
:1038B0009C87209170023091710238A72FA3D90103
:1038C00099966D907D908D909C909C9755962D909B
:1038D0003D904D905C905897C201B101BE81AF817F
:1038E0001B850C852B2F3A2F412F502F0E94F33927
:1038F0009B01AC01B981AB811C810D816B2F7A2FAB
:10390000812F902F0E940B3D9B01AC01C401B3019C
:103910000E94F43920E030E040E05FE30E940B3D7C
:10392000F62E072F182FE92E20E030E0A9010E9483
:10393000D03C18160CF0CAC06F2D702F812F9E2D11
:10394000A40193010E94CD3A87FFACC0EFA1F8A576
:10395000A1A0B2A0C3A0D4A0C601B501BE81AF8111
:103960009B848C842B2F3A2F492D582D0E94F3399C
:103970009B01AC01B981AB819C808D806B2F7A2F2C
:10398000892D982D0E940B3D262F372F482F592F18
:103990002093990230939A0240939B0250939C0289
:1039A0002F2D302F412F5E2D0E94CD3A87FF3FC033
:1039B000C601B5010E94983D60938D0270938E02FE
:1039C00080938F0290939002C201B101A6019501EC
:1039D0000E94CD3A882321F4F1E0F093840289C05B
:1039E000C601B501A20191010E94F3399B01AC010E
:1039F000B981AB811C810D816B2F7A2F812F902F84
:103A00000E940B3D9B01AC01609195027091960262
:103A100080919702909198020E94F33960939502E9
:103A200070939602809397029093980262C08F2DB4
:103A3000902FA12FBE2D8093950290939602A09374
:103A40009702B09398028093990290939A02A09360
:103A50009B02B0939C02AFA1B8A595962D913D9184
:103A60004D915C919897CA01B9010E94F4392F2DAC
:103A7000302F412F5E2D0E940B3DBE81AF811B85F3
:103A80000C852B2F3A2F412F502F0E94F4390E9482
:103A9000983D60938D0270938E0280938F02909375
:103AA000900227C0B2E0B093840280918902909185
:103AB0008A02A0918B02B0918C0280938D02909328
:103AC0008E02A0938F02B093900213C080E090E02A
:103AD000DC018093950290939602A0939702B09395
:103AE0009802A0928D02B0928E02C0928F02D09264
:103AF000900280910803A82FB0E0BA83A983FD014A
:103B000053E0EE0FFF1F5A95E1F7EA1BFB0BE75F4F
:103B1000FC4F8091720284836090700270907102F9
:103B2000F30101A512A5F3A4D4A4602F712F8F2D4A
:103B30009D2D20917C0230917D0240917E0250911A
:103B40007F020E94F3396F8F78A389A39AA320E0A4
:103B500030E0A9010E94CD3A87FF04C01F8E18A251
:103B600019A21AA2F0919502FF8720919602288B44
:103B700030919702398B609198026A8B80918D0207
:103B80008B8B90918E029C8BA0918F02AD8BB0910C
:103B90009002BE8BE0919902EF8BF0919A02F88F20
:103BA00020919B02298F30919C023A8F609185026F
:103BB0006B8F809186028C8F909187029D8FA09150
:103BC0008802AE8F8091910290919202A09193020F
:103BD000B09194028FA398A7A9A7BAA79090890241
:103BE00040908A0230908B0220908C029091840247
:103BF0009B834AE0E42E30EEC32E2EE1B22E99E3F1
:103C0000A92E1B861C861D861E86AAE0AC83B0EEFC
:103C1000BD83EEE1EE83F9E3FF837EA66DA6592C0A
:103C20002B81222321F0213009F005C1B2C095017A
:103C30006E2D7C2D832F9A2DADA5BEA595962D9129
:103C40003D914D915C9198970E940B3D962E872E49
:103C5000782E692EA4019301652F742F832F922F44
:103C600020E030E040E05FE30E940B3D9B01AC01AF
:103C7000D201F1016B2F742D8F2F922D0E94F439F8
:103C80009B01AC01F5016E2D7C2D8F2F9A2D0E948A
:103C90000B3D9B01AC01602F712F8F2D9D2D0E943C
:103CA000F3398B01F82ED92E712FBF85A889E989A8
:103CB000EBA3FA89FCA32B2F3A2FAF010E94CD3A38
:103CC00087FF54C0ADA5BEA599966D917D918D914C
:103CD0009C919C97BF85A88919890A892B2F3A2F17
:103CE000412F502F0E94F3399B01AC010E94F439FF
:103CF0007B018C01A2019101652F742D832F922DE0
:103D0000BB89AC89DD88CE882B2F3A2F4D2D5C2DB9
:103D10000E94F4399B01AC01C801B7010E94D43A5A
:103D2000E62EC72EB82EA92E5F85488939892A89A3
:103D3000652F742F832F922FBF89A88D198D0A8D1F
:103D40002B2F3A2F412F502F0E94CD3A882319F064
:103D5000B1E0BB8302C0E2E0EB835B884C883D8826
:103D60002E880F851889F988DA8812C1A20191017D
:103D7000652F742D832F922DD401F3012B2F3A2F11
:103D80004F2F5E2F0E94F439562E472E382E292EA3
:103D9000FFC05B894C893D892E89652F742F832F45
:103DA000922FF5012E2D3C2D4F2F5A2D0E940B3DA9
:103DB0009B01AC01602F712F8F2D9D2D0E94F33937
:103DC000962E872E782E692EA4019301652F742FCD
:103DD000832F922FAF89F88DFBA3298D2CA3BA8D49
:103DE0002A2F3F2F4CA15B2F0E94CD3A87FFCCC0DA
:103DF000602F712F8F2D9D2DBF89A88D198D0A8D54
:103E00002B2F3A2F412F502F0E94F339BB89AC89B9
:103E10001D890E892B2F3A2F412F502F0E94D43A03
:103E2000E62EC72EB82EA92E0F89188DF98CDA8CA4
:103E300032E03B83ADC095016E2D7C2D832F9A2DF2
:103E4000ADA5BEA595962D913D914D915C9198970C
:103E50000E940B3D6BA37CA38DA39EA3A2019101A5
:103E6000652F742D832F922DBBA1ACA19DA08EA098
:103E70002B2F3A2F492D582D0E94D03C18160CF0AC
:103E800054C05BA14CA19401652F742F832F922FF6
:103E900020E030E040E05FE30E940B3D9B01AC017D
:103EA000D201F1016B2F742D8F2F922D0E94F339C7
:103EB0009B01AC01F5016E2D7C2D8F2F9A2D0E9458
:103EC0000B3D9B01AC01602F712F8F2D9D2D0E940A
:103ED000F339962E872E782E692EA4019301652F33
:103EE000742F832F922FBB8DAC8DED8DEBA7FE8DA4
:103EF000FCA72B2F3A2FAF010E94D03C1816ACF430
:103F0000A2019101652F742D832F922DBBA1ACA12D
:103F10001DA10EA12B2F3A2F412F502F0E94F339B4
:103F2000562E472E382E292E2FC0602F712F8F2D01
:103F30009D2DBB8DAC8D1D8D0E8D2B2F3A2F412FBE
:103F4000502F0E94F3399B01AC010E94F4397B0190
:103F50008C01A2019101652F742D832F922D2FA129
:103F600038A549A55AA50E94F4399B01AC01C801A6
:103F7000B7010E94D43AE62EC72EB82EA92E0B8D7B
:103F80001C8DFD8CDE8C04C0092D182DF72CD62C31
:103F90005B854C853D852E85652F742F832F922F51
:103FA000F5012E2D3C2D4F2F5A2D0E94F439762EDF
:103FB000672E4C016B877C878D879E86A301652FBA
:103FC000742F992DBC81AD81EE80CF802B2F3A2F9D
:103FD0004E2D5C2D0E94CD3A87FF0AC05C814D8139
:103FE000652F742F8E2D9C2DD301E82CC92C39C040
:103FF000602F712F8F2D9D2DBF8DA8A1E9A0CAA084
:104000002B2F3A2F4E2D5C2D0E94D03C18169CF081
:10401000E82CC92C9101852D942DA32FB22D8093CE
:10402000890290938A02A0938B02B0938C022B8119
:104030002093840245C05C814D813E812F81652F94
:10404000742F832F922F2AE030EE4EE159E30E9425
:10405000F4396C837D838E839F83BB85AC85ED842F
:10406000CE842B2F3A2F4E2D5C2D0E94F339E62E55
:10407000C72EB82EA92E602F712F8F2D9D2DBB8D91
:10408000AC8D3D8D3BA3EE8DECA32B2F3A2F4BA196
:104090005E2F0E94D03C18160CF4C2CDE82CC92C1F
:1040A0009101852D942DA32FB22D80938902909399
:1040B0008A02A0938B02B0938C02FB81F09384025E
:1040C000209078023090790240907A0250907B02E2
:1040D000C201B101202F312F4F2D5D2D0E940B3DCC
:1040E0006B837C838D839E830E94BA3A4B015C0173
:1040F00060917402709175028091760290917702BE
:104100000E94BA3A6F83788789879A87A5019401BC
:104110000E94F3390E94413BE981FA8183E0EE0F6E
:10412000FF1F8A95E1F729813A81E21BF30BE75FD4
:10413000FC4F718360836115710551F58091800A90
:10414000803231F56501540180E090E0DC0180931C
:10415000890290938A02A0938B02B0938C02809381
:10416000800290938102A0938202B0938302A09276
:104170007402B0927502C0927602D09277020091DA
:10418000700210917102C601B501A20191016DC1C9
:10419000A301652F762D8E2D9C2D209180023091CC
:1041A000810240918202509183020E94F4392B01D6
:1041B0003C016F81788589859A85BB81AC81ED80D2
:1041C000CE802B2F3A2F4E2D5C2D0E94F3399B0170
:1041D000AC01C301B2010E94D43AE62EC72E782E5C
:1041E000692EC501B401BB81AC815D804E802B2F4F
:1041F0003A2F452D542D0E94F339F3012E2D3C2DDD
:104200004F2F5E2F0E940B3D6093800270938102BE
:10421000809382029093830293016E2D7C2D832FD5
:10422000922F20EC31EE44E65EE40E940B3D0E94AA
:10423000BA3A0E94413B9B01AC01DA01C901803DC1
:10424000E7E09E07E0E0AE07E0E0BE0780F44981CA
:104250005A81B3E0440F551FBA95E1F729813A819D
:10426000421B530B475F5C4FFA01158262C0203A34
:10427000FFE03F07F0E04F07F0E05F0780F4E981DF
:10428000FA81A3E0EE0FFF1FAA95E1F789819A81D9
:10429000E81BF90BE75FFC4F91E0958321C0698132
:1042A0007A81E3E0660F771FEA95E1F72034AFE10A
:1042B0003A07A0E04A07A0E05A0740F4E981FA81F2
:1042C0006E1B7F0B675F7C4FE2E007C089819A819C
:1042D000681B790B675F7C4FE3E0DB011596EC937D
:1042E000E981FA8163E0EE0FFF1F6A95E1F78981AA
:1042F0009A81E81BF90BE75FFC4F6581DA01C90180
:10430000062E04C0B695A795979587950A94D2F77F
:104310002081318102C0220F331F6A95E2F7318379
:104320002083803020E0920721E0A20720E0B2073E
:1043300088F449815A8123E0440F551F2A95E1F7FB
:10434000E981FA814E1B5F0B475F5C4FFA01938353
:10435000828304C02FEF3FEF3383228380913303A6
:10436000809308038F5F80933303863011F410929B
:104370003303602F712F8F2D9D2D20918502309159
:10438000860240918702509188020E94D03C698148
:104390007A81B3E0660F771FBA95E1F718163CF5FE
:1043A000E0917002F0917102802F912FAF2DBD2D01
:1043B00081A792A7A3A7B4A75B814C813D812E81E1
:1043C000852F942FA32FB22F8093740290937502A0
:1043D000A0937602B093770289819A81681B790B4A
:1043E000675F7C4FDB0116961C92169753C0E981DC
:1043F000FA816E1B7F0B675F7C4FE1E0DB01169655
:10440000EC93602F712F8F2D9D2D20E030E0A901BE
:104410000E94D03C1816C4F56501540180E090E07C
:10442000DC01E5E8F2E084839583A683B78380937B
:10443000800290938102A0938202B0938302A092A3
:104440007402B0927502C0927602D0927702009107
:10445000700210917102C601B5012091780230916D
:10446000790240917A0250917B020E94D43AD8019D
:1044700099966D937D938D939C939C970E94A72C06
:1044800088E08093800A0DC0109271021092700231
:104490000E946B289091340380913303981709F0A0
:1044A0006FC8AE960FB6F894DEBF0FBECDBFCF91EA
:1044B000DF911F910F91FF90EF90DF90CF90BF9011
:1044C000AF909F908F907F906F905F904F903F90B4
:1044D0002F900895F999FECF92BD81BD81E08FBBE9
:1044E00080B50895F894F999FECF92BD81BD81E021
:1044F0008FBB40B54627842F992787FD9095262F9F
:1045000030E082239323009739F06F3F19F060BDAC
:1045100084E006C084E104C0442321F060BD84E24D
:104520008FBBF99A789408958F929F92AF92BF9221
:10453000CF92DF92EF92FF920F931F93DF93CF936F
:104540000F92CDB7DEB75C016B017A014A0120E022
:104550001BC0222341F4332727FD30952227330F38
:10456000221F332702C021E030E0F60161916F0184
:10457000260F8C010F5F1F4F29830E94722208941F
:1045800081089108C80129818114910411F7C7019C
:104590008A0D9B1D622F0E9472220F90CF91DF9196
:1045A0001F910F91FF90EF90DF90CF90BF90AF9051
:1045B0009F908F9008959F92AF92BF92CF92DF927B
:1045C000EF92FF920F931F93CF93DF936C01EB0158
:1045D0007A018A01CB0199241BC05C010894A11CBB
:1045E000B11C0E946A22992049F4292D332727FD06
:1045F00030952227330F221F332702C021E030E0FD
:10460000982E920EF60181936F0101501040C50162
:104610000115110511F7C7018C0F9D1F0E946A2219
:1046200021E030E0981611F020E030E0C901DF9180
:10463000CF911F910F91FF90EF90DF90CF90BF909F
:10464000AF909F90089597E4899FC00111248050F6
:104650009D4F46E450E00E9494220895BC0180EEF4
:1046600093E046E450E00E949422089591E1899FEE
:10467000C001112480509E4F40E150E00E949422DE
:10468000089580E090E067E40E94722281E090E06B
:104690006CEE7BE04EE550E00E949422089580E0AD
:1046A00090E0A8ECB3E48093EC0B9093ED0BA09317
:1046B000EE0BB093EF0B8093F00B9093F10BA09364
:1046C000F20BB093F30B8093F40B9093F50BA09344
:1046D000F60BB093F70B8093F80B9093F90BA09324
:1046E000FA0BB093FB0B2FE020932C0C20E030E072
:1046F0004AE754E42093FC0B3093FD0B4093FE0BF0
:104700005093FF0B2093000C3093010C4093020C4C
:104710005093030C2093040C3093050C4093060C2B
:104720005093070C8093080C9093090CA0930A0CEB
:10473000B0930B0C80E090EAACE0B7E480930C0CF3
:1047400090930D0CA0930E0CB0930F0C8093100C53
:104750009093110CA093120CB093130C8093140C33
:104760009093150CA093160CB093170C80E090EC6E
:10477000A8EAB6E48093180C9093190CA0931A0C35
:10478000B0931B0C8FE692E1A3E0BBE38093340C63
:104790009093350CA093360CB093370C10922D0CDF
:1047A00010922E0C8AE097EDA3EABCE38093300CC4
:1047B0009093310CA093320CB093330C82E580932C
:1047C000380C1092390C80E090E0A0E2B1E48093C4
:1047D0003A0C90933B0CA0933C0CB0933D0C80E0C2
:1047E00090E0A0EAB1E480933E0C90933F0CA0933C
:1047F000400CB093410C8AEF90E09093430C80936F
:10480000420C80E090E0A0E8BFE38093440C9093DA
:10481000450CA093460CB093470C89E180932F0C74
:1048200080E090E0A8E4B2EC80931C0C90931D0C07
:10483000A0931E0CB0931F0C8093200C9093210C1E
:10484000A093220CB093230C8093240C9093250CFE
:10485000A093260CB093270C8093280C9093290CDE
:10486000A0932A0CB0932B0C1092480C1092490C78
:104870000E94412308951F93CF93DF93182FEB01DC
:1048800067E4869FB001112460507D4FCE0146E45D
:1048900050E00E94DB22009739F41882812FBE017C
:1048A0000E94232380E001C081E0DF91CF911F911E
:1048B0000895CF93DF93EC0160EE73E046E450E09F
:1048C0000E94DB22009731F41882CE010E942E2331
:1048D00080E001C081E0DF91CF910895FF920F93B6
:1048E0001F93F82E8B0121E1829F9001112420500B
:1048F0003E4FCB01B90140E150E00E94DB2200971E
:1049000059F480E1D8011D928A95E9F78F2DB801FD
:104910000E94362380E001C081E01F910F91FF903B
:10492000089580E090E00E946A22873459F48CEE6A
:104930009BE061E070E04EE550E00E94DB2221E068
:10494000009709F420E0822F0895EF92FF920F93D1
:104950001F93CF93DF93EC017A018B01CB01BA0156
:1049600020E030E0A9010E94CD3A87FDBFC1C432EA
:10497000D10508F0BDC1FE01EE58FF4FEE0FFF1F3D
:104980000590F491E02D1994CC0FDD1FCC0FDD1FA5
:10499000C451D44FE882F9820A831B83A3C1E092F9
:1049A000FC0BF092FD0B0093FE0B1093FF0B9AC1D2
:1049B000E092000CF092010C0093020C1093030C97
:1049C00091C1E092040CF092050C0093060C109338
:1049D000070C88C1E092080CF092090C00930A0CB5
:1049E00010930B0C7FC1C801B70120E030E040E715
:1049F00052E40E940B3D20E030E040E752E40E9488
:104A00000B3D60930C0C70930D0C80930E0C9093E7
:104A10000F0C68C1C801B70120E030E040E752E464
:104A20000E940B3D20E030E040E752E40E940B3D45
:104A30006093100C7093110C8093120C9093130CD4
:104A400051C1C801B70120E030E040E752E40E94C4
:104A50000B3D20E030E040E752E40E940B3D6093C4
:104A6000140C7093150C8093160C9093170C3AC18C
:104A7000C801B70120E030E040E752E40E940B3D5E
:104A800020E030E040E752E40E940B3D6093180CB8
:104A90007093190C80931A0C90931B0C23C117FB75
:104AA000109517F91095E0921C0CF0921D0C0093D4
:104AB0001E0C10931F0C16C117FB109517F91095BB
:104AC000E092200CF092210C0093220C1093230C06
:104AD00009C117FB109517F91095E092240CF0927C
:104AE000250C0093260C1093270CFCC017FB109587
:104AF00017F91095E092280CF092290C00932A0CDB
:104B000010932B0CEFC0C801B70120E030E040E467
:104B100050E40E94CD3A87FDEDC0C801B7010E9464
:104B20006E3D0E94413B60932C0CDCC0C801B70174
:104B30000E94D93D0E94413B60932D0CD3C0C80117
:104B4000B7010E94D93D0E94413B60932E0CCAC020
:104B5000C801B7010E946E3D0E94413B60932F0C3B
:104B6000C1C0E89417F9E092300CF092310C009338
:104B7000320C1093330CB6C0E092340CF092350C2A
:104B80000093360C1093370CADC0C801B70120E07C
:104B900030E0A9010E94CD3A9091380C882311F0A1
:104BA00091600EC09E7F0CC0C801B70120E030E0CC
:104BB000A9010E94CD3A9091380C882321F092608F
:104BC0009093380C8FC09D7FFBCFC801B70120E0C8
:104BD00030E0A9010E94CD3A9091380C882311F061
:104BE0009460EECF9B7FECCFC801B70120E030E0AE
:104BF000A9010E94CD3A9091380C882311F090645D
:104C0000DFCF9F7BDDCFC801B70120E030E0A901F5
:104C10000E94CD3A9091380C882321F094FF6CC00B
:104C20009062CECF9F7DCCCFC801B70120E030E0AD
:104C3000A9010E94CD3A9091380C882311F0986018
:104C400001C0977F9093380C0E94C92D4BC0C801BA
:104C5000B70120E030E0A9010E94CD3A9091380CD4
:104C6000882311F09061ACCF9F7CAACFC801B70117
:104C70000E94D93D0E94413B6093390C33C0E092C1
:104C80003A0CF0923B0C00933C0C10933D0C2AC064
:104C9000E0923E0CF0923F0C0093400C1093410CBC
:104CA00021C0C801B7010E946E3D0E94413B709334
:104CB000430C6093420C16C0E092440CF092450CF9
:104CC0000093460C1093470C0DC0C801B7010E9419
:104CD000413B6093480C06C0C801B7010E94413BAC
:104CE0006093490C0E94412380E007C084E005C026
:104CF00083E003C086E001C08AE0DF91CF911F917D
:104D00000F91FF90EF900895FF920F931F93DF9301
:104D1000CF93CDB7DEB760970FB6F894DEBF0FBE66
:104D2000CDBF0E949124882339F487E00E944D3240
:104D30000E944F230E940933FF248E010F5F1F4FF3
:104D40008F2DB8010E946E24882319F487E00E94F9
:104D50004D32F3948F2D883099F760960FB6F89402
:104D6000DEBF0FBECDBFCF91DF911F910F91FF909E
:104D700008952F923F924F925F926F927F928F92FF
:104D80009F92AF92BF92CF92DF92EF92FF920F93DA
:104D90001F93DF93CF9300D0CDB7DEB7109164039C
:104DA000112309F414E21150C09063031C1509F497
:104DB0006BC1A12EBB248FE290E0A89E7001A99E3A
:104DC000F00CB89EF00C112445E653E0E40EF51EFD
:104DD000F7017996D70159969C9059976180828006
:104DE000738095962D913D914D915C919897CA0154
:104DF000B9010E94F439F70121A532A543A554A5B4
:104E00000E940B3DE62E072FF82ED92E692D762D08
:104E1000882D972D2E2D302F4F2D5D2D0E94CD3AB0
:104E200087FF04C0E92C062DF82CD72C8FE290E0E8
:104E3000A89EF001A99EF00DB89EF00D1124EB592B
:104E4000FC4F8E2D902FAF2DBD2D858B968BA78B74
:104E5000B08F112309F414E211501C1589F08FE270
:104E600090E0A89E7001A99EF00CB89EF00C112451
:104E700045E653E0E40EF51E9FE2492E512C70C02A
:104E800080916203C81609F070C00E94831A6DC039
:104E9000C12EDD24C49C3001C59C700CD49C700CC8
:104EA000112485E693E0680E791E112309F414E2BB
:104EB000115080916203181711F40E94831AC49C48
:104EC0001001C59C300CD49C300C1124A5E6B3E035
:104ED0002A0E3B1EF101A18CB28CC38CD48C658947
:104EE00076898789908DA60195010E94CD3A882305
:104EF000B1F1D10195962D913D914D915C9198978D
:104F0000CA01B9010E94F439F10121A532A543A5D6
:104F100054A50E940B3DD70155962D913D914D9181
:104F20005C9158970E94F439062FF72EE82E992E9F
:104F3000A60195010E94CD3A87FF0AC0802F9F2DC0
:104F4000AE2DB92DF101858B968BA78BB08F07C045
:104F5000D1015596AD92BD92CD92DC9258977301D6
:104F600080916303181709F093CF00916303202FFA
:104F700030E08FE290E0289FF001299FF00D389FEC
:104F8000F00D1124EB59FC4FFB83EA83102F1F5FB8
:104F9000143209F410E0F0916403F9838FE2282EB3
:104FA000312C6CC0412E5524429C7001439CF00C66
:104FB000529CF00C112445E653E0E40EF51EAA8144
:104FC000BB815596AD90BD90CD90DC905897F70180
:104FD000658876888788908CC601B501A401930105
:104FE0000E94CD3A87FF2EC0AA81BB8195962D9154
:104FF0003D914D915C919897CA01B9010E94F43995
:10500000EA81FB8121A532A543A554A50E940B3D51
:105010009B01AC01C601B5010E94F439D62EA72E22
:10502000C82EB92EA40193010E94CD3A87FF0AC071
:105030008D2D9A2DAC2DBB2DF701858B968BA78BD3
:10504000B08F012F429CF001439CF00D529CF00D5B
:105050001124EB59FC4F658976898789908D218DC4
:10506000328D438D548D0E94CD3A882309F4012F4F
:105070001F5F143209F410E0FB82EA82F9811F17E6
:1050800009F090CF009363030F900F900F90CF9192
:10509000DF911F910F91FF90EF90DF90CF90BF9025
:1050A000AF909F908F907F906F905F904F903F90C8
:1050B0002F90089584E2E1E0FAE0DF011D928A95E5
:1050C000E9F7109262031092640381E08093250A4D
:1050D000109263030895909162038091640389178D
:1050E00069F0892F8F5F843209F480E02091630397
:1050F000921711F4809363038093620308954091A3
:10510000620380916403841769F050E08FE290E0BD
:10511000489F9001499F300D589F300D11242B5905
:105120003C4F02C020E030E0C901089520916203A5
:105130002F5F243209F420E080916403281799F04E
:1051400030E08FE290E0289FF001299FF00D389F1A
:10515000F00D1124EB59FC4F658976898789908D74
:105160000E94983D04C060E070E080E090E0089507
:1051700081E0209162039091250A291380E008952F
:105180002F923F924F925F926F927F928F929F9257
:10519000AF92BF92CF92DF92EF92FF920F931F9345
:1051A000DF93CF93CDB7DEB7EE970FB6F894DEBF9F
:1051B0000FBECDBF942E852E562E472E2DAB20919F
:1051C0006403422F50E05AA349A32FE230E0429FEC
:1051D000B001439F700D529F700D1124FB01EB59DC
:1051E000FC4F118A128A138A148A20E030E0A90148
:1051F00021A732A743A754A7108229E936E746E939
:105200005EE725A336A347A350A716A705A7282F17
:10521000392F3CA72BA78CEE9BE09EA38DA39E016C
:105220002F5F3F4F3EA72DA741E05AE058AB4FA755
:105230008B010A591C4FCE0141969CA38BA39AABBC
:1052400089AB33247F017196FCABEBAB79E2672E1F
:10525000712C6E0C7F1C5701EBA5FCA5619171911F
:1052600081919191FCA7EBA7EDA1FEA12191319134
:1052700041915191FEA3EDA32FA338A749A75AA7A7
:105280000E940B3D0E94DB3C9B01AC01EDA5FEA5FD
:105290002193319341935193FEA7EDA7EFA5F8A970
:1052A00081919191A191B191F8ABEFA7281B390B96
:1052B0004A0B5B0BDA01C90157FF07C08827992702
:1052C000DC01821B930BA40BB50BF8018083918347
:1052D000A283B3830C5F1F4FEBA9FCA9C080D180D0
:1052E000E280F3808C159D05AE05BF0510F4D70153
:1052F000C601EBA9FCA980839183A283B383CA0171
:10530000B9010E946F3B2FA138A549A55AA50E945B
:10531000D43AF62EE72ED82EC92E862F9E2DAD2DEF
:10532000BC2DE9A9FAA981939193A193B193FAAB0A
:10533000E9ABA7019601652F742F832F922F20E0F0
:1053400030E0A9010E94CD3A87FF08C0F501208016
:10535000832D0E94712D8229F5018083A70196017A
:10536000652F7E2D832F9C2DD701F6012B2F3E2DEF
:105370004F2F5C2D0E940B3DF30120813181428132
:1053800053810E94F439262F372F482F592FF301CC
:1053900020833183428353833394F32DF43009F017
:1053A0005BCF0E94983DF301608371838283938376
:1053B000F501218932894389548985A596A521154E
:1053C00031054105510551F490680E94A2398130A0
:1053D00009F063C28093820AF09A5FC20E94A239E8
:1053E000A4019201652F782D832F942D20E030E0C9
:1053F000A9010E94CD3A87FD15C0FDA9FF23D1F078
:10540000F3016081718182819381D401F2012B2F9C
:10541000382D4F2F542D0E94D43A962E872E582E79
:10542000492E08C069E9962E56E7852E46E9542E86
:105430003EE7432E8FE290E029A13AA1289F800108
:10544000299F100D389F100D11240B591C4F60E03F
:1054500070E080E89FE3F80121A532A543A554A59B
:105460000E94D43A69AF7AAF8BAF9CAF21E13AE0AA
:105470003EA32DA32CEF622E2BE0722EAE014F5DCA
:105480005F4F5EAF4DAF1FA21BA61DA61FA60B5DF3
:105490001F4FEBA1FCA1C080D180E280F380C70147
:1054A000B60120E030E0A9010E94CD3A882309F43A
:1054B000A0C0C701B601B9ADAAADFBADECAD2B2FB5
:1054C0003A2F4F2F5E2F0E940B3D362E7EAB8FABB7
:1054D00098AF472F382F292F862F942FA32FB22F25
:1054E000EBA1FCA180839183A283B38360E070E091
:1054F00080E89FE3F901232D342F4F2F5E2F0E9468
:10550000D43A6B017C01E894F7F8C701B601F301C6
:1055100020813181428153810E940B3D262E79AB3F
:105520008BAB9DABA4019201652F782D832F942D19
:10553000A9A9FBA9EDA9222D3A2F4F2F5E2F0E947A
:10554000CD3A87FF04C0292C89AA5BAA4DAAF8018D
:10555000B080A18092808380C701B601F3012089C9
:105560003189428953890E940B3DF62EE72ED82EB1
:10557000C92EA5019401652F742F832F922FD70177
:10558000F6012B2F3A2F4F2F5E2F0E94CD3A87FF27
:1055900002C075016401A7019601852F9E2DA32FDE
:1055A000BC2DF80180839183A283B3834EA93FA9C8
:1055B00028AD632D742F832F922FEDA1FEA12081A2
:1055C0003181428153810E940B3D9B01AC01BFA1FF
:1055D000ABA5FDA5EFA56B2F7A2F8F2F9E2F0E94D5
:1055E000F3396FA37BA78DA79FA7922C89A85BA8EF
:1055F0004DA82BA13CA12C5F3F4F3CA32BA34DA159
:105600005EA14C5F5F4F5EA34DA384E090E0680E07
:10561000791EEDADFEAD2E173F0709F03ACF909100
:105620006403809162039817A9F48FE290E029A1A6
:105630003AA1289FF001299FF00D389FF00D112409
:10564000EB59FC4F80E090E0DC01858B968BA78BBB
:10565000B08F67C060E070E080E89FE3BFA1ABA5BA
:10566000FDA5EFA52B2F3A2F4F2F5E2F0E94F33968
:1056700020E030E040E05FE30E940B3D0E94983D57
:105680007B018C018FE290E049A15AA1489FF00173
:10569000499FF00D589FF00D1124EB59FC4F65A167
:1056A00076A187A190A52091300C3091310C4091CA
:1056B000320C5091330C0E940B3DA80197010E94BF
:1056C0000B3D5B016C0160E070E080E89FE3A801A6
:1056D00097010E94F3399B01AC01C601B5010E94FC
:1056E000D43A7B018C017F2D912F20E030E0A9017D
:1056F0000E94CD3A87FF04C0EE24FF2400E010E0B2
:105700008FE290E029A13AA1289FF001299FF00D96
:10571000389FF00D1124EB59FC4F8E2D9F2DA02F9B
:10572000B12F858F968FA78FB0A3A4019201652F0B
:10573000782D832F942DD401F2012B2F382D4F2F4C
:10574000542D0E940B3DD62EE72E082FC92E8FE236
:1057500090E049A15AA1489FF001499FF00D589F40
:10576000F00D1124EB59FC4F8D2D9E2DA02FBC2D3B
:1057700081A392A3A3A3B4A3DF015D96B58C119678
:10578000AC90119712961C9112971396FC909090E2
:10579000210A8090220A7090230A6090240A5524DE
:1057A00053946D2D7E2D802F9C2DD401F3012B2F32
:1057B0003A2F4F2F5E2F0E94CD3A87FD04C055240B
:1057C000A401930104C05D2D4E2D302F2C2DD50149
:1057D0006B2F7A2D812F9F2DE52FF42FA32FB22F22
:1057E0009F01AD010E94CD3A87FD0AC0552029F0E6
:1057F000BD2CAE2C102FFC2C03C05401172DF62C01
:105800008FE290E029A13AA1289FF001299FF00D95
:10581000389FF00D1124EB59FC4FA501852F9A2DCF
:10582000A12FBF2D818F928FA38FB48FA1E1BAE0FA
:10583000FE01719680E101900D928150E1F78FE2B7
:1058400090E049A15AA1489FF001499FF00D589F4F
:10585000F00D1124EB59FC4F81A192A1A3A1B4A199
:105860008093210A9093220AA093230AB093240ADA
:10587000A1E0BAE0FE01319680E101900D928150E5
:10588000E1F78091250A809364038F5F843209F4E5
:1058900080E08093250A0E94B926EE960FB6F89410
:1058A000DEBF0FBECDBFCF91DF911F910F91FF9053
:1058B000EF90DF90CF90BF90AF909F908F907F90B0
:1058C0006F905F904F903F902F9008958091830A42
:1058D0009091840AA091850AB091860A8093010A6A
:1058E0009093020AA093030AB093040A8091870A56
:1058F0009091880AA091890AB0918A0A8093050A3A
:105900009093060AA093070AB093080A80918B0A25
:1059100090918C0AA0918D0AB0918E0A8093090A09
:1059200090930A0AA0930B0AB0930C0A80918F0AF5
:105930009091900AA091910AB091920A80930D0AD9
:1059400090930E0AA0930F0AB093100A08950E9434
:10595000831A80916203809363030E94B92608959D
:105960006F927F928F929F92AF92BF92CF92DF926F
:10597000EF92FF920F931F93CF93DF933C014B0164
:105980005A01FB018081F301E80FF11DEF0129911C
:105990002D3221F42181219601E005C02B3211F432
:1059A0002181219600E0F0E0E0E010E060E070E0AE
:1059B000CB01A22FA053AA30F8F4EF5FE930C0F476
:1059C000F11111509B01AC01B2E0220F331F441FB3
:1059D000551FBA95D1F7620F731F841F951F660F6D
:1059E000771F881F991F6A0F711D811D911D09C0A6
:1059F000FF2339F41F5F05C0AE3F29F4FF2319F4DC
:105A0000F1E02991D6CFEE2309F450C00E946D3BFE
:105A1000C62ED72EE82EF92E20E030E0A9010E94F4
:105A2000CD3A882371F431C0C701B6012AE037EDC1
:105A300043E25CE30E940B3DC62ED72EE82EF92EE2
:105A40001E5F1F3F8CF31F3F79F46C2D7D2D8E2D33
:105A50009F2D2DEC3CEC4CEC5DE30E940B3DC62EE3
:105A6000D72EE82EF92E11C0112379F0C701B60107
:105A700020E030E040E251E40E940B3DC62ED72EDC
:105A8000E82EF92E115011168CF3002321F0F7FAAD
:105A9000F094F7F8F094F501C082D182E282F382AB
:105AA00060946C0EF401608281E001C080E0DF91BF
:105AB000CF911F910F91FF90EF90DF90CF90BF900B
:105AC000AF909F908F907F906F90089507C0EFE9FF
:105AD000FFE03197F1F700C0000001970097B9F798
