:100000000C94D5040C94652E0C94F6040C94F60410
:100010000C94F6040C94F6040C94F6040C94F60478
:100020000C94F6040C94F6040C94F6040C94F60468
:100030000C947D2E0C94F6040C94F6040C94F604A7
:100040000C94F6040C946C170C94F6040C94F604BF
:100050000C94F6040C944E1A0C94F6040C942E1A7C
:100060000C94F6040C94A8150C9466150C94F604E4
:100070000C94F6040C94F6040C94F6040C94F60418
:100080000C94F6040C94F6040C94F6040C94F60408
:100090000C94F6040C94F6040C94F6040C94F604F8
:1000A0000C94F6040C94F6040C94F6040C94F604E8
:1000B0000C94F6040C94F6040C94F6040C94F604D8
:1000C0000C94F6040C94F6040C94F6040C94F604C8
:1000D0000C94F6040C94F6040C94F6040C94F604B8
:1000E0000C94F60422252225222522252D253625AD
:1000F0003F254825512568257F259625AD25BA251C
:10010000C725D425E125F425FD2506260F261A2628
:1001100023263226432652266126722685269426D9
:100120009D26A626AF26BA26C326CA26084AD73B4E
:100130003BCE016E84BCBFFDC12F3D6C74319ABDB6
:1001400056833DDA3D00C77F11BED9E4BB4C3E91DA
:100150006BAAAABE000000803F05A84CCDB2D44EC9
:10016000B93836A9020C50B9918688083CA6AAAACB
:100170002ABE000000803F290A0D0028003E0D0A1B
:10018000002C4C6E3A002C0057506F733A002C0034
:100190002C4D506F733A003C436865636B003C41E3
:1001A0006C61726D003C486F6D65003C486F6C641B
:1001B000003C52756E003C5175657565003C4964A4
:1001C0006C65007D0A0D0020283A00292C20632848
:1001D0003A0020283A007B7A3A20007D0A0D002C54
:1001E00020763A007B653A005D0D0A005B302E39BF
:1001F000652C204A756C2032322032303134203167
:10020000303A30323A303520284B65794D6520320E
:1002100035363029203A000D0A003D00244E005D9D
:100220000D0A00204600205400204D3800204D3992
:1002300000204D3500204D3400204D3300204D323C
:1002400000204D3100204D30002047393400204738
:1002500039330020473931002047393000204732F8
:1002600030002047323100204736360020473230F8
:100270000020473231002047313900204731380013
:1002800020473137002047005B473830005B473359
:10029000005B4732005B4731005B4730005D0D0A71
:1002A000005B544C4F3A005D0D0A002C005B47394F
:1002B000323A005D0D0A002C003A0033300032382B
:1002C000005B47005D0D0A002C005B5052423A0073
:1002D0000D0A0020286465636179206D6F64652CC8
:1002E0002028302E2E33292900290D0A2433353DAC
:1002F0000020286D6963726F7374657073203A20F3
:10030000000D0A2433343D002028686F6D696E6744
:100310002070756C6C2D6F66662C206D6D29002029
:1003200028686F6D696E67206465626F756E6365BE
:100330002C206D736563290D0A2433333D0020287A
:10034000686F6D696E67207365656B2C206D6D2F0E
:100350006D696E290D0A2433323D002028686F6DC7
:10036000696E6720666565642C206D6D2F6D696E02
:10037000290D0A2433313D00290D0A2433303D0074
:100380002028686F6D696E672064697220696E76D7
:10039000657274206D61736B3A002028686F6D6917
:1003A0006E67206379636C652C20626F6F6C290D1A
:1003B0000A2432393D00202868617264206C696D1E
:1003C0006974732C20626F6F6C290D0A2432383DDA
:1003D000002028736F6674206C696D6974732C201B
:1003E000626F6F6C290D0A2432373D002028696E38
:1003F00076657274206C696D69742070696E732CF7
:1004000020626F6F6C290D0A2432363D0020286966
:100410006E76657274207374657020656E61626CAF
:10042000652C20626F6F6C290D0A2432353D002047
:10043000286175746F2073746172742C20626F6F01
:100440006C290D0A2432343D0020287265706F72C9
:100450007420696E636865732C20626F6F6C290D60
:100460000A2432333D00202861726320746F6C656A
:1004700072616E63652C206D6D290D0A2432323D48
:100480000020286A756E6374696F6E2064657669F2
:100490006174696F6E2C206D6D290D0A2432313D17
:1004A000002028737465702069646C652064656C35
:1004B00061792C206D736563290D0A2432303D006B
:1004C000290D0A2431393D00202864697220706F9B
:1004D000727420696E76657274206D61736B3A0078
:1004E000290D0A2431383D0020287374657020706E
:1004F0006F727420696E76657274206D61736B3AE9
:10050000002028737465702070756C73652C2075DD
:10051000736563290D0A2431373D00202863206D5F
:1005200061782074726176656C2C206D6D290D0ADE
:100530002431363D0020287A206D61782074726164
:1005400076656C2C206D6D290D0A2431353D002017
:100550002879206D61782074726176656C2C206D2D
:100560006D290D0A2431343D00202878206D6178F2
:100570002074726176656C2C206D6D290D0A243112
:10058000333D0020286320616363656C2C206D6D12
:100590002F7365635E32290D0A2431323D00202815
:1005A0007A20616363656C2C206D6D2F7365635ECB
:1005B00032290D0A2431313D0020287920616363FE
:1005C000656C2C206D6D2F7365635E32290D0A24D6
:1005D00031303D0020287820616363656C2C206DEC
:1005E0006D2F7365635E32290D0A24393D00202882
:1005F00063206D617820726174652C206D6D2F6DA4
:10060000696E290D0A24383D0020287A206D617812
:1006100020726174652C206D6D2F6D696E290D0A35
:1006200024373D00202879206D617820726174653F
:100630002C206D6D2F6D696E290D0A24363D00202A
:100640002878206D617820726174652C206D6D2F83
:100650006D696E290D0A24353D002028632C207316
:100660007465702F6D6D290D0A24343D0020287AA1
:100670002C20737465702F6D6D290D0A24333D0095
:100680002028792C20737465702F6D6D290D0A2434
:10069000323D002028782C20737465702F6D6D29F1
:1006A0000D0A24313D0024303D00242420287669A1
:1006B0006577204772626C2073657474696E677326
:1006C000290D0A242320287669657720232070616C
:1006D00072616D6574657273290D0A24472028764E
:1006E00069657720706172736572207374617465D7
:1006F000290D0A244E20287669657720737461726B
:1007000074757020626C6F636B73290D0A24783DD9
:1007100076616C7565202873617665204772626C1E
:100720002073657474696E67290D0A244E783D6CD8
:10073000696E6520287361766520737461727475C3
:100740007020626C6F636B290D0A24432028636854
:1007500065636B2067636F6465206D6F6465290D49
:100760000A245820286B696C6C20616C61726D20C2
:100770006C6F636B290D0A2448202872756E2068FF
:100780006F6D696E67206379636C65290D0A7E2041
:10079000286379636C65207374617274290D0A2172
:1007A00020286665656420686F6C64290D0A3F2007
:1007B0002863757272656E74207374617475732921
:1007C0000D0A5E20286C696D69742070696E73294A
:1007D0000D0A6374726C2D7820287265736574201D
:1007E0004772626C290D0A000D0A4772626C203054
:1007F0002E3965205B27242720666F722068656C80
:10080000705D0D0A005D0D0A0044697361626C65DC
:100810006400456E61626C65640043617574696F64
:100820006E3A20556E6C6F636B6564002724482711
:100830007C2724582720746F20756E6C6F636B00C3
:10084000526573657420746F20636F6E74696E7582
:1008500065005B000D0A0050726F62652066616979
:100860006C0041626F727420647572696E672063F8
:1008700079636C6500486172642F736F6674206CD5
:10088000696D697400414C41524D3A20000D0A00D7
:10089000496E76616C69642067636F6465204944C2
:1008A0003A00556E646566696E65642066656564C8
:1008B000207261746500556E737570706F72746527
:1008C0006420636F6D6D616E64004D6F64616C20B8
:1008D00067726F75702076696F6C6174696F6E00F6
:1008E0004C696E65206F766572666C6F7700486F35
:1008F0006D696E67206E6F7420656E61626C6564F1
:1009000000416C61726D206C6F636B004E6F7420E0
:1009100069646C6500454550524F4D2072656164B5
:10092000206661696C2E205573696E672064656668
:1009300061756C74730056616C7565203C203320C2
:10094000757365630053657474696E6720646973B9
:1009500061626C65640056616C7565203C203000F6
:10096000496E76616C69642073746174656D656E3F
:100970007400426164206E756D62657220666F72EC
:100980006D617400457870656374656420636F6D94
:100990006D616E64206C6574746572006572726F4F
:1009A000723A20006F6B0D0A000011241FBECFEFBA
:1009B000D1E2DEBFCDBF00E00CBF12E0A0E0B2E0AC
:1009C000E2E9FDE700E00BBF02C007900D92A632FE
:1009D000B107D9F718E0A6E2B2E001C01D92AB382A
:1009E000B107E1F70E94F8040C94C73E0C94000094
:1009F0001F930E9435150E94E2260E94981A0E94B9
:100A0000F23887E2EBEBF6E0DF011D928A95E9F719
:100A10001092E2061092E3061092E4061092E506A8
:100A20001EBA81E08093BB06789411E00E94FA150B
:100A30000E94420A0E942F150E9432150E94162E13
:100A40000E94EE320E94B8280E945E1A0E94B32CC7
:100A50000E94AE0A1092BB061EBA8091790881FFEF
:100A600003C01093BD0602C01092BD060E949716E7
:100A7000DDCF9F92AF92BF92CF92DF92EF92FF9223
:100A80000F931F93CF93DF93EC015A016B01922ECA
:100A90008091790885FF03C0CE010E94DB308091F0
:100AA000BC068230D9F00E94FF158091BB068823D6
:100AB000A9F40E941629882319F00E949216F3CFF8
:100AC000CE01B601A501292D0E941E298091BC06E8
:100AD000882321F488E0EBEBF6E08183DF91CF916E
:100AE0001F910F91FF90EF90DF90CF90BF90AF904C
:100AF0009F9008952F923F924F925F926F927F92B4
:100B00008F929F92AF92BF92CF92DF92EF92FF921D
:100B10000F931F93DF93CF93CDB7DEB7E6970FB652
:100B2000F894DEBF0FBECDBF9E878D87788B6F8711
:100B30002A0109871A872B873C87C98ADA8AEB8AB8
:100B4000FC8AAB8E9924880C991C880C991C880D02
:100B5000991D9D8F8C8F9201280D391D3F8F2E8FEF
:100B6000D901CD90DD90ED90FC90C701B601EC8DE0
:100B7000FD8D20813181428153810E94953A6CA381
:100B80007DA38EA39FA32D960FAD2D9710E0000F90
:100B9000111F000F111F2D853E85200F311F39A316
:100BA00028A3C201800F911F9BA38AA3DC014D9053
:100BB0005D906D907C90C301B201F901208131817B
:100BC000428153810E94953A68A779A78AA79BA77B
:100BD000D701C601B0588D839E83AF83B887D301F8
:100BE000C201B05889839A83AB83BC83EF85F889AF
:100BF000E80DF91D6081718182819381BCA1ADA155
:100C0000FEA1EFA12B2F3A2F4F2F5E2F0E94943A77
:100C1000E62EC72EA82E892EEF85F889E00FF11F4A
:100C20006081718182819381B8A5A9A5FAA5EBA500
:100C30002B2F3A2F4F2F5E2F0E94943AF62E072F1C
:100C4000182F992E6D817E818F8198852F2D302FC1
:100C5000412F592D0E94AC3D2B013C0169817A81C5
:100C60008B819C812E2D3C2D4A2D582D0E94AC3D10
:100C70009B01AC01C301B2010E94943A2B013C01DB
:100C80006D817E818F8198852E2D3C2D4A2D582D8A
:100C90000E94AC3D5B016C0169817A818B819C81F2
:100CA0002F2D302F412F592D0E94AC3D9B01AC01BF
:100CB000C601B5010E94953A9B01AC01C301B20186
:100CC0000E94083BF62E172F882E092F8091E606EA
:100CD0008230B1F46F2D712F882D902F20E030E0FD
:100CE000A9010E94713D87FD24C06F2D712F882DB1
:100CF000902F2BED3FE049EC50E40E94943A15C050
:100D00006F2D712F882D902F20E030E0A9010E94D7
:100D10006E3B181674F06F2D712F882D902F2BEDD0
:100D20003FE049EC50E40E94953AF62E172F882EAA
:100D3000092FA0907508B0907608C0907708D090E1
:100D4000780869857A858B859C859B01AC010E941A
:100D5000953AA60195010E94943A9B01AC01C60107
:100D6000B5010E94AC3D0E94393E5B016C016F2DC4
:100D7000712F882D902F20E030E040E05FE30E944B
:100D8000AC3D29853A854B855C850E94AC3D9F77BB
:100D9000A60195010E94753B0E944B3C0E94E23BDC
:100DA0007A876987DB01109709F4DFC1BB8DBB230C
:100DB000A1F080E090E00E940E3C9B01AC01B9895B
:100DC000AA89FB89EC896B2F7A2F8F2F9E2F0E9487
:100DD000AC3D698B7A8B8B8B9C8B29853A85B901CD
:100DE00080E090E00E940E3C5B016C016F2D712F42
:100DF000882D902FA60195010E94753B6D8B7E8BEF
:100E00008F8B988F2E968FAD2E9790E0880F991F1D
:100E1000880F991FAD85BE85A80FB91FBA8FA98FFE
:100E2000EF85F8898E0F9F1FDC016D917D918D916B
:100E30009C91E98DFA8D20813181428153810E94FC
:100E4000943AA60195010E94753B6BAB7CAB8DABD0
:100E50009EAB5D894E893F89288D652F742F832F26
:100E6000922FDA01F9012B2F3A2F4F2F5E2F0E947C
:100E7000AC3D9B01AC0160E070E080E090E40E943A
:100E8000943AF62E072F182FC92E5D894E893F8977
:100E9000288D652F742F832F922F2BEA3AEA4AE28E
:100EA0005EE30E94AC3D4B015C016F2D702F812FE2
:100EB0009C2D20E030E040E850E40E94953A9B01F0
:100EC000AC01C501B4010E94AC3D6CA77DA78EA703
:100ED0009FA76F2D702F812F9C2D20E030E040E0E8
:100EE0005FE30E94AC3DC62E78AB89AB9AAB8824F9
:100EF00081E0282E312C9C2C32C1F82DF43108F0E1
:100F000063C06D817E818F819885BCA5ADA5FEA54E
:100F1000EFA52B2F3A2F4F2F5E2F0E94AC3D7B0168
:100F20008C0169817A818B819C81A8A9F9A9EAA9A0
:100F3000292D3A2F4F2F5E2F0E94AC3D9B01AC0113
:100F4000C801B7010E94953AD62EC72EA82E492E69
:100F50006D817E818F819885A8A9F9A9EAA9292D9B
:100F60003A2F4F2F5E2F0E94AC3D162F072FF82EE1
:100F7000E92E69817A818B819C81BCA5ADA5FEA5F6
:100F8000EFA52B2F3A2F4F2F5E2F0E94AC3D9B01D8
:100F9000AC01D801F7016B2F7A2F8F2F9E2F0E9463
:100FA000943A262F372F482F592F2D833E834F8376
:100FB00058878394A601852F942FAA2DB42D898359
:100FC0009A83AB83BC8372C0B10180E090E00E9441
:100FD0000E3CBD89AE89FF89E88D2B2F3A2F4F2F0C
:100FE0005E2F0E94AC3D7B018C017F2D912F0E94D2
:100FF000723B69837A838B839C836E2D7F2D802F38
:10100000912F0E942F3E5B016C01AE8DBF8DED9044
:10101000FD900D911C9117FB109517F91095EAA101
:10102000FBA14080518062807380C801B701298193
:101030003A814B815C810E94AC3D6D837E838F83BE
:101040009887C301B201A60195010E94AC3D9B01A6
:10105000AC016D817E818F8198850E94953A262F03
:10106000372F482F592F2D833E834F835887C80130
:10107000B701A60195010E94AC3D7B018C01C30123
:10108000B20129813A814B815C810E94AC3D9B0178
:10109000AC01C801B7010E94943A262F372F482F80
:1010A000592F29833A834B835C8388245CA14DA10B
:1010B0003EA12FA1652F742F832F922F2D813E816A
:1010C0004F8158850E94953AAC8DBD8D6D937D936F
:1010D0008D939C93139758A549A53AA52BA5652FE9
:1010E000742F832F922F29813A814B815C810E943A
:1010F000953AE8A1F9A16083718382839383A98DD6
:10110000BA8D6D917D918D919C91BBA9ACA9FDA9E2
:10111000EEA92B2F3A2F4F2F5E2F0E94953AE98D83
:10112000FA8D60837183828393838D859E85F9898F
:10113000EA893B892C894F2F5E2F632F722F2B8DCD
:101140006296ECACFDAC0EAD1FAD62970E94390506
:101150008091BB068823E1F40894211C311C298569
:101160003A852216330608F4C8CE8F859889F98906
:10117000EA893B892C894F2F5E2F632F722F2B8D8D
:101180006296ECACFDAC0EAD1FAD62970E943905C6
:10119000E6960FB6F894DEBF0FBECDBFCF91DF91BC
:1011A0001F910F91FF90EF90DF90CF90BF90AF9085
:1011B0009F908F907F906F905F904F903F902F9077
:1011C0000895EF92FF920F931F93CF93DF937B01CC
:1011D0008C018091BC06823009F447C0C801B70178
:1011E00020E030E040EA51E40E94AC3D0E944B3CDC
:1011F0000E94E23BEB010E947B16C801B70120E090
:1012000030E04AE754E40E94AC3D7B018C0182E36C
:1012100090E0C89FB001C99F700DD89F700D112438
:1012200080E090E00E940E3C9B01AC01C801B70138
:101230000E94943A0E944B3C0E94E23BDC01CB01AD
:101240000E94B32D10C00E94FF1521978091BB060C
:10125000882359F48FEF90E7A2E081509040A0409E
:10126000E1F700C00000209771F7DF91CF911F9147
:101270000F91FF90EF9008951F93182F84E08093B3
:10128000BC060E94112E812F84700E94AD2E812FEA
:1012900082700E94AD2E812F89700E94AD2E0E9417
:1012A000FF158091BB06882341F40E94AE0A10927C
:1012B000BC060E943D170E94162E1F9108953F9272
:1012C0004F925F926F927F928F929F92AF92BF9256
:1012D000CF92DF92EF92FF920F931F93DF93CF9302
:1012E00000D000D0CDB7DEB7982E892E2A013B0161
:1012F000322E570168018091BC06803111F00E94A6
:1013000092160E947B168091BB06882309F071C05B
:10131000892D982DB301A201232D860175010E940C
:10132000390581E08093E306F19A0E94FF158091D0
:10133000BB06882309F05DC08091BC06882311F0AC
:10134000883099F78091E306883009F4F69A0E9474
:10135000FF158091BB06882309F04BC08EEC96E008
:101360009E838D830DE218E0C401E92EF82CED81F7
:10137000FE816191719181919191FE83ED83F801DC
:1013800021913191419151918F0129833A834B836E
:101390005C830E94103C29813A814B815C810E94D0
:1013A000753BF70161937193819391937F018D81D7
:1013B0009E81E6E08E3D9E07D1F60E94FF150E94B9
:1013C0005E1A0E94B8280E94B32C892D982DB30173
:1013D000A201232D860175010E943905F19A0E9410
:1013E0007B168091BB06882321F40E94AE0A0E94DE
:1013F000CE3526960FB6F894DEBF0FBECDBFCF9187
:10140000DF911F910F91FF90EF90DF90CF90BF90F1
:10141000AF909F908F907F906F905F904F903F9094
:101420000895F4990CC0F49A0E9430150E94331567
:101430008091BC06847319F0F59A0E943D170895B7
:101440000F931F93CF93DF93C9EFD6E00DE517E01D
:101450006991799189919991F80121913191419105
:1014600051918F010E946E3B882331F4F7E0C9301F
:10147000DF0771F781E001C080E0DF91CF911F911C
:101480000F910895AF92BF92CF92DF92EF92FF92A9
:101490000F931F93CF93DF9366EE76E087E4FB0113
:1014A00011928A95E9F780E06D5D7F4F0E94CC2410
:1014B000882319F487E00E94143360E070E080E232
:1014C00091E420912D0830912E0840912F085091E1
:1014D00030080E94753B162F072FF82EE92EC1E326
:1014E000D8E0299139914991599160E070E080E20A
:1014F00091E40E94753BD62EC72EB82EA92EA801C6
:101500009701652F702F832F9E2DD601F5012B2F6C
:101510003A2F4F2F5E2F0E946E3B87FD02C086013F
:101520007501F8E0CD33DF07E1F6A8019701852FBB
:10153000902FA32FBE2D80932D0790932E07A0935D
:101540002F07B0933007DF91CF911F910F91FF903C
:10155000EF90DF90CF90BF90AF900895AF92BF9281
:10156000CF92DF92EF92FF920F931F93CF93DF936F
:10157000CEEBD6E00DE218E089EFE82E86E0F82EFB
:101580006991799189919991F801A190B190C19057
:10159000D1908F010E94103CA60195010E94753BDD
:1015A000F70161937193819391937F01F6E0CE3CB3
:1015B000DF0731F7DF91CF911F910F91FF90EF90EF
:1015C000DF90CF90BF90AF9008952F923F924F92AF
:1015D0005F926F927F928F929F92AF92BF92CF92C3
:1015E000DF92EF92FF920F931F93DF93CF93CDB7CC
:1015F000DEB7E4970FB6F894DEBF0FBECDBF9BA752
:101600008AA7A1E3B7E08CE3FD0111928A95E9F77F
:101610001196E6EEF6E08AE001900D928150E1F736
:101620001982442455241FA21EA21CA6EE24332492
:1016300091E0C92ED12CAA24A39484E0282E05E0A1
:10164000B02E12E0F12EB3C2912F91549A3110F0C6
:101650000C94E7148F5F89838AA59BA5BE016F5FF9
:101660007F4FAE014E5F5F4F0E94FD2C882311F427
:101670000C94E9146A807B808C809D80C401B30146
:101680000E947A3E0E94E23B062F70E0882777FD99
:101690008095982F0E94103C9B01AC01C401B301BE
:1016A0000E94943A20E030E048EC52E40E94AC3DC5
:1016B0000E940F3E0E94E23B173421F01D3409F0D6
:1016C00061C124C10B3209F4ECC00C3200F50431C5
:1016D00070F4013108F0B9C0043009F445C0043099
:1016E00008F48AC00A3011F00C94FB1435C00C3198
:1016F00099F10D3128F4063110F00C94FB14C5C09B
:101700000E3151F1063211F00C94FB1475C0003506
:1017100009F478C0013590F40C3358F4063308F01E
:10172000D3C0013309F4BDC0053311F00C94FB1490
:101730001BC0023411F00C94FB14B0C00C3561F0E6
:101740000D3528F40A3510F40C94FB148CC00F35B9
:1017500010F00C94FB1490C0662331F4332011F088
:101760000C94EB14332433940C31B1F00D3130F47C
:10177000043061F00A3009F0ACC00BC0053349F108
:101780000C3559F10E3109F0A4C015C0A0923107F3
:10179000A0C0F09231079DC0662329F06A3011F095
:1017A0000C94FB1404C0F3E0F093310702C02092C4
:1017B000310780E095C0662329F06A3011F00C945F
:1017C000FB1403C0B0923107F4CF26E02093310719
:1017D000F0CF37E0309331077CC0662329F06A30C0
:1017E00011F00C94FB1404C088E080933107E1CF22
:1017F00099E090933107DDCF332011F00C94EB1476
:10180000B2E03B2E023099F0033030F4002361F057
:10181000013009F060C00BC0063261F0003591F074
:10182000033009F058C003C01092320754C000932F
:10183000320751C0643111F00C94FB14209232072E
:1018400081E04EC0B092320746C0023129F0033128
:1018500031F01092360705C0A092360702C0F09210
:10186000360782E039C00A3519F41092350702C0F4
:10187000A092350783E030C00D3519F4A0923307EC
:1018800002C01092330784E027C0043119F4A092FB
:10189000340702C01092340785E01EC0F09234076E
:1018A000FBCF332011F00C94EB14013319F4109298
:1018B000370706C06A3011F00C94FB14A09237076A
:1018C00086E0A3E03A2E0CC006530093380787E069
:1018D00003C080E001C081E0662311F00C94ED1498
:1018E000D60102C0AA0FBB1F8A95E2F72EA13FA125
:1018F0002A233B232115310511F00C940715EEA185
:10190000FFA1EA2BFB2BFFA3EEA351C1662311F02D
:101910000C94ED14063018F40330D0F40AC00830EB
:1019200010F40C94FB140A3010F10E3111F00C94E9
:10193000FB14023041F00E3131F0002311F00C9411
:10194000FB1481E001C082E0809339070C94FB1402
:10195000043021F0053039F081E001C082E080934D
:101960003B070C94FB1410923B070C94FB140930BA
:1019700029F082E080933A070C94FB1410923A0706
:101980000C94FB141E3409F485C01F34BCF41934C4
:1019900009F44DC01A343CF4133459F1163411F0E3
:1019A0000C94FB1436C01B3409F45FC01B340CF4D8
:1019B0004BC01C3411F00C94FB1468C0143509F4AE
:1019C000D1C015355CF4123509F480C013350CF024
:1019D0008BC0103511F00C94FB146AC0193509F452
:1019E000A1C01A3509F4AEC0183511F00C94FB14DF
:1019F00089C08A819B81AC81BD8180936907909366
:101A00006A07A0936B07B0936C07F8E0EF2A8DE0AC
:101A1000AAC08A819B81AC81BD8180933C07909351
:101A20003D07A0933E07B0933F0780E09CC06092C3
:101A300040077092410780924207909243072CA57D
:101A400021602CA781E08FC08A819B81AC81BD8100
:101A50008093440790934507A0934607B0934707A8
:101A60003CA532603CA782E07EC08A819B81AC812C
:101A7000BD818093480790934907A0934A07B0938C
:101A80004B078CA584608CA783E06DC000934C0746
:101A900084E069C0C401B3010E94DD3B60934D073F
:101AA00070934E0780934F079093500785E05BC07B
:101AB0008A819B81AC81BD818093510790935207AD
:101AC000A0935307B093540786E04DC08A819B8151
:101AD000AC81BD818093550790935607A09357071B
:101AE000B093580787E03FC08A819B81AC81BD815C
:101AF0008093590790935A07A0935B07B0935C07B4
:101B000088E031C08A819B81AC81BD8180935D0773
:101B100090935E07A0935F07B093600791E0E92A76
:101B20008AE021C08A819B81AC81BD81809361075D
:101B300090936207A0936307B0936407A2E0EA2A38
:101B40008BE011C08A819B81AC81BD818093650748
:101B500090936607A0936707B0936807B4E0EB2AF9
:101B60008CE001C089E08601082E02C0000F111F21
:101B70000A94E2F79801242135212115310509F055
:101B80002EC7E1E6F3E002C0F595E7958A95E2F706
:101B9000E0FF0BC06A817B818C819D8120E030E079
:101BA000A9010E946E3B87FD1CC7402A512A8981EA
:101BB000EAA5FBA5E80FF11D1081112309F044CD22
:101BC000EE2021F0332011F4F2E03F2E45FE11C04B
:101BD00080914D0790914E07A0914F07B09150070B
:101BE0008038F6E99F07F8E9AF07F0E0BF070CF08F
:101BF000FAC680913307813051F4232D223011F43D
:101C000040FE01C7809134078230E9F5F4C6809127
:101C1000E7068823C1F540FE26C080913407813055
:101C2000B9F460913C0770913D0780913E07909117
:101C30003F0723E333E34BEC51E40E94AC3D609358
:101C40003C0770933D0780933E0790933F071BC06E
:101C50008230C9F480912D0790912E07A0912F0713
:101C6000B091300708C08091F4069091F506A091DC
:101C7000F606B091F70680933C0790933D07A0933A
:101C80003E07B0933F0750FC10C08091F006909142
:101C9000F106A091F206B091F30680935907909354
:101CA0005A07A0935B07B0935C078091310781309E
:101CB00031F446FE9CC68FEB9FEF4822592280915B
:101CC0003607823088F490E0FC01E050FE4FA0819E
:101CD000AEA7FC01EE5FFD4FB081BFA78C5F9D4FAB
:101CE000FC01F081FCAB05C01CAA22E02FA731E06B
:101CF0003EA760903407662009F441C00DE517E067
:101D0000EDE2CE2EE8E0DE2EAA24BB248E2C992410
:101D1000C4010A2C02C0959587950A94E2F780FFCA
:101D200021C0862D823069F4D8016D917D918D910D
:101D30009C91F60120813181428153810E94753B43
:101D40000BC0F801608171818281938123E333E3C9
:101D50004BEC51E40E94AC3DD8016D937D938D9383
:101D60009C9313970894A11CB11C0C5F1F4FE4E0D7
:101D7000F0E0CE0EDF1EF4E0AF16B10449F6232DDD
:101D8000233041F480913707813021F43E2D3430E7
:101D900009F02BC6DE011696E9E0F7E080E101903C
:101DA0000D928150E1F78EA187FF11C08091380715
:101DB000873008F01EC69091EC06981741F0BE01DE
:101DC0006A5F7F4F0E94CC24882309F416C6F090E6
:101DD00031079F2D923021F0983009F013C1A4C033
:101DE000EE2009F41AC6C20180759070009709F4BC
:101DF000FEC56091510770915207809153079091F1
:101E000054070E947A3E0E94E23B673008F0F1C519
:101E100080914C07843129F0823009F0ECC547FCF1
:101E2000EAC5662319F0862F815002C080913807D9
:101E30008E010A5E1F4FB8010E94CC24882309F44A
:101E4000DCC5F0904C078091290790912A07A0915A
:101E50002B07B0912C078EA39FA3A8A7B9A77DE558
:101E6000A72E77E0B72E69EF662E66E0762ECC249B
:101E7000DD248E2C9924C4010C2C02C095958795E5
:101E80000A94E2F780FF3BC09F2D943171F5D30196
:101E90006D917D918D919C91139790962D913D918F
:101EA0004D915C9193970E94943AF5012081318184
:101EB000428153810E94943A262F372F482F592F61
:101EC000D8012D933D934D935C931397BC2DB23065
:101ED000B1F42EA13FA148A559A50E94943AF8015A
:101EE00060837183828393830AC0F501808191812D
:101EF000A281B381F80180839183A283B383089484
:101F0000C11CD11C0C5F1F4F24E030E0A20EB31E99
:101F1000620E731E34E0C316D10409F0ACCF8FEA11
:101F20009FEF4822592211C1EE2009F476C5809115
:101F3000290790912A07A0912B07B0912C078EA317
:101F40009FA3A8A7B9A70DE517E059EFA52E56E066
:101F5000B52E46E0C42ED12CCC0EDD1E662477248F
:101F60008E2C9924C401062C02C0959587950A945D
:101F7000E2F780FF2CC0D5016D917D918D919C91F0
:101F8000F60120813181428153810E94943AD80127
:101F90002D913D914D915C910E94943A262F372FBF
:101FA000482F592FF8012083318342835383F62D24
:101FB000F230B9F42EA13FA148A559A50E94943A48
:101FC000D8016D937D938D939C9313970AC0F5016F
:101FD00080A191A1A2A1B3A1F80180839183A283E2
:101FE000B3830894611C711C0C5F1F4F24E030E028
:101FF000A20EB31EC20ED31E34E06316710409F0A4
:10200000B1CFA3C0832D833009F487C0EE2009F43B
:1020100084C0209035078091290790912A07A091CC
:102020002B07B0912C078EA39FA3A8A7B9A739EFC0
:10203000A32E36E0B32E0DE517E026E0C22ED12CFC
:10204000CC0EDD1E662477248E2C9924C401062C28
:1020500002C0959587950A94E2F780FD0BC0F501C3
:1020600080819181A281B381F80180839183A283D1
:10207000B38343C0FF2DF73009F43FC0222061F540
:10208000D6016D917D918D919C91F50120A131A199
:1020900042A153A10E94953AD8012D913D914D91B5
:1020A0005C910E94953A262F372F482F592FF8011F
:1020B0002083318342835383F62DF230F1F42EA135
:1020C0003FA148A559A50E94953AD8016D937D93EB
:1020D0008D939C93139711C0F80160817181828167
:1020E0009381D5012D913D914D915C910E94953A3E
:1020F000F80160837183828393830894611C711C4F
:1021000024E030E0A20EB31E0C5F1F4FC20ED31EA0
:1021100034E06316710409F099CF8091310785305E
:1021200031F0873069F0833081F486E001C087E0C8
:10213000BE016A5E7F4F0E94CC24882331F45DC4C7
:1021400080913207823008F05AC41091320715305E
:1021500041F4EE2009F458C2832D813009F051C4B6
:1021600053C2932D923009F04FC21123E1F06091D8
:102170003C0770913D0780913E0790913F0720E01A
:1021800030E0A9010E946E3B882309F43CC414305E
:1021900030F4123060F4113009F036C204C014304B
:1021A00009F032C223C2EE2009F42DC22DC2EE2066
:1021B00009F433C4BEA5AB2FB0E0B9ABA8ABFFA503
:1021C000EF2FF0E0FBABEAAB81E090E08C010FA4D5
:1021D00002C0000F111F0A94E2F70EA402C0880F7C
:1021E000991F0A94E2F7082B192BFF24E022F12211
:1021F000E114F10409F409C4E09034072E2D2230D3
:1022000009F405C4AA0FBB1FAA0FBB1FA35AB84FDE
:10221000E8A9F9A9EE0FFF1FEE0FFF1FEA51F94FD2
:102220006D917D918D919C91238934894589568941
:102230000E94943A662E972E882E792EAAA9BBA9C1
:10224000AA0FBB1FAA0FBB1FA35AB84FEAA9FBA92D
:10225000EE0FFF1FEE0FFF1FEA51F94F6D917D91B9
:102260008D919C9123893489458956890E94943A9D
:10227000262E7EA38AA79DA747FE01C10E94200AA1
:10228000882309F0CCC33E2D3130B1F4609155075D
:1022900070915607809157079091580723E333E3D5
:1022A0004BEC51E40E94AC3D609355077093560788
:1022B0008093570790935807E0905507F090560782
:1022C0000091570710915807C801B70120E030E08E
:1022D00040E850E40E94AC3DA80197010E94AC3D4B
:1022E0007B018C01662D792D882D972D262D392D7A
:1022F000482D572D0E94AC3D9B01AC01C801B70190
:102300000E94943A7B018C014EA13AA52DA5622D25
:10231000742F832F922FF901222D342F4F2F5E2FF0
:102320000E94AC3D9B01AC01C801B7010E94943AE8
:102330007B018C017F2D912F20E030E0A9010E94CC
:102340006E3B87FD66C36E2D7F2D802F912F0E94DF
:10235000393E7B018C01662D792D882D972DAEA1FC
:10236000FAA5EDA5222D3A2F4F2F5E2F0E94DF2DCB
:102370009B01AC01C801B70190580E94753BA62E85
:10238000B72EC82ED92E80913207833021F4D7FA88
:10239000D094D7F8D094E0905507F090560700916C
:1023A000570710915807C801B70120E030E0A90194
:1023B0000E946E3B87FF10C0D7FAD094D7F8D09414
:1023C00017FB109517F91095E0925507F0925607F4
:1023D00000935707109358078FE79FEF4822592221
:1023E00008A919A9000F111F000F111F0B5C184F2E
:1023F0004EA13AA52DA5622D742F832F922FA601F1
:1024000095010E94AC3D9B01AC01662D792D882D74
:10241000972D0E94943A20E030E040E05FE30E9474
:10242000AC3DD8011B966D937D938D939C931E9725
:102430000AA91BA9000F111F000F111F0B5C184FD9
:10244000662D792D882D972DA60195010E94AC3D12
:102450009B01AC01AEA1FAA5EDA5622D7A2F8F2FBD
:102460009E2F0E94953A20E030E040E05FE30E941A
:10247000AC3DF8016387748785879687C5C0FCA546
:10248000CF2EDD240C211D210115110509F4C3C235
:1024900021EF3FEF422253223E2D313031F500E44F
:1024A00017E0EE24FF24C6010E2C02C095958795F7
:1024B0000A94E2F780FF10C0D8016D917D918D9153
:1024C0009C9123E333E34BEC51E40E94AC3DF801D3
:1024D00060837183828393830894E11CF11C0C5FF9
:1024E0001F4FF4E0EF16F104F1F608A919A9000F47
:1024F000111F000F111F0B5C184F662D792D882DB1
:10250000972DD8011B962D913D914D915C911E9771
:102510000E94943A5B016C01EAA8FBA8EE0CFF1C38
:10252000EE0CFF1CE5E3F7E0EE0EFF1E4EA13AA510
:102530002DA5622D742F832F922FD7011B962D91DD
:102540003D914D915C911E970E94943A9B01AC0184
:10255000C601B5010E94DF2D5B016C01F8016385A6
:10256000748585859685D7011B962D913D914D915A
:102570005C911E970E94DF2D7B018C0160935507B3
:10258000709356078093570790935807C601B5017B
:10259000A80197010E94943A5B016C01E894D7F876
:1025A000C601B5012AE037ED43EA5BE30E94713DC5
:1025B000181654F5C601B50120E030E040E05FE3B5
:1025C0000E94713D18160CF42AC2C801B7012FE60B
:1025D00032E143E85AE30E94AC3D9B01AC01C601E5
:1025E000B5010E94713D18167CF419C2EE2009F461
:1025F00014C20E94200A882309F011C20E94F932F5
:10260000882311F00EC23324C2018E7D9C7F3320BB
:1026100019F0C2018E7D907C009709F004C2809170
:1026200033078093E70680913C0790913D07A09186
:102630003E07B0913F078093F4069093F506A09370
:10264000F606B093F706E0905907F0905A0700910C
:102650005B0710915C076091F0067091F106809124
:10266000F2069091F306A80197010E946E3B882321
:1026700081F0E092F006F092F1060093F2061093DA
:10268000F3068091EF06882321F0B801A7010E948C
:10269000311580913B079091EF06981761F0809378
:1026A000EF064091F0065091F1066091F2067091AC
:1026B000F3060E94311580913A079091EE06981723
:1026C00021F08093EE060E9434158091310781300D
:1026D00051F4609151077091520780915307909186
:1026E00054070E94E108809136078093EA068091A2
:1026F00034078093E806B32DB330D1F480913707C7
:102700008093EB06813049F48091650790916607CC
:10271000A0916707B091680703C080E090E0DC01FA
:102720008093290790932A07A0932B07B0932C0737
:10273000809138079091EC06981759F08093EC0639
:10274000A9E0B7E0FE01369680E101900D9281503C
:10275000E1F7809135078093E90680913107853054
:10276000E9F1863048F48330C9F1843008F067C05D
:10277000823009F07DC00AC0883009F468C0893011
:1027800009F46FC0863009F073C05BC060915107D7
:102790007091520780915307909154070E947A3E9E
:1027A0000E94E23B662319F0F62EFA9402C0F090E4
:1027B000EC068E010A5E1F4F8F2DB8010E949423F4
:1027C0008091EC068F1509F053C0A9E0B7E0F8013D
:1027D00080E101900D928150E1F74AC0332089F0E9
:1027E000E0904D07F0904E0700914F071091500771
:1027F0008DE597E040E050E060E87FEB20E00E944C
:10280000390596E1C92ED12CCC0EDD1EE0904D0786
:10281000F0904E0700914F0710915007C60140E01D
:1028200050E060E87FEB20E00E943905A9EFB6E0B8
:10283000F60180E101900D928150E1F719C086E028
:1028400001C087E069EF76E00E94942311C0A9E1FE
:10285000B7E0EDE5F7E080E101900D928150E1F7FE
:1028600007C080E1E9E1F7E0DF011D928A95E9F711
:10287000809132078093E606853009F494C0B32D29
:10288000B23009F090C0843040F4823088F588235B
:1028900041F0813009F07EC014C0843009F07AC064
:1028A00063C0E0904D07F0904E0700914F071091E4
:1028B00050078DE597E040E050E060E87FEB20E0D6
:1028C00014C04091F4065091F5066091F60670919F
:1028D000F706E0904D07F0904E0700914F071091DA
:1028E00050078DE597E02091E7060E94390552C018
:1028F00000D000D0EDB7FEB731960091550710918A
:1029000056072091570730915807C090F406D09091
:10291000F506E090F606F090F7068FA5ADB7BEB7C6
:1029200011968C939CA9918380914D0790914E07AD
:10293000A0914F07B091500782839383A483B583FE
:1029400089EF96E06DE577E040E457E0A090E70678
:102950008EA40E947A05ADB7BEB716960FB6F8944E
:10296000BEBF0FBEADBF16C04091F4065091F50634
:102970006091F6067091F706E0904D07F0904E07D3
:1029800000914F07109150078DE597E02091E706E1
:102990000E945F09A9EFB6E0EDE5F7E080E1019064
:1029A0000D928150E1F7809139078093ED068823DD
:1029B000E1F10E947B161092BD068091ED068230F7
:1029C00019F40E94110A31C01092ED062EC081E068
:1029D0002DC082E02BC088E129C087E127C089E1B2
:1029E00025C084E023C08BE121C086E21FC08CE1BA
:1029F0001DC08DE11BC084E119C087E017C08EE1C6
:102A000015C08FE113C086E111C080E20FC085E1DF
:102A10000DC082E20BC083E209C08AE107C081E2F7
:102A200005C084E203C085E201C080E0E4960FB6F1
:102A3000F894DEBF0FBECDBFCF91DF911F910F91F4
:102A4000FF90EF90DF90CF90BF90AF909F908F90CE
:102A50007F906F905F904F903F902F9008950895D2
:102A600008950895089508950895E0ECF0E08081B8
:102A70008D7F80831092C50089E18093C400E1ECD2
:102A8000F0E08081806180838081886080838081A4
:102A9000806880830895E09128029E2F9F5F903484
:102AA00029F403C0F49B02C0089590E0209129020C
:102AB0009217C1F3F0E0E351F84F8083909328021E
:102AC0008091C10080628093C10008951F920F928F
:102AD0000FB60F920BB60F9211248F939F93EF9323
:102AE000FF9380912902E82FF0E0E351F84F9081A5
:102AF0009093C6008F5F803409F480E080932902B0
:102B000090912802891729F48091C1008F7D8093CC
:102B1000C100FF91EF919F918F910F900BBE0F908D
:102B20000FBE0F901F90189590912702809126025A
:102B3000891761F0E92FF0E0E359F84F80819F5F3A
:102B4000903809F490E09093270208958FEF08954C
:102B50001F920F920FB60F920BB60F9211242F9364
:102B60003F934F935F936F937F938F939F93AF9315
:102B7000BF93EF93FF938091C6008F3361F0803451
:102B800028F4883181F0813289F40BC08E3529F028
:102B90008E3761F404C0F09A1AC0F79A18C0F19AFF
:102BA00016C0F39A14C00E94110A11C0E0912602C7
:102BB0009E2F9F5F903809F490E020912702921792
:102BC00031F0F0E0E359F84F808390932602FF91B3
:102BD000EF91BF91AF919F918F917F916F915F9195
:102BE0004F913F912F910F900BBE0F900FBE0F9002
:102BF0001F901895809126028093270208951F93B5
:102C0000CF93DF931EB3112309F46BC0C12FD0E023
:102C1000CE01807690700097D1F081E08093BC0661
:102C2000CE0186FF0EC085FF02C08FEF01C08DEF81
:102C30000E947B3381E00E949C33F498F49BFECF8A
:102C400003C08EEF0E947B338EB38F798EBBC4FF9F
:102C500004C081E08093BB064AC0C0FF03C00E944D
:102C6000E037F09817FF06C00E94DC38F7980E9402
:102C7000DC38F798C3FF0EC08091BC06803149F460
:102C800080E28093BC060E94D71A0E94F91A109223
:102C9000BD06F398C1FF18C08091BC0682FD14C028
:102CA000883089F480E18093BC060E94F91A0E9462
:102CB00007178091790881FF04C081E08093BD06E9
:102CC00002C01092BD06F198C2FF0BC00E94DD2821
:102CD000009721F088E08093BC0602C01092BC06E9
:102CE000F2988091BC06847311F00E94F91ADF916A
:102CF000CF911F9108958091BC06803151F481E0FD
:102D00008093BD0606C00E94FF158091BB068823F4
:102D100041F40E94DD280097B1F78091BC06803114
:102D200091F308958091BD068111F19A08950F9352
:102D30001F930E94C6338091BC06813021F482E04B
:102D40000E949C331CC01092BC068AE292E00E9452
:102D5000F43815C08A3011F08D3031F5E12FF0E0F4
:102D6000E65DFD4F10820E94FF158091BB0688230F
:102D700031F480912A02882329F40E94143310E050
:102D800000E035C0843229F48AE292E00E941339CF
:102D9000F4CF8091BC06813011F489E0EECF8AE255
:102DA00092E00E94E50AE9CF002319F08932F9F494
:102DB000E7CF8132E0F08F32D1F08832B9F01534AC
:102DC00028F08BE00E94143310E011C0982F915628
:102DD000212F30E01F5F9A3120F4265D3D4F805255
:102DE00002C0265D3D4FF901808301C001E00E94D1
:102DF00094158F3F09F0AECF0E9492160E94FF15E6
:102E00008091BB06882399F31F910F9108958091BB
:102E1000790882FF04C0809105018E6303C0809110
:102E20000501817C809305018091BC06847121F1AC
:102E300080916F0880935C0380916E0880935B03A0
:102E400020916D0830E040E050E0DA01C9010896B9
:102E5000A11DB11D880F991FAA1FBB1F81958093CB
:102E60005A03220F331F441F551F219527BD809100
:102E70006F00826080936F00089580916F008D7F56
:102E800080936F0080918100887F816080938100B2
:102E900010927503809170088F3F11F4F59B09C063
:102EA0009091BC06943029F090E00E94B32D81E00F
:102EB00001C080E09091790892FF02C091E08927DB
:102EC000882321F0809105018E6303C08091050164
:102ED000817C8093050108951F920F920FB60F9287
:102EE0000BB60F9211242F933F934F935F936F93E1
:102EF0007F938F939F93AF93BF93EF93FF9382B191
:102F0000805882B980917503882309F094C290910A
:102F1000020180915C03807F9F70892B8093020166
:102F200080910201807F90915B03892B80937003D5
:102F300080915A0386BD82E085BD81E08093750350
:102F400078948091730390917403009709F0CFC037
:102F50008091480390911C03981709F4C4C02091F4
:102F6000480330E0F901A3E0EE0FFF1FAA95E1F757
:102F7000E21BF30BE35EFC4FF0937403E0937303E7
:102F800082819381909389008093880080819181D0
:102F900090936E0380936D03448180916F03841737
:102FA000E1F140936F0350E089E190E0489FF00128
:102FB000499FF00D589FF00D1124E356FD4FF093FB
:102FC0007203E093710385899689A789B08D8093F8
:102FD000DE069093DF06A093E006B093E1068189B8
:102FE0009289A389B489B695A79597958795E9E4C1
:102FF000F3E08093490390934A03A0934B03B0936B
:103000004C0384839583A683B78380879187A287A7
:10301000B38784879587A687B787E0917103F0917E
:10302000720380916F089081892780935C03D90196
:1030300073E0AA0FBB1F7A95E1F7A21BB30BA35E47
:10304000BC4F15962C9181819281A381B481022E6F
:1030500004C0B695A795979587950A94D2F7809363
:103060005D0390935E03A0935F03B093600385813B
:103070009681A781B085022E04C0B695A795979535
:1030800087950A94D2F78093610390936203A0938B
:103090006303B093640381859285A385B485022E72
:1030A00004C0B695A795979587950A94D2F7809313
:1030B000650390936603A0936703B09368038585C7
:1030C0009685A785B08904C0B695A79597958795ED
:1030D0002A95D2F78093690390936A03A0936B03B8
:1030E000B0936C0304C00E943D17F29AA4C10E94E1
:1030F000FF3210925B0380915D0390915E03A0917B
:103100005F03B09160032091490330914A034091DD
:103110004B0350914C03820F931FA41FB51F809344
:10312000490390934A03A0934B03B0934C03E0915F
:103130007103F091720321893289438954892817D8
:1031400039074A075B0768F521E020935B03218973
:10315000328943895489821B930BA40BB50B80934E
:10316000490390934A03A0934B03B0934C032081EF
:103170008091BE069091BF06A091C006B091C10695
:1031800024FF04C00197A109B10903C00196A11D44
:10319000B11D8093BE069093BF06A093C006B09366
:1031A000C1068091610390916203A0916303B09185
:1031B000640320914D0330914E0340914F03509191
:1031C0005003820F931FA41FB51F80934D0390934C
:1031D0004E03A0934F03B093500321893289438952
:1031E0005489281739074A075B0778F520915B0354
:1031F000226020935B032189328943895489821B91
:10320000930BA40BB50B80934D0390934E03A093A7
:103210004F03B093500320818091C2069091C30662
:10322000A091C406B091C50625FF04C00197A1096D
:10323000B10903C00196A11DB11D8093C2069093F0
:10324000C306A093C406B093C50680916503909110
:103250006603A0916703B0916803209151033091F8
:1032600052034091530350915403820F931FA41FA4
:10327000B51F8093510390935203A0935303B093CF
:1032800054032189328943895489281739074A0709
:103290005B0778F520915B03246020935B03218911
:1032A000328943895489821B930BA40BB50B8093FD
:1032B000510390935203A0935303B093540320817E
:1032C0008091C6069091C706A091C806B091C90624
:1032D00026FF04C00197A109B10903C00196A11DF1
:1032E000B11D8093C6069093C706A093C806B093FD
:1032F000C9068091690390916A03A0916B03B09114
:103300006C0320915503309156034091570350911F
:103310005803820F931FA41FB51F809355039093EA
:103320005603A0935703B0935803218932894389E8
:103330005489281739074A075B0778F520915B0302
:10334000286020935B032189328943895489821B39
:10335000930BA40BB50B8093550390935603A09346
:103360005703B093580320818091CA069091CB06F1
:10337000A091CC06B091CD0627FF04C00197A1090A
:10338000B10903C00196A11DB11D8093CA06909397
:10339000CB06A093CC06B093CD0689B19091AF0631
:1033A00089279091B0068923C1F0809590915B03A5
:1033B000892380935B03882329F48091B10681607F
:1033C0008093B1068091BC06857039F4F59905C0EB
:1033D0000E94110A8EB3806E8EBB80916D03909116
:1033E0006E03019790936E0380936D030097B9F479
:1033F0008EB3E0917303F09174039681892B8EBB99
:103400001092740310927303809148038F5F80932E
:10341000480380914803863011F41092480380914C
:103420006E0890915B03892780935B03109275036C
:1034300082B1805882B9FF91EF91BF91AF919F9176
:103440008F917F916F915F914F913F912F910F904D
:103450000BBE0F900FBE0F901F9018951F920F92EA
:103460000FB60F920BB60F9211248F939F93EF9389
:10347000FF93E2E0F1E0908180916E088F70907F81
:10348000892B808315BCFF91EF919F918F910F90B5
:103490000BBE0F900FBE0F901F9018951F920F92AA
:1034A0000FB60F9211248F938091700380930201C5
:1034B0008F910F900FBE0F901F9018950E943D178F
:1034C0008BE2E2E7F2E0DF011D928A95E9F78CE2F8
:1034D000E9E4F3E0DF011D928A95E9F710927102A9
:1034E000109270021092480310921C0381E08093A6
:1034F0004703109275030895989A9998A09AA198F5
:103500008FEF87B99091890898B980930A019091BB
:103510008A08892F880F880F892B80930B018AB125
:10352000807F8AB98BB18F608BB9809A8898089513
:10353000CF93DF93A1E0B1E08C918F608C93E2E0B8
:10354000F1E08081807F90916E08892B8083C4E0B8
:10355000D1E088818E6388838C91806F8C93808189
:103560008F7090916F08892B8083E1E8F0E0808173
:103570008F7E8083808188608083E0E8F0E08081B6
:103580008C7F808380818F708083EEE6F0E0808185
:10359000887F808314BC15BC80818160808380819A
:1035A000826080830E947C1ADF91CF910895CF932F
:1035B000DF93C0917002D09171022097B9F081E041
:1035C000809373022091890230918A0240918B028C
:1035D00050918C02CA01B9010E94AC3D6D8B7E8B6B
:1035E0008F8B988F1092710210927002DF91CF91A1
:1035F00008952F923F924F925F926F927F928F9297
:103600009F92AF92BF92CF92DF92EF92FF920F9371
:103610001F93DF93CF93CDB7DEB7AE970FB6F89475
:10362000DEBF0FBECDBF94C7809170029091710232
:10363000009709F0BCC20E94DD286C0190937102D2
:1036400080937002009709F48AC7809173028823DF
:1036500019F010927302E7C0809172028F5F80931D
:103660007202853011F4109272028091720290E021
:1036700029E130E0829FF001839FF00D929FF00DD1
:103680001124E356FD4FF0931B03E0931A03D60178
:103690008C9180839D962D913D914D915C91D09719
:1036A000258B368B478B508F11962D913D914D91E7
:1036B0005C91149793E0220F331F441F551F9A9576
:1036C000D1F7218332834383548315962D913D9105
:1036D0004D915C91189783E0220F331F441F551FB3
:1036E0008A95D1F7258336834783508719962D9184
:1036F0003D914D915C911C9703E0220F331F441FB5
:10370000551F0A95D1F721873287438754871D9625
:103710002D913D914D915C91509713E0220F331FF5
:10372000441F551F1A95D1F7258736874787508B39
:1037300051966D917D918D919C9154979B01AC0117
:10374000A3E0220F331F441F551FAA95D1F7218BE9
:10375000328B438B548B0E940E3C609374027093A7
:1037600075028093760290937702F60121A532A527
:1037700043A554A50E94753B7B018C01762F272F12
:103780003F2D402F512F20937802309379024093A0
:103790007A0250937B0260E070E080EA9FE30E942F
:1037A000753B60937C0270937D0280937E029093C0
:1037B0007F0280E090E0DC018093800290938102A0
:1037C000A0938202B09383028091BC068032E1F420
:1037D0002091910230919202409193025091940273
:1037E0002093890230938A0240938B0250938C027B
:1037F000CA01B9010E94AC3DD60155966D937D93E7
:103800008D939C9358970FC0F601658976898789B7
:10381000908D0E94393E6093890270938A02809352
:103820008B0290938C0280E090E0DC018093850213
:1038300090938602A0938702B0938802D601959652
:10384000ED90FD900D911C91989760E070E080E004
:103850009FE3A80197010E94753B69837B838C835A
:103860009D838091BC06803209F05EC0B2E0B093C7
:103870008402F60161A472A483A494A425883688E6
:103880004788508C3C81832FA20191010E94AC3D5E
:103890009B01AC01C401B3010E94943AD62EC72EFD
:1038A000B82EA92EA6019501652F742F832F922F74
:1038B00020E030E0A9010E946E3B87FF1BC0C801D9
:1038C000B701A80197010E94953AA40193010E94B3
:1038D000AC3D9B01AC01C201B1010E94943A0E942F
:1038E000393E609391027093920280939302909379
:1038F00094025DC1A6019501852F942FA32FB22FAD
:103900008093850290938602A0938702B0938802E9
:1039100080E090E0DC018093910290939202A0936A
:103920009302B093940243C110928402F60181A5E0
:1039300092A5A3A5B4A58093950290939602A09317
:103940009702B09398020E94F4285B016C01609387
:103950009102709392028093930290939402A60135
:1039600095010E94AC3D6E837F838B879C8720915D
:1039700070023091710238A72FA3D90199966D90EA
:103980007D908D909C909C9755962D903D904D905C
:103990005C905897C201B101BE81AF811B850C8537
:1039A0002B2F3A2F412F502F0E94943A9B01AC01AC
:1039B000B981AB811C810D816B2F7A2F812F902FC4
:1039C0000E94AC3D9B01AC01C401B3010E94953A39
:1039D00020E030E040E05FE30E94AC3DF62E072F90
:1039E000182FE92E20E030E0A9010E94713D181641
:1039F0000CF0CAC06F2D702F812F9E2DA401930152
:103A00000E946E3B87FFACC0EFA1F8A5A1A0B2A0B9
:103A1000C3A0D4A0C601B501BE81AF819B848C84B4
:103A20002B2F3A2F492D582D0E94943A9B01AC011F
:103A3000B981AB819C808D806B2F7A2F892D982D39
:103A40000E94AC3D262F372F482F592F20939902E3
:103A500030939A0240939B0250939C022F2D302F5B
:103A6000412F5E2D0E946E3B87FF3FC0C601B5010E
:103A70000E94393E60938D0270938E0280938F0274
:103A800090939002C201B101A60195010E946E3B84
:103A9000882321F4F1E0F093840289C0C601B501C6
:103AA000A20191010E94943A9B01AC01B981AB81C2
:103AB0001C810D816B2F7A2F812F902F0E94AC3D9E
:103AC0009B01AC01609195027091960280919702E2
:103AD000909198020E94943A609395027093960296
:103AE000809397029093980262C08F2D902FA12F00
:103AF000BE2D8093950290939602A0939702B09367
:103B000098028093990290939A02A0939B02B0939B
:103B10009C02AFA1B8A595962D913D914D915C91D8
:103B20009897CA01B9010E94953A2F2D302F412F45
:103B30005E2D0E94AC3DBE81AF811B850C852B2F75
:103B40003A2F412F502F0E94953A0E94393E6093A0
:103B50008D0270938E0280938F029093900227C003
:103B6000B2E0B09384028091890290918A02A09180
:103B70008B02B0918C0280938D0290938E02A09361
:103B80008F02B093900213C080E090E0DC0180933C
:103B9000950290939602A0939702B0939802A092F8
:103BA0008D02B0928E02C0928F02D09290028091CC
:103BB0001C03A82FB0E0BA83A983FD0153E0EE0FE8
:103BC000FF1F5A95E1F7EA1BFB0BE35EFC4F809168
:103BD000720284836090700270907102F30101A5FB
:103BE00012A5F3A4D4A4602F712F8F2D9D2D2091A9
:103BF0007C0230917D0240917E0250917F020E94B2
:103C0000943A6F8F78A389A39AA320E030E0A901AA
:103C10000E946E3B87FF04C01F8E18A219A21AA231
:103C2000F0919502FF8720919602288B30919702A0
:103C3000398B609198026A8B80918D028B8B909169
:103C40008E029C8BA0918F02AD8BB0919002BE8BA7
:103C5000E0919902EF8BF0919A02F88F20919B02EC
:103C6000298F30919C023A8F609185026B8F8091F1
:103C700086028C8F909187029D8FA0918802AE8FD3
:103C80008091910290919202A0919302B09194023E
:103C90008FA398A7A9A7BAA79090890240908A02FB
:103CA00030908B0220908C02909184029B834AE09A
:103CB000E42E30EEC32E2EE1B22E99E3A92E1B8600
:103CC0001C861D861E86AAE0AC83B0EEBD83EEE1A5
:103CD000EE83F9E3FF837EA66DA6592C2B81222368
:103CE00021F0213009F005C1B2C095016E2D7C2D67
:103CF000832F9A2DADA5BEA595962D913D914D9101
:103D00005C9198970E94AC3D962E872E782E692E56
:103D1000A4019301652F742F832F922F20E030E0B0
:103D200040E05FE30E94AC3D9B01AC01D201F10198
:103D30006B2F742D8F2F922D0E94953A9B01AC0111
:103D4000F5016E2D7C2D8F2F9A2D0E94AC3D9B018D
:103D5000AC01602F712F8F2D9D2D0E94943A8B0105
:103D6000F82ED92E712FBF85A889E989EBA3FA898E
:103D7000FCA32B2F3A2FAF010E946E3B87FF54C04C
:103D8000ADA5BEA599966D917D918D919C919C97C5
:103D9000BF85A88919890A892B2F3A2F412F502FC7
:103DA0000E94943A9B01AC010E94953A7B018C01E0
:103DB000A2019101652F742D832F922DBB89AC89AF
:103DC000DD88CE882B2F3A2F4D2D5C2D0E94953A01
:103DD0009B01AC01C801B7010E94753BE62EC72EBE
:103DE000B82EA92E5F85488939892A89652F742FB5
:103DF000832F922FBF89A88D198D0A8D2B2F3A2FD3
:103E0000412F502F0E946E3B882319F0B1E0BB83F5
:103E100002C0E2E0EB835B884C883D882E880F85EA
:103E20001889F988DA8812C1A2019101652F742DD1
:103E3000832F922DD401F3012B2F3A2F4F2F5E2F7A
:103E40000E94953A562E472E382E292EFFC05B89A8
:103E50004C893D892E89652F742F832F922FF50170
:103E60002E2D3C2D4F2F5A2D0E94AC3D9B01AC01B5
:103E7000602F712F8F2D9D2D0E94943A962E872EA4
:103E8000782E692EA4019301652F742F832F922F12
:103E9000AF89F88DFBA3298D2CA3BA8D2A2F3F2F34
:103EA0004CA15B2F0E946E3B87FFCCC0602F712F0F
:103EB0008F2D9D2DBF89A88D198D0A8D2B2F3A2FFF
:103EC000412F502F0E94943ABB89AC891D890E89DD
:103ED0002B2F3A2F412F502F0E94753BE62EC72ED5
:103EE000B82EA92E0F89188DF98CDA8C32E03B831D
:103EF000ADC095016E2D7C2D832F9A2DADA5BEA54D
:103F000095962D913D914D915C9198970E94AC3D75
:103F10006BA37CA38DA39EA3A2019101652F742D99
:103F2000832F922DBBA1ACA19DA08EA02B2F3A2F49
:103F3000492D582D0E94713D18160CF054C05BA1FC
:103F40004CA19401652F742F832F922F20E030E035
:103F500040E05FE30E94AC3D9B01AC01D201F10166
:103F60006B2F742D8F2F922D0E94943A9B01AC01E0
:103F7000F5016E2D7C2D8F2F9A2D0E94AC3D9B015B
:103F8000AC01602F712F8F2D9D2D0E94943A962E9B
:103F9000872E782E692EA4019301652F742F832F0D
:103FA000922FBB8DAC8DED8DEBA7FE8DFCA72B2F3B
:103FB0003A2FAF010E94713D1816ACF4A201910195
:103FC000652F742D832F922DBBA1ACA11DA10EA135
:103FD0002B2F3A2F412F502F0E94943A562E472EC6
:103FE000382E292E2FC0602F712F8F2D9D2DBB8D28
:103FF000AC8D1D8D0E8D2B2F3A2F412F502F0E94EF
:10400000943A9B01AC010E94953A7B018C01A2017C
:104010009101652F742D832F922D2FA138A549A5CD
:104020005AA50E94953A9B01AC01C801B7010E94B4
:10403000753BE62EC72EB82EA92E0B8D1C8DFD8C40
:10404000DE8C04C0092D182DF72CD62C5B854C85F1
:104050003D852E85652F742F832F922FF5012E2DF0
:104060003C2D4F2F5A2D0E94953A762E672E4C01EB
:104070006B877C878D879E86A301652F742F992D72
:10408000BC81AD81EE80CF802B2F3A2F4E2D5C2D41
:104090000E946E3B87FF0AC05C814D81652F742FA3
:1040A0008E2D9C2DD301E82CC92C39C0602F712F87
:1040B0008F2D9D2DBF8DA8A1E9A0CAA02B2F3A2F2F
:1040C0004E2D5C2D0E94713D18169CF0E82CC92CD9
:1040D0009101852D942DA32FB22D80938902909369
:1040E0008A02A0938B02B0938C022B8120938402CE
:1040F00045C05C814D813E812F81652F742F832FB8
:10410000922F2AE030EE4EE159E30E94953A6C83FB
:104110007D838E839F83BB85AC85ED84CE842B2FDE
:104120003A2F4E2D5C2D0E94943AE62EC72EB82EC3
:10413000A92E602F712F8F2D9D2DBB8DAC8D3D8DA8
:104140003BA3EE8DECA32B2F3A2F4BA15E2F0E94A9
:10415000713D18160CF4C2CDE82CC92C9101852DA7
:10416000942DA32FB22D8093890290938A02A0935D
:104170008B02B0938C02FB81F09384022090780232
:104180003090790240907A0250907B02C201B101D6
:10419000202F312F4F2D5D2D0E94AC3D6B837C83F2
:1041A0008D839E830E945B3B4B015C016091740296
:1041B0007091750280917602909177020E945B3B2C
:1041C0006F83788789879A87A50194010E94943A22
:1041D0000E94E23BE981FA8183E0EE0FFF1F8A959E
:1041E000E1F729813A81E21BF30BE35EFC4F718317
:1041F00060836115710551F58091BC06803231F5FF
:104200006501540180E090E0DC0180938902909385
:104210008A02A0938B02B0938C02809380029093C9
:104220008102A0938202B0938302A0927402B092A2
:104230007502C0927602D0927702009170021091BE
:104240007102C601B501A20191016DC1A301652FE3
:10425000762D8E2D9C2D20918002309181024091EF
:104260008202509183020E94953A2B013C016F819A
:10427000788589859A85BB81AC81ED80CE802B2F96
:104280003A2F4E2D5C2D0E94943A9B01AC01C30144
:10429000B2010E94753BE62EC72E782E692EC5010D
:1042A000B401BB81AC815D804E802B2F3A2F452D10
:1042B000542D0E94943AF3012E2D3C2D4F2F5E2F4A
:1042C0000E94AC3D609380027093810280938202D1
:1042D0009093830293016E2D7C2D832F922F20ECDF
:1042E00031EE44E65EE40E94AC3D0E945B3B0E94DE
:1042F000E23B9B01AC01DA01C901803DE7E09E078A
:10430000E0E0AE07E0E0BE0780F449815A81B3E007
:10431000440F551FBA95E1F729813A81421B530B8F
:10432000435E5C4FFA01158262C0203AFFE03F070E
:10433000F0E04F07F0E05F0780F4E981FA81A3E045
:10434000EE0FFF1FAA95E1F789819A81E81BF90B0F
:10435000E35EFC4F91E0958321C069817A81E3E0BF
:10436000660F771FEA95E1F72034AFE13A07A0E046
:104370004A07A0E05A0740F4E981FA816E1B7F0BDF
:10438000635E7C4FE2E007C089819A81681B790BEC
:10439000635E7C4FE3E0DB011596EC93E981FA81E3
:1043A00063E0EE0FFF1F6A95E1F789819A81E81BB0
:1043B000F90BE35EFC4F6581DA01C901062E04C0EA
:1043C000B695A795979587950A94D2F72081318164
:1043D00002C0220F331F6A95E2F7318320838030B9
:1043E00020E0920721E0A20720E0B20788F449818B
:1043F0005A8123E0440F551F2A95E1F7E981FA819C
:104400004E1B5F0B435E5C4FFA019383828304C0B3
:104410002FEF3FEF338322838091470380931C0368
:104420008F5F80934703863011F410924703602F0B
:10443000712F8F2D9D2D2091850230918602409104
:104440008702509188020E94713D69817A81B3E0B0
:10445000660F771FBA95E1F718163CF5E0917002E8
:10446000F0917102802F912FAF2DBD2D81A792A7C2
:10447000A3A7B4A75B814C813D812E81852F942F0A
:10448000A32FB22F8093740290937502A0937602AB
:10449000B093770289819A81681B790B635E7C4FA8
:1044A000DB0116961C92169753C0E981FA816E1BA8
:1044B0007F0B635E7C4FE1E0DB011696EC93602F8F
:1044C000712F8F2D9D2D20E030E0A9010E94713DBC
:1044D0001816C4F56501540180E090E0DC01E5E8C0
:1044E000F2E084839583A683B783809380029093C0
:1044F0008102A0938202B0938302A0927402B092D0
:104500007502C0927602D0927702009170021091EB
:104510007102C601B5012091780230917902409173
:104520007A0250917B020E94753BD80199966D9357
:104530007D938D939C939C970E94F42C88E08093AC
:10454000BC060DC010927102109270020E94C92820
:104550009091480380914703981709F065C8AE967B
:104560000FB6F894DEBF0FBECDBFCF91DF911F9184
:104570000F91FF90EF90DF90CF90BF90AF909F9002
:104580008F907F906F905F904F903F902F90089505
:10459000F999FECF92BD81BD81E08FBB80B50895B2
:1045A000F894F999FECF92BD81BD81E08FBB40B5F3
:1045B0004627842F992787FD9095262F30E0822368
:1045C0009323009739F06F3F19F060BD84E006C077
:1045D00084E104C0442321F060BD84E28FBBF99ADA
:1045E000789408958F929F92AF92BF92CF92DF926C
:1045F000EF92FF920F931F93DF93CF930F92CDB75C
:10460000DEB75C016B017A014A0120E01BC0222366
:1046100041F4332727FD30952227330F221F3327FC
:1046200002C021E030E0F60161916F01260F8C019C
:104630000F5F1F4F29830E94D022089481089108A0
:10464000C80129818114910411F7C7018A0D9B1DAE
:10465000622F0E94D0220F90CF91DF911F910F9176
:10466000FF90EF90DF90CF90BF90AF909F908F9092
:1046700008959F92AF92BF92CF92DF92EF92FF92F6
:104680000F931F93CF93DF936C01EB017A018A01A3
:10469000CB0199241BC05C010894A11CB11C0E9491
:1046A000C822992049F4292D332727FD3095222748
:1046B000330F221F332702C021E030E0982E920EE4
:1046C000F60181936F0101501040C50101151105DC
:1046D00011F7C7018C0F9D1F0E94C82221E030E016
:1046E000981611F020E030E0C901DF91CF911F91C1
:1046F0000F91FF90EF90DF90CF90BF90AF909F9081
:10470000089597E4899FC001112480509D4F46E48D
:1047100050E00E94F2220895BC0180EE93E046E44E
:1047200050E00E94F222089591E1899FC001112476
:1047300080509E4F40E150E00E94F222089580E0B8
:1047400090E067E40E94D02281E090E06DE278E0A2
:104750004EE550E00E94F222089580E090E0A8EC3F
:10476000B3E480932D0890932E08A0932F08B09364
:1047700030088093310890933208A0933308B093A7
:1047800034088093350890933608A0933708B09387
:1047900038088093390890933A08A0933B08B09367
:1047A0003C082FE020936D0820E030E04AE754E415
:1047B00020933D0830933E0840933F0850934008B3
:1047C0002093410830934208409343085093440893
:1047D0002093450830934608409347085093480873
:1047E0008093490890934A08A0934B08B0934C08D3
:1047F00080E090EAACE0B7E480934D0890934E08D7
:10480000A0934F08B093500880935108909352089A
:10481000A0935308B093540880935508909356087A
:10482000A0935708B093580880E090ECA8EAB6E44B
:104830008093590890935A08A0935B08B0935C0842
:104840008FE692E1A3E0BBE380937508909376082E
:10485000A0937708B093780810926E0810926F08B2
:104860008AE097EDA3EABCE3809371089093720805
:10487000A0937308B093740882E58093790810922E
:104880007A0880E090E0A0E2B1E480937B08909306
:104890007C08A0937D08B0937E0880E090E0A0EAB9
:1048A000B1E480937F0890938008A0938108B0932F
:1048B00082088AEF90E0909384088093830880E0D8
:1048C00090E0A0E8BFE38093850890938608A093CA
:1048D0008708B093880889E18093700880E090E0B1
:1048E000A8E4B2EC80935D0890935E08A0935F0803
:1048F000B09360088093610890936208A093630866
:10490000B09364088093650890936608A093670845
:10491000B09368088093690890936A08A0936B0825
:10492000B0936C081092890810928A080E949F2305
:1049300008951F93CF93DF93182FEB0167E4869FB1
:10494000B001112460507D4FCE0146E450E00E943A
:104950003923009739F41882812FBE010E948123E8
:1049600080E001C081E0DF91CF911F910895CF9346
:10497000DF93EC0160EE73E046E450E00E943923DF
:10498000009731F41882CE010E948C2380E001C090
:1049900081E0DF91CF910895FF920F931F93F82E3E
:1049A0008B0121E1829F9001112420503E4FCB01C9
:1049B000B90140E150E00E943923009759F480E1A9
:1049C000D8011D928A95E9F78F2DB8010E94942392
:1049D00080E001C081E01F910F91FF90089580E079
:1049E00090E00E94C822873459F48DE298E061E09B
:1049F00070E04EE550E00E94392321E0009709F471
:104A000020E0822F0895EF92FF920F931F93CF9390
:104A1000DF93EC017A018B01CB01BA0120E030E099
:104A2000A9010E946E3B87FDBFC1C432D10508F0C9
:104A3000BDC1FE01EE58FF4FEE0FFF1F0590F49130
:104A4000E02D1994CC0FDD1FCC0FDD1FC35DD74FB8
:104A5000E882F9820A831B83A3C1E0923D08F092A9
:104A60003E0800933F08109340089AC1E092410825
:104A7000F0924208009343081093440891C1E092D9
:104A80004508F0924608009347081093480888C1EB
:104A9000E0924908F0924A0800934B0810934C08A2
:104AA0007FC1C801B70120E030E040E752E40E9436
:104AB000AC3D20E030E040E752E40E94AC3D609322
:104AC0004D0870934E0880934F089093500868C12A
:104AD000C801B70120E030E040E752E40E94AC3D5D
:104AE00020E030E040E752E40E94AC3D6093510882
:104AF00070935208809353089093540851C1C80191
:104B0000B70120E030E040E752E40E94AC3D20E0F5
:104B100030E040E752E40E94AC3D6093550870934A
:104B2000560880935708909358083AC1C801B701B6
:104B300020E030E040E752E40E94AC3D20E030E06D
:104B400040E752E40E94AC3D6093590870935A08C4
:104B500080935B0890935C0823C117FB109517F9AD
:104B60001095E0925D08F0925E0800935F08109344
:104B7000600816C117FB109517F91095E0926108AF
:104B8000F0926208009363081093640809C117FB50
:104B9000109517F91095E0926508F0926608009359
:104BA000670810936808FCC017FB109517F910955B
:104BB000E0926908F0926A0800936B0810936C0801
:104BC000EFC0C801B70120E030E040E450E40E94AB
:104BD0006E3B87FDEDC0C801B7010E940F3E0E94E9
:104BE000E23B60936D08DCC0C801B7010E947A3EC9
:104BF0000E94E23B60936E08D3C0C801B7010E94D7
:104C00007A3E0E94E23B60936F08CAC0C801B701B8
:104C10000E940F3E0E94E23B60937008C1C0E8947E
:104C200017F9E0927108F0927208009373081093DC
:104C30007408B6C0E0927508F09276080093770881
:104C400010937808ADC0C801B70120E030E0A90199
:104C50000E946E3B90917908882311F091600EC0FC
:104C60009E7F0CC0C801B70120E030E0A9010E947E
:104C70006E3B90917908882321F092609093790897
:104C80008FC09D7FFBCFC801B70120E030E0A901B4
:104C90000E946E3B90917908882311F09460EECFCA
:104CA0009B7FECCFC801B70120E030E0A9010E9452
:104CB0006E3B90917908882311F09064DFCF9F7B41
:104CC000DDCFC801B70120E030E0A9010E946E3BB2
:104CD00090917908882321F094FF6CC09062CECF28
:104CE0009F7DCCCFC801B70120E030E0A9010E9430
:104CF0006E3B90917908882311F0986001C0977FEE
:104D0000909379080E94162E4BC0C801B70120E08D
:104D100030E0A9010E946E3B90917908882311F040
:104D20009061ACCF9F7CAACFC801B7010E947A3EA8
:104D30000E94E23B60937A0833C0E0927B08F092D5
:104D40007C0800937D0810937E082AC0E0927F08BB
:104D5000F0928008009381081093820821C0C80156
:104D6000B7010E940F3E0E94E23B7093840860935B
:104D7000830816C0E0928508F092860800938708A1
:104D8000109388080DC0C801B7010E94E23B6093F0
:104D9000890806C0C801B7010E94E23B60938A08F7
:104DA0000E949F2380E007C084E005C083E003C029
:104DB00086E001C08AE0DF91CF911F910F91FF90B3
:104DC000EF900895FF920F931F93DF93CF93CDB78A
:104DD000DEB760970FB6F894DEBF0FBECDBF0E945E
:104DE000EF24882339F487E00E9414330E94AD2316
:104DF0000E94D033FF248E010F5F1F4F8F2DB8010B
:104E00000E94CC24882319F487E00E941433F39481
:104E10008F2D883099F760960FB6F894DEBF0FBEDD
:104E2000CDBFCF91DF911F910F91FF9008952F92E9
:104E30003F924F925F926F927F928F929F92AF922A
:104E4000BF92CF92DF92EF92FF920F931F93DF9367
:104E5000CF9300D0CDB7DEB710917803112309F4BA
:104E600010E11150C09077031C1509F46BC1A12EFD
:104E7000BB2481E390E0A89E7001A99EF00CB89E2F
:104E8000F00C112449E753E0E40EF51EF701799682
:104E9000D70159969C90599761808280738095962E
:104EA0002D913D914D915C919897CA01B9010E9455
:104EB000953AF70121A532A543A554A50E94AC3D22
:104EC000E62E072FF82ED92E692D762D882D972DB9
:104ED0002E2D302F4F2D5D2D0E946E3B87FF04C07D
:104EE000E92C062DF82CD72C81E390E0A89EF00148
:104EF000A99EF00DB89EF00D1124E758FC4F8E2DA1
:104F0000902FAF2DBD2D858B968BA78BB08F112346
:104F100009F410E111501C1589F081E390E0A89E7E
:104F20007001A99EF00CB89EF00C112449E753E0E3
:104F3000E40EF51E91E3492E512C70C0809176034A
:104F4000C81609F070C00E94D71A6DC0C12EDD24AA
:104F5000C49C3001C59C700CD49C700C112489E752
:104F600093E0680E791E112309F410E1115080912D
:104F70007603181711F40E94D71AC49C1001C59C1F
:104F8000300CD49C300C1124A9E7B3E02A0E3B1E50
:104F9000F101A18CB28CC38CD48C65897689878908
:104FA000908DA60195010E946E3B8823B1F1D1013D
:104FB00095962D913D914D915C919897CA01B901BB
:104FC0000E94953AF10121A532A543A554A50E945E
:104FD000AC3DD70155962D913D914D915C915897DF
:104FE0000E94953A062FF72EE82E992EA6019501DC
:104FF0000E946E3B87FF0AC0802F9F2DAE2DB92DDA
:10500000F101858B968BA78BB08F07C0D101559688
:10501000AD92BD92CD92DC92589773018091770347
:10502000181709F093CF00917703202F30E081E328
:1050300090E0289FF001299FF00D389FF00D11247A
:10504000E758FC4FFB83EA83102F1F5F103109F4F0
:1050500010E0F0917803F98381E3282E312C6CC0A5
:10506000412E5524429C7001439CF00C529CF00C44
:10507000112449E753E0E40EF51EAA81BB81559641
:10508000AD90BD90CD90DC905897F70165887688FB
:105090008788908CC601B501A40193010E946E3BE4
:1050A00087FF2EC0AA81BB8195962D913D914D9190
:1050B0005C919897CA01B9010E94953AEA81FB81F7
:1050C00021A532A543A554A50E94AC3D9B01AC018E
:1050D000C601B5010E94953AD62EA72EC82EB92E2C
:1050E000A40193010E946E3B87FF0AC08D2D9A2D6B
:1050F000AC2DBB2DF701858B968BA78BB08F012F25
:10510000429CF001439CF00D529CF00D1124E75895
:10511000FC4F658976898789908D218D328D438DED
:10512000548D0E946E3B882309F4012F1F5F1031BC
:1051300009F410E0FB82EA82F9811F1709F090CF91
:10514000009377030F900F900F90CF91DF911F91F5
:105150000F91FF90EF90DF90CF90BF90AF909F9016
:105160008F907F906F905F904F903F902F90089519
:1051700084E2E9E8F6E0DF011D928A95E9F71092F2
:1051800076031092780381E08093AD061092770346
:1051900008959091760380917803891769F0892F9B
:1051A0008F5F803109F480E020917703921711F42A
:1051B00080937703809376030895409176038091DE
:1051C0007803841769F050E081E390E0489F9001F4
:1051D000499F300D589F300D112427583C4F02C075
:1051E00020E030E0C9010895209176032F5F20313F
:1051F00009F420E080917803281799F030E081E3EA
:1052000090E0289FF001299FF00D389FF00D1124A8
:10521000E758FC4F658976898789908D0E94393ED1
:1052200004C060E070E080E090E0089581E02091AB
:1052300076039091AD06291380E008952F923F9256
:105240004F925F926F927F928F929F92AF92BF9296
:10525000CF92DF92EF92FF920F931F93DF93CF9342
:10526000CDB7DEB7E9970FB6F894DEBF0FBECDBF5E
:10527000942E852E672E29AB670178012091780343
:10528000422F50E05AA349A321E330E0429F80011E
:10529000439F100D529F100D1124F801E758FC4F49
:1052A000118A128A138A148A20E030E0A90121A70A
:1052B00032A743A754A7108229E936E746E95EE7FB
:1052C00025A336A347A350A7C5A6D6A6E7A6F0AA4E
:1052D000282F392F38A72FA38DE298E09EA38DA306
:1052E0009E012F5F3F4F3AA729A749E856E05CA7E8
:1052F0004BA706581C4FCE0141969CA38BA39EA79B
:105300008DA755245F017196F8ABEFA779E2272EA0
:10531000312C2A0C3B1C9AAA8BAA6CAB462CEFA111
:10532000F8A56191719181919191F8A7EFA3EDA1F9
:10533000FEA16190719081909190FEA3EDA3A401D4
:1053400093010E94AC3D0E947C3D9B01AC01E9A50C
:10535000FAA52193319341935193FAA7E9A7EBA5BD
:10536000FCA581919191A191B191FCA7EBA7281B7C
:10537000390B4A0B5B0BDA01C90157FF07C08827BD
:105380009927DC01821B930BA40BB50BF8018083DA
:105390009183A283B3830C5F1F4FEFA5F8A9C08050
:1053A000D180E280F3808C159D05AE05BF0510F419
:1053B000D701C601EFA5F8A980839183A283B383A7
:1053C000CA01B9010E94103CA40193010E94753BDF
:1053D000F62EE72ED82EC92E862F9E2DAD2DBC2D54
:1053E000EDA5FEA581939193A193B193FEA7EDA79F
:1053F000A7019601652F742F832F922F20E030E0B4
:10540000A9010E946E3B87FF08C0F5019080852DA1
:105410000E94BE2D8929F5018083A7019601652F81
:105420007E2D832F9C2DD701F6012B2F3E2D4F2F44
:105430005C2D0E94AC3DF10120813181428153817C
:105440000E94953A262F372F482F592FF10120839C
:105450003183428353835394F52DF43009F05FCFA9
:105460009AA88BA87CA8642C0E94393E7B018C01F1
:10547000F1016083718382839383F501818992892D
:10548000A389B4890097A105B10511F4F09A52C21D
:10549000A4019301652F742F832F922F20E030E019
:1054A000A9010E946E3B87FD12C0F9A9FF23B9F044
:1054B000C801B701D401F3012B2F3A2F4F2F5E2FD4
:1054C0000E94753B962E872E782E692E08C069E9BA
:1054D000962E56E7852E46E9742E3EE7632E60E051
:1054E00070E080E89FE3A80197010E94753B6CABD8
:1054F0007DAB8EAB9FAB29E936E03EA32DA32DE318
:10550000A22E28E0B22EAE014F5D5F4F59AF48AFDB
:105510001FA219A61BA61DA681E390E0E9A1FAA18E
:10552000E89F8001E99F100DF89F100D112402568D
:105530001C4FEBA1FCA1C080D180E280F380C701A9
:10554000B60120E030E0A9010E946E3B882309F4F7
:105550009EC0C701B601BCA9ADA9FEA9EFA92B2F1A
:105560003A2F4F2F5E2F0E94AC3D562E79AB8AAB5F
:105570009BAB472F382F292F862F942FA32FB22F85
:10558000EBA1FCA180839183A283B38360E070E0F0
:1055900080E89FE3F901252D342F4F2F5E2F0E94C5
:1055A000753B6B017C01E894F7F8C701B601F50182
:1055B00020813181428153810E94AC3D462E372E9D
:1055C000282E9FA7A4019301652F782D832F962D58
:1055D000EFA5242D332D422D5E2F0E946E3B87FFB9
:1055E00004C0492C382C272C6FA6F80190808180AC
:1055F00072806380C701B601F50120893189428933
:1056000053890E94AC3DF62EE72ED82EC92EA40158
:105610009301652F742F832F922FD701F6012B2F23
:105620003A2F4F2F5E2F0E946E3B87FF02C07401FE
:105630006301A7019601852F9E2DA32FBC2DF80194
:1056400080839183A283B38349A93AA92BA9652DAD
:10565000742F832F922FEDA1FEA1208131814281F1
:1056600053810E94AC3D9B01AC01BFA1A9A5FBA544
:10567000EDA56B2F7A2F8F2F9E2F0E94943A6FA348
:1056800079A78BA79DA7942C832C722C6FA42BA198
:105690003CA12C5F3F4F3CA32BA34DA15EA14C5FCF
:1056A0005F4F5EA34DA384E090E0A80EB91EE8AD65
:1056B000F9AD2E173F0709F03CCF90917803809108
:1056C00076039817A9F481E390E029A13AA1289FD5
:1056D000F001299FF00D389FF00D1124E758FC4F81
:1056E00080E090E0DC01858B968BA78BB08F67C044
:1056F00060E070E080E89FE3BFA1A9A5FBA5EDA550
:105700002B2F3A2F4F2F5E2F0E94943A20E030E04B
:1057100040E05FE30E94AC3D0E94393E7B018C017A
:1057200081E390E049A15AA1489FF001499FF00D03
:10573000589FF00D1124E758FC4F65A176A187A171
:1057400090A5209171083091720840917308509192
:1057500074080E94AC3DA80197010E94AC3D5B011A
:105760006C0160E070E080E89FE3A80197010E946F
:10577000943A9B01AC01C601B5010E94753B7B01C7
:105780008C017F2D912F20E030E0A9010E946E3B1B
:1057900087FF04C0EE24FF2400E010E081E390E0E6
:1057A00029A13AA1289FF001299FF00D389FF00D03
:1057B0001124E758FC4F8E2D9F2DA02FB12F858FE0
:1057C000968FA78FB0A3A4019301652F782D832F07
:1057D000962DD401F3012B2F382D4F2F562D0E94DB
:1057E000AC3D7B01082FD92E81E390E049A15AA15D
:1057F000489FF001499FF00D589FF00D1124E75884
:10580000FC4F8E2D9F2DA02FBD2D81A392A3A3A36E
:10581000B4A3DF015D96C58C11961C911197129669
:10582000BC9012971396AC909090A9068090AA060F
:105830007090AB066090AC06552453946E2D7F2D6E
:10584000802F9D2DD401F3012B2F3A2F4F2F5E2F48
:105850000E946E3B87FD04C05524A401930104C03F
:105860005E2D4F2D302F2D2DF5016C2D712F8F2F8B
:105870009A2DE52FF42FA32FB22F9F01AD010E9487
:105880006E3B87FD0AC0552029F0CE2C1F2DB02E6F
:10589000AD2C03C0C92C182D530181E390E029A140
:1058A0003AA1289FF001299FF00D389FF00D112497
:1058B000E758FC4F95018C2D912FA32FBA2D818F86
:1058C000928FA38FB48FA9E9B6E0FE01719680E1B3
:1058D00001900D928150E1F781E390E049A15AA136
:1058E000489FF001499FF00D589FF00D1124E75893
:1058F000FC4F81A192A1A3A1B4A18093A90690938A
:10590000AA06A093AB06B093AC06A9E8B6E0FE01E8
:10591000319680E101900D928150E1F78091AD06C2
:10592000809378038F5F803109F480E08093AD0627
:105930000E941727E9960FB6F894DEBF0FBECDBFC1
:10594000CF91DF911F910F91FF90EF90DF90CF905B
:10595000BF90AF909F908F907F906F905F904F908F
:105960003F902F9008958091BE069091BF06A09120
:10597000C006B091C1068093890690938A06A093D1
:105980008B06B0938C068091C2069091C306A091BD
:10599000C406B091C50680938D0690938E06A093A1
:1059A0008F06B09390068091C6069091C706A0918D
:1059B000C806B091C9068093910690939206A09371
:1059C0009306B09394068091CA069091CB06A0915D
:1059D000CC06B091CD068093950690939606A09341
:1059E0009706B093980608950E94D71A809176037F
:1059F000809377030E94172708956F927F928F926A
:105A00009F92AF92BF92CF92DF92EF92FF920F934D
:105A10001F93CF93DF933C014B015A01FB0180811F
:105A2000F301E80FF11DEF0129912D3221F42181BD
:105A3000219601E005C02B3211F42181219600E06E
:105A4000F0E0E0E010E060E070E0CB01A22FA053B6
:105A5000AA30F8F4EF5FE930C0F4F11111509B0166
:105A6000AC01B2E0220F331F441F551FBA95D1F786
:105A7000620F731F841F951F660F771F881F991F62
:105A80006A0F711D811D911D09C0FF2339F41F5F2D
:105A900005C0AE3F29F4FF2319F4F1E02991D6CFD8
:105AA000EE2309F450C00E940E3CC62ED72EE82EDD
:105AB000F92E20E030E0A9010E946E3B882371F4AA
:105AC00031C0C701B6012AE037ED43E25CE30E9432
:105AD000AC3DC62ED72EE82EF92E1E5F1F3F8CF34D
