:100000000C94D4040C94CF2E0C94F5040C94F504A9
:100010000C94F5040C94F5040C94F5040C94F5047C
:100020000C94F5040C94F5040C94F5040C94F5046C
:100030000C94F5040C94F5040C94F5040C94F5045C
:100040000C94F5040C94AB170C94F5040C94F50483
:100050000C94F5040C949A1A0C94F5040C947A1AE6
:100060000C94F5040C94A7150C9465150C94F504E8
:100070000C94F5040C94F5040C94F5040C94F5041C
:100080000C94F5040C94F5040C94F5040C94F5040C
:100090000C94F5040C94F5040C94F5040C94F504FC
:1000A0000C94F5040C94F5040C94F5040C94F504EC
:1000B0000C94F5040C94F5040C94F5040C94F504DC
:1000C0000C94F5040C94F5040C94F5040C94F504CC
:1000D0000C94F5040C94F5040C94F5040C94F504BC
:1000E0000C94F504862586258625862591259A2556
:1000F000A325AC25B525CC25E325FA2511261E26FA
:100100002B2638264526582661266A2673267E2603
:1001100087269626A726B626C526D626E926F826B9
:1001200001270A2713271E2727272E27084AD73BF0
:100130003BCE016E84BCBFFDC12F3D6C74319ABDB6
:1001400056833DDA3D00C77F11BED9E4BB4C3E91DA
:100150006BAAAABE000000803F05A84CCDB2D44EC9
:10016000B93836A9020C50B9918688083CA6AAAACB
:100170002ABE000000803F290A0D0028003E0D0A1B
:10018000002C4C6E3A002C004374733A002C002C67
:10019000506F733A003C436865636B003C416C618F
:1001A000726D003C486F6D65003C486F6C64003CAC
:1001B00052756E003C5175657565003C49646C650F
:1001C000007D0A0D0020283A00292C2063283A00DF
:1001D00020283A007B7A3A20007D0A0D002C2076F8
:1001E0003A007B653A005D0D0A005B302E39652CC4
:1001F000204A756C20323520323031342031333A88
:1002000032333A313020284B65794D65203235360E
:100210003029203A000D0A003D00244E005D0D0AF1
:1002200000204600205400204D3800204D39002089
:100230004D3500204D3400204D3300204D3200203C
:100240004D3100204D3000204739340020473933EC
:100250000020473931002047393000204732300034
:100260002047323100204736360020473230002008
:1002700047323100204731390020473138002047CC
:100280003137002047005B473830005B4733005B65
:100290004732005B4731005B4730005D0D0A005B71
:1002A000544C4F3A005D0D0A002C005B4739323A3E
:1002B000005D0D0A002C003A003330003238005B3C
:1002C00047005D0D0A002C005B5052423A000D0AB7
:1002D0000020286465636179206D6F64652C202897
:1002E000302E2E33292900290D0A2433353D0020D4
:1002F000286D6963726F7374657073203A20000D06
:100300000A2433343D002028686F6D696E672070C1
:10031000756C6C2D6F66662C206D6D290020286829
:100320006F6D696E67206465626F756E63652C2002
:100330006D736563290D0A2433333D002028686FEF
:100340006D696E67207365656B2C206D6D2F6D690F
:100350006E290D0A2433323D002028686F6D696EC6
:100360006720666565642C206D6D2F6D696E290DA3
:100370000A2433313D00290D0A2433303D00202862
:10038000686F6D696E672064697220696E76657248
:1003900074206D61736B3A002028686F6D696E6719
:1003A000206379636C652C20626F6F6C290D0A24C1
:1003B00032393D00202868617264206C696D69746F
:1003C000732C20626F6F6C290D0A2432383D002097
:1003D00028736F6674206C696D6974732C20626F6A
:1003E0006F6C290D0A2432373D002028696E76652E
:1003F0007274206C696D69742070696E732C206250
:100400006F6F6C290D0A2432363D002028696E7604
:10041000657274207374657020656E61626C652C02
:1004200020626F6F6C290D0A2432353D002028614F
:1004300075746F2073746172742C20626F6F6C29F5
:100440000D0A2432343D0020287265706F727420CA
:10045000696E636865732C20626F6F6C290D0A24C6
:1004600032333D00202861726320746F6C657261C5
:100470006E63652C206D6D290D0A2432323D0020FB
:10048000286A756E6374696F6E206465766961743D
:10049000696F6E2C206D6D290D0A2432313D0020CC
:1004A00028737465702069646C652064656C61797B
:1004B0002C206D736563290D0A2432303D00290D0F
:1004C0000A2431393D00202864697220706F7274EB
:1004D00020696E76657274206D61736B3A00290D28
:1004E0000A2431383D0020287374657020706F72C3
:1004F0007420696E76657274206D61736B3A0020AA
:1005000028737465702070756C73652C2075736525
:1005100063290D0A2431373D00202863206D61785E
:100520002074726176656C2C206D6D290D0A243162
:10053000363D0020287A206D6178207472617665DE
:100540006C2C206D6D290D0A2431353D0020287951
:10055000206D61782074726176656C2C206D6D2938
:100560000D0A2431343D00202878206D61782074F4
:10057000726176656C2C206D6D290D0A2431333D36
:100580000020286320616363656C2C206D6D2F73E0
:1005900065635E32290D0A2431323D0020287A201D
:1005A000616363656C2C206D6D2F7365635E32290A
:1005B0000D0A2431313D0020287920616363656C88
:1005C0002C206D6D2F7365635E32290D0A24313046
:1005D0003D0020287820616363656C2C206D6D2FB1
:1005E0007365635E32290D0A24393D00202863209B
:1005F0006D617820726174652C206D6D2F6D696E50
:10060000290D0A24383D0020287A206D6178207257
:100610006174652C206D6D2F6D696E290D0A24376C
:100620003D00202879206D617820726174652C204E
:100630006D6D2F6D696E290D0A24363D00202878D6
:10064000206D617820726174652C206D6D2F6D694D
:100650006E290D0A24353D002028632C2073746513
:10066000702F6D6D290D0A24343D0020287A2C202E
:10067000737465702F6D6D290D0A24333D00202899
:10068000792C20737465702F6D6D290D0A24323D0D
:10069000002028782C20737465702F6D6D290D0A49
:1006A00024313D0024303D002424202876696577DC
:1006B000204772626C2073657474696E6773290DCC
:1006C0000A242320287669657720232070617261CF
:1006D0006D6574657273290D0A2447202876696553
:1006E0007720706172736572207374617465290D6F
:1006F0000A244E20287669657720737461727475B8
:100700007020626C6F636B73290D0A24783D7661EB
:100710006C7565202873617665204772626C207362
:10072000657474696E67290D0A244E783D6C696E94
:10073000652028736176652073746172747570200A
:10074000626C6F636B290D0A24432028636865631C
:100750006B2067636F6465206D6F6465290D0A24E3
:100760005820286B696C6C20616C61726D206C6F15
:10077000636B290D0A2448202872756E20686F6DFE
:10078000696E67206379636C65290D0A7E20286392
:1007900079636C65207374617274290D0A212028B5
:1007A0006665656420686F6C64290D0A3F202863C4
:1007B000757272656E7420737461747573290D0A95
:1007C0005E20286C696D69742070696E73290D0A4A
:1007D0006374726C2D78202872657365742047727B
:1007E000626C290D0A000D0A4772626C20302E39A6
:1007F00065205B27242720666F722068656C705D1A
:100800000D0A005D0D0A0044697361626C65640045
:10081000456E61626C65640043617574696F6E3A20
:1008200020556E6C6F636B656400272448277C2716
:1008300024582720746F20756E6C6F636B005265AF
:1008400073657420746F20636F6E74696E756500D4
:100850005B000D0A0050726F6265206661696C0072
:1008600041626F727420647572696E672063796388
:100870006C6500486172642F736F6674206C696DDB
:10088000697400414C41524D3A20000D0A00496EF6
:1008900076616C69642067636F64652049443A003F
:1008A000556E646566696E65642066656564207270
:1008B00061746500556E737570706F727465642035
:1008C000636F6D6D616E64004D6F64616C20677263
:1008D0006F75702076696F6C6174696F6E004C691A
:1008E0006E65206F766572666C6F7700486F6D6914
:1008F0006E67206E6F7420656E61626C6564004186
:100900006C61726D206C6F636B004E6F7420696454
:100910006C6500454550524F4D20726561642066FC
:1009200061696C2E205573696E6720646566617518
:100930006C74730056616C7565203C2033207573B0
:1009400065630053657474696E67206469736162DE
:100950006C65640056616C7565203C203000496E02
:1009600076616C69642073746174656D656E740082
:10097000426164206E756D62657220666F726D6192
:100980007400457870656374656420636F6D6D6194
:100990006E64206C6574746572006572726F723A71
:1009A00020006F6B0D0A000011241FBECFEFD1E2B3
:1009B000DEBFCDBF00E00CBF12E0A0E0B2E0EEE68B
:1009C000FDE700E00BBF02C007900D92A632B10711
:1009D000D9F71CE0A6E2B2E001C01D92AE38B10723
:1009E000E1F70E94F7040C94B53E0C9400001F93AD
:1009F0000E9434150E9446270E94E41A0E94E038A3
:100A000087E2EEEBFAE0DF011D928A95E9F710929A
:100A1000E50A1092E60A1092E70A1092E80A1EBA56
:100A200081E08093BE0A789411E00E94F9150E943B
:100A3000410A0E942E150E9431150E94B62E0E9476
:100A400015330E9425290E94AA1A0E94532D0E9444
:100A5000AD0A1092BE0A1EBA80917C0C81FF03C0C1
:100A60001093C00A02C01092C00A0E949616DDCFF1
:100A70009F92AF92BF92CF92DF92EF92FF920F932D
:100A80001F93CF93DF93EC015A016B01922E80915B
:100A90007C0C85FF03C0CE010E9402318091BF0A09
:100AA0008230D9F00E94FE158091BE0A8823A9F4F5
:100AB0000E948329882319F00E949116F3CFCE015A
:100AC000B601A501292D0E948B298091BF0A882398
:100AD00021F488E0EEEBFAE08183DF91CF911F9162
:100AE0000F91FF90EF90DF90CF90BF90AF909F90CD
:100AF00008952F923F924F925F926F927F928F92C2
:100B00009F92AF92BF92CF92DF92EF92FF920F939C
:100B10001F93DF93CF93CDB7DEB7E6970FB6F89468
:100B2000DEBF0FBECDBF9E878D87788B6F872A0172
:100B300009871A872B873C87C98ADA8AEB8AFC8A5D
:100B4000AB8E9924880C991C880C991C880D991DD2
:100B50009D8F8C8F9201280D391D3F8F2E8FD901CB
:100B6000CD90DD90ED90FC90C701B601EC8DFD8D30
:100B700020813181428153810E94833A6CA37DA3FD
:100B80008EA39FA32D960FAD2D9710E0000F111F80
:100B9000000F111F2D853E85200F311F39A328A37B
:100BA000C201800F911F9BA38AA3DC014D905D9031
:100BB0006D907C90C301B201F901208131814281A5
:100BC00053810E94833A68A779A78AA79BA7D70178
:100BD000C601B0588D839E83AF83B887D301C2010D
:100BE000B05889839A83AB83BC83EF85F889E80D7D
:100BF000F91D6081718182819381BCA1ADA1FEA1AB
:100C0000EFA12B2F3A2F4F2F5E2F0E94823AE62E14
:100C1000C72EA82E892EEF85F889E00FF11F60817D
:100C2000718182819381B8A5A9A5FAA5EBA52B2F87
:100C30003A2F4F2F5E2F0E94823AF62E072F182F41
:100C4000992E6D817E818F8198852F2D302F412F98
:100C5000592D0E949A3D2B013C0169817A818B813B
:100C60009C812E2D3C2D4A2D582D0E949A3D9B0192
:100C7000AC01C301B2010E94823A2B013C016D819B
:100C80007E818F8198852E2D3C2D4A2D582D0E94D6
:100C90009A3D5B016C0169817A818B819C812F2D4A
:100CA000302F412F592D0E949A3D9B01AC01C60166
:100CB000B5010E94833A9B01AC01C301B2010E94BD
:100CC000F63AF62E172F882E092F8091E90A8230E6
:100CD000B1F46F2D712F882D902F20E030E0A90105
:100CE0000E945F3D87FD24C06F2D712F882D902FAE
:100CF0002BED3FE049EC50E40E94823A15C06F2D85
:100D0000712F882D902F20E030E0A9010E945C3BDC
:100D1000181674F06F2D712F882D902F2BED3FE05A
:100D200049EC50E40E94833AF62E172F882E092FA3
:100D3000A090780CB090790CC0907A0CD0907B0C7D
:100D400069857A858B859C859B01AC010E94833ADD
:100D5000A60195010E94823A9B01AC01C601B50132
:100D60000E949A3D0E94273E5B016C016F2D712FFE
:100D7000882D902F20E030E040E05FE30E949A3D14
:100D800029853A854B855C850E949A3D9F77A6010F
:100D900095010E94633B0E94393C0E94D03B7A87B8
:100DA0006987DB01109709F4DFC1BB8DBB23A1F07C
:100DB00080E090E00E94FC3B9B01AC01B989AA89CC
:100DC000FB89EC896B2F7A2F8F2F9E2F0E949A3DE3
:100DD000698B7A8B8B8B9C8B29853A85B90180E056
:100DE00090E00E94FC3B5B016C016F2D712F882D00
:100DF000902FA60195010E94633B6D8B7E8B8F8B9C
:100E0000988F2E968FAD2E9790E0880F991F880FA0
:100E1000991FAD85BE85A80FB91FBA8FA98FEF8521
:100E2000F8898E0F9F1FDC016D917D918D919C91B2
:100E3000E98DFA8D20813181428153810E94823A6D
:100E4000A60195010E94633B6BAB7CAB8DAB9EAB67
:100E50005D894E893F89288D652F742F832F922FAE
:100E6000DA01F9012B2F3A2F4F2F5E2F0E949A3D66
:100E70009B01AC0160E070E080E090E40E94823A67
:100E8000F62E072F182FC92E5D894E893F89288D90
:100E9000652F742F832F922F2BEA3AEA4AE25EE302
:100EA0000E949A3D4B015C016F2D702F812F9C2D6C
:100EB00020E030E040E850E40E94833A9B01AC011E
:100EC000C501B4010E949A3D6CA77DA78EA79FA77C
:100ED0006F2D702F812F9C2D20E030E040E05FE3EC
:100EE0000E949A3DC62E78AB89AB9AAB882481E0EC
:100EF000282E312C9C2C32C1F82DF43108F063C01F
:100F00006D817E818F819885BCA5ADA5FEA5EFA5DD
:100F10002B2F3A2F4F2F5E2F0E949A3D7B018C0181
:100F200069817A818B819C81A8A9F9A9EAA9292DD7
:100F30003A2F4F2F5E2F0E949A3D9B01AC01C801B2
:100F4000B7010E94833AD62EC72EA82E492E6D8156
:100F50007E818F819885A8A9F9A9EAA9292D3A2F20
:100F60004F2F5E2F0E949A3D162F072FF82EE92E45
:100F700069817A818B819C81BCA5ADA5FEA5EFA579
:100F80002B2F3A2F4F2F5E2F0E949A3D9B01AC01D1
:100F9000D801F7016B2F7A2F8F2F9E2F0E94823A54
:100FA000262F372F482F592F2D833E834F83588765
:100FB0008394A601852F942FAA2DB42D89839A831B
:100FC000AB83BC8372C0B10180E090E00E94FC3B27
:100FD000BD89AE89FF89E88D2B2F3A2F4F2F5E2FC9
:100FE0000E949A3D7B018C017F2D912F0E94603BD6
:100FF00069837A838B839C836E2D7F2D802F912F25
:101000000E941D3E5B016C01AE8DBF8DED90FD9089
:101010000D911C9117FB109517F91095EAA1FBA1F2
:101020004080518062807380C801B70129813A8174
:101030004B815C810E949A3D6D837E838F8398876C
:10104000C301B201A60195010E949A3D9B01AC012A
:101050006D817E818F8198850E94833A262F372F5C
:10106000482F592F2D833E834F835887C801B701DE
:10107000A60195010E949A3D7B018C01C301B2013A
:1010800029813A814B815C810E949A3D9B01AC0190
:10109000C801B7010E94823A262F372F482F592FB7
:1010A00029833A834B835C8388245CA14DA13EA1B4
:1010B0002FA1652F742F832F922F2D813E814F8179
:1010C00058850E94833AAC8DBD8D6D937D938D9331
:1010D0009C93139758A549A53AA52BA5652F742F66
:1010E000832F922F29813A814B815C810E94833A20
:1010F000E8A1F9A16083718382839383A98DBA8D5E
:101100006D917D918D919C91BBA9ACA9FDA9EEA992
:101110002B2F3A2F4F2F5E2F0E94833AE98DFA8DA5
:1011200060837183828393838D859E85F989EA89A3
:101130003B892C894F2F5E2F632F722F2B8D629648
:10114000ECACFDAC0EAD1FAD62970E9438058091EE
:10115000BE0A8823E1F40894211C311C29853A85B4
:101160002216330608F4C8CE8F859889F989EA8952
:101170003B892C894F2F5E2F632F722F2B8D629608
:10118000ECACFDAC0EAD1FAD62970E943805E69643
:101190000FB6F894DEBF0FBECDBFCF91DF911F9188
:1011A0000F91FF90EF90DF90CF90BF90AF909F9006
:1011B0008F907F906F905F904F903F902F90089509
:1011C000EF92FF920F931F93CF93DF937B018C01DC
:1011D0008091BF0A823009F447C0C801B70120E0FE
:1011E00030E040EA51E40E949A3D0E94393C0E945E
:1011F000D03BEB010E947A16C801B70120E030E035
:101200004AE754E40E949A3D7B018C0182E390E01E
:10121000C89FB001C99F700DD89F700D112480E048
:1012200090E00E94FC3B9B01AC01C801B7010E9409
:10123000823A0E94393C0E94D03BDC01CB010E94E3
:10124000532E10C00E94FE1521978091BE0A88235C
:1012500059F48FEF90E7A2E081509040A040E1F771
:1012600000C00000209771F7DF91CF911F910F917F
:10127000FF90EF9008951F93182F84E08093BF0A8A
:101280000E94B12E812F84700E94D92E812F8270EE
:101290000E94D92E812F89700E94D92E0E94FE159E
:1012A0008091BE0A882341F40E94AD0A1092BF0AC1
:1012B0000E947C170E94B62E1F9108953F924F9274
:1012C0005F926F927F928F929F92AF92BF92CF92D6
:1012D000DF92EF92FF920F931F93DF93CF9300D093
:1012E00000D0CDB7DEB7982E892E2A013B01322ED1
:1012F000570168018091BF0A803111F00E94911658
:101300000E947A168091BE0A882309F071C0892D47
:10131000982DB301A201232D860175010E94380585
:1013200081E08093E60AF19A0E94FE158091BE0A40
:10133000882309F05DC08091BF0A882311F08830AE
:1013400099F78091E60A883009F4F69A0E94FE1512
:101350008091BE0A882309F04BC081ED9AE09E83FC
:101360008D8300E31CE0C401E92EF82CED81FE81A1
:101370006191719181919191FE83ED83F8012191A9
:101380003191419151918F0129833A834B835C8341
:101390000E94FE3B29813A814B815C810E94633B24
:1013A000F70161937193819391937F018D819E8168
:1013B000EAE0813E9E07D1F60E94FE150E94AA1A1D
:1013C0000E9425290E94532D892D982DB301A20139
:1013D000232D860175010E943805F19A0E947A1624
:1013E0008091BE0A882321F40E94AD0A0E94F5353F
:1013F00026960FB6F894DEBF0FBECDBFCF91DF911A
:101400001F910F91FF90EF90DF90CF90BF90AF9022
:101410009F908F907F906F905F904F903F90089536
:10142000F4990CC0F49A0E942F150E9432158091F5
:10143000BF0A847319F0F59A0E947C1708950F93E0
:101440001F93CF93DF93CCEFDAE000E61BE06991C6
:10145000799189919991F80121913191419151911D
:101460008F010E945C3B882331F4FBE0CC30DF0726
:1014700071F781E001C080E0DF91CF911F910F9162
:101480000895AF92BF92CF92DF92EF92FF920F93A7
:101490001F93CF93DF9369EE7AE087E4FB0111920B
:1014A0008A95E9F780E06D5D7F4F0E9430258823A3
:1014B00019F487E00E943B3360E070E080E291E441
:1014C0002091300C3091310C4091320C5091330C02
:1014D0000E94633B162F072FF82EE92EC4E3DCE0B1
:1014E000299139914991599160E070E080E291E44D
:1014F0000E94633BD62EC72EB82EA92EA8019701B5
:10150000652F702F832F9E2DD601F5012B2F3A2F9B
:101510004F2F5E2F0E945C3B87FD02C08601750144
:10152000FCE0C034DF07E1F6A8019701852F902F7A
:10153000A32FBE2D8093300B9093310BA093320BD1
:10154000B093330BDF91CF911F910F91FF90EF90EC
:10155000DF90CF90BF90AF900895AF92BF92CF929F
:10156000DF92EF92FF920F931F93CF93DF93C1EC23
:10157000DAE000E31CE08CEFE82E8AE0F82E6991B7
:10158000799189919991F801A190B190C190D190F0
:101590008F010E94FE3BA60195010E94633BF7016B
:1015A00061937193819391937F01FAE0C13DDF07CD
:1015B00031F7DF91CF911F910F91FF90EF90DF9066
:1015C000CF90BF90AF9008952F923F924F925F922D
:1015D0006F927F928F929F92AF92BF92CF92DF9243
:1015E000EF92FF920F931F93DF93CF93CDB7DEB7A8
:1015F000E4970FB6F894DEBF0FBECDBF9BA78AA7B6
:10160000A4E3BBE08CE3FD0111928A95E9F7119602
:10161000E9EEFAE08AE001900D928150E1F719823B
:10162000442455241FA21EA21CA6EE24332491E0BC
:10163000C92ED12CAA24A39484E0282E05E0B02E34
:1016400012E0F12EB3C2912F91549A3110F00C9404
:10165000E6148F5F89838AA59BA5BE016F5F7F4FCC
:10166000AE014E5F5F4F0E949D2D882311F40C94B4
:10167000E8146A807B808C809D80C401B3010E9445
:10168000683E0E94D03B062F70E0882777FD80954A
:10169000982F0E94FE3B9B01AC01C401B3010E9444
:1016A000823A20E030E048EC52E40E949A3D0E94E9
:1016B000FD3D0E94D03B173421F01D3409F061C17B
:1016C00024C10B3209F4ECC00C3200F5043170F483
:1016D000013108F0B9C0043009F445C0043008F401
:1016E0008AC00A3011F00C94FA1435C00C3199F10B
:1016F0000D3128F4063110F00C94FA14C5C00E31E7
:1017000051F1063211F00C94FA1475C0003509F449
:1017100078C0013590F40C3358F4063308F0D3C088
:10172000013309F4BDC0053311F00C94FA141BC049
:10173000023411F00C94FA14B0C00C3561F00D3580
:1017400028F40A3510F40C94FA148CC00F3510F0FC
:101750000C94FA1490C0662331F4332011F00C94E9
:10176000EA14332433940C31B1F00D3130F40430E9
:1017700061F00A3009F0ACC00BC0053349F10C35FB
:1017800059F10E3109F0A4C015C0A092340BA0C0CD
:10179000F092340B9DC0662329F06A3011F00C944E
:1017A000FA1404C0F3E0F093340B02C02092340B1F
:1017B00080E095C0662329F06A3011F00C94FA1489
:1017C00003C0B092340BF4CF26E02093340BF0CF5B
:1017D00037E03093340B7CC0662329F06A3011F077
:1017E0000C94FA1404C088E08093340BE1CF99E0A4
:1017F0009093340BDDCF332011F00C94EA14B2E057
:101800003B2E023099F0033030F4002361F00130B8
:1018100009F060C00BC0063261F0003591F0033072
:1018200009F058C003C01092350B54C00093350B1B
:1018300051C0643111F00C94FA142092350B81E000
:101840004EC0B092350B46C0023129F0033131F061
:101850001092390B05C0A092390B02C0F092390BDF
:1018600082E039C00A3519F41092380B02C0A092F8
:10187000380B83E030C00D3519F4A092360B02C04E
:101880001092360B84E027C0043119F4A092370B74
:1018900002C01092370B85E01EC0F092370BFBCFD1
:1018A000332011F00C94EA14013319F410923A0B1E
:1018B00006C06A3011F00C94FA14A0923A0B86E03C
:1018C000A3E03A2E0CC0065300933B0B87E003C005
:1018D00080E001C081E0662311F00C94EC14D60185
:1018E00002C0AA0FBB1F8A95E2F72EA13FA12A23AF
:1018F0003B232115310511F00C940615EEA1FFA133
:10190000EA2BFB2BFFA3EEA351C1662311F00C942D
:10191000EC14063018F40330D0F40AC0083010F488
:101920000C94FA140A3010F10E3111F00C94FA14E0
:10193000023041F00E3131F0002311F00C94FA1412
:1019400081E001C082E080933C0B0C94FA140430D7
:1019500021F0053039F081E001C082E080933E0B38
:101960000C94FA1410923E0B0C94FA14093029F0DE
:1019700082E080933D0B0C94FA1410923D0B0C9472
:10198000FA141E3409F485C01F34BCF4193409F468
:101990004DC01A343CF4133459F1163411F00C9440
:1019A000FA1436C01B3409F45FC01B340CF44BC06E
:1019B0001C3411F00C94FA1468C0143509F4D1C029
:1019C00015355CF4123509F480C013350CF08BC06A
:1019D000103511F00C94FA146AC0193509F4A1C03D
:1019E0001A3509F4AEC0183511F00C94FA1489C0F8
:1019F0008A819B81AC81BD8180936C0B90936D0B30
:101A0000A0936E0BB0936F0BF8E0EF2A8DE0AAC0A5
:101A10008A819B81AC81BD8180933F0B9093400B69
:101A2000A093410BB093420B80E09CC06092430BAB
:101A30007092440B8092450B9092460B2CA521602E
:101A40002CA781E08FC08A819B81AC81BD8180936E
:101A5000470B9093480BA093490BB0934A0B3CA5BE
:101A600032603CA782E07EC08A819B81AC81BD81CF
:101A700080934B0B90934C0BA0934D0BB0934E0B5C
:101A80008CA584608CA783E06DC000934F0B84E02D
:101A900069C0C401B3010E94CB3B6093500B7093AB
:101AA000510B8093520B9093530B85E05BC08A815E
:101AB0009B81AC81BD818093540B9093550BA09377
:101AC000560BB093570B86E04DC08A819B81AC8149
:101AD000BD818093580B9093590BA0935A0BB093F0
:101AE0005B0B87E03FC08A819B81AC81BD81809385
:101AF0005C0B90935D0BA0935E0BB0935F0B88E043
:101B000031C08A819B81AC81BD818093600B9093B1
:101B1000610BA093620BB093630B91E0E92A8AE01A
:101B200021C08A819B81AC81BD818093640B90939D
:101B3000650BA093660BB093670BA2E0EA2A8BE0DB
:101B400011C08A819B81AC81BD818093680B909389
:101B5000690BA0936A0BB0936B0BB4E0EB2A8CE09B
:101B600001C089E08601082E02C0000F111F0A94EF
:101B7000E2F79801242135212115310509F02EC7FE
:101B8000E1E6F3E002C0F595E7958A95E2F7E0FF1C
:101B90000BC06A817B818C819D8120E030E0A901AE
:101BA0000E945C3B87FD1CC7402A512A8981EAA517
:101BB000FBA5E80FF11D1081112309F044CDEE20A3
:101BC00021F0332011F4F2E03F2E45FE11C0809148
:101BD000500B9091510BA091520BB091530B803848
:101BE000F6E99F07F8E9AF07F0E0BF070CF0FAC687
:101BF0008091360B813051F4232D223011F440FEB8
:101C000001C78091370B8230E9F5F4C68091EA0A6A
:101C10008823C1F540FE26C08091370B8130B9F48E
:101C200060913F0B7091400B8091410B9091420B62
:101C300023E333E34BEC51E40E949A3D60933F0B66
:101C40007093400B8093410B9093420B1BC08230EA
:101C5000C9F48091300B9091310BA091320BB0916F
:101C6000330B08C08091F70A9091F80AA091F90A05
:101C7000B091FA0A80933F0B9093400BA093410BD5
:101C8000B093420B50FC10C08091F30A9091F40A7B
:101C9000A091F50AB091F60A80935C0B90935D0BCE
:101CA000A0935E0BB0935F0B8091340B813031F4C5
:101CB00046FE9CC68FEB9FEF482259228091390B3C
:101CC000823088F490E0FC01E050FE4FA081AEA786
:101CD000FC01EE5FFD4FB081BFA78C5F9D4FFC0103
:101CE000F081FCAB05C01CAA22E02FA731E03EA783
:101CF0006090370B662009F441C000E61BE0E0E38A
:101D0000CE2EECE0DE2EAA24BB248E2C9924C40116
:101D10000A2C02C0959587950A94E2F780FF21C0AE
:101D2000862D823069F4D8016D917D918D919C91C1
:101D3000F60120813181428153810E94633B0BC0B7
:101D4000F801608171818281938123E333E34BEC5D
:101D500051E40E949A3DD8016D937D938D939C939D
:101D600013970894A11CB11C0C5F1F4FE4E0F0E036
:101D7000CE0EDF1EF4E0AF16B10449F6232D23305A
:101D800041F480913A0B813021F43E2D343009F03A
:101D90002BC6DE011696ECE0FBE080E101900D928F
:101DA0008150E1F78EA187FF11C080913B0B8730F6
:101DB00008F01EC69091EF0A981741F0BE016A5FC5
:101DC0007F4F0E943025882309F416C6F090340B0B
:101DD0009F2D923021F0983009F013C1A4C0EE205D
:101DE00009F41AC6C20180759070009709F4FEC507
:101DF0006091540B7091550B8091560B9091570B3D
:101E00000E94683E0E94D03B673008F0F1C5809187
:101E10004F0B843129F0823009F0ECC547FCEAC54C
:101E2000662319F0862F815002C080913B0B8E01F2
:101E30000A5E1F4FB8010E943025882309F4DCC5D3
:101E4000F0904F0B80912C0B90912D0BA0912E0BAD
:101E5000B0912F0B8EA39FA3A8A7B9A770E6A72EBA
:101E60007BE0B72E6CEF662E6AE0762ECC24DD2464
:101E70008E2C9924C4010C2C02C0959587950A9448
:101E8000E2F780FF3BC09F2D943171F5D3016D9136
:101E90007D918D919C91139790962D913D914D91AF
:101EA0005C9193970E94823AF501208131814281B1
:101EB00053810E94823A262F372F482F592FD8015D
:101EC0002D933D934D935C931397BC2DB230B1F499
:101ED0002EA13FA148A559A50E94823AF80160832E
:101EE0007183828393830AC0F50180819181A281ED
:101EF000B381F80180839183A283B3830894C11CCA
:101F0000D11C0C5F1F4F24E030E0A20EB31E620E06
:101F1000731E34E0C316D10409F0ACCF8FEA9FEFF3
:101F20004822592211C1EE2009F476C580912C0B6C
:101F300090912D0BA0912E0BB0912F0B8EA39FA3F0
:101F4000A8A7B9A700E61BE05CEFA52E5AE0B52EC6
:101F500046E0C42ED12CCC0EDD1E662477248E2CB8
:101F60009924C401062C02C0959587950A94E2F73E
:101F700080FF2CC0D5016D917D918D919C91F601D2
:101F800020813181428153810E94823AD8012D9172
:101F90003D914D915C910E94823A262F372F482F18
:101FA000592FF8012083318342835383F62DF23079
:101FB000B9F42EA13FA148A559A50E94823AD801A3
:101FC0006D937D938D939C9313970AC0F50180A127
:101FD00091A1A2A1B3A1F80180839183A283B383CD
:101FE0000894611C711C0C5F1F4F24E030E0A20EAE
:101FF000B31EC20ED31E34E06316710409F0B1CFD4
:10200000A3C0832D833009F487C0EE2009F484C077
:102010002090380B80912C0B90912D0BA0912E0BC2
:10202000B0912F0B8EA39FA3A8A7B9A73CEFA32E17
:102030003AE0B32E00E61BE026E0C22ED12CCC0EF7
:10204000DD1E662477248E2C9924C401062C02C040
:10205000959587950A94E2F780FD0BC0F501808184
:102060009181A281B381F80180839183A283B3839C
:1020700043C0FF2DF73009F43FC0222061F5D6019F
:102080006D917D918D919C91F50120A131A142A18D
:1020900053A10E94833AD8012D913D914D915C91BD
:1020A0000E94833A262F372F482F592FF80120837B
:1020B000318342835383F62DF230F1F42EA13FA1F8
:1020C00048A559A50E94833AD8016D937D938D93BD
:1020D0009C93139711C0F801608171818281938173
:1020E000D5012D913D914D915C910E94833AF8016B
:1020F00060837183828393830894611C711C24E044
:1021000030E0A20EB31E0C5F1F4FC20ED31E34E090
:102110006316710409F099CF8091340B853031F04A
:10212000873069F0833081F486E001C087E0BE012A
:102130006A5E7F4F0E943025882331F45DC4809110
:10214000350B823008F05AC41091350B153041F42C
:10215000EE2009F458C2832D813009F051C453C2D6
:10216000932D923009F04FC21123E1F060913F0BA3
:102170007091400B8091410B9091420B20E030E038
:10218000A9010E945C3B882309F43CC4143030F45C
:10219000123060F4113009F036C204C0143009F076
:1021A00032C223C2EE2009F42DC22DC2EE2009F462
:1021B00033C4BEA5AB2FB0E0B9ABA8ABFFA5EF2FE2
:1021C000F0E0FBABEAAB81E090E08C010FA402C031
:1021D000000F111F0A94E2F70EA402C0880F991F86
:1021E0000A94E2F7082B192BFF24E022F122E114D4
:1021F000F10409F409C4E090370B2E2D223009F4C4
:1022000005C4AA0FBB1FAA0FBB1FA05AB44FE8A951
:10221000F9A9EE0FFF1FEE0FFF1FE751F54F6D916C
:102220007D918D919C9123893489458956890E949D
:10223000823A662E972E882E792EAAA9BBA9AA0FBC
:10224000BB1FAA0FBB1FA05AB44FEAA9FBA9EE0FF0
:10225000FF1FEE0FFF1FE751F54F6D917D918D919F
:102260009C9123893489458956890E94823A262E79
:102270007EA38AA79DA747FE01C10E941F0A88234B
:1022800009F0CCC33E2D3130B1F46091580B709100
:10229000590B80915A0B90915B0B23E333E34BEC8A
:1022A00051E40E949A3D6093580B7093590B8093B0
:1022B0005A0B90935B0BE090580BF090590B0091E8
:1022C0005A0B10915B0BC801B70120E030E040E8E9
:1022D00050E40E949A3DA80197010E949A3D7B011B
:1022E0008C01662D792D882D972D262D392D482D81
:1022F000572D0E949A3D9B01AC01C801B7010E9475
:10230000823A7B018C014EA13AA52DA5622D742F36
:10231000832F922FF901222D342F4F2F5E2F0E94F1
:102320009A3D9B01AC01C801B7010E94823A7B0132
:102330008C017F2D912F20E030E0A9010E945C3BB1
:1023400087FD66C36E2D7F2D802F912F0E94273E23
:102350007B018C01662D792D882D972DAEA1FAA5D4
:10236000EDA5222D3A2F4F2F5E2F0E947F2E9B012D
:10237000AC01C801B70190580E94633BA62EB72E4E
:10238000C82ED92E8091350B833021F4D7FAD09402
:10239000D7F8D094E090580BF090590B00915A0B5D
:1023A00010915B0BC801B70120E030E0A9010E9449
:1023B0005C3B87FF10C0D7FAD094D7F8D09417FBB6
:1023C000109517F91095E092580BF092590B009365
:1023D0005A0B10935B0B8FE79FEF4822592208A9F5
:1023E00019A9000F111F000F111F085C144F4EA1F7
:1023F0003AA52DA5622D742F832F922FA60195014A
:102400000E949A3D9B01AC01662D792D882D972D58
:102410000E94823A20E030E040E05FE30E949A3D73
:10242000D8011B966D937D938D939C931E970AA95B
:102430001BA9000F111F000F111F085C144F662D00
:10244000792D882D972DA60195010E949A3D9B011B
:10245000AC01AEA1FAA5EDA5622D7A2F8F2F9E2F8C
:102460000E94833A20E030E040E05FE30E949A3D22
:10247000F8016387748785879687C5C0FCA5CF2E32
:10248000DD240C211D210115110509F4C3C221EF22
:102490003FEF422253223E2D313031F503E41BE061
:1024A000EE24FF24C6010E2C02C0959587950A9450
:1024B000E2F780FF10C0D8016D917D918D919C91C4
:1024C00023E333E34BEC51E40E949A3DF80160832F
:1024D0007183828393830894E11CF11C0C5F1F4F6E
:1024E000F4E0EF16F104F1F608A919A9000F111F85
:1024F000000F111F085C144F662D792D882D972D24
:10250000D8011B962D913D914D915C911E970E9493
:10251000823A5B016C01EAA8FBA8EE0CFF1CEE0CF2
:10252000FF1CE8E3FBE0EE0EFF1E4EA13AA52DA531
:10253000622D742F832F922FD7011B962D913D91E1
:102540004D915C911E970E94823A9B01AC01C6019D
:10255000B5010E947F2E5B016C01F80163857485D3
:1025600085859685D7011B962D913D914D915C9166
:102570001E970E947F2E7B018C016093580B7093F5
:10258000590B80935A0B90935B0BC601B501A801C0
:1025900097010E94823A5B016C01E894D7F8C6016A
:1025A000B5012AE037ED43EA5BE30E945F3D181670
:1025B00054F5C601B50120E030E040E05FE30E9441
:1025C0005F3D18160CF42AC2C801B7012FE632E1AC
:1025D00043E85AE30E949A3D9B01AC01C601B50154
:1025E0000E945F3D18167CF419C2EE2009F414C253
:1025F0000E941F0A882309F011C20E9420338823F9
:1026000011F00EC23324C2018E7D9C7F332019F05D
:10261000C2018E7D907C009709F004C28091360B38
:102620008093EA0A80913F0B9091400BA091410B5F
:10263000B091420B8093F70A9093F80AA093F90A9D
:10264000B093FA0AE0905C0BF0905D0B00915E0B8A
:1026500010915F0B6091F30A7091F40A8091F50A72
:102660009091F60AA80197010E945C3B882381F0B3
:10267000E092F30AF092F40A0093F50A1093F60A36
:102680008091F20A882321F0B801A7010E94301539
:1026900080913E0B9091F20A981761F08093F20AB4
:1026A0004091F30A5091F40A6091F50A7091F60A8C
:1026B0000E94301580913D0B9091F10A981721F0FE
:1026C0008093F10A0E9433158091340B813051F4CC
:1026D0006091540B7091550B8091560B9091570B54
:1026E0000E94E0088091390B8093ED0A8091370BAE
:1026F0008093EB0AB32DB330D1F480913A0B8093E1
:10270000EE0A813049F48091680B9091690BA09199
:102710006A0BB0916B0B03C080E090E0DC0180930A
:102720002C0B90932D0BA0932E0BB0932F0B80911D
:102730003B0B9091EF0A981759F08093EF0AACE0A9
:10274000BBE0FE01369680E101900D928150E1F7E9
:102750008091380B8093EC0A8091340B8530E9F13D
:10276000863048F48330C9F1843008F067C0823085
:1027700009F07DC00AC0883009F468C0893009F4C6
:102780006FC0863009F073C05BC06091540B7091CC
:10279000550B8091560B9091570B0E94683E0E94FA
:1027A000D03B662319F0F62EFA9402C0F090EF0A9F
:1027B0008E010A5E1F4F8F2DB8010E94F823809171
:1027C000EF0A8F1509F053C0ACE0BBE0F80180E1DF
:1027D00001900D928150E1F74AC0332089F0E090DA
:1027E000500BF090510B0091520B1091530B80E65F
:1027F0009BE040E050E060E87FEB20E00E9438057D
:1028000096E1C92ED12CCC0EDD1EE090500BF0903D
:10281000510B0091520B1091530BC60140E050E058
:1028200060E87FEB20E00E943805ACEFBAE0F601EB
:1028300080E101900D928150E1F719C086E001C05E
:1028400087E06CEF7AE00E94F82311C0ACE1BBE0B6
:10285000E0E6FBE080E101900D928150E1F707C0D6
:1028600080E1ECE1FBE0DF011D928A95E9F78091C0
:10287000350B8093E90A853009F494C0B32DB2304A
:1028800009F090C0843040F4823088F5882341F00C
:10289000813009F07EC014C0843009F07AC063C072
:1028A000E090500BF090510B0091520B1091530B94
:1028B00080E69BE040E050E060E87FEB20E014C061
:1028C0004091F70A5091F80A6091F90A7091FA0A5A
:1028D000E090500BF090510B0091520B1091530B64
:1028E00080E69BE02091EA0A0E94380552C000D0A1
:1028F00000D0EDB7FEB731960091580B1091590BEF
:1029000020915A0B30915B0BC090F70AD090F80AD7
:10291000E090F90AF090FA0A8FA5ADB7BEB711960C
:102920008C939CA991838091500B9091510BA09115
:10293000520BB091530B82839383A483B5838CEFA6
:102940009AE060E67BE043E45BE0A090EA0A8EA4B4
:102950000E947905ADB7BEB716960FB6F894BEBF04
:102960000FBEADBF16C04091F70A5091F80A6091B2
:10297000F90A7091FA0AE090500BF090510B009117
:10298000520B1091530B80E69BE02091EA0A0E94C3
:102990005E09ACEFBAE0E0E6FBE080E101900D9269
:1029A0008150E1F780913C0B8093F00A8823E1F19C
:1029B0000E947A161092C00A8091F00A823019F4AF
:1029C0000E94100A31C01092F00A2EC081E02DC082
:1029D00082E02BC088E129C087E127C089E125C0BA
:1029E00084E023C08BE121C086E21FC08CE11DC0C2
:1029F0008DE11BC084E119C087E017C08EE115C0CE
:102A00008FE113C086E111C080E20FC085E10DC0E7
:102A100082E20BC083E209C08AE107C081E205C0FF
:102A200084E203C085E201C080E0E4960FB6F8942A
:102A3000DEBF0FBECDBFCF91DF911F910F91FF90F1
:102A4000EF90DF90CF90BF90AF909F908F907F904E
:102A50006F905F904F903F902F9008950895089544
:102A60000895089508950895E0ECF0E080818D7F49
:102A700080831092C50089E18093C400E1ECF0E00E
:102A8000808180618083808188608083808180688C
:102A900080830895E09128029E2F9F5F903429F44F
:102AA00003C0F49B02C0089590E020912902921780
:102AB000C1F3F0E0E051F44F8083909328028091BD
:102AC000C10080628093C10008951F920F920FB6DB
:102AD0000F920BB60F9211248F939F93EF93FF9356
:102AE00080912902E82FF0E0E051F44F908190931B
:102AF000C6008F5F803409F480E0809329029091B2
:102B00002802891729F48091C1008F7D8093C1002C
:102B1000FF91EF919F918F910F900BBE0F900FBE81
:102B20000F901F9018959091270280912602891787
:102B300061F0E92FF0E0E059F44F80819F5F903819
:102B400009F490E09093270208958FEF08951F9263
:102B50000F920FB60F920BB60F9211242F933F9343
:102B60004F935F936F937F938F939F93AF93BF9395
:102B7000EF93FF938091C6008F33A9F0803428F43F
:102B8000883171F0813289F409C08E3519F08E37A1
:102B900061F402C0F79A1AC0F19A18C0F39A16C0ED
:102BA0000E94100A13C0F09A11C0E09126029E2FD5
:102BB0009F5F903809F490E020912702921731F03E
:102BC000F0E0E059F44F808390932602FF91EF915B
:102BD000BF91AF919F918F917F916F915F914F9135
:102BE0003F912F910F900BBE0F900FBE0F901F9033
:102BF0001895809126028093270208951F93CF9302
:102C0000DF931EB3112309F46BC0C12FD0E0CE01B6
:102C1000807690700097D1F081E08093BF0ACE015A
:102C200086FF0EC085FF02C08FEF01C08DEF0E94AE
:102C3000A23381E00E94C333F498F49BFECF03C01B
:102C40008EEF0E94A2338EB38F798EBBC4FF04C077
:102C500081E08093BE0A4AC0C0FF03C00E940738CB
:102C6000F09817FF06C00E94CA38F7980E94CA3829
:102C7000F798C3FF0EC08091BF0A803149F480E20B
:102C80008093BF0A0E94231B0E94451B1092C00A1A
:102C9000F398C1FF18C08091BF0A82FD14C088302C
:102CA00089F480E18093BF0A0E94451B0E94461769
:102CB00080917C0C81FF04C081E08093C00A02C037
:102CC0001092C00AF198C2FF0BC00E944A290097D7
:102CD00021F088E08093BF0A02C01092BF0AF298E8
:102CE0008091BF0A847311F00E94451BDF91CF9140
:102CF0001F9108958091BF0A803151F481E0809343
:102D0000C00A06C00E94FE158091BE0A882341F4C5
:102D10000E944A290097B1F78091BF0A803191F350
:102D200008958091C00A8111F19A08950F931F931D
:102D30000E94ED338091BF0A813021F482E00E942D
:102D4000C3331CC01092BF0A8AE292E00E94E238AC
:102D500015C08A3011F08D3031F5E12FF0E0E65DDD
:102D6000FD4F10820E94FE158091BE0A882331F427
:102D700080912A02882329F40E943B3310E000E06E
:102D800035C0843229F48AE292E00E940139F4CFFE
:102D90008091BF0A813011F489E0EECF8AE292E09F
:102DA0000E94E40AE9CF002319F08932F9F4E7CF51
:102DB0008132E0F08F32D1F08832B9F0153428F04A
:102DC0008BE00E943B3310E011C0982F9156212FC9
:102DD00030E01F5F9A3120F4265D3D4F805202C0E3
:102DE000265D3D4FF901808301C001E00E949315EB
:102DF0008F3F09F0AECF0E9491160E94FE15809180
:102E0000BE0A882399F31F910F9108959091A3030F
:102E10002091A4039217B9F0292F30E0F901EE0FA9
:102E2000FF1FEE0FFF1FE20FF31FE959FC4F408316
:102E300051836283738384839F5F9093A3039C3049
:102E400010F01092A30308959091A403292F30E06D
:102E5000F901EE0FFF1FEE0FFF1FE20FF31FE959FD
:102E6000FC4F2481281761F42081318142815381F4
:102E70009F5F9093A4039C3030F01092A40303C092
:102E800020E030E0A901B901CA01089580917C0CCD
:102E900082FF04C0809105018E6303C0809105010B
:102EA000817C809305018091BF0A847121F180911A
:102EB000720C80934D038091710C80934C03209190
:102EC000700C30E040E050E0DA01C9010896A11D25
:102ED000B11D880F991FAA1FBB1F819580934B03BB
:102EE000220F331F441F551F219527BD80916F006E
:102EF000826080936F00089580916F008D7F809332
:102F00006F0080918100887F8160809381001092A2
:102F100066038091730C8F3F11F4F59B09C090916B
:102F2000BF0A943029F090E00E94532E81E001C046
:102F300080E090917C0C92FF02C091E08927882369
:102F400021F0809105018E6303C080910501817C91
:102F50008093050108951F920F920FB60F920BB642
:102F60000F9211242F933F934F935F936F937F930F
:102F70008F939F93AF93BF93CF93DF93EF93FF9381
:102F8000179A80916603882309F09EC290910201EE
:102F900080914D03807F9F70892B809302018091E7
:102FA0000201807F90914C03892B80936103809173
:102FB0004B0386BD82E085BD81E0809366037894F3
:102FC0008091640390916503009709F0C3C08091DC
:102FD000390390910D03981709F4B8C02091390373
:102FE00030E0F901A3E0EE0FFF1FAA95E1F7E21B25
:102FF000F30BE25FFC4FF0936503E093640382817F
:10300000938190938900809388008081918190932F
:103010005F0380935E03448180916003841781F194
:103020004093600350E086E190E0489FF001499FA3
:10303000F00D589FF00D1124E356FD4FF0936303FC
:10304000E093620381899289A389B489B695A79593
:1030500097958795EAE3F3E080933A0390933B03D7
:10306000A0933C03B0933D0384839583A683B783E9
:1030700080879187A287B38784879587A687B7873C
:10308000E0916203F09163038091720C9081892733
:1030900080934D03D90173E0AA0FBB1F7A95E1F726
:1030A000A21BB30BA25FBC4F15962C91818192811C
:1030B000A381B481022E04C0B695A79597958795F4
:1030C0000A94D2F780934E0390934F03A09350033A
:1030D000B093510385819681A781B085022E04C0EB
:1030E000B695A795979587950A94D2F78093520342
:1030F00090935303A0935403B09355038185928515
:10310000A385B485022E04C0B695A795979587959B
:103110000A94D2F78093560390935703A0935803D1
:10312000B093590385859685A785B08904C0B69567
:10313000A795979587952A95D2F780935A039093F0
:103140005B03A0935C03B0935D0304C00E947C17F3
:10315000F29ABAC10E94263310924C0380914E031A
:1031600090914F03A0915003B091510320913A03E5
:1031700030913B0340913C0350913D03820F931FDC
:10318000A41FB51F80933A0390933B03A0933C0385
:10319000B0933D03E0916203F0916303218932898A
:1031A00043895489281739074A075B0768F521E0E6
:1031B00020934C032189328943895489821B930BC4
:1031C000A40BB50B80933A0390933B03A0933C036D
:1031D000B0933D0320818091C10A9091C20AA091D1
:1031E000C30AB091C40A24FF04C00197A109B10920
:1031F00003C00196A11DB11D8093C10A9093C20A1C
:10320000A093C30AB093C40A8091520390915303D0
:10321000A0915403B091550320913E0330913F0398
:103220004091400350914103820F931FA41FB51F8B
:1032300080933E0390933F03A0934003B0934103D8
:103240002189328943895489281739074A075B073E
:1032500078F520914C03226020934C032189328918
:1032600043895489821B930BA40BB50B80933E03B7
:1032700090933F03A0934003B0934103208180913A
:10328000C50A9091C60AA091C70AB091C80A25FF45
:1032900004C00197A109B10903C00196A11DB11D88
:1032A0008093C50A9093C60AA093C70AB093C80A30
:1032B0008091560390915703A0915803B091590300
:1032C00020914203309143034091440350914503C0
:1032D000820F931FA41FB51F809342039093430353
:1032E000A0934403B09345032189328943895489CB
:1032F000281739074A075B0778F520914C032460AB
:1033000020934C032189328943895489821B930B72
:10331000A40BB50B8093420390934303A093440303
:10332000B093450320818091C90A9091CA0AA09167
:10333000CB0AB091CC0A26FF04C00197A109B109BC
:1033400003C00196A11DB11D8093C90A9093CA0ABA
:10335000A093CB0AB093CC0A80915A0390915B035F
:10336000A0915C03B0915D03209146033091470327
:103370004091480350914903820F931FA41FB51F2A
:103380008093460390934703A0934803B093490367
:103390002189328943895489281739074A075B07ED
:1033A00078F520914C03286020934C0321893289C1
:1033B00043895489821B930BA40BB50B809346035E
:1033C00090934703A0934803B093490320818091D1
:1033D000CD0A9091CE0AA091CF0AB091D00A27FFD2
:1033E00004C00197A109B10903C00196A11DB11D37
:1033F0008093CD0A9093CE0AA093CF0AB093D00ABF
:1034000089B19091B20A89279091B30A8923C1F0BA
:10341000809590914C03892380934C03882329F451
:103420008091B40A81608093B40A8091BF0A85704C
:1034300039F4F59905C00E94100A8EB3806E8EBBD8
:1034400080915E0390915F03019790935F03809357
:103450005E03009781F5C0916403D09165032C81D0
:1034600030E086E190E0289FF001299FF00D389F21
:10347000F00D1124E356FD4F858990E0A0E0B0E007
:103480008093E10A9093E20AA093E30AB093E40ADE
:103490008EB39E81892B8EBB1092650310926403BC
:1034A000809139038F5F809339038091390386308F
:1034B00011F4109239038091710C90914C0389277B
:1034C00080934C03109266031798FF91EF91DF9160
:1034D000CF91BF91AF919F918F917F916F915F91AC
:1034E0004F913F912F910F900BBE0F900FBE0F90F9
:1034F0001F9018951F920F920FB60F920BB60F9256
:1035000011248F939F93EF93FF93E2E0F1E090817A
:103510008091710C8F70907F892B808315BCFF91F7
:10352000EF919F918F910F900BBE0F900FBE0F9058
:103530001F9018951F920F920FB60F9211248F9320
:1035400080916103809302018F910F900FBE0F90C5
:103550001F9018950E947C178BE2E2E7F2E0DF01F2
:103560001D928A95E9F78CE2EAE3F3E0DF011D9210
:103570008A95E9F710927102109270021092390345
:1035800010920D0381E08093380310926603089532
:10359000989A9998A09AA1988FEF87B990918C0CDE
:1035A00098B980930A0190918D0C892F880F880F0C
:1035B000892B80930B018AB1807F8AB98BB18F6090
:1035C0008BB9809A88980895CF93DF93A1E0B1E0FA
:1035D0008C918F608C93E2E0F1E08081807F90910C
:1035E000710C892B8083C4E0D1E088818E6388834D
:1035F0008C91806F8C9380818F709091720C892B4D
:103600008083E1E8F0E080818F7E80838081886024
:103610008083E0E8F0E080818C7F808380818F7000
:103620008083EEE6F0E08081887F808314BC15BC47
:103630008081816080838081826080830E94C81A3B
:10364000DF91CF910895CF93DF93C0917002D09115
:1036500071022097B9F081E0809373022091890272
:1036600030918A0240918B0250918C02CA01B901BB
:103670000E949A3D6D8B7E8B8F8B988F109271027A
:1036800010927002DF91CF9108952F923F924F9246
:103690005F926F927F928F929F92AF92BF92CF92E2
:1036A000DF92EF92FF920F931F93DF93CF93CDB7EB
:1036B000DEB7AE970FB6F894DEBF0FBECDBFACC776
:1036C0008091700290917102009709F0C6C20E9429
:1036D0004A299093710280937002009709F4A3C75E
:1036E00020917302222319F010927302EEC02091F0
:1036F00072022F5F20937202253011F41092720231
:103700002091720230E046E150E0249F8001259F25
:10371000100D349F100D112403561D4F10930C03F0
:1037200000930B03DC012C91F80120830E941C29DB
:10373000D80155968C9300910B0310910C03C09007
:103740007002D0907102F60181819281A381B481CF
:1037500053E0880F991FAA1FBB1F5A95D1F7F80194
:1037600081839283A383B483F60185819681A781A7
:10377000B08543E0880F991FAA1FBB1F4A95D1F758
:10378000F80185839683A783B087F60181859285AA
:10379000A385B48533E0880F991FAA1FBB1F3A95F4
:1037A000D1F7F80181879287A387B487F6018585D1
:1037B0009685A785B08923E0880F991FAA1FBB1F94
:1037C0002A95D1F7F80185879687A787B08BD60110
:1037D00051966D917D918D919C9154979B01AC0177
:1037E000A3E0220F331F441F551FAA95D1F7218B49
:1037F000328B438B548B0E94FC3B6093740270931A
:1038000075028093760290937702D60199962D9156
:103810003D914D915C919C970E94633B7B018C0193
:10382000762F272F3F2D402F512F20937802309352
:10383000790240937A0250937B0260E070E080EA64
:103840009FE30E94633B60937C0270937D028093B0
:103850007E0290937F0220E030E0A9012093800255
:103860003093810240938202509383028091BF0A79
:103870008032E1F4209191023091920240919302C2
:10388000509194022093890230938A0240938B02D4
:1038900050938C02CA01B9010E949A3DD6015596F7
:1038A0006D937D938D939C9358970FC0F601658916
:1038B00076898789908D0E94273E60938902709354
:1038C0008A0280938B0290938C0220E030E0A90161
:1038D000209385023093860240938702509388029A
:1038E000C0907002D0907102D6019596ED90FD9037
:1038F0000D911C91989760E070E080E09FE3A80133
:1039000097010E94633B69837B838C839D838091B5
:10391000BF0A803209F05EC0B2E0B0938402F601C3
:1039200061A472A483A494A4258836884788508C07
:103930003C81832FA20191010E949A3D9B01AC0121
:10394000C401B3010E94823AD62EC72EB82EA92EEA
:10395000A6019501652F742F832F922F20E030E070
:10396000A9010E945C3B87FF1BC0C801B701A801E9
:1039700097010E94833AA40193010E949A3D9B0102
:10398000AC01C201B1010E94823A0E94273E6093BD
:1039900091027093920280939302909394025DC17E
:1039A000A6019501852F942FA32FB22F8093850216
:1039B00090938602A0938702B093880220E030E0C3
:1039C000A901209391023093920240939302509365
:1039D000940243C110928402F60181A592A5A3A589
:1039E000B4A58093950290939602A0939702B0930A
:1039F00098020E9461295B016C01609391027093AF
:103A000092028093930290939402A60195010E94E2
:103A10009A3D6E837F838B879C87209170023091C3
:103A2000710238A72FA3D90199966D907D908D9042
:103A30009C909C9755962D903D904D905C905897FA
:103A4000C201B101BE81AF811B850C852B2F3A2F9E
:103A5000412F502F0E94823A9B01AC01B981AB816A
:103A60001C810D816B2F7A2F812F902F0E949A3D00
:103A70009B01AC01C401B3010E94833A20E030E015
:103A800040E05FE30E949A3DF62E072F182FE92EA3
:103A900020E030E0A9010E945F3D18160CF0CAC07A
:103AA0006F2D702F812F9E2DA40193010E945C3BEE
:103AB00087FFACC0EFA1F8A5A1A0B2A0C3A0D4A07D
:103AC000C601B501BE81AF819B848C842B2F3A2F18
:103AD000492D582D0E94823A9B01AC01B981AB81DE
:103AE0009C808D806B2F7A2F892D982D0E949A3D76
:103AF000262F372F482F592F2093990230939A025F
:103B000040939B0250939C022F2D302F412F5E2D0E
:103B10000E945C3B87FF3FC0C601B5010E94273E63
:103B200060938D0270938E0280938F029093900227
:103B3000C201B101A60195010E945C3B882321F4DA
:103B4000F1E0F093840289C0C601B501A2019101A0
:103B50000E94823A9B01AC01B981AB811C810D812D
:103B60006B2F7A2F812F902F0E949A3D9B01AC01E1
:103B700060919502709196028091970290919802BF
:103B80000E94823A60939502709396028093970206
:103B90009093980262C08F2D902FA12FBE2D8093FD
:103BA000950290939602A0939702B0939802809307
:103BB000990290939A02A0939B02B0939C02AFA1AA
:103BC000B8A595962D913D914D915C919897CA011C
:103BD000B9010E94833A2F2D302F412F5E2D0E9474
:103BE0009A3DBE81AF811B850C852B2F3A2F412F2B
:103BF000502F0E94833A0E94273E60938D0270935B
:103C00008E0280938F029093900227C0B2E0B0930F
:103C100084028091890290918A02A0918B02B091D6
:103C20008C0280938D0290938E02A0938F02B093AA
:103C3000900213C020E030E0A90120939502309358
:103C400096024093970250939802A0928D02B092F0
:103C50008E02C0928F02D092900280910D03482F65
:103C600050E05A834983FA0163E0EE0FFF1F6A9523
:103C7000E1F7E41BF50BE25FFC4F80917202848355
:103C80006090700270907102D30199960C9199978F
:103C90009A961C919A979B96FC909B979C96DC9089
:103CA000602F712F8F2D9D2D20917C0230917D02F0
:103CB00040917E0250917F020E94823A6F8F78A3DA
:103CC00089A39AA320E030E0A9010E945C3B87FF12
:103CD00004C01F8E18A219A21AA2B0919502BF8724
:103CE000E0919602E88BF0919702F98B209198026F
:103CF0002A8B30918D023B8B40918E024C8B5091E0
:103D00008F025D8B609190026E8B809199028F8BF8
:103D100090919A02988FA0919B02A98FB0919C02DA
:103D2000BA8FE0918502EB8FF0918602FC8F209193
:103D300087022D8F309188023E8F80919102909161
:103D40009202A0919302B09194028FA398A7A9A781
:103D5000BAA79090890240908A0230908B022090FE
:103D60008C02909184029B834AE0E42E30EEC32EB5
:103D70002EE1B22E99E3A92E1B861C861D861E8677
:103D8000AAE0AC83B0EEBD83EEE1EE83F9E3FF83FE
:103D90007EA66DA6592C2B81222321F0213009F01B
:103DA00005C1B2C095016E2D7C2D832F9A2DADA536
:103DB000BEA595962D913D914D915C9198970E944D
:103DC0009A3D962E872E782E692EA4019301652F99
:103DD000742F832F922F20E030E040E05FE30E94B9
:103DE0009A3D9B01AC01D201F1016B2F742D8F2FF5
:103DF000922D0E94833A9B01AC01F5016E2D7C2D22
:103E00008F2F9A2D0E949A3D9B01AC01602F712F3C
:103E10008F2D9D2D0E94823A8B01F82ED92E712F65
:103E2000BF85A889E989EBA3FA89FCA32B2F3A2F38
:103E3000AF010E945C3B87FF54C0ADA5BEA599961B
:103E40006D917D918D919C919C97BF85A8891989D1
:103E50000A892B2F3A2F412F502F0E94823A9B0123
:103E6000AC010E94833A7B018C01A2019101652F74
:103E7000742D832F922DBB89AC89DD88CE882B2FA2
:103E80003A2F4D2D5C2D0E94833A9B01AC01C80155
:103E9000B7010E94633BE62EC72EB82EA92E5F8580
:103EA000488939892A89652F742F832F922FBF89DA
:103EB000A88D198D0A8D2B2F3A2F412F502F0E943C
:103EC0005C3B882319F0B1E0BB8302C0E2E0EB83E6
:103ED0005B884C883D882E880F851889F988DA8898
:103EE00012C1A2019101652F742D832F922DD4014F
:103EF000F3012B2F3A2F4F2F5E2F0E94833A562E1D
:103F0000472E382E292EFFC05B894C893D892E898A
:103F1000652F742F832F922FF5012E2D3C2D4F2FBF
:103F20005A2D0E949A3D9B01AC01602F712F8F2D5D
:103F30009D2D0E94823A962E872E782E692EA401FE
:103F40009301652F742F832F922FAF89F88DFBA3D8
:103F5000298D2CA3BA8D2A2F3F2F4CA15B2F0E94B5
:103F60005C3B87FFCCC0602F712F8F2D9D2DBF89AB
:103F7000A88D198D0A8D2B2F3A2F412F502F0E947B
:103F8000823ABB89AC891D890E892B2F3A2F412F8C
:103F9000502F0E94633BE62EC72EB82EA92E0F8904
:103FA000188DF98CDA8C32E03B83ADC095016E2D13
:103FB0007C2D832F9A2DADA5BEA595962D913D9173
:103FC0004D915C9198970E949A3D6BA37CA38DA321
:103FD0009EA3A2019101652F742D832F922DBBA169
:103FE000ACA19DA08EA02B2F3A2F492D582D0E94B9
:103FF0005F3D18160CF054C05BA14CA19401652FD5
:10400000742F832F922F20E030E040E05FE30E9486
:104010009A3D9B01AC01D201F1016B2F742D8F2FC2
:10402000922D0E94823A9B01AC01F5016E2D7C2DF0
:104030008F2F9A2D0E949A3D9B01AC01602F712F0A
:104040008F2D9D2D0E94823A962E872E782E692ED6
:10405000A4019301652F742F832F922FBB8DAC8DFC
:10406000ED8DEBA7FE8DFCA72B2F3A2FAF010E9401
:104070005F3D1816ACF4A2019101652F742D832FBA
:10408000922DBBA1ACA11DA10EA12B2F3A2F412F28
:10409000502F0E94823A562E472E382E292E2FC09E
:1040A000602F712F8F2D9D2DBB8DAC8D1D8D0E8D95
:1040B0002B2F3A2F412F502F0E94823A9B01AC01A7
:1040C0000E94833A7B018C01A2019101652F742D1E
:1040D000832F922D2FA138A549A55AA50E94833A76
:1040E0009B01AC01C801B7010E94633BE62EC72EBD
:1040F000B82EA92E0B8D1C8DFD8CDE8C04C0092DD5
:10410000182DF72CD62C5B854C853D852E85652F8B
:10411000742F832F922FF5012E2D3C2D4F2F5A2DCA
:104120000E94833A762E672E4C016B877C878D87A1
:104130009E86A301652F742F992DBC81AD81EE80E1
:10414000CF802B2F3A2F4E2D5C2D0E945C3B87FF9A
:104150000AC05C814D81652F742F8E2D9C2DD3015B
:10416000E82CC92C39C0602F712F8F2D9D2DBF8D4C
:10417000A8A1E9A0CAA02B2F3A2F4E2D5C2D0E949A
:104180005F3D18169CF0E82CC92C9101852D942DCB
:10419000A32FB22D8093890290938A02A0938B0261
:1041A000B0938C022B812093840245C05C814D81A9
:1041B0003E812F81652F742F832F922F2AE030EEBE
:1041C0004EE159E30E94833A6C837D838E839F8303
:1041D000BB85AC85ED84CE842B2F3A2F4E2D5C2DE4
:1041E0000E94823AE62EC72EB82EA92E602F712F7C
:1041F0008F2D9D2DBB8DAC8D3D8D3BA34E8D4CA346
:104200002B2F3A2F4BA15CA10E945F3D18160CF496
:10421000C2CDE82CC92C9101852D942DA32FB22D50
:104220008093890290938A02A0938B02B0938C02B0
:104230005B81509384022090780230907902409004
:104240007A0250907B02C201B101202F312F4F2DF5
:104250005D2D0E949A3D6B837C838D839E830E949B
:10426000493B4B015C016091740270917502809131
:104270007602909177020E94493B6F837887898705
:104280009A87A50194010E94823A0E94D03BE9815D
:10429000FA8183E0EE0FFF1F8A95E1F7A981BA81C9
:1042A000EA1BFB0BE25FFC4F7183608361157105B4
:1042B00089F58091BF0A803269F56501540180E07B
:1042C00090E0DC018093890290938A02A0938B0294
:1042D000B0938C028093800290938102A09382021B
:1042E000B0938302A0927402B0927502C0927602DB
:1042F000D09277020091700210917102C601B5014F
:10430000A20191010E94633BF80161A772A783A7F4
:1043100094A776C1A301652F762D8E2D9C2D20911B
:1043200080023091810240918202509183020E946A
:10433000833A2B013C016F81788589859A85BB8101
:10434000AC81ED80CE802B2F3A2F4E2D5C2D0E941C
:10435000823A9B01AC01C301B2010E94633BE62E8D
:10436000C72E782E692EC501B401BB81AC815D805A
:104370004E802B2F3A2F452D542D0E94823AF30167
:104380002E2D3C2D4F2F5E2F0E949A3D6093800270
:1043900070938102809382029093830293016E2D29
:1043A0007C2D832F922F20EC31EE44E65EE40E94B8
:1043B0009A3D0E94493B0E94D03B9B01AC01DA012F
:1043C000C901803DF7E09F07F0E0AF07F0E0BF07CD
:1043D00080F449815A81B3E0440F551FBA95E1F743
:1043E00029813A81421B530B425F5C4FFA011582CF
:1043F00062C0203AFFE03F07F0E04F07F0E05F07C0
:1044000080F4E981FA81A3E0EE0FFF1FAA95E1F79E
:1044100089819A81E81BF90BE25FFC4F91E095835B
:1044200021C069817A81E3E0660F771FEA95E1F7A1
:104430002034AFE13A07A0E04A07A0E05A0740F471
:10444000E981FA816E1B7F0B625F7C4FE2E007C05F
:1044500089819A81681B790B625F7C4FE3E0DB0105
:104460001596EC93E981FA8163E0EE0FFF1F6A95E0
:10447000E1F789819A81E81BF90BE25FFC4F6581C6
:10448000DA01C901062E04C0B695A79597958795C0
:104490000A94D2F72081318102C0220F331F6A951E
:1044A000E2F731832083803020E0920721E0A207E9
:1044B00020E0B20788F449815A8123E0440F551F58
:1044C0002A95E1F7E981FA814E1B5F0B425F5C4F51
:1044D000FA019383828304C02FEF3FEF338322835B
:1044E0008091380380930D038F5F8093380386306B
:1044F00011F410923803602F712F8F2D9D2D209174
:1045000085023091860240918702509188020E9474
:104510005F3D69817A81B3E0660F771FBA95E1F755
:1045200018163CF5E0917002F0917102802F912FE6
:10453000AF2DBD2D81A792A7A3A7B4A75B814C8106
:104540003D812E81852F942FA32FB22F809374024B
:1045500090937502A0937602B093770249815A81B5
:10456000641B750B625F7C4FDB0116961C921697DD
:1045700053C0E981FA816E1B7F0B625F7C4FE1E0E3
:10458000DB011696EC93602F712F8F2D9D2D20E06F
:1045900030E0A9010E945F3D1816C4F56501540181
:1045A00080E090E0DC01E5E8F2E084839583A68377
:1045B000B7838093800290938102A0938202B0938C
:1045C0008302A0927402B0927502C0927602D092D9
:1045D00077020091700210917102C601B50120911D
:1045E00078023091790240917A0250917B020E94C8
:1045F000633BD80199966D937D938D939C939C9783
:104600000E94942D88E08093BF0A0DC01092710221
:10461000109270020E9436299091390380913803DC
:10462000981709F04DC8AE960FB6F894DEBF0FBECE
:10463000CDBFCF91DF911F910F91FF90EF90DF9051
:10464000CF90BF90AF909F908F907F906F905F9032
:104650004F903F902F900895F999FECF92BD81BD64
:1046600081E08FBB80B50895F894F999FECF92BD93
:1046700081BD81E08FBB40B54627842F992787FDF8
:104680009095262F30E082239323009739F06F3FD7
:1046900019F060BD84E006C084E104C0442321F029
:1046A00060BD84E28FBBF99A789408958F929F92AF
:1046B000AF92BF92CF92DF92EF92FF920F931F9330
:1046C000DF93CF930F92CDB7DEB75C016B017A0118
:1046D0004A0120E01BC0222341F4332727FD3095F7
:1046E0002227330F221F332702C021E030E0F601DA
:1046F00061916F01260F8C010F5F1F4F29830E946C
:104700003423089481089108C801298181149104F7
:1047100011F7C7018A0D9B1D622F0E9434230F9051
:10472000CF91DF911F910F91FF90EF90DF90CF908D
:10473000BF90AF909F908F9008959F92AF92BF923D
:10474000CF92DF92EF92FF920F931F93CF93DF935D
:104750006C01EB017A018A01CB0199241BC05C0139
:104760000894A11CB11C0E942C23992049F4292DE6
:10477000332727FD30952227330F221F332702C00E
:1047800021E030E0982E920EF60181936F010150E6
:104790001040C5010115110511F7C7018C0F9D1FB0
:1047A0000E942C2321E030E0981611F020E030E048
:1047B000C901DF91CF911F910F91FF90EF90DF9092
:1047C000CF90BF90AF909F90089597E4899FC001CC
:1047D000112480509D4F46E450E00E9456230895D6
:1047E000BC0180EE93E046E450E00E945623089519
:1047F00091E1899FC001112480509E4F40E150E01B
:104800000E945623089580E090E067E40E943423DC
:1048100081E090E060E37CE04EE550E00E945623AA
:10482000089580E090E0A8ECB3E48093300C90937E
:10483000310CA093320CB093330C8093340C9093D2
:10484000350CA093360CB093370C8093380C9093B2
:10485000390CA0933A0CB0933B0C80933C0C909392
:104860003D0CA0933E0CB0933F0C2FE02093700CB6
:1048700020E030E04AE754E42093400C3093410CB0
:104880004093420C5093430C2093440C3093450CBE
:104890004093460C5093470C2093480C3093490C9E
:1048A00040934A0C50934B0C80934C0C90934D0CBE
:1048B000A0934E0CB0934F0C80E090EAACE0B7E4CC
:1048C0008093500C9093510CA093520CB093530CC6
:1048D0008093540C9093550CA093560CB093570CA6
:1048E0008093580C9093590CA0935A0CB0935B0C86
:1048F00080E090ECA8EAB6E480935C0C90935D0CA9
:10490000A0935E0CB0935F0C8FE692E1A3E0BBE353
:104910008093780C9093790CA0937A0CB0937B0CD5
:104920001092710C1092720C8AE097EDA3EABCE32E
:104930008093740C9093750CA093760CB093770CC5
:1049400082E580937C0C10927D0C80E090E0A0E2E8
:10495000B1E480937E0C90937F0CA093800CB09375
:10496000810C80E090E0A0EAB1E48093820C909307
:10497000830CA093840CB093850C8AEF90E0909305
:10498000870C8093860C80E090E0A0E8BFE38093E2
:10499000880C9093890CA0938A0CB0938B0C89E1BE
:1049A0008093730C80E090E0A8E4B2EC8093600CFC
:1049B0009093610CA093620CB093630C8093640C91
:1049C0009093650CA093660CB093670C8093680C71
:1049D0009093690CA0936A0CB0936B0C80936C0C51
:1049E00090936D0CA0936E0CB0936F0C10928C0C86
:1049F00010928D0C0E94032408951F93CF93DF9390
:104A0000182FEB0167E4869FB001112460507D4FA1
:104A1000CE0146E450E00E949D23009739F41882AD
:104A2000812FBE010E94E52380E001C081E0DF917B
:104A3000CF911F910895CF93DF93EC0160EE73E067
:104A400046E450E00E949D23009731F41882CE0185
:104A50000E94F02380E001C081E0DF91CF910895B2
:104A6000FF920F931F93F82E8B0121E1829F9001FB
:104A7000112420503E4FCB01B90140E150E00E948B
:104A80009D23009759F480E1D8011D928A95E9F79A
:104A90008F2DB8010E94F82380E001C081E01F91B2
:104AA0000F91FF90089580E090E00E942C238734BE
:104AB00059F480E39CE061E070E04EE550E00E9434
:104AC0009D2321E0009709F420E0822F0895EF92C2
:104AD000FF920F931F93CF93DF93EC017A018B0129
:104AE000CB01BA0120E030E0A9010E945C3B87FDC8
:104AF000BFC1C432D10508F0BDC1FE01EE58FF4F61
:104B0000EE0FFF1F0590F491E02D1994CC0FDD1FDF
:104B1000CC0FDD1FC05DD34FE882F9820A831B836F
:104B2000A3C1E092400CF092410C0093420C109310
:104B3000430C9AC1E092440CF092450C0093460C51
:104B40001093470C91C1E092480CF092490C0093ED
:104B50004A0C10934B0C88C1E0924C0CF0924D0C17
:104B600000934E0C10934F0C7FC1C801B70120E099
:104B700030E040E752E40E949A3D20E030E040E718
:104B800052E40E949A3D6093500C7093510C8093B4
:104B9000520C9093530C68C1C801B70120E030E07B
:104BA00040E752E40E949A3D20E030E040E752E4C2
:104BB0000E949A3D6093540C7093550C8093560C50
:104BC0009093570C51C1C801B70120E030E040E795
:104BD00052E40E949A3D20E030E040E752E40E9417
:104BE0009A3D6093580C7093590C80935A0C909393
:104BF0005B0C3AC1C801B70120E030E040E752E465
:104C00000E949A3D20E030E040E752E40E949A3D45
:104C100060935C0C70935D0C80935E0C90935F0CC2
:104C200023C117FB109517F91095E092600CF092D4
:104C3000610C0093620C1093630C16C117FB109566
:104C400017F91095E092640CF092650C0093660CD5
:104C50001093670C09C117FB109517F91095E09296
:104C6000680CF092690C00936A0C10936B0CFCC0FA
:104C700017FB109517F91095E0926C0CF0926D0CE3
:104C800000936E0C10936F0CEFC0C801B70120E0C9
:104C900030E040E450E40E945C3B87FDEDC0C80179
:104CA000B7010E94FD3D0E94D03B6093700CDCC0B8
:104CB000C801B7010E94683E0E94D03B6093710C0E
:104CC000D3C0C801B7010E94683E0E94D03B6093E8
:104CD000720CCAC0C801B7010E94FD3D0E94D03BC2
:104CE0006093730CC1C0E89417F9E092740CF092D1
:104CF000750C0093760C1093770CB6C0E092780C8C
:104D0000F092790C00937A0C10937B0CADC0C80123
:104D1000B70120E030E0A9010E945C3B90917C0C3F
:104D2000882311F091600EC09E7F0CC0C801B701AE
:104D300020E030E0A9010E945C3B90917C0C88232C
:104D400021F0926090937C0C8FC09D7FFBCFC801B7
:104D5000B70120E030E0A9010E945C3B90917C0CFF
:104D6000882311F09460EECF9B7FECCFC801B70190
:104D700020E030E0A9010E945C3B90917C0C8823EC
:104D800011F09064DFCF9F7BDDCFC801B70120E039
:104D900030E0A9010E945C3B90917C0C882321F0BB
:104DA00094FF6CC09062CECF9F7DCCCFC801B7017D
:104DB00020E030E0A9010E945C3B90917C0C8823AC
:104DC00011F0986001C0977F90937C0C0E94B62EE2
:104DD0004BC0C801B70120E030E0A9010E945C3B54
:104DE00090917C0C882311F09061ACCF9F7CAACF6E
:104DF000C801B7010E94683E0E94D03B60937D0CC1
:104E000033C0E0927E0CF0927F0C0093800C1093E4
:104E1000810C2AC0E092820CF092830C0093840CE7
:104E20001093850C21C0C801B7010E94FD3D0E946E
:104E3000D03B7093870C6093860C16C0E092880C70
:104E4000F092890C00938A0C10938B0C0DC0C80152
:104E5000B7010E94D03B60938C0C06C0C801B7011B
:104E60000E94D03B60938D0C0E94032480E007C019
:104E700084E005C083E003C086E001C08AE0DF91E2
:104E8000CF911F910F91FF90EF900895FF920F9394
:104E90001F93DF93CF93CDB7DEB760970FB6F8942B
:104EA000DEBF0FBECDBF0E945325882339F487E0B3
:104EB0000E943B330E9411240E94F733FF248E018D
:104EC0000F5F1F4F8F2DB8010E943025882319F4E2
:104ED00087E00E943B33F3948F2D883099F76096DA
:104EE0000FB6F894DEBF0FBECDBFCF91DF911F91FB
:104EF0000F91FF9008952F923F924F925F926F9281
:104F00007F928F929F92AF92BF92CF92DF92EF9259
:104F1000FF920F931F93DF93CF9300D0CDB7DEB7EF
:104F20001091A703112309F414E21150C090A603B5
:104F30001C1509F46BC1A12EBB2481E390E0A89E4F
:104F40007001A99EF00CB89EF00C112448EA53E0C1
:104F5000E40EF51EF7017996D70159969C90599762
:104F600061808280738095962D913D914D915C91E9
:104F70009897CA01B9010E94833AF70121A532A589
:104F800043A554A50E949A3DE62E072FF82ED92E50
:104F9000692D762D882D972D2E2D302F4F2D5D2D9F
:104FA0000E945C3B87FF04C0E92C062DF82CD72C0F
:104FB00081E390E0A89EF001A99EF00DB89EF00D4F
:104FC0001124E855FC4F8E2D902FAF2DBD2D858BD4
:104FD000968BA78BB08F112309F414E211501C1586
:104FE00089F081E390E0A89E7001A99EF00CB89E24
:104FF000F00C112448EA53E0E40EF51E91E3492E2B
:10500000512C70C08091A503C81609F070C00E9491
:10501000231B6DC0C12EDD24C49C3001C59C700CC7
:10502000D49C700C112488EA93E0680E791E112339
:1050300009F414E211508091A503181711F40E948D
:10504000231BC49C1001C59C300CD49C300C112433
:10505000A8EAB3E02A0E3B1EF101A18CB28CC38CEE
:10506000D48C658976898789908DA60195010E94E7
:105070005C3B8823B1F1D10195962D913D914D91E5
:105080005C919897CA01B9010E94833AF10121A568
:1050900032A543A554A50E949A3DD70155962D915E
:1050A0003D914D915C9158970E94833A062FF72EBF
:1050B000E82E992EA60195010E945C3B87FF0AC04D
:1050C000802F9F2DAE2DB92DF101858B968BA78B4F
:1050D000B08F07C0D1015596AD92BD92CD92DC92B2
:1050E000589773018091A603181709F093CF009188
:1050F000A603202F30E081E390E0289FF001299F54
:10510000F00D389FF00D1124E855FC4FFB83EA8326
:10511000102F1F5F143209F410E0F091A703F983F8
:1051200081E3282E312C6CC0412E5524429C700105
:10513000439CF00C529CF00C112448EA53E0E40E1E
:10514000F51EAA81BB815596AD90BD90CD90DC90A7
:105150005897F701658876888788908CC601B501D5
:10516000A40193010E945C3B87FF2EC0AA81BB81F2
:1051700095962D913D914D915C919897CA01B901F9
:105180000E94833AEA81FB8121A532A543A554A55B
:105190000E949A3D9B01AC01C601B5010E94833A71
:1051A000D62EA72EC82EB92EA40193010E945C3BD7
:1051B00087FF0AC08D2D9A2DAC2DBB2DF701858B55
:1051C000968BA78BB08F012F429CF001439CF00D72
:1051D000529CF00D1124E855FC4F6589768987892A
:1051E000908D218D328D438D548D0E945C3B8823A0
:1051F00009F4012F1F5F143209F410E0FB82EA82E8
:10520000F9811F1709F090CF0093A6030F900F901C
:105210000F90CF91DF911F910F91FF90EF90DF9052
:10522000CF90BF90AF909F908F907F906F905F9046
:105230004F903F902F9008959C01285A334081ED64
:1052400098E5289F802D1124089584E2ECE8FAE087
:10525000DF011D928A95E9F71092A5031092A7032A
:1052600081E08093B00A1092A60308959091A5035F
:105270008091A703891769F0892F8F5F843209F421
:1052800080E02091A603921711F48093A6038093E7
:10529000A50308954091A5038091A703841769F0A1
:1052A00050E081E390E0489F9001499F300D589F66
:1052B000300D112428553C4F02C020E030E0C901D8
:1052C00008952091A5032F5F243209F420E08091F6
:1052D000A703281799F030E081E390E0289FF001C0
:1052E000299FF00D389FF00D1124E855FC4F65897A
:1052F00076898789908D0E94273E04C060E070E027
:1053000080E090E0089581E02091A5039091B00A9B
:10531000291380E008952F923F924F925F926F92EF
:105320007F928F929F92AF92BF92CF92DF92EF9235
:10533000FF920F931F93DF93CF93CDB7DEB7EB9719
:105340000FB6F894DEBF0FBECDBF742E652E472E6C
:1053500029AB670178012091A703422F50E05AA39F
:1053600049A321E330E0429F8001439F100D529FEB
:10537000100D1124F801E855FC4F118A128A138A86
:10538000148A20E030E0A90121A732A743A754A73F
:10539000108229E936E746E95EE725A336A347A34D
:1053A00050A7C5A6D6A6E7A6F0AA282F392F38A75A
:1053B0002FA380E39CE09EA38DA39E012F5F3F4F10
:1053C0003AA729A74CE85AE05CA74BA707551C4F02
:1053D000CE0141969CA38BA39EA78DA733247F016A
:1053E0007196F8ABEFA779E2872E912C8E0C9F1C5B
:1053F0007AAA6BAA6CAB242C5701EFA1F8A5619196
:10540000719181919191F8A7EFA3EDA1FEA1419037
:10541000519061907190FEA3EDA3A30192010E94AF
:105420009A3D0E946A3D9B01AC01E9A5FAA5219332
:10543000319341935193FAA7E9A7EBA5FCA581917C
:105440009191A191B191FCA7EBA7281B390B4A0BB5
:105450005B0BDA01C90157FF07C088279927DC01D8
:10546000821B930BA40BB50BF80180839183A2835D
:10547000B3830C5F1F4FEFA5F8A9C080D180E280F5
:10548000F3808C159D05AE05BF0510F4D701C6014C
:10549000EFA5F8A980839183A283B383CA01B901E0
:1054A0000E94FE3BA30192010E94633BF62EE72E71
:1054B000D82EC92E862F9E2DAD2DBC2DEDA5FEA577
:1054C00081939193A193B193FEA7EDA7A7019601B4
:1054D000652F742F832F922F20E030E0A9010E94C6
:1054E0005C3B87FF08C0F5017080832D0E945E2E13
:1054F0008729F5018083A7019601652F7E2D832FD3
:105500009C2DD701F6012B2F3E2D4F2F5C2D0E9495
:105510009A3DF40120813181428153810E94833A76
:10552000262F372F482F592FF401208331834283B0
:1055300053833394F32DF43009F05FCF7AA86BA82E
:105540005CA8422C0E94273EF40160837183828311
:105550009383F50181899289A389B4890097A10574
:10556000B10511F58091A703882309F484E221E3B2
:1055700030E049A15AA1429FF001439FF00D529F94
:10558000F00D1124E855FC4F45A556A567A570A957
:1055900081500E9406179091A7038091A503981748
:1055A00009F068C2F09A66C2F50145A556A567A53F
:1055B00070A98091A7030E940617A3019201652F8D
:1055C000742F832F922F20E030E0A9010E945C3BD2
:1055D00087FD15C0F9A9FF23D1F0F4016081718125
:1055E00082819381D301F2012B2F3A2F4F2F5E2F0F
:1055F0000E94633B762E672E582E492E08C069E91B
:10560000762E56E7652E46E9542E3EE7432E81E37B
:1056100090E029A13AA1289F8001299F100D389F71
:10562000100D112408551C4F60E070E080E89FE3E6
:10563000F80121A532A543A554A50E94633B6EAB9A
:105640007FAB88AF99AF2CE93AE03EA32DA320E4CD
:10565000822E2CE0922EAE014F5D5F4F5BAF4AAFC2
:105660001FA219A61BA61DA60B5D1F4FEBA1FCA137
:10567000C080D180E280F380C701B60120E030E035
:10568000A9010E945C3B882309F4A0C0C701B601B0
:10569000BEA9AFA9F8ADE9AD2B2F3A2F4F2F5E2F42
:1056A0000E949A3D362E7BAB8CAB9DAB472F382F9B
:1056B000292F862F942FA32FB22FEBA1FCA180833B
:1056C0009183A283B38360E070E080E89FE3F901F7
:1056D000232D342F4F2F5E2F0E94633B6B017C01E3
:1056E000E894F7F8C701B601F401208131814281C5
:1056F00053810E949A3D262E7FA789AB9AABA301C6
:105700009201652F762D832F942DAFA5F9A9EAA9D3
:10571000222D3A2F4F2F5E2F0E945C3B87FF04C043
:10572000272C6FA659AA4AAAF801B080A1807280DE
:105730006380C701B601F401208931894289538908
:105740000E949A3DF62EE72ED82EC92EA501930170
:10575000652F742F832F922FD701F6012B2F3A2F0D
:105760004F2F5E2F0E945C3B87FF02C075016301D3
:10577000A7019601852F9E2DA32FBC2DF8018083B4
:105780009183A283B3834BA93CA92DA9632D742FC8
:10579000832F922FEDA1FEA120813181428153817F
:1057A0000E949A3D9B01AC01BFA1A9A5FBA5EDA557
:1057B0006B2F7A2F8F2F9E2F0E94823A6FA379A78B
:1057C0008BA79DA7722C6FA459A84AA82BA13CA116
:1057D0002C5F3F4F3CA32BA34DA15EA14C5F5F4FBD
:1057E0005EA34DA384E090E0880E991EEAADFBAD68
:1057F0002E173F0709F03ACF9091A7038091A50398
:105800009817A9F481E390E029A13AA1289FF0011B
:10581000299FF00D389FF00D1124E855FC4F80E0D2
:1058200090E0DC01858B968BA78BB08F67C060E022
:1058300070E080E89FE3BFA1A9A5FBA5EDA52B2FF4
:105840003A2F4F2F5E2F0E94823A20E030E040E056
:105850005FE30E949A3D0E94273E7B018C0181E319
:1058600090E049A15AA1489FF001499FF00D589F2F
:10587000F00D1124E855FC4F65A176A187A190A5F4
:105880002091740C3091750C4091760C5091770CEE
:105890000E949A3DA80197010E949A3D5B016C010C
:1058A00060E070E080E89FE3A80197010E94823ADF
:1058B0009B01AC01C601B5010E94633B7B018C01D9
:1058C0007F2D912F20E030E0A9010E945C3B87FFF3
:1058D00004C0EE24FF2400E010E081E390E029A161
:1058E0003AA1289FF001299FF00D389FF00D112457
:1058F000E855FC4F8E2D9F2DA02FB12F858F968FB1
:10590000A78FB0A3A3019201652F762D832F942D2D
:10591000D301F2012B2F362D4F2F542D0E949A3D8B
:10592000D62EE72E082FC92E81E390E049A15AA177
:10593000489FF001499FF00D589FF00D1124E85544
:10594000FC4F8D2D9E2DA02FBC2D81A392A3A3A330
:10595000B4A3DF015D96B58C1196AC9011971296A9
:105960001C9112971396FC909090AC0A8090AD0A0F
:105970007090AE0A6090AF0A552453946D2D7E2D21
:10598000802F9C2DD401F3012B2F3A2F4F2F5E2F08
:105990000E945C3B87FD04C05524A401930104C010
:1059A0005D2D4E2D302F2C2DD5016B2F7A2D812F73
:1059B0009F2DE52FF42FA32FB22F9F01AD010E9441
:1059C0005C3B87FD0AC0552029F0BD2CAE2C102F62
:1059D000FC2C03C05401172DF62C81E390E029A183
:1059E0003AA1289FF001299FF00D389FF00D112456
:1059F000E855FC4FA501852F9A2DA12FBF2D818F32
:105A0000928FA38FB48FACE9BAE0FE01719680E16A
:105A100001900D928150E1F781E390E049A15AA1F4
:105A2000489FF001499FF00D589FF00D1124E85553
:105A3000FC4F81A192A1A3A1B4A18093AC0A909341
:105A4000AD0AA093AE0AB093AF0AACE8BAE0FE018B
:105A5000319680E101900D928150E1F78091B00A7A
:105A60008093A7038F5F843209F480E08093B00AAB
:105A70000E947B27EB960FB6F894DEBF0FBECDBF1A
:105A8000CF91DF911F910F91FF90EF90DF90CF901A
:105A9000BF90AF909F908F907F906F905F904F904E
:105AA0003F902F9008958091C10A9091C20AA091D1
:105AB000C30AB091C40A80938C0A90938D0AA09374
:105AC0008E0AB0938F0A8091C50A9091C60AA09160
:105AD000C70AB091C80A8093900A9093910AA09344
