:100000000C94D5040C94712E0C94F6040C94F60404
:100010000C94F6040C94F6040C94F6040C94F60478
:100020000C94F6040C94F6040C94F6040C94F60468
:100030000C94892E0C94F6040C94F6040C94F6049B
:100040000C94F6040C946C170C94F6040C94F604BF
:100050000C94F6040C944E1A0C94F6040C942E1A7C
:100060000C94F6040C94A8150C9466150C94F604E4
:100070000C94F6040C94F6040C94F6040C94F60418
:100080000C94F6040C94F6040C94F6040C94F60408
:100090000C94F6040C94F6040C94F6040C94F604F8
:1000A0000C94F6040C94F6040C94F6040C94F604E8
:1000B0000C94F6040C94F6040C94F6040C94F604D8
:1000C0000C94F6040C94F6040C94F6040C94F604C8
:1000D0000C94F6040C94F6040C94F6040C94F604B8
:1000E0000C94F60422252225222522252D253625AD
:1000F0003F254825512568257F259625AD25BA251C
:10010000C725D425E125F425FD2506260F261A2628
:1001100023263226432652266126722685269426D9
:100120009D26A626AF26BA26C326CA26084AD73B4E
:100130003BCE016E84BCBFFDC12F3D6C74319ABDB6
:1001400056833DDA3D00C77F11BED9E4BB4C3E91DA
:100150006BAAAABE000000803F05A84CCDB2D44EC9
:10016000B93836A9020C50B9918688083CA6AAAACB
:100170002ABE000000803F290A0D0028003E0D0A1B
:10018000002C4C6E3A002C0057506F733A002C0034
:100190002C4D506F733A003C436865636B003C41E3
:1001A0006C61726D003C486F6D65003C486F6C641B
:1001B000003C52756E003C5175657565003C4964A4
:1001C0006C65007D0A0D0020283A00292C20632848
:1001D0003A0020283A007B7A3A20007D0A0D002C54
:1001E00020763A007B653A005D0D0A005B302E39BF
:1001F000652C204A756C2031382032303134203162
:10020000383A30303A333120284B65794D65203209
:1002100035363029203A000D0A003D00244E005D9D
:100220000D0A00204600205400204D3800204D3992
:1002300000204D3500204D3400204D3300204D323C
:1002400000204D3100204D30002047393400204738
:1002500039330020473931002047393000204732F8
:1002600030002047323100204736360020473230F8
:100270000020473231002047313900204731380013
:1002800020473137002047005B473830005B473359
:10029000005B4732005B4731005B4730005D0D0A71
:1002A000005B544C4F3A005D0D0A002C005B47394F
:1002B000323A005D0D0A002C003A0033300032382B
:1002C000005B47005D0D0A002C005B5052423A0073
:1002D0000D0A0020286465636179206D6F64652CC8
:1002E0002028302E2E33292900290D0A2433353DAC
:1002F0000020286D6963726F7374657073203A20F3
:10030000000D0A2433343D002028686F6D696E6744
:100310002070756C6C2D6F66662C206D6D29002029
:1003200028686F6D696E67206465626F756E6365BE
:100330002C206D736563290D0A2433333D0020287A
:10034000686F6D696E67207365656B2C206D6D2F0E
:100350006D696E290D0A2433323D002028686F6DC7
:10036000696E6720666565642C206D6D2F6D696E02
:10037000290D0A2433313D00290D0A2433303D0074
:100380002028686F6D696E672064697220696E76D7
:10039000657274206D61736B3A002028686F6D6917
:1003A0006E67206379636C652C20626F6F6C290D1A
:1003B0000A2432393D00202868617264206C696D1E
:1003C0006974732C20626F6F6C290D0A2432383DDA
:1003D000002028736F6674206C696D6974732C201B
:1003E000626F6F6C290D0A2432373D002028696E38
:1003F00076657274206C696D69742070696E732CF7
:1004000020626F6F6C290D0A2432363D0020286966
:100410006E76657274207374657020656E61626CAF
:10042000652C20626F6F6C290D0A2432353D002047
:10043000286175746F2073746172742C20626F6F01
:100440006C290D0A2432343D0020287265706F72C9
:100450007420696E636865732C20626F6F6C290D60
:100460000A2432333D00202861726320746F6C656A
:1004700072616E63652C206D6D290D0A2432323D48
:100480000020286A756E6374696F6E2064657669F2
:100490006174696F6E2C206D6D290D0A2432313D17
:1004A000002028737465702069646C652064656C35
:1004B00061792C206D736563290D0A2432303D006B
:1004C000290D0A2431393D00202864697220706F9B
:1004D000727420696E76657274206D61736B3A0078
:1004E000290D0A2431383D0020287374657020706E
:1004F0006F727420696E76657274206D61736B3AE9
:10050000002028737465702070756C73652C2075DD
:10051000736563290D0A2431373D00202863206D5F
:1005200061782074726176656C2C206D6D290D0ADE
:100530002431363D0020287A206D61782074726164
:1005400076656C2C206D6D290D0A2431353D002017
:100550002879206D61782074726176656C2C206D2D
:100560006D290D0A2431343D00202878206D6178F2
:100570002074726176656C2C206D6D290D0A243112
:10058000333D0020286320616363656C2C206D6D12
:100590002F7365635E32290D0A2431323D00202815
:1005A0007A20616363656C2C206D6D2F7365635ECB
:1005B00032290D0A2431313D0020287920616363FE
:1005C000656C2C206D6D2F7365635E32290D0A24D6
:1005D00031303D0020287820616363656C2C206DEC
:1005E0006D2F7365635E32290D0A24393D00202882
:1005F00063206D617820726174652C206D6D2F6DA4
:10060000696E290D0A24383D0020287A206D617812
:1006100020726174652C206D6D2F6D696E290D0A35
:1006200024373D00202879206D617820726174653F
:100630002C206D6D2F6D696E290D0A24363D00202A
:100640002878206D617820726174652C206D6D2F83
:100650006D696E290D0A24353D002028632C207316
:100660007465702F6D6D290D0A24343D0020287AA1
:100670002C20737465702F6D6D290D0A24333D0095
:100680002028792C20737465702F6D6D290D0A2434
:10069000323D002028782C20737465702F6D6D29F1
:1006A0000D0A24313D0024303D00242420287669A1
:1006B0006577204772626C2073657474696E677326
:1006C000290D0A242320287669657720232070616C
:1006D00072616D6574657273290D0A24472028764E
:1006E00069657720706172736572207374617465D7
:1006F000290D0A244E20287669657720737461726B
:1007000074757020626C6F636B73290D0A24783DD9
:1007100076616C7565202873617665204772626C1E
:100720002073657474696E67290D0A244E783D6CD8
:10073000696E6520287361766520737461727475C3
:100740007020626C6F636B290D0A24432028636854
:1007500065636B2067636F6465206D6F6465290D49
:100760000A245820286B696C6C20616C61726D20C2
:100770006C6F636B290D0A2448202872756E2068FF
:100780006F6D696E67206379636C65290D0A7E2041
:10079000286379636C65207374617274290D0A2172
:1007A00020286665656420686F6C64290D0A3F2007
:1007B0002863757272656E74207374617475732921
:1007C0000D0A5E20286C696D69742070696E73294A
:1007D0000D0A6374726C2D7820287265736574201D
:1007E0004772626C290D0A000D0A4772626C203054
:1007F0002E3965205B27242720666F722068656C80
:10080000705D0D0A005D0D0A0044697361626C65DC
:100810006400456E61626C65640043617574696F64
:100820006E3A20556E6C6F636B6564002724482711
:100830007C2724582720746F20756E6C6F636B00C3
:10084000526573657420746F20636F6E74696E7582
:1008500065005B000D0A0050726F62652066616979
:100860006C0041626F727420647572696E672063F8
:1008700079636C6500486172642F736F6674206CD5
:10088000696D697400414C41524D3A20000D0A00D7
:10089000496E76616C69642067636F6465204944C2
:1008A0003A00556E646566696E65642066656564C8
:1008B000207261746500556E737570706F72746527
:1008C0006420636F6D6D616E64004D6F64616C20B8
:1008D00067726F75702076696F6C6174696F6E00F6
:1008E0004C696E65206F766572666C6F7700486F35
:1008F0006D696E67206E6F7420656E61626C6564F1
:1009000000416C61726D206C6F636B004E6F7420E0
:1009100069646C6500454550524F4D2072656164B5
:10092000206661696C2E205573696E672064656668
:1009300061756C74730056616C7565203C203320C2
:10094000757365630053657474696E6720646973B9
:1009500061626C65640056616C7565203C203000F6
:10096000496E76616C69642073746174656D656E3F
:100970007400426164206E756D62657220666F72EC
:100980006D617400457870656374656420636F6D94
:100990006D616E64206C6574746572006572726F4F
:1009A000723A20006F6B0D0A000011241FBECFEFBA
:1009B000D1E2DEBFCDBF00E00CBF12E0A0E0B2E0AC
:1009C000EEE2F3E800E00BBF02C007900D92A63301
:1009D000B107D9F718E0A6E3B2E001C01D92A13A31
:1009E000B107E1F70E94F8040C9495410C940000C3
:1009F0001F930E9435150E94E2260E94981A0E94B9
:100A0000FE3887E2EBECF6E0DF011D928A95E9F70C
:100A10001092F2061092F3061092F4061092F50668
:100A20001EBA81E08093CB06789411E00E94FA15FB
:100A30000E94420A0E942F150E9432150E94222E07
:100A40000E94FA320E94B8280E945E1A0E94BF2CAF
:100A50000E94AE0A1092CB061EBA8091890881FFCF
:100A600003C01093CD0602C01092CD060E949716C7
:100A7000DDCF9F92AF92BF92CF92DF92EF92FF9223
:100A80000F931F93CF93DF93EC015A016B01922ECA
:100A90008091890885FF03C0CE010E94E7308091D4
:100AA000CC068230D9F00E94FF158091CB068823B6
:100AB000A9F40E941629882319F00E949216F3CFF8
:100AC000CE01B601A501292D0E941E298091CC06D8
:100AD000882321F488E0EBECF6E08183DF91CF916D
:100AE0001F910F91FF90EF90DF90CF90BF90AF904C
:100AF0009F9008952F923F924F925F926F927F92B4
:100B00008F929F92AF92BF92CF92DF92EF92FF921D
:100B10000F931F93DF93CF93CDB7DEB7E6970FB652
:100B2000F894DEBF0FBECDBF9E878D87788B6F8711
:100B30002A0109871A872B873C87C98ADA8AEB8AB8
:100B4000FC8AAB8E9924880C991C880C991C880D02
:100B5000991D9D8F8C8F9201280D391D3F8F2E8FEF
:100B6000D901CD90DD90ED90FC90C701B601EC8DE0
:100B7000FD8D20813181428153810E94A13A6CA375
:100B80007DA38EA39FA32D960FAD2D9710E0000F90
:100B9000111F000F111F2D853E85200F311F39A316
:100BA00028A3C201800F911F9BA38AA3DC014D9053
:100BB0005D906D907C90C301B201F901208131817B
:100BC000428153810E94A13A68A779A78AA79BA76F
:100BD000D701C601B0588D839E83AF83B887D301F8
:100BE000C201B05889839A83AB83BC83EF85F889AF
:100BF000E80DF91D6081718182819381BCA1ADA155
:100C0000FEA1EFA12B2F3A2F4F2F5E2F0E94A03A6B
:100C1000E62EC72EA82E892EEF85F889E00FF11F4A
:100C20006081718182819381B8A5A9A5FAA5EBA500
:100C30002B2F3A2F4F2F5E2F0E94A03AF62E072F10
:100C4000182F992E6D817E818F8198852F2D302FC1
:100C5000412F592D0E94B83D2B013C0169817A81B9
:100C60008B819C812E2D3C2D4A2D582D0E94B83D04
:100C70009B01AC01C301B2010E94A03A2B013C01CF
:100C80006D817E818F8198852E2D3C2D4A2D582D8A
:100C90000E94B83D5B016C0169817A818B819C81E6
:100CA0002F2D302F412F592D0E94B83D9B01AC01B3
:100CB000C601B5010E94A13A9B01AC01C301B2017A
:100CC0000E94143BF62E172F882E092F8091F606CE
:100CD0008230B1F46F2D712F882D902F20E030E0FD
:100CE000A9010E947D3D87FD24C06F2D712F882DA5
:100CF000902F2BED3FE049EC50E40E94A03A15C044
:100D00006F2D712F882D902F20E030E0A9010E94D7
:100D10007A3B181674F06F2D712F882D902F2BEDC4
:100D20003FE049EC50E40E94A13AF62E172F882E9E
:100D3000092FA0908508B0908608C0908708D090B1
:100D4000880869857A858B859C859B01AC010E940A
:100D5000A13AA60195010E94A03A9B01AC01C601EF
:100D6000B5010E94B83D0E94453E5B016C016F2DAC
:100D7000712F882D902F20E030E040E05FE30E944B
:100D8000B83D29853A854B855C850E94B83D9F77A3
:100D9000A60195010E94813B0E94573C0E94EE3BB8
:100DA0007A876987DB01109709F4DFC1BB8DBB230C
:100DB000A1F080E090E00E941A3C9B01AC01B9894F
:100DC000AA89FB89EC896B2F7A2F8F2F9E2F0E9487
:100DD000B83D698B7A8B8B8B9C8B29853A85B901C1
:100DE00080E090E00E941A3C5B016C016F2D712F36
:100DF000882D902FA60195010E94813B6D8B7E8BE3
:100E00008F8B988F2E968FAD2E9790E0880F991F1D
:100E1000880F991FAD85BE85A80FB91FBA8FA98FFE
:100E2000EF85F8898E0F9F1FDC016D917D918D916B
:100E30009C91E98DFA8D20813181428153810E94FC
:100E4000A03AA60195010E94813B6BAB7CAB8DABB8
:100E50009EAB5D894E893F89288D652F742F832F26
:100E6000922FDA01F9012B2F3A2F4F2F5E2F0E947C
:100E7000B83D9B01AC0160E070E080E090E40E942E
:100E8000A03AF62E072F182FC92E5D894E893F896B
:100E9000288D652F742F832F922F2BEA3AEA4AE28E
:100EA0005EE30E94B83D4B015C016F2D702F812FD6
:100EB0009C2D20E030E040E850E40E94A13A9B01E4
:100EC000AC01C501B4010E94B83D6CA77DA78EA7F7
:100ED0009FA76F2D702F812F9C2D20E030E040E0E8
:100EE0005FE30E94B83DC62E78AB89AB9AAB8824ED
:100EF00081E0282E312C9C2C32C1F82DF43108F0E1
:100F000063C06D817E818F819885BCA5ADA5FEA54E
:100F1000EFA52B2F3A2F4F2F5E2F0E94B83D7B015C
:100F20008C0169817A818B819C81A8A9F9A9EAA9A0
:100F3000292D3A2F4F2F5E2F0E94B83D9B01AC0107
:100F4000C801B7010E94A13AD62EC72EA82E492E5D
:100F50006D817E818F819885A8A9F9A9EAA9292D9B
:100F60003A2F4F2F5E2F0E94B83D162F072FF82ED5
:100F7000E92E69817A818B819C81BCA5ADA5FEA5F6
:100F8000EFA52B2F3A2F4F2F5E2F0E94B83D9B01CC
:100F9000AC01D801F7016B2F7A2F8F2F9E2F0E9463
:100FA000A03A262F372F482F592F2D833E834F836A
:100FB00058878394A601852F942FAA2DB42D898359
:100FC0009A83AB83BC8372C0B10180E090E00E9441
:100FD0001A3CBD89AE89FF89E88D2B2F3A2F4F2F00
:100FE0005E2F0E94B83D7B018C017F2D912F0E94C6
:100FF0007E3B69837A838B839C836E2D7F2D802F2C
:10100000912F0E943B3E5B016C01AE8DBF8DED9038
:10101000FD900D911C9117FB109517F91095EAA101
:10102000FBA14080518062807380C801B701298193
:101030003A814B815C810E94B83D6D837E838F83B2
:101040009887C301B201A60195010E94B83D9B019A
:10105000AC016D817E818F8198850E94A13A262FF7
:10106000372F482F592F2D833E834F835887C80130
:10107000B701A60195010E94B83D7B018C01C30117
:10108000B20129813A814B815C810E94B83D9B016C
:10109000AC01C801B7010E94A03A262F372F482F74
:1010A000592F29833A834B835C8388245CA14DA10B
:1010B0003EA12FA1652F742F832F922F2D813E816A
:1010C0004F8158850E94A13AAC8DBD8D6D937D9363
:1010D0008D939C93139758A549A53AA52BA5652FE9
:1010E000742F832F922F29813A814B815C810E943A
:1010F000A13AE8A1F9A16083718382839383A98DCA
:10110000BA8D6D917D918D919C91BBA9ACA9FDA9E2
:10111000EEA92B2F3A2F4F2F5E2F0E94A13AE98D77
:10112000FA8D60837183828393838D859E85F9898F
:10113000EA893B892C894F2F5E2F632F722F2B8DCD
:101140006296ECACFDAC0EAD1FAD62970E94390506
:101150008091CB068823E1F40894211C311C298559
:101160003A852216330608F4C8CE8F859889F98906
:10117000EA893B892C894F2F5E2F632F722F2B8D8D
:101180006296ECACFDAC0EAD1FAD62970E943905C6
:10119000E6960FB6F894DEBF0FBECDBFCF91DF91BC
:1011A0001F910F91FF90EF90DF90CF90BF90AF9085
:1011B0009F908F907F906F905F904F903F902F9077
:1011C0000895EF92FF920F931F93CF93DF937B01CC
:1011D0008C018091CC06823009F447C0C801B70168
:1011E00020E030E040EA51E40E94B83D0E94573CC4
:1011F0000E94EE3BEB010E947B16C801B70120E084
:1012000030E04AE754E40E94B83D7B018C0182E360
:1012100090E0C89FB001C99F700DD89F700D112438
:1012200080E090E00E941A3C9B01AC01C801B7012C
:101230000E94A03A0E94573C0E94EE3BDC01CB0189
:101240000E94BF2D10C00E94FF1521978091CB06F0
:10125000882359F48FEF90E7A2E081509040A0409E
:10126000E1F700C00000209771F7DF91CF911F9147
:101270000F91FF90EF9008951F93182F84E08093B3
:10128000CC060E941D2E812F84700E94B92E812FC2
:1012900082700E94B92E812F89700E94B92E0E94FF
:1012A000FF158091CB06882341F40E94AE0A10926C
:1012B000CC060E943D170E94222E1F9108953F9256
:1012C0004F925F926F927F928F929F92AF92BF9256
:1012D000CF92DF92EF92FF920F931F93DF93CF9302
:1012E00000D000D0CDB7DEB7982E892E2A013B0161
:1012F000322E570168018091CC06803111F00E9496
:1013000092160E947B168091CB06882309F071C04B
:10131000892D982DB301A201232D860175010E940C
:10132000390581E08093F306F19A0E94FF158091C0
:10133000CB06882309F05DC08091CC06882311F08C
:10134000883099F78091F306883009F4F69A0E9464
:10135000FF158091CB06882309F04BC08EED96E0F7
:101360009E838D830DE318E0C401E92EF82CED81F6
:10137000FE816191719181919191FE83ED83F801DC
:1013800021913191419151918F0129833A834B836E
:101390005C830E941C3C29813A814B815C810E94C4
:1013A000813BF70161937193819391937F018D81CB
:1013B0009E81E6E08E3E9E07D1F60E94FF150E94B8
:1013C0005E1A0E94B8280E94BF2C892D982DB30167
:1013D000A201232D860175010E943905F19A0E9410
:1013E0007B168091CB06882321F40E94AE0A0E94CE
:1013F000DA3526960FB6F894DEBF0FBECDBFCF917B
:10140000DF911F910F91FF90EF90DF90CF90BF90F1
:10141000AF909F908F907F906F905F904F903F9094
:101420000895F4990CC0F49A0E9430150E94331567
:101430008091CC06847319F0F59A0E943D170895A7
:101440000F931F93CF93DF93C9E0D7E00DE617E02A
:101450006991799189919991F80121913191419105
:1014600051918F010E947A3B882331F4F7E0C93112
:10147000DF0771F781E001C080E0DF91CF911F911C
:101480000F910895AF92BF92CF92DF92EF92FF92A9
:101490000F931F93CF93DF9366EF76E087E4FB0112
:1014A00011928A95E9F780E06D5D7F4F0E94CC2410
:1014B000882319F487E00E94203360E070E080E226
:1014C00091E420913D0830913E0840913F085091B1
:1014D00040080E94813B162F072FF82EE92EC1E409
:1014E000D8E0299139914991599160E070E080E20A
:1014F00091E40E94813BD62EC72EB82EA92EA801BA
:101500009701652F702F832F9E2DD601F5012B2F6C
:101510003A2F4F2F5E2F0E947A3B87FD02C0860133
:101520007501F8E0CD34DF07E1F6A8019701852FBA
:10153000902FA32FBE2D80933D0790933E07A0933D
:101540003F07B0934007DF91CF911F910F91FF901C
:10155000EF90DF90CF90BF90AF900895AF92BF9281
:10156000CF92DF92EF92FF920F931F93CF93DF936F
:10157000CEECD6E00DE318E089E0E82E87E0F82E07
:101580006991799189919991F801A190B190C19057
:10159000D1908F010E941C3CA60195010E94813BC5
:1015A000F70161937193819391937F01F6E0CE3DB2
:1015B000DF0731F7DF91CF911F910F91FF90EF90EF
:1015C000DF90CF90BF90AF9008952F923F924F92AF
:1015D0005F926F927F928F929F92AF92BF92CF92C3
:1015E000DF92EF92FF920F931F93DF93CF93CDB7CC
:1015F000DEB7E4970FB6F894DEBF0FBECDBF9BA752
:101600008AA7A1E4B7E08CE3FD0111928A95E9F77E
:101610001196E6EFF6E08AE001900D928150E1F735
:101620001982442455241FA21EA21CA6EE24332492
:1016300091E0C92ED12CAA24A39484E0282E05E0A1
:10164000B02E12E0F12EB3C2912F91549A3110F0C6
:101650000C94E7148F5F89838AA59BA5BE016F5FF9
:101660007F4FAE014E5F5F4F0E94092D882311F41A
:101670000C94E9146A807B808C809D80C401B30146
:101680000E94863E0E94EE3B062F70E0882777FD81
:101690008095982F0E941C3C9B01AC01C401B301B2
:1016A0000E94A03A20E030E048EC52E40E94B83DAD
:1016B0000E941B3E0E94EE3B173421F01D3409F0BE
:1016C00061C124C10B3209F4ECC00C3200F50431C5
:1016D00070F4013108F0B9C0043009F445C0043099
:1016E00008F48AC00A3011F00C94FB1435C00C3198
:1016F00099F10D3128F4063110F00C94FB14C5C09B
:101700000E3151F1063211F00C94FB1475C0003506
:1017100009F478C0013590F40C3358F4063308F01E
:10172000D3C0013309F4BDC0053311F00C94FB1490
:101730001BC0023411F00C94FB14B0C00C3561F0E6
:101740000D3528F40A3510F40C94FB148CC00F35B9
:1017500010F00C94FB1490C0662331F4332011F088
:101760000C94EB14332433940C31B1F00D3130F47C
:10177000043061F00A3009F0ACC00BC0053349F108
:101780000C3559F10E3109F0A4C015C0A0924107E3
:10179000A0C0F09241079DC0662329F06A3011F085
:1017A0000C94FB1404C0F3E0F093410702C02092B4
:1017B000410780E095C0662329F06A3011F00C944F
:1017C000FB1403C0B0924107F4CF26E020934107F9
:1017D000F0CF37E0309341077CC0662329F06A30B0
:1017E00011F00C94FB1404C088E080934107E1CF12
:1017F00099E090934107DDCF332011F00C94EB1466
:10180000B2E03B2E023099F0033030F4002361F057
:10181000013009F060C00BC0063261F0003591F074
:10182000033009F058C003C01092420754C000931F
:10183000420751C0643111F00C94FB14209242070E
:1018400081E04EC0B092420746C0023129F0033118
:1018500031F01092460705C0A092460702C0F092F0
:10186000460782E039C00A3519F41092450702C0D4
:10187000A092450783E030C00D3519F4A0924307CC
:1018800002C01092430784E027C0043119F4A092EB
:10189000440702C01092440785E01EC0F09244073E
:1018A000FBCF332011F00C94EB14013319F4109298
:1018B000470706C06A3011F00C94FB14A09247074A
:1018C00086E0A3E03A2E0CC006530093480787E059
:1018D00003C080E001C081E0662311F00C94ED1498
:1018E000D60102C0AA0FBB1F8A95E2F72EA13FA125
:1018F0002A233B232115310511F00C940715EEA185
:10190000FFA1EA2BFB2BFFA3EEA351C1662311F02D
:101910000C94ED14063018F40330D0F40AC00830EB
:1019200010F40C94FB140A3010F10E3111F00C94E9
:10193000FB14023041F00E3131F0002311F00C9411
:10194000FB1481E001C082E0809349070C94FB14F2
:10195000043021F0053039F081E001C082E080934D
:101960004B070C94FB1410924B070C94FB1409309A
:1019700029F082E080934A070C94FB1410924A07E6
:101980000C94FB141E3409F485C01F34BCF41934C4
:1019900009F44DC01A343CF4133459F1163411F0E3
:1019A0000C94FB1436C01B3409F45FC01B340CF4D8
:1019B0004BC01C3411F00C94FB1468C0143509F4AE
:1019C000D1C015355CF4123509F480C013350CF024
:1019D0008BC0103511F00C94FB146AC0193509F452
:1019E000A1C01A3509F4AEC0183511F00C94FB14DF
:1019F00089C08A819B81AC81BD8180937907909356
:101A00007A07A0937B07B0937C07F8E0EF2A8DE07C
:101A1000AAC08A819B81AC81BD8180934C07909341
:101A20004D07A0934E07B0934F0780E09CC0609293
:101A300050077092510780925207909253072CA53D
:101A400021602CA781E08FC08A819B81AC81BD8100
:101A50008093540790935507A0935607B093570768
:101A60003CA532603CA782E07EC08A819B81AC812C
:101A7000BD818093580790935907A0935A07B0935C
:101A80005B078CA584608CA783E06DC000935C0726
:101A900084E069C0C401B3010E94E93B60935D0723
:101AA00070935E0780935F079093600785E05BC04B
:101AB0008A819B81AC81BD8180936107909362078D
:101AC000A0936307B093640786E04DC08A819B8131
:101AD000AC81BD818093650790936607A0936707EB
:101AE000B093680787E03FC08A819B81AC81BD814C
:101AF0008093690790936A07A0936B07B0936C0774
:101B000088E031C08A819B81AC81BD8180936D0763
:101B100090936E07A0936F07B093700791E0E92A46
:101B20008AE021C08A819B81AC81BD81809371074D
:101B300090937207A0937307B0937407A2E0EA2A08
:101B40008BE011C08A819B81AC81BD818093750738
:101B500090937607A0937707B0937807B4E0EB2AC9
:101B60008CE001C089E08601082E02C0000F111F21
:101B70000A94E2F79801242135212115310509F055
:101B80002EC7E1E6F3E002C0F595E7958A95E2F706
:101B9000E0FF0BC06A817B818C819D8120E030E079
:101BA000A9010E947A3B87FD1CC7402A512A8981DE
:101BB000EAA5FBA5E80FF11D1081112309F044CD22
:101BC000EE2021F0332011F4F2E03F2E45FE11C04B
:101BD00080915D0790915E07A0915F07B0916007CB
:101BE0008038F6E99F07F8E9AF07F0E0BF070CF08F
:101BF000FAC680914307813051F4232D223011F42D
:101C000040FE01C7809144078230E9F5F4C6809117
:101C1000F7068823C1F540FE26C080914407813035
:101C2000B9F460914C0770914D0780914E079091E7
:101C30004F0723E333E34BEC51E40E94B83D60933C
:101C40004C0770934D0780934E0790934F071BC02E
:101C50008230C9F480913D0790913E07A0913F07E3
:101C6000B091400708C08091040790910507A091AA
:101C70000607B091070780934C0790934D07A093F8
:101C80004E07B0934F0750FC10C080910007909111
:101C90000107A0910207B091030780936907909311
:101CA0006A07A0936B07B0936C078091410781305E
:101CB00031F446FE9CC68FEB9FEF4822592280915B
:101CC0004607823088F490E0FC01E050FE4FA0818E
:101CD000AEA7FC01EE5FFD4FB081BFA78C5F9D4FAB
:101CE000FC01F081FCAB05C01CAA22E02FA731E06B
:101CF0003EA760904407662009F441C00DE617E056
:101D0000EDE3CE2EE8E0DE2EAA24BB248E2C99240F
:101D1000C4010A2C02C0959587950A94E2F780FFCA
:101D200021C0862D823069F4D8016D917D918D910D
:101D30009C91F60120813181428153810E94813B37
:101D40000BC0F801608171818281938123E333E3C9
:101D50004BEC51E40E94B83DD8016D937D938D9377
:101D60009C9313970894A11CB11C0C5F1F4FE4E0D7
:101D7000F0E0CE0EDF1EF4E0AF16B10449F6232DDD
:101D8000233041F480914707813021F43E2D3430D7
:101D900009F02BC6DE011696E9E1F7E080E101903B
:101DA0000D928150E1F78EA187FF11C08091480705
:101DB000873008F01EC69091FC06981741F0BE01CE
:101DC0006A5F7F4F0E94CC24882309F416C6F090E6
:101DD00041079F2D923021F0983009F013C1A4C023
:101DE000EE2009F41AC6C20180759070009709F4BC
:101DF000FEC56091610770916207809163079091C1
:101E000064070E94863E0E94EE3B673008F0F1C5F1
:101E100080915C07843129F0823009F0ECC547FCE1
:101E2000EAC5662319F0862F815002C080914807C9
:101E30008E010A5E1F4FB8010E94CC24882309F44A
:101E4000DCC5F0905C078091390790913A07A0912A
:101E50003B07B0913C078EA39FA3A8A7B9A77DE637
:101E6000A72E77E0B72E69E0662E67E0762ECC24A9
:101E7000DD248E2C9924C4010C2C02C095958795E5
:101E80000A94E2F780FF3BC09F2D943171F5D30196
:101E90006D917D918D919C91139790962D913D918F
:101EA0004D915C9193970E94A03AF5012081318178
:101EB000428153810E94A03A262F372F482F592F55
:101EC000D8012D933D934D935C931397BC2DB23065
:101ED000B1F42EA13FA148A559A50E94A03AF8014E
:101EE00060837183828393830AC0F501808191812D
:101EF000A281B381F80180839183A283B383089484
:101F0000C11CD11C0C5F1F4F24E030E0A20EB31E99
:101F1000620E731E34E0C316D10409F0ACCF8FEA11
:101F20009FEF4822592211C1EE2009F476C5809115
:101F3000390790913A07A0913B07B0913C078EA3D7
:101F40009FA3A8A7B9A70DE617E059E0A52E57E073
:101F5000B52E46E0C42ED12CCC0EDD1E662477248F
:101F60008E2C9924C401062C02C0959587950A945D
:101F7000E2F780FF2CC0D5016D917D918D919C91F0
:101F8000F60120813181428153810E94A03AD8011B
:101F90002D913D914D915C910E94A03A262F372FB3
:101FA000482F592FF8012083318342835383F62D24
:101FB000F230B9F42EA13FA148A559A50E94A03A3C
:101FC000D8016D937D938D939C9313970AC0F5016F
:101FD00080A191A1A2A1B3A1F80180839183A283E2
:101FE000B3830894611C711C0C5F1F4F24E030E028
:101FF000A20EB31EC20ED31E34E06316710409F0A4
:10200000B1CFA3C0832D833009F487C0EE2009F43B
:1020100084C0209045078091390790913A07A0919C
:102020003B07B0913C078EA39FA3A8A7B9A739E0AF
:10203000A32E37E0B32E0DE617E026E0C22ED12CFA
:10204000CC0EDD1E662477248E2C9924C401062C28
:1020500002C0959587950A94E2F780FD0BC0F501C3
:1020600080819181A281B381F80180839183A283D1
:10207000B38343C0FF2DF73009F43FC0222061F540
:10208000D6016D917D918D919C91F50120A131A199
:1020900042A153A10E94A13AD8012D913D914D91A9
:1020A0005C910E94A13A262F372F482F592FF80113
:1020B0002083318342835383F62DF230F1F42EA135
:1020C0003FA148A559A50E94A13AD8016D937D93DF
:1020D0008D939C93139711C0F80160817181828167
:1020E0009381D5012D913D914D915C910E94A13A32
:1020F000F80160837183828393830894611C711C4F
:1021000024E030E0A20EB31E0C5F1F4FC20ED31EA0
:1021100034E06316710409F099CF8091410785304E
:1021200031F0873069F0833081F486E001C087E0C8
:10213000BE016A5E7F4F0E94CC24882331F45DC4C7
:1021400080914207823008F05AC41091420715303E
:1021500041F4EE2009F458C2832D813009F051C4B6
:1021600053C2932D923009F04FC21123E1F06091D8
:102170004C0770914D0780914E0790914F0720E0DA
:1021800030E0A9010E947A3B882309F43CC4143052
:1021900030F4123060F4113009F036C204C014304B
:1021A00009F032C223C2EE2009F42DC22DC2EE2066
:1021B00009F433C4BEA5AB2FB0E0B9ABA8ABFFA503
:1021C000EF2FF0E0FBABEAAB81E090E08C010FA4D5
:1021D00002C0000F111F0A94E2F70EA402C0880F7C
:1021E000991F0A94E2F7082B192BFF24E022F12211
:1021F000E114F10409F409C4E09044072E2D2230C3
:1022000009F405C4AA0FBB1FAA0FBB1FA359B84FDF
:10221000E8A9F9A9EE0FFF1FEE0FFF1FEA50F94FD3
:102220006D917D918D919C91238934894589568941
:102230000E94A03A662E972E882E792EAAA9BBA9B5
:10224000AA0FBB1FAA0FBB1FA359B84FEAA9FBA92E
:10225000EE0FFF1FEE0FFF1FEA50F94F6D917D91BA
:102260008D919C9123893489458956890E94A03A91
:10227000262E7EA38AA79DA747FE01C10E94200AA1
:10228000882309F0CCC33E2D3130B1F4609165074D
:1022900070916607809167079091680723E333E3A5
:1022A0004BEC51E40E94B83D60936507709366075C
:1022B0008093670790936807E0906507F090660742
:1022C0000091670710916807C801B70120E030E06E
:1022D00040E850E40E94B83DA80197010E94B83D33
:1022E0007B018C01662D792D882D972D262D392D7A
:1022F000482D572D0E94B83D9B01AC01C801B70184
:102300000E94A03A7B018C014EA13AA52DA5622D19
:10231000742F832F922FF901222D342F4F2F5E2FF0
:102320000E94B83D9B01AC01C801B7010E94A03AD0
:102330007B018C017F2D912F20E030E0A9010E94CC
:102340007A3B87FD66C36E2D7F2D802F912F0E94D3
:10235000453E7B018C01662D792D882D972DAEA1F0
:10236000FAA5EDA5222D3A2F4F2F5E2F0E94EB2DBF
:102370009B01AC01C801B70190580E94813BA62E79
:10238000B72EC82ED92E80914207833021F4D7FA78
:10239000D094D7F8D094E0906507F090660700914C
:1023A000670710916807C801B70120E030E0A90174
:1023B0000E947A3B87FF10C0D7FAD094D7F8D09408
:1023C00017FB109517F91095E0926507F0926607D4
:1023D00000936707109368078FE79FEF4822592201
:1023E00008A919A9000F111F000F111F0B5B184F2F
:1023F0004EA13AA52DA5622D742F832F922FA601F1
:1024000095010E94B83D9B01AC01662D792D882D68
:10241000972D0E94A03A20E030E040E05FE30E9468
:10242000B83DD8011B966D937D938D939C931E9719
:102430000AA91BA9000F111F000F111F0B5B184FDA
:10244000662D792D882D972DA60195010E94B83D06
:102450009B01AC01AEA1FAA5EDA5622D7A2F8F2FBD
:102460009E2F0E94A13A20E030E040E05FE30E940E
:10247000B83DF8016387748785879687C5C0FCA53A
:10248000CF2EDD240C211D210115110509F4C3C235
:1024900021EF3FEF422253223E2D313031F500E54E
:1024A00017E0EE24FF24C6010E2C02C095958795F7
:1024B0000A94E2F780FF10C0D8016D917D918D9153
:1024C0009C9123E333E34BEC51E40E94B83DF801C7
:1024D00060837183828393830894E11CF11C0C5FF9
:1024E0001F4FF4E0EF16F104F1F608A919A9000F47
:1024F000111F000F111F0B5B184F662D792D882DB2
:10250000972DD8011B962D913D914D915C911E9771
:102510000E94A03A5B016C01EAA8FBA8EE0CFF1C2C
:10252000EE0CFF1CE5E4F7E0EE0EFF1E4EA13AA50F
:102530002DA5622D742F832F922FD7011B962D91DD
:102540003D914D915C911E970E94A03A9B01AC0178
:10255000C601B5010E94EB2D5B016C01F80163859A
:10256000748585859685D7011B962D913D914D915A
:102570005C911E970E94EB2D7B018C016093650797
:10258000709366078093670790936807C601B5014B
:10259000A80197010E94A03A5B016C01E894D7F86A
:1025A000C601B5012AE037ED43EA5BE30E947D3DB9
:1025B000181654F5C601B50120E030E040E05FE3B5
:1025C0000E947D3D18160CF42AC2C801B7012FE6FF
:1025D00032E143E85AE30E94B83D9B01AC01C601D9
:1025E000B5010E947D3D18167CF419C2EE2009F455
:1025F00014C20E94200A882309F011C20E940533E8
:10260000882311F00EC23324C2018E7D9C7F3320BB
:1026100019F0C2018E7D907C009709F004C2809170
:1026200043078093F70680914C0790914D07A09146
:102630004E07B0914F078093040790930507A0932E
:102640000607B0930707E0906907F0906A070091CA
:102650006B0710916C0760910007709101078091E2
:10266000020790910307A80197010E947A3B8823F3
:1026700081F0E0920007F0920107009302071093A7
:1026800003078091FF06882321F0B801A7010E946B
:10269000311580914B079091FF06981761F0809358
:1026A000FF06409100075091010760910207709169
:1026B00003070E94311580914A079091FE069817F2
:1026C00021F08093FE060E943415809141078130ED
:1026D00051F4609161077091620780916307909156
:1026E00064070E94E108809146078093FA06809172
:1026F00044078093F806B32DB330D1F48091470797
:102700008093FB06813049F480917507909176079C
:10271000A0917707B091780703C080E090E0DC01DA
:102720008093390790933A07A0933B07B0933C07F7
:10273000809148079091FC06981759F08093FC0609
:10274000A9E1B7E0FE01369680E101900D9281503B
:10275000E1F7809145078093F90680914107853024
:10276000E9F1863048F48330C9F1843008F067C05D
:10277000823009F07DC00AC0883009F468C0893011
:1027800009F46FC0863009F073C05BC060916107C7
:102790007091620780916307909164070E94863E62
:1027A0000E94EE3B662319F0F62EFA9402C0F090D8
:1027B000FC068E010A5E1F4F8F2DB8010E949423E4
:1027C0008091FC068F1509F053C0A9E1B7E0F8012C
:1027D00080E101900D928150E1F74AC0332089F0E9
:1027E000E0905D07F0905E0700915F071091600731
:1027F0008DE697E040E050E060E87FEB20E00E944B
:10280000390596E1C92ED12CCC0EDD1EE0905D0776
:10281000F0905E0700915F0710916007C60140E0ED
:1028200050E060E87FEB20E00E943905A9E0B7E0C6
:10283000F60180E101900D928150E1F719C086E028
:1028400001C087E069E077E00E94942311C0A9E20B
:10285000B7E0EDE6F7E080E101900D928150E1F7FD
:1028600007C080E1E9E2F7E0DF011D928A95E9F710
:10287000809142078093F606853009F494C0B32D09
:10288000B23009F090C0843040F4823088F588235B
:1028900041F0813009F07EC014C0843009F07AC064
:1028A00063C0E0905D07F0905E0700915F071091B4
:1028B00060078DE697E040E050E060E87FEB20E0C5
:1028C00014C040910407509105076091060770916C
:1028D0000707E0905D07F0905E0700915F07109199
:1028E00060078DE697E02091F7060E94390552C0F7
:1028F00000D000D0EDB7FEB731960091650710917A
:1029000066072091670730916807C0900407D09050
:102910000507E0900607F09007078FA5ADB7BEB793
:1029200011968C939CA9918380915D0790915E078D
:10293000A0915F07B091600782839383A483B583DE
:1029400089E097E06DE677E040E557E0A090F70674
:102950008EA40E947A05ADB7BEB716960FB6F8944E
:10296000BEBF0FBEADBF16C0409104075091050712
:102970006091060770910707E0905D07F0905E0791
:1029800000915F07109160078DE697E02091F706B0
:102990000E945F09A9E0B7E0EDE6F7E080E1019071
:1029A0000D928150E1F7809149078093FD068823BD
:1029B000E1F10E947B161092CD068091FD068230D7
:1029C00019F40E94110A31C01092FD062EC081E058
:1029D0002DC082E02BC088E129C087E127C089E1B2
:1029E00025C084E023C08BE121C086E21FC08CE1BA
:1029F0001DC08DE11BC084E119C087E017C08EE1C6
:102A000015C08FE113C086E111C080E20FC085E1DF
:102A10000DC082E20BC083E209C08AE107C081E2F7
:102A200005C084E203C085E201C080E0E4960FB6F1
:102A3000F894DEBF0FBECDBFCF91DF911F910F91F4
:102A4000FF90EF90DF90CF90BF90AF909F908F90CE
:102A50007F906F905F904F903F902F9008950895D2
:102A600008950895089508950895E0ECF0E08081B8
:102A7000826080831092C50082E28093C400E1EC02
:102A8000F0E08081806180838081886080838081A4
:102A9000806880830895E09138029E2F9F5F903474
:102AA00029F403C0F49B02C0089590E020913902FC
:102AB0009217C1F3F0E0E350F84F8083909338020F
:102AC0008091C10080628093C10008951F920F928F
:102AD0000FB60F920BB60F9211248F939F93EF9323
:102AE000FF9380913902E82FF0E0E350F84F908196
:102AF0009093C6008F5F803409F480E080933902A0
:102B000090913802891729F48091C1008F7D8093BC
:102B1000C100FF91EF919F918F910F900BBE0F908D
:102B20000FBE0F901F90189590913702809136023A
:102B3000891761F0E92FF0E0E358F84F80819F5F3B
:102B4000903809F490E09093370208958FEF08953C
:102B50001F920F920FB60F920BB60F9211242F9364
:102B60003F934F935F936F937F938F939F93AF9315
:102B7000BF93EF93FF938091C6008F3361F0803451
:102B800028F4883181F0813289F40BC08E3529F028
:102B90008E3761F404C0F09A1AC0F79A18C0F19AFF
:102BA00016C0F39A14C00E94110A11C0E0913602B7
:102BB0009E2F9F5F903809F490E020913702921782
:102BC00031F0F0E0E358F84F808390933602FF91A4
:102BD000EF91BF91AF919F918F917F916F915F9195
:102BE0004F913F912F910F900BBE0F900FBE0F9002
:102BF0001F901895809136028093370208951F9395
:102C0000CF93DF931EB3112309F46BC0C12FD0E023
:102C1000CE01807690700097D1F081E08093CC0651
:102C2000CE0186FF0EC085FF02C08FEF01C08DEF81
:102C30000E94873381E00E94A833F498F49BFECF72
:102C400003C08EEF0E9487338EB38F798EBBC4FF93
:102C500004C081E08093CB064AC0C0FF03C00E943D
:102C6000EC37F09817FF06C00E94E838F7980E94EA
:102C7000E838F798C3FF0EC08091CC06803149F444
:102C800080E28093CC060E94D71A0E94F91A109213
:102C9000CD06F398C1FF18C08091CC0682FD14C008
:102CA000883089F480E18093CC060E94F91A0E9452
:102CB00007178091890881FF04C081E08093CD06C9
:102CC00002C01092CD06F198C2FF0BC00E94DD2811
:102CD000009721F088E08093CC0602C01092CC06C9
:102CE000F2988091CC06847311F00E94F91ADF915A
:102CF000CF911F9108958091CC06803151F481E0ED
:102D00008093CD0606C00E94FF158091CB068823D4
:102D100041F40E94DD280097B1F78091CC06803104
:102D200091F308958091CD068111F19A08950F9342
:102D30001F930E94D2338091CC06813021F482E02F
:102D40000E94A8331CC01092CC068AE392E00E9435
:102D5000003915C08A3011F08D3031F5E12FF0E0E7
:102D6000E65CFD4F10820E94FF158091CB06882300
:102D700031F480913A02882329F40E94203310E034
:102D800000E035C0843229F48AE392E00E941F39C2
:102D9000F4CF8091CC06813011F489E0EECF8AE344
:102DA00092E00E94E50AE9CF002319F08932F9F494
:102DB000E7CF8132E0F08F32D1F08832B9F01534AC
:102DC00028F08BE00E94203310E011C0982F91561C
:102DD000212F30E01F5F9A3120F4265C3D4F805256
:102DE00002C0265C3D4FF901808301C001E00E94D2
:102DF00094158F3F09F0AECF0E9492160E94FF15E6
:102E00008091CB06882399F31F910F9108958091AB
:102E1000890882FF04C0809105018E6303C0809100
:102E20000501817C809305018091CC06847121F19C
:102E300080917F0880936C0380917E0880936B0360
:102E400020917D0830E040E050E0DA01C9010896A9
:102E5000A11DB11D880F991FAA1FBB1F81958093CB
:102E60006A03220F331F441F551F219527BD8091F0
:102E70006F00826080936F00089580916F008D7F56
:102E800080936F0080918100887F816080938100B2
:102E900010928503809180088F3F11F4F59B09C043
:102EA0009091CC06943029F090E00E94BF2D81E0F3
:102EB00001C080E09091890892FF02C091E08927CB
:102EC000882321F0809105018E6303C08091050164
:102ED000817C8093050108951F920F920FB60F9287
:102EE0000BB60F9211242F933F934F935F936F93E1
:102EF0007F938F939F93AF93BF93EF93FF9382B191
:102F0000805882B980918503882309F094C29091FA
:102F1000020180916C03807F9F70892B8093020156
:102F200080910201807F90916B03892B80938003B5
:102F300080916A0386BD82E085BD81E08093850330
:102F400078948091830390918403009709F0CFC017
:102F50008091580390912C03981709F4C4C02091D4
:102F6000580330E0F901A3E0EE0FFF1FAA95E1F747
:102F7000E21BF30BE35DFC4FF0938403E0938303C8
:102F800082819381909389008093880080819181D0
:102F900090937E0380937D03448180917F03841707
:102FA000E1F140937F0350E089E190E0489FF00118
:102FB000499FF00D589FF00D1124E355FD4FF093FC
:102FC0008203E093810385899689A789B08D8093D8
:102FD000EE069093EF06A093F006B093F106818978
:102FE0009289A389B489B695A79597958795E9E5C0
:102FF000F3E08093590390935A03A0935B03B0933B
:103000005C0384839583A683B78380879187A28797
:10301000B38784879587A687B787E0918103F0916E
:10302000820380917F089081892780936C03D90166
:1030300073E0AA0FBB1F7A95E1F7A21BB30BA35D48
:10304000BC4F15962C9181819281A381B481022E6F
:1030500004C0B695A795979587950A94D2F7809363
:103060006D0390936E03A0936F03B09370038581FB
:103070009681A781B085022E04C0B695A795979535
:1030800087950A94D2F78093710390937203A0936B
:103090007303B093740381859285A385B485022E52
:1030A00004C0B695A795979587950A94D2F7809313
:1030B000750390937603A0937703B0937803858587
:1030C0009685A785B08904C0B695A79597958795ED
:1030D0002A95D2F78093790390937A03A0937B0388
:1030E000B0937C0304C00E943D17F29AA4C10E94D1
:1030F0000B3310926B0380916D0390916E03A0913E
:103100006F03B09170032091590330915A0340919D
:103110005B0350915C03820F931FA41FB51F809324
:10312000590390935A03A0935B03B0935C03E0911F
:103130008103F091820321893289438954892817B8
:1031400039074A075B0768F521E020936B03218963
:10315000328943895489821B930BA40BB50B80934E
:10316000590390935A03A0935B03B0935C032081AF
:103170008091CE069091CF06A091D006B091D10655
:1031800024FF04C00197A109B10903C00196A11D44
:10319000B11D8093CE069093CF06A093D006B09336
:1031A000D1068091710390917203A0917303B09145
:1031B000740320915D0330915E0340915F03509151
:1031C0006003820F931FA41FB51F80935D0390932C
:1031D0005E03A0935F03B093600321893289438922
:1031E0005489281739074A075B0778F520916B0344
:1031F000226020936B032189328943895489821B81
:10320000930BA40BB50B80935D0390935E03A09387
:103210005F03B093600320818091D2069091D30622
:10322000A091D406B091D50625FF04C00197A1094D
:10323000B10903C00196A11DB11D8093D2069093E0
:10324000D306A093D406B093D506809175039091D0
:103250007603A0917703B0917803209161033091B8
:1032600062034091630350916403820F931FA41F74
:10327000B51F8093610390936203A0936303B0939F
:1032800064032189328943895489281739074A07F9
:103290005B0778F520916B03246020936B032189F1
:1032A000328943895489821B930BA40BB50B8093FD
:1032B000610390936203A0936303B093640320813E
:1032C0008091D6069091D706A091D806B091D906E4
:1032D00026FF04C00197A109B10903C00196A11DF1
:1032E000B11D8093D6069093D706A093D806B093CD
:1032F000D9068091790390917A03A0917B03B091D4
:103300007C032091650330916603409167035091DF
:103310006803820F931FA41FB51F809365039093CA
:103320006603A0936703B0936803218932894389B8
:103330005489281739074A075B0778F520916B03F2
:10334000286020936B032189328943895489821B29
:10335000930BA40BB50B8093650390936603A09326
:103360006703B093680320818091DA069091DB06B1
:10337000A091DC06B091DD0627FF04C00197A109EA
:10338000B10903C00196A11DB11D8093DA06909387
:10339000DB06A093DC06B093DD0689B19091BF06F1
:1033A00089279091C0068923C1F0809590916B0385
:1033B000892380936B03882329F48091C10681605F
:1033C0008093C1068091CC06857039F4F59905C0CB
:1033D0000E94110A8EB3806E8EBB80917D03909106
:1033E0007E03019790937E0380937D030097B9F449
:1033F0008EB3E0918303F09184039681892B8EBB79
:103400001092840310928303809158038F5F8093FE
:10341000580380915803863011F41092580380911C
:103420007E0890916B03892780936B03109285032C
:1034300082B1805882B9FF91EF91BF91AF919F9176
:103440008F917F916F915F914F913F912F910F904D
:103450000BBE0F900FBE0F901F9018951F920F92EA
:103460000FB60F920BB60F9211248F939F93EF9389
:10347000FF93E2E0F1E0908180917E088F70907F71
:10348000892B808315BCFF91EF919F918F910F90B5
:103490000BBE0F900FBE0F901F9018951F920F92AA
:1034A0000FB60F9211248F938091800380930201B5
:1034B0008F910F900FBE0F901F9018950E943D178F
:1034C0008BE2E2E8F2E0DF011D928A95E9F78CE2F7
:1034D000E9E5F3E0DF011D928A95E9F71092810298
:1034E000109280021092580310922C0381E0809376
:1034F0005703109285030895989A9998A09AA198D5
:103500008FEF87B99091990898B980930A019091AB
:103510009A08892F880F880F892B80930B018AB115
:10352000807F8AB98BB18F608BB9809A8898089513
:10353000CF93DF93A1E0B1E08C918F608C93E2E0B8
:10354000F1E08081807F90917E08892B8083C4E0A8
:10355000D1E088818E6388838C91806F8C93808189
:103560008F7090917F08892B8083E1E8F0E0808163
:103570008F7E8083808188608083E0E8F0E08081B6
:103580008C7F808380818F708083EEE6F0E0808185
:10359000887F808314BC15BC80818160808380819A
:1035A000826080830E947C1ADF91CF910895CF932F
:1035B000DF93C0918002D09181022097B9F081E021
:1035C000809383022091990230919A0240919B024C
:1035D00050919C02CA01B9010E94B83D6D8B7E8B4F
:1035E0008F8B988F1092810210928002DF91CF9181
:1035F00008952F923F924F925F926F927F928F9297
:103600009F92AF92BF92CF92DF92EF92FF920F9371
:103610001F93DF93CF93CDB7DEB7AE970FB6F89475
:10362000DEBF0FBECDBF94C7809180029091810212
:10363000009709F0BCC20E94DD286C0190938102C2
:1036400080938002009709F48AC7809183028823BF
:1036500019F010928302E7C0809182028F5F8093FD
:103660008202853011F4109282028091820290E0F1
:1036700029E130E0829FF001839FF00D929FF00DD1
:103680001124E355FD4FF0932B03E0932A03D60159
:103690008C9180839D962D913D914D915C91D09719
:1036A000258B368B478B508F11962D913D914D91E7
:1036B0005C91149793E0220F331F441F551F9A9576
:1036C000D1F7218332834383548315962D913D9105
:1036D0004D915C91189783E0220F331F441F551FB3
:1036E0008A95D1F7258336834783508719962D9184
:1036F0003D914D915C911C9703E0220F331F441FB5
:10370000551F0A95D1F721873287438754871D9625
:103710002D913D914D915C91509713E0220F331FF5
:10372000441F551F1A95D1F7258736874787508B39
:1037300051966D917D918D919C9154979B01AC0117
:10374000A3E0220F331F441F551FAA95D1F7218BE9
:10375000328B438B548B0E941A3C6093840270938B
:1037600085028093860290938702F60121A532A5F7
:1037700043A554A50E94813B7B018C01762F272F06
:103780003F2D402F512F2093880230938902409380
:103790008A0250938B0260E070E080EA9FE30E940F
:1037A000813B60938C0270938D0280938E02909384
:1037B0008F0280E090E0DC01809390029093910270
:1037C000A0939202B09393028091CC068032E1F4F0
:1037D0002091A1023091A2024091A3025091A40233
:1037E0002093990230939A0240939B0250939C023B
:1037F000CA01B9010E94B83DD60155966D937D93DB
:103800008D939C9358970FC0F601658976898789B7
:10381000908D0E94453E6093990270939A02809326
:103820009B0290939C0280E090E0DC0180939502E3
:1038300090939602A0939702B0939802D601959622
:10384000ED90FD900D911C91989760E070E080E004
:103850009FE3A80197010E94813B69837B838C834E
:103860009D838091CC06803209F05EC0B2E0B093B7
:103870009402F60161A472A483A494A425883688D6
:103880004788508C3C81832FA20191010E94B83D52
:103890009B01AC01C401B3010E94A03AD62EC72EF1
:1038A000B82EA92EA6019501652F742F832F922F74
:1038B00020E030E0A9010E947A3B87FF1BC0C801CD
:1038C000B701A80197010E94A13AA40193010E94A7
:1038D000B83D9B01AC01C201B1010E94A03A0E9417
:1038E000453E6093A1027093A2028093A30290933D
:1038F000A4025DC1A6019501852F942FA32FB22F9D
:103900008093950290939602A0939702B0939802A9
:1039100080E090E0DC018093A1029093A202A0934A
:10392000A302B093A40243C110929402F60181A5B0
:1039300092A5A3A5B4A58093A5029093A602A093F7
:10394000A702B093A8020E94F4285B016C01609367
:10395000A1027093A2028093A3029093A402A601F5
:1039600095010E94B83D6E837F838B879C87209151
:1039700080023091810238A72FA3D90199966D90CA
:103980007D908D909C909C9755962D903D904D905C
:103990005C905897C201B101BE81AF811B850C8537
:1039A0002B2F3A2F412F502F0E94A03A9B01AC01A0
:1039B000B981AB811C810D816B2F7A2F812F902FC4
:1039C0000E94B83D9B01AC01C401B3010E94A13A21
:1039D00020E030E040E05FE30E94B83DF62E072F84
:1039E000182FE92E20E030E0A9010E947D3D181635
:1039F0000CF0CAC06F2D702F812F9E2DA401930152
:103A00000E947A3B87FFACC0EFA1F8A5A1A0B2A0AD
:103A1000C3A0D4A0C601B501BE81AF819B848C84B4
:103A20002B2F3A2F492D582D0E94A03A9B01AC0113
:103A3000B981AB819C808D806B2F7A2F892D982D39
:103A40000E94B83D262F372F482F592F2093A902C7
:103A50003093AA024093AB025093AC022F2D302F2B
:103A6000412F5E2D0E947A3B87FF3FC0C601B50102
:103A70000E94453E60939D0270939E0280939F0238
:103A80009093A002C201B101A60195010E947A3B68
:103A9000882321F4F1E0F093940289C0C601B501B6
:103AA000A20191010E94A03A9B01AC01B981AB81B6
:103AB0001C810D816B2F7A2F812F902F0E94B83D92
:103AC0009B01AC016091A5027091A6028091A702B2
:103AD0009091A8020E94A03A6093A5027093A6025A
:103AE0008093A7029093A80262C08F2D902FA12FE0
:103AF000BE2D8093A5029093A602A093A702B09337
:103B0000A8028093A9029093AA02A093AB02B0935B
:103B1000AC02AFA1B8A595962D913D914D915C91C8
:103B20009897CA01B9010E94A13A2F2D302F412F39
:103B30005E2D0E94B83DBE81AF811B850C852B2F69
:103B40003A2F412F502F0E94A13A0E94453E609388
:103B50009D0270939E0280939F029093A00227C0C3
:103B6000B2E0B09394028091990290919A02A09150
:103B70009B02B0919C0280939D0290939E02A09321
:103B80009F02B093A00213C080E090E0DC0180931C
:103B9000A5029093A602A093A702B093A802A092B8
:103BA0009D02B0929E02C0929F02D092A00280918C
:103BB0002C03A82FB0E0BA83A983FD0153E0EE0FD8
:103BC000FF1F5A95E1F7EA1BFB0BE35DFC4F809169
:103BD000820284836090800270908102F30101A5CB
:103BE00012A5F3A4D4A4602F712F8F2D9D2D2091A9
:103BF0008C0230918D0240918E0250918F020E9472
:103C0000A03A6F8F78A389A39AA320E030E0A9019E
:103C10000E947A3B87FF04C01F8E18A219A21AA225
:103C2000F091A502FF872091A602288B3091A70270
:103C3000398B6091A8026A8B80919D028B8B909149
:103C40009E029C8BA0919F02AD8BB091A002BE8B77
:103C5000E091A902EF8BF091AA02F88F2091AB02BC
:103C6000298F3091AC023A8F609195026B8F8091D1
:103C700096028C8F909197029D8FA0919802AE8FA3
:103C80008091A1029091A202A091A302B091A402FE
:103C90008FA398A7A9A7BAA79090990240909A02DB
:103CA00030909B0220909C02909194029B834AE06A
:103CB000E42E30EEC32E2EE1B22E99E3A92E1B8600
:103CC0001C861D861E86AAE0AC83B0EEBD83EEE1A5
:103CD000EE83F9E3FF837EA66DA6592C2B81222368
:103CE00021F0213009F005C1B2C095016E2D7C2D67
:103CF000832F9A2DADA5BEA595962D913D914D9101
:103D00005C9198970E94B83D962E872E782E692E4A
:103D1000A4019301652F742F832F922F20E030E0B0
:103D200040E05FE30E94B83D9B01AC01D201F1018C
:103D30006B2F742D8F2F922D0E94A13A9B01AC0105
:103D4000F5016E2D7C2D8F2F9A2D0E94B83D9B0181
:103D5000AC01602F712F8F2D9D2D0E94A03A8B01F9
:103D6000F82ED92E712FBF85A889E989EBA3FA898E
:103D7000FCA32B2F3A2FAF010E947A3B87FF54C040
:103D8000ADA5BEA599966D917D918D919C919C97C5
:103D9000BF85A88919890A892B2F3A2F412F502FC7
:103DA0000E94A03A9B01AC010E94A13A7B018C01C8
:103DB000A2019101652F742D832F922DBB89AC89AF
:103DC000DD88CE882B2F3A2F4D2D5C2D0E94A13AF5
:103DD0009B01AC01C801B7010E94813BE62EC72EB2
:103DE000B82EA92E5F85488939892A89652F742FB5
:103DF000832F922FBF89A88D198D0A8D2B2F3A2FD3
:103E0000412F502F0E947A3B882319F0B1E0BB83E9
:103E100002C0E2E0EB835B884C883D882E880F85EA
:103E20001889F988DA8812C1A2019101652F742DD1
:103E3000832F922DD401F3012B2F3A2F4F2F5E2F7A
:103E40000E94A13A562E472E382E292EFFC05B899C
:103E50004C893D892E89652F742F832F922FF50170
:103E60002E2D3C2D4F2F5A2D0E94B83D9B01AC01A9
:103E7000602F712F8F2D9D2D0E94A03A962E872E98
:103E8000782E692EA4019301652F742F832F922F12
:103E9000AF89F88DFBA3298D2CA3BA8D2A2F3F2F34
:103EA0004CA15B2F0E947A3B87FFCCC0602F712F03
:103EB0008F2D9D2DBF89A88D198D0A8D2B2F3A2FFF
:103EC000412F502F0E94A03ABB89AC891D890E89D1
:103ED0002B2F3A2F412F502F0E94813BE62EC72EC9
:103EE000B82EA92E0F89188DF98CDA8C32E03B831D
:103EF000ADC095016E2D7C2D832F9A2DADA5BEA54D
:103F000095962D913D914D915C9198970E94B83D69
:103F10006BA37CA38DA39EA3A2019101652F742D99
:103F2000832F922DBBA1ACA19DA08EA02B2F3A2F49
:103F3000492D582D0E947D3D18160CF054C05BA1F0
:103F40004CA19401652F742F832F922F20E030E035
:103F500040E05FE30E94B83D9B01AC01D201F1015A
:103F60006B2F742D8F2F922D0E94A03A9B01AC01D4
:103F7000F5016E2D7C2D8F2F9A2D0E94B83D9B014F
:103F8000AC01602F712F8F2D9D2D0E94A03A962E8F
:103F9000872E782E692EA4019301652F742F832F0D
:103FA000922FBB8DAC8DED8DEBA7FE8DFCA72B2F3B
:103FB0003A2FAF010E947D3D1816ACF4A201910189
:103FC000652F742D832F922DBBA1ACA11DA10EA135
:103FD0002B2F3A2F412F502F0E94A03A562E472EBA
:103FE000382E292E2FC0602F712F8F2D9D2DBB8D28
:103FF000AC8D1D8D0E8D2B2F3A2F412F502F0E94EF
:10400000A03A9B01AC010E94A13A7B018C01A20164
:104010009101652F742D832F922D2FA138A549A5CD
:104020005AA50E94A13A9B01AC01C801B7010E94A8
:10403000813BE62EC72EB82EA92E0B8D1C8DFD8C34
:10404000DE8C04C0092D182DF72CD62C5B854C85F1
:104050003D852E85652F742F832F922FF5012E2DF0
:104060003C2D4F2F5A2D0E94A13A762E672E4C01DF
:104070006B877C878D879E86A301652F742F992D72
:10408000BC81AD81EE80CF802B2F3A2F4E2D5C2D41
:104090000E947A3B87FF0AC05C814D81652F742F97
:1040A0008E2D9C2DD301E82CC92C39C0602F712F87
:1040B0008F2D9D2DBF8DA8A1E9A0CAA02B2F3A2F2F
:1040C0004E2D5C2D0E947D3D18169CF0E82CC92CCD
:1040D0009101852D942DA32FB22D80939902909359
:1040E0009A02A0939B02B0939C022B81209394028E
:1040F00045C05C814D813E812F81652F742F832FB8
:10410000922F2AE030EE4EE159E30E94A13A6C83EF
:104110007D838E839F83BB85AC85ED84CE842B2FDE
:104120003A2F4E2D5C2D0E94A03AE62EC72EB82EB7
:10413000A92E602F712F8F2D9D2DBB8DAC8D3D8DA8
:104140003BA3EE8DECA32B2F3A2F4BA15E2F0E94A9
:104150007D3D18160CF4C2CDE82CC92C9101852D9B
:10416000942DA32FB22D8093990290939A02A0933D
:104170009B02B0939C02FB81F093940220908802F2
:104180003090890240908A0250908B02C201B101A6
:10419000202F312F4F2D5D2D0E94B83D6B837C83E6
:1041A0008D839E830E94673B4B015C01609184027A
:1041B0007091850280918602909187020E94673BF0
:1041C0006F83788789879A87A50194010E94A03A16
:1041D0000E94EE3BE981FA8183E0EE0FFF1F8A9592
:1041E000E1F729813A81E21BF30BE35DFC4F718318
:1041F00060836115710551F58091CC06803231F5EF
:104200006501540180E090E0DC0180939902909375
:104210009A02A0939B02B0939C0280939002909389
:104220009102A0939202B0939302A0928402B09262
:104230008502C0928602D09287020091800210917E
:104240008102C601B501A20191016DC1A301652FD3
:10425000762D8E2D9C2D20919002309191024091CF
:104260009202509193020E94A13A2B013C016F816E
:10427000788589859A85BB81AC81ED80CE802B2F96
:104280003A2F4E2D5C2D0E94A03A9B01AC01C30138
:10429000B2010E94813BE62EC72E782E692EC50101
:1042A000B401BB81AC815D804E802B2F3A2F452D10
:1042B000542D0E94A03AF3012E2D3C2D4F2F5E2F3E
:1042C0000E94B83D60939002709391028093920295
:1042D0009093930293016E2D7C2D832F922F20ECCF
:1042E00031EE44E65EE40E94B83D0E94673B0E94C6
:1042F000EE3B9B01AC01DA01C901803DE7E09E077E
:10430000E0E0AE07E0E0BE0780F449815A81B3E007
:10431000440F551FBA95E1F729813A81421B530B8F
:10432000435D5C4FFA01158262C0203AFFE03F070F
:10433000F0E04F07F0E05F0780F4E981FA81A3E045
:10434000EE0FFF1FAA95E1F789819A81E81BF90B0F
:10435000E35DFC4F91E0958321C069817A81E3E0C0
:10436000660F771FEA95E1F72034AFE13A07A0E046
:104370004A07A0E05A0740F4E981FA816E1B7F0BDF
:10438000635D7C4FE2E007C089819A81681B790BED
:10439000635D7C4FE3E0DB011596EC93E981FA81E4
:1043A00063E0EE0FFF1F6A95E1F789819A81E81BB0
:1043B000F90BE35DFC4F6581DA01C901062E04C0EB
:1043C000B695A795979587950A94D2F72081318164
:1043D00002C0220F331F6A95E2F7318320838030B9
:1043E00020E0920721E0A20720E0B20788F449818B
:1043F0005A8123E0440F551F2A95E1F7E981FA819C
:104400004E1B5F0B435D5C4FFA019383828304C0B4
:104410002FEF3FEF338322838091570380932C0348
:104420008F5F80935703863011F410925703602FEB
:10443000712F8F2D9D2D20919502309196024091E4
:104440009702509198020E947D3D69817A81B3E084
:10445000660F771FBA95E1F718163CF5E0918002D8
:10446000F0918102802F912FAF2DBD2D81A792A7B2
:10447000A3A7B4A75B814C813D812E81852F942F0A
:10448000A32FB22F8093840290938502A09386027B
:10449000B093870289819A81681B790B635D7C4F99
:1044A000DB0116961C92169753C0E981FA816E1BA8
:1044B0007F0B635D7C4FE1E0DB011696EC93602F90
:1044C000712F8F2D9D2D20E030E0A9010E947D3DB0
:1044D0001816C4F56501540180E090E0DC01E5E9BF
:1044E000F2E084839583A683B783809390029093B0
:1044F0009102A0939202B0939302A0928402B09290
:104500008502C0928602D0928702009180021091AB
:104510008102C601B5012091880230918902409143
:104520008A0250918B020E94813BD80199966D932B
:104530007D938D939C939C970E94002D88E080939F
:10454000CC060DC010928102109280020E94C928F0
:104550009091580380915703981709F065C8AE965B
:104560000FB6F894DEBF0FBECDBFCF91DF911F9184
:104570000F91FF90EF90DF90CF90BF90AF909F9002
:104580008F907F906F905F904F903F902F90089505
:10459000F999FECF92BD81BD81E08FBB80B50895B2
:1045A000F894F999FECF92BD81BD81E08FBB40B5F3
:1045B0004627842F992787FD9095262F30E0822368
:1045C0009323009739F06F3F19F060BD84E006C077
:1045D00084E104C0442321F060BD84E28FBBF99ADA
:1045E000789408958F929F92AF92BF92CF92DF926C
:1045F000EF92FF920F931F93DF93CF930F92CDB75C
:10460000DEB75C016B017A014A0120E01BC0222366
:1046100041F4332727FD30952227330F221F3327FC
:1046200002C021E030E0F60161916F01260F8C019C
:104630000F5F1F4F29830E94D022089481089108A0
:10464000C80129818114910411F7C7018A0D9B1DAE
:10465000622F0E94D0220F90CF91DF911F910F9176
:10466000FF90EF90DF90CF90BF90AF909F908F9092
:1046700008959F92AF92BF92CF92DF92EF92FF92F6
:104680000F931F93CF93DF936C01EB017A018A01A3
:10469000CB0199241BC05C010894A11CB11C0E9491
:1046A000C822992049F4292D332727FD3095222748
:1046B000330F221F332702C021E030E0982E920EE4
:1046C000F60181936F0101501040C50101151105DC
:1046D00011F7C7018C0F9D1F0E94C82221E030E016
:1046E000981611F020E030E0C901DF91CF911F91C1
:1046F0000F91FF90EF90DF90CF90BF90AF909F9081
:10470000089597E4899FC001112480509D4F46E48D
:1047100050E00E94F2220895BC0180EE93E046E44E
:1047200050E00E94F222089591E1899FC001112476
:1047300080509E4F40E150E00E94F222089580E0B8
:1047400090E067E40E94D02281E090E06DE378E0A1
:104750004EE550E00E94F222089580E090E0A8EC3F
:10476000B3E480933D0890933E08A0933F08B09334
:1047700040088093410890934208A0934308B09367
:1047800044088093450890934608A0934708B09347
:1047900048088093490890934A08A0934B08B09327
:1047A0004C082FE020937D0820E030E04AE754E4F5
:1047B00020934D0830934E0840934F085093500873
:1047C0002093510830935208409353085093540853
:1047D0002093550830935608409357085093580833
:1047E0008093590890935A08A0935B08B0935C0893
:1047F00080E090EAACE0B7E480935D0890935E08B7
:10480000A0935F08B093600880936108909362085A
:10481000A0936308B093640880936508909366083A
:10482000A0936708B093680880E090ECA8EAB6E42B
:104830008093690890936A08A0936B08B0936C0802
:104840008FE692E1A3E0BBE380938508909386080E
:10485000A0938708B093880810927E0810927F0872
:104860008AE097EDA3EABCE38093810890938208E5
:10487000A0938308B093840882E5809389081092FE
:104880008A0880E090E0A0E2B1E480938B089093E6
:104890008C08A0938D08B0938E0880E090E0A0EA89
:1048A000B1E480938F0890939008A0939108B093FF
:1048B00092088AEF90E0909394088093930880E0A8
:1048C00090E0A0E8BFE38093950890939608A093AA
:1048D0009708B093980889E18093800880E090E081
:1048E000A8E4B2EC80936D0890936E08A0936F08D3
:1048F000B09370088093710890937208A093730826
:10490000B09374088093750890937608A093770805
:10491000B09378088093790890937A08A0937B08E5
:10492000B0937C081092990810929A080E949F23D5
:1049300008951F93CF93DF93182FEB0167E4869FB1
:10494000B001112460507D4FCE0146E450E00E943A
:104950003923009739F41882812FBE010E948123E8
:1049600080E001C081E0DF91CF911F910895CF9346
:10497000DF93EC0160EE73E046E450E00E943923DF
:10498000009731F41882CE010E948C2380E001C090
:1049900081E0DF91CF910895FF920F931F93F82E3E
:1049A0008B0121E1829F9001112420503E4FCB01C9
:1049B000B90140E150E00E943923009759F480E1A9
:1049C000D8011D928A95E9F78F2DB8010E94942392
:1049D00080E001C081E01F910F91FF90089580E079
:1049E00090E00E94C822873459F48DE398E061E09A
:1049F00070E04EE550E00E94392321E0009709F471
:104A000020E0822F0895EF92FF920F931F93CF9390
:104A1000DF93EC017A018B01CB01BA0120E030E099
:104A2000A9010E947A3B87FDBFC1C432D10508F0BD
:104A3000BDC1FE01EE58FF4FEE0FFF1F0590F49130
:104A4000E02D1994CC0FDD1FCC0FDD1FC35CD74FB9
:104A5000E882F9820A831B83A3C1E0924D08F09299
:104A60004E0800934F08109350089AC1E0925108E5
:104A7000F0925208009353081093540891C1E092A9
:104A80005508F0925608009357081093580888C1AB
:104A9000E0925908F0925A0800935B0810935C0862
:104AA0007FC1C801B70120E030E040E752E40E9436
:104AB000B83D20E030E040E752E40E94B83D60930A
:104AC0005D0870935E0880935F089093600868C1EA
:104AD000C801B70120E030E040E752E40E94B83D51
:104AE00020E030E040E752E40E94B83D6093610866
:104AF00070936208809363089093640851C1C80161
:104B0000B70120E030E040E752E40E94B83D20E0E9
:104B100030E040E752E40E94B83D6093650870932E
:104B2000660880936708909368083AC1C801B70186
:104B300020E030E040E752E40E94B83D20E030E061
:104B400040E752E40E94B83D6093690870936A0898
:104B500080936B0890936C0823C117FB109517F98D
:104B60001095E0926D08F0926E0800936F08109314
:104B7000700816C117FB109517F91095E09271088F
:104B8000F0927208009373081093740809C117FB20
:104B9000109517F91095E0927508F0927608009339
:104BA000770810937808FCC017FB109517F910953B
:104BB000E0927908F0927A0800937B0810937C08C1
:104BC000EFC0C801B70120E030E040E450E40E94AB
:104BD0007A3B87FDEDC0C801B7010E941B3E0E94D1
:104BE000EE3B60937D08DCC0C801B7010E94863EA1
:104BF0000E94EE3B60937E08D3C0C801B7010E94BB
:104C0000863E0E94EE3B60937F08CAC0C801B70190
:104C10000E941B3E0E94EE3B60938008C1C0E89456
:104C200017F9E0928108F0928208009383081093AC
:104C30008408B6C0E0928508F09286080093870841
:104C400010938808ADC0C801B70120E030E0A90189
:104C50000E947A3B90918908882311F091600EC0E0
:104C60009E7F0CC0C801B70120E030E0A9010E947E
:104C70007A3B90918908882321F09260909389086B
:104C80008FC09D7FFBCFC801B70120E030E0A901B4
:104C90000E947A3B90918908882311F09460EECFAE
:104CA0009B7FECCFC801B70120E030E0A9010E9452
:104CB0007A3B90918908882311F09064DFCF9F7B25
:104CC000DDCFC801B70120E030E0A9010E947A3BA6
:104CD00090918908882321F094FF6CC09062CECF18
:104CE0009F7DCCCFC801B70120E030E0A9010E9430
:104CF0007A3B90918908882311F0986001C0977FD2
:104D0000909389080E94222E4BC0C801B70120E071
:104D100030E0A9010E947A3B90918908882311F024
:104D20009061ACCF9F7CAACFC801B7010E94863E9C
:104D30000E94EE3B60938A0833C0E0928B08F092A9
:104D40008C0800938D0810938E082AC0E0928F087B
:104D5000F0929008009391081093920821C0C80126
:104D6000B7010E941B3E0E94EE3B70939408609333
:104D7000930816C0E0929508F09296080093970861
:104D8000109398080DC0C801B7010E94EE3B6093D4
:104D9000990806C0C801B7010E94EE3B60939A08CB
:104DA0000E949F2380E007C084E005C083E003C029
:104DB00086E001C08AE0DF91CF911F910F91FF90B3
:104DC000EF900895FF920F931F93DF93CF93CDB78A
:104DD000DEB760970FB6F894DEBF0FBECDBF0E945E
:104DE000EF24882339F487E00E9420330E94AD230A
:104DF0000E94DC33FF248E010F5F1F4F8F2DB801FF
:104E00000E94CC24882319F487E00E942033F39475
:104E10008F2D883099F760960FB6F894DEBF0FBEDD
:104E2000CDBFCF91DF911F910F91FF9008952F92E9
:104E30003F924F925F926F927F928F929F92AF922A
:104E4000BF92CF92DF92EF92FF920F931F93DF9367
:104E5000CF9300D0CDB7DEB710918803112309F4AA
:104E600010E11150C09087031C1509F46BC1A12EED
:104E7000BB2481E390E0A89E7001A99EF00CB89E2F
:104E8000F00C112449E853E0E40EF51EF701799681
:104E9000D70159969C90599761808280738095962E
:104EA0002D913D914D915C919897CA01B9010E9455
:104EB000A13AF70121A532A543A554A50E94B83D0A
:104EC000E62E072FF82ED92E692D762D882D972DB9
:104ED0002E2D302F4F2D5D2D0E947A3B87FF04C071
:104EE000E92C062DF82CD72C81E390E0A89EF00148
:104EF000A99EF00DB89EF00D1124E757FC4F8E2DA2
:104F0000902FAF2DBD2D858B968BA78BB08F112346
:104F100009F410E111501C1589F081E390E0A89E7E
:104F20007001A99EF00CB89EF00C112449E853E0E2
:104F3000E40EF51E91E3492E512C70C0809186033A
:104F4000C81609F070C00E94D71A6DC0C12EDD24AA
:104F5000C49C3001C59C700CD49C700C112489E851
:104F600093E0680E791E112309F410E1115080912D
:104F70008603181711F40E94D71AC49C1001C59C0F
:104F8000300CD49C300C1124A9E8B3E02A0E3B1E4F
:104F9000F101A18CB28CC38CD48C65897689878908
:104FA000908DA60195010E947A3B8823B1F1D10131
:104FB00095962D913D914D915C919897CA01B901BB
:104FC0000E94A13AF10121A532A543A554A50E9452
:104FD000B83DD70155962D913D914D915C915897D3
:104FE0000E94A13A062FF72EE82E992EA6019501D0
:104FF0000E947A3B87FF0AC0802F9F2DAE2DB92DCE
:10500000F101858B968BA78BB08F07C0D101559688
:10501000AD92BD92CD92DC92589773018091870337
:10502000181709F093CF00918703202F30E081E318
:1050300090E0289FF001299FF00D389FF00D11247A
:10504000E757FC4FFB83EA83102F1F5F103109F4F1
:1050500010E0F0918803F98381E3282E312C6CC095
:10506000412E5524429C7001439CF00C529CF00C44
:10507000112449E853E0E40EF51EAA81BB81559640
:10508000AD90BD90CD90DC905897F70165887688FB
:105090008788908CC601B501A40193010E947A3BD8
:1050A00087FF2EC0AA81BB8195962D913D914D9190
:1050B0005C919897CA01B9010E94A13AEA81FB81EB
:1050C00021A532A543A554A50E94B83D9B01AC0182
:1050D000C601B5010E94A13AD62EA72EC82EB92E20
:1050E000A40193010E947A3B87FF0AC08D2D9A2D5F
:1050F000AC2DBB2DF701858B968BA78BB08F012F25
:10510000429CF001439CF00D529CF00D1124E75796
:10511000FC4F658976898789908D218D328D438DED
:10512000548D0E947A3B882309F4012F1F5F1031B0
:1051300009F410E0FB82EA82F9811F1709F090CF91
:10514000009387030F900F900F90CF91DF911F91E5
:105150000F91FF90EF90DF90CF90BF90AF909F9016
:105160008F907F906F905F904F903F902F90089519
:1051700084E2E9E9F6E0DF011D928A95E9F71092F1
:1051800086031092880381E08093BD061092870306
:1051900008959091860380918803891769F0892F7B
:1051A0008F5F803109F480E020918703921711F41A
:1051B00080938703809386030895409186038091AE
:1051C0008803841769F050E081E390E0489F9001E4
:1051D000499F300D589F300D112427573C4F02C076
:1051E00020E030E0C9010895209186032F5F20312F
:1051F00009F420E080918803281799F030E081E3DA
:1052000090E0289FF001299FF00D389FF00D1124A8
:10521000E757FC4F658976898789908D0E94453EC6
:1052200004C060E070E080E090E0089581E02091AB
:1052300086039091BD06291380E008952F923F9236
:105240004F925F926F927F928F929F92AF92BF9296
:10525000CF92DF92EF92FF920F931F93DF93CF9342
:10526000CDB7DEB7E9970FB6F894DEBF0FBECDBF5E
:10527000942E852E672E29AB670178012091880333
:10528000422F50E05AA349A321E330E0429F80011E
:10529000439F100D529F100D1124F801E757FC4F4A
:1052A000118A128A138A148A20E030E0A90121A70A
:1052B00032A743A754A7108229E936E746E95EE7FB
:1052C00025A336A347A350A7C5A6D6A6E7A6F0AA4E
:1052D000282F392F38A72FA38DE398E09EA38DA305
:1052E0009E012F5F3F4F3AA729A749E956E05CA7E7
:1052F0004BA706571C4FCE0141969CA38BA39EA79C
:105300008DA755245F017196F8ABEFA779E2272EA0
:10531000312C2A0C3B1C9AAA8BAA6CAB462CEFA111
:10532000F8A56191719181919191F8A7EFA3EDA1F9
:10533000FEA16190719081909190FEA3EDA3A401D4
:1053400093010E94B83D0E94883D9B01AC01E9A5F4
:10535000FAA52193319341935193FAA7E9A7EBA5BD
:10536000FCA581919191A191B191FCA7EBA7281B7C
:10537000390B4A0B5B0BDA01C90157FF07C08827BD
:105380009927DC01821B930BA40BB50BF8018083DA
:105390009183A283B3830C5F1F4FEFA5F8A9C08050
:1053A000D180E280F3808C159D05AE05BF0510F419
:1053B000D701C601EFA5F8A980839183A283B383A7
:1053C000CA01B9010E941C3CA40193010E94813BC7
:1053D000F62EE72ED82EC92E862F9E2DAD2DBC2D54
:1053E000EDA5FEA581939193A193B193FEA7EDA79F
:1053F000A7019601652F742F832F922F20E030E0B4
:10540000A9010E947A3B87FF08C0F5019080852D95
:105410000E94CA2D8929F5018083A7019601652F75
:105420007E2D832F9C2DD701F6012B2F3E2D4F2F44
:105430005C2D0E94B83DF101208131814281538170
:105440000E94A13A262F372F482F592FF101208390
:105450003183428353835394F52DF43009F05FCFA9
:105460009AA88BA87CA8642C0E94453E7B018C01E5
:10547000F1016083718382839383F501818992892D
:10548000A389B4890097A105B10571F40F920F9219
:1054900086E092E0EDB7FEB7928381830E94D33E0F
:1054A000F09A0F900F9052C2A4019301652F742FB0
:1054B000832F922F20E030E0A9010E947A3B87FDE4
:1054C00012C0F9A9FF23B9F0C801B701D401F30153
:1054D0002B2F3A2F4F2F5E2F0E94813B962E872E27
:1054E000782E692E08C069E9962E56E7852E46E982
:1054F000742E3EE7632E60E070E080E89FE3A80131
:1055000097010E94813B6CAB7DAB8EAB9FAB29EAD0
:1055100036E03EA32DA32DE4A22E28E0B22EAE014C
:105520004F5D5F4F59AF48AF1FA219A61BA61DA61E
:1055300081E390E0E9A1FAA1E89F8001E99F100DC5
:10554000F89F100D112402551C4FEBA1FCA1C08047
:10555000D180E280F380C701B60120E030E0A901EC
:105560000E947A3B882309F49EC0C701B601BCA9FA
:10557000ADA9FEA9EFA92B2F3A2F4F2F5E2F0E9426
:10558000B83D562E79AB8AAB9BAB472F382F292FCE
:10559000862F942FA32FB22FEBA1FCA180839183A0
:1055A000A283B38360E070E080E89FE3F901252DDA
:1055B000342F4F2F5E2F0E94813B6B017C01E894BA
:1055C000F7F8C701B601F50120813181428153818D
:1055D0000E94B83D462E372E282E9FA7A401930186
:1055E000652F782D832F962DEFA5242D332D422D59
:1055F0005E2F0E947A3B87FF04C0492C382C272C51
:105600006FA6F8019080818072806380C701B60127
:10561000F50120893189428953890E94B83DF62ECF
:10562000E72ED82EC92EA4019301652F742F832F46
:10563000922FD701F6012B2F3A2F4F2F5E2F0E946A
:105640007A3B87FF02C074016301A7019601852F91
:105650009E2DA32FBC2DF80180839183A283B38359
:1056600049A93AA92BA9652D742F832F922FEDA15B
:10567000FEA120813181428153810E94B83D9B016E
:10568000AC01BFA1A9A5FBA5EDA56B2F7A2F8F2F8C
:105690009E2F0E94A03A6FA379A78BA79DA7942C59
:1056A000832C722C6FA42BA13CA12C5F3F4F3CA3F9
:1056B0002BA34DA15EA14C5F5F4F5EA34DA384E081
:1056C00090E0A80EB91EE8ADF9AD2E173F0709F01E
:1056D0003CCF90918803809186039817A9F481E3C9
:1056E00090E029A13AA1289FF001299FF00D389F51
:1056F000F00D1124E757FC4F80E090E0DC01858B32
:10570000968BA78BB08F67C060E070E080E89FE366
:10571000BFA1A9A5FBA5EDA52B2F3A2F4F2F5E2FDB
:105720000E94A03A20E030E040E05FE30E94B83DF4
:105730000E94453E7B018C0181E390E049A15AA182
:10574000489FF001499FF00D589FF00D1124E75735
:10575000FC4F65A176A187A190A520918108309189
:10576000820840918308509184080E94B83DA801A6
:1057700097010E94B83D5B016C0160E070E080E839
:105780009FE3A80197010E94A03A9B01AC01C601CA
:10579000B5010E94813B7B018C017F2D912F20E080
:1057A00030E0A9010E947A3B87FF04C0EE24FF2469
:1057B00000E010E081E390E029A13AA1289FF001E8
:1057C000299FF00D389FF00D1124E757FC4F8E2DC7
:1057D0009F2DA02FB12F858F968FA78FB0A3A401E7
:1057E0009301652F782D832F962DD401F3012B2F54
:1057F000382D4F2F562D0E94B83D7B01082FD92EF2
:1058000081E390E049A15AA1489FF001499FF00D22
:10581000589FF00D1124E757FC4F8E2D9F2DA02F80
:10582000BD2D81A392A3A3A3B4A3DF015D96C58C74
:1058300011961C9111971296BC9012971396AC90EA
:105840009090B9068090BA067090BB066090BC0636
:10585000552453946E2D7F2D802F9D2DD401F3015F
:105860002B2F3A2F4F2F5E2F0E947A3B87FD04C0CB
:105870005524A401930104C05E2D4F2D302F2D2DF2
:10588000F5016C2D712F8F2F9A2DE52FF42FA32F5B
:10589000B22F9F01AD010E947A3B87FD0AC05520BF
:1058A00029F0CE2C1F2DB02EAD2C03C0C92C182DE5
:1058B000530181E390E029A13AA1289FF001299F9B
:1058C000F00D389FF00D1124E757FC4F95018C2DFA
:1058D000912FA32FBA2D818F928FA38FB48FA9EA16
:1058E000B6E0FE01719680E101900D928150E1F7E2
:1058F00081E390E049A15AA1489FF001499FF00D32
:10590000589FF00D1124E757FC4F81A192A1A3A14C
:10591000B4A18093B9069093BA06A093BB06B09346
:10592000BC06A9E9B6E0FE01319680E101900D9236
:105930008150E1F78091BD06809388038F5F8031AD
:1059400009F480E08093BD060E941727E9960FB600
:10595000F894DEBF0FBECDBFCF91DF911F910F91A5
:10596000FF90EF90DF90CF90BF90AF909F908F907F
:105970007F906F905F904F903F902F90089580910F
:10598000CE069091CF06A091D006B091D10680931B
:10599000990690939A06A0939B06B0939C068091DB
:1059A000D2069091D306A091D406B091D5068093EB
:1059B0009D0690939E06A0939F06B093A0068091AB
:1059C000D6069091D706A091D806B091D9068093BB
:1059D000A1069093A206A093A306B093A40680917B
:1059E000DA069091DB06A091DC06B091DD0680938B
:1059F000A5069093A606A093A706B093A8060895BF
:105A00000E94D71A80918603809387030E941727EC
:105A100008956F927F928F929F92AF92BF92CF9292
:105A2000DF92EF92FF920F931F93CF93DF933C018E
:105A30004B015A01FB018081F301E80FF11DEF01D9
:105A400029912D3221F42181219601E005C02B32CC
:105A500011F42181219600E0F0E0E0E010E060E048
:105A600070E0CB01A22FA053AA30F8F4EF5FE93029
:105A7000C0F4F11111509B01AC01B2E0220F331FB1
:105A8000441F551FBA95D1F7620F731F841F951FCE
:105A9000660F771F881F991F6A0F711D811D911D49
:105AA00009C0FF2339F41F5F05C0AE3F29F4FF236F
:105AB00019F4F1E02991D6CFEE2309F450C00E94E9
:105AC0001A3CC62ED72EE82EF92E20E030E0A90190
:105AD0000E947A3B882371F431C0C701B6012AE0E5
